:100000000C94DB040C9422050C9422050C9422051C
:100010000C9422050C9422050C9422050C942205C4
:100020000C9422050C9422050C94A7260C946326AC
:100030000C94A4270C9422050C9422050C94220500
:100040000C9422050C9422050C9422050C94220594
:100050000C9422050C9480270C9422050C94220504
:100060000C9422050C9422050C9422050C94220574
:100070000C9422050C9422050C9422050C94220564
:100080000C9422050C9422050C9422050C94220554
:100090000C9422050C9422050C9422050C94220544
:1000A0000C9422050C9422050C94220505010902EA
:1000B000A10185020901A100050919012905150001
:1000C00025019505750181029501750381010501E1
:1000D000093009311581257F950275088106093897
:1000E0001581257F950175088106050C0A380215D2
:1000F00081257F950175088106C0C005010980A191
:1001000001850319012AB700150126B7009501756D
:10011000108100C0050C0901A101850419012AA064
:1001200002150126A002950175108100C005010984
:1001300006A1018506050719E029E71500250195A7
:1001400008750181020507190029EF1500250195A1
:10015000F0750181020508190129059505750191C0
:1001600002950175039101C00660FF0961A10109B3
:1001700062150026FF0095207508810209631500AD
:1001800026FF00952075089102C005010906A1010E
:10019000050719E029E71500250195087501810279
:1001A0009501750881010507190029FF150026FF33
:1001B0000095067508810005081901290595057542
:1001C000019102950175039101C00000000000003B
:1001D000000000000000000000000000000000001F
:1001E00000000000000000000000000000007E0F82
:1001F00000D4FFFFFFC700000078000000000000EF
:1002000000002A2B28000000000000000000000071
:10021000000000000029000000002C1E34202122D4
:1002200024342627252E362D3738271E1F2021223D
:10023000232425263333362E37381F0405060708B6
:10024000090A0B0C0D0E0F101112131415161718A6
:10025000191A1B1C1D2F3130232D350405060708E4
:10026000090A0B0C0D0E0F10111213141516171886
:10027000191A1B1C1D2F3130354C00047F3F1F64A1
:100280003214643214783C1E1E140A05FD377A5865
:100290005A000004E6D6B446020021011600000010
:1002A000742FE5A3E0058701DF5D003D8889C65412
:1002B00036C3174FE4E62BDA22993703C8D5A2F4E8
:1002C0003FD41CC605B5D55EED4DAE60A7F74E9D7B
:1002D000730CD4A5ED7211F3A1C081C656FC5D82EA
:1002E000260720CC1EC20AB6FCA839FD3E614EEAA4
:1002F000F933F72507958F5E370409A04AFA3D5F69
:100300005A9D6A204367592262C0BE5F1E15FB2AB0
:1003100072FE1746709069294F6193AA768945AE9F
:100320000F59BF992EBAF92DBDEA532CA85812F5D2
:100330003AAB50787002F76050D50632BC016E4778
:100340009286F7C2E1723D779AAC01957CBBA630EC
:100350005BA5AC4EE15C0DDE12BC393BE12BD587D1
:100360003EF1282F3BB0F62822608B6C9354630833
:100370009D3A9485802A8A703A4828F41B410DEAF8
:10038000D2E3E5C8B91A7ECB4364703F620E47B131
:100390003AFF721D0F571E6C489A3C5DA49DC42203
:1003A00013FE5F0D636F5D9BE482B2133F3538210E
:1003B000DA0DB43318E4B7B8A420D71A058BE89C3B
:1003C00052D40F8C5313FE28DFB9F20EB2D555B8B4
:1003D000DD696DC5B428A5AE1839F87D0A7D1B25E9
:1003E000871BECEF9E9616D595A22533584DE21843
:1003F000BC139D1F18F27BE992AC1F3D952682C06D
:10040000BC991E21E52EB3344E1388C907B0702164
:100410007D8C06D6ABCB4C85249BF27472193F7F42
:10042000EA5DB27AEE425E14D2868EB863F7E5EDED
:100430003268B21D9C9F9AFDBCE74DCC18D9DBDB1E
:10044000515CB18F16965F795BB81C5C436FCE78B8
:1004500064B124B0BA234E7E40A3B33D67E3028566
:10046000B66D15136C5222A49FDA8EF21EBE1D6566
:1004700013CD85C34B74EA9385E8041979A9448F99
:10048000BFBB54A582108BA8D3D50000CBA7577F44
:1004900054CD5B280001FB03880B0000E23618DF17
:1004A000B1C467FB020000000004595A00010101B9
:1004B0000101010101010202020202020202020321
:1004C00003030303030303040404040404040505F1
:1004D00005050506060606060707070707080808B4
:1004E00008090909090A0A0A0B0B0B0C0C0C0D0D63
:1004F0000D0E0E0E0F0F0F101011111112121313FB
:100500001414151516161717181819191A1A1B1B73
:100510001C1D1D1E1E1F20202122222324242526CF
:1005200026272829292A2B2C2D2D2E2F3031323207
:10053000333435363738393A3B3C3D3E3F40414213
:10054000434445464748494A4C4D4E4F50515354F9
:10055000555658595A5B5D5E5F61626465666869AD
:100560006B6C6D6F7072737577787A7B7D7E80822D
:10057000838587888A8C8E8F91939596989A9C9E76
:10058000A0A2A3A5A7A9ABADAFB1B3B5B7BABCBE86
:10059000C0C2C4C6C9CBCDCFD1D4D6D8DBDDDFE253
:1005A000E4E7E9EBEEF0F3F5F8FAFDFFFFAA7F557B
:1005B000402223252628292A2C2D2F303233353668
:1005C000383A3B3D3E4042434547494A4C4E5051E4
:1005D000535557595A5C5E6062646668696B6D6F0B
:1005E00071737577797B7D7F81838587898A8C8E0E
:1005F00090929496989A9C9E9FA1A3A5A7A8AAAC16
:10060000AEAFB1B3B4B6B8B9BBBCBEBFC1C2C3C54F
:10061000C6C7C9CACBCCCDCED0D1D2D2D3D4D5D6F1
:10062000D7D7D8D9D9DADADBDBDBDCDCDCDCDCDD24
:10063000DDDDDDDCDCDCDCDCDBDBDBDADAD9D9D808
:10064000D7D7D6D5D4D3D2D2D1D0CECDCCCBCAC9A0
:10065000C7C6C5C3C2C1BFBEBCBBB9B8B6B4B3B1CF
:10066000AFAEACAAA8A7A5A3A19F9E9C9A9896946A
:1006700092908E8C8A89878583817F7D7B7977753F
:1006800073716F6D6B6968666462605E5C5A59571E
:10069000555351504E4C4A4947454342403E3D3BDD
:1006A0003A3836353332302F2D2C2A292826252367
:1006B00022290035001E001F0020002100220023F7
:1006C0000024002500260027002D002E002A004BC4
:1006D000002B0014001A000800150017001C001859
:1006E000000C00120013002F00300031004E0039C2
:1006F0000004001600070009000A000B000D000EA0
:10070000000F003300340028000000E1001D001B32
:100710000006001900050005001100100036003722
:100720000038005200E5000000E000E300E20000B5
:10073000002C002C000000000000000151000050BF
:100740000051004F000000010001003A003B003C56
:10075000003D003E003F0040004100420043004495
:10076000004500005C01000100C25CC35CC45CC5C4
:100770005CC65CC75CC85CC95CCA5C460047004894
:100780000001000100010001000100010001000161
:1007900000010001000100010049004A00010000C1
:1007A0000001000100010001000100010001000141
:1007B00000010001004C004D00010001000000019B
:1007C0000001000100000001000100000000000025
:1007D0000001000000010001000100000001000113
:1007E0000001000100010001000100010001000101
:1007F00000010001000100010001000100010001F1
:1008000000010001000100010001000100010001E0
:1008100000010001000100010001000100010001D0
:1008200000010001000100010001000100010001C0
:1008300000010001000000010001000100010001B1
:1008400000010001000100010001000100010001A0
:100850000001000000010001000100000001000192
:100860000000000000000001000000010001000184
:100870000000000100010001000100010001000171
:100880000001000100010001000100010001000160
:100890000001000100010001000100010001000150
:1008A0000001000100010001000100010001000140
:1008B0000001000100010001000100010001000130
:1008C0000001000100010001000100000001000121
:1008D0000001000100010001000100010001000110
:1008E0000001000100010001000000010001000101
:1008F00000000001000100000000000000010000F5
:1009000000010001000100000009025B000301007A
:10091000A0FA0904000001030101000921110100EE
:10092000012240000705810308000A0904010002B2
:1009300003000000092111010001222200070582A5
:100940000320000107050303200001090402000140
:100950000300000009211101000122BC00070584E9
:100960000320000A1201000200000008534F5053F8
:100970000100010203011C037600690061006C00A4
:100980003A00660036003400630032006200330033
:10099000630000000E0353007000720069006E00D7
:1009A000670000000C034F0077004C0061006200FC
:1009B00000000403090411241FBECFEFDAE0DEBFFC
:1009C000CDBF04B603FE27C0809197039091980392
:1009D000A0919903B0919A038730904BA740B04BF8
:1009E000D1F41092970310929803109299031092E9
:1009F0009A0314BE84B7877F84BF0FB6F894A89576
:100A000080916000886180936000109260000FBE4A
:100A1000E0E0F8E3099511E0A0E0B1E0E4E3FFE5F0
:100A200002C005900D92A03AB107D9F723E0A0EAE1
:100A3000B1E001C01D92A739B207E1F70E94CB27B0
:100A40000C94662F0C940000E8EDF0E080818E7F1E
:100A500080831092E2001092DA001092E100A0EE82
:100A6000B0E08C9181608C9380818F77808319BCFA
:100A7000A7EDB0E08C918E7F8C9380818F7E8083F8
:100A80001092640308952091E4003091E50095E60A
:100A9000A9012091EC00822F817020FF06C0809177
:100AA000E80080FF06C080E008952091E80022FD64
:100AB0001AC080918903882389F0853089F080915C
:100AC000EB0085FD0FC02091E4003091E500421756
:100AD0005307F9F29150E1F684E0089582E0089519
:100AE00083E0089581E00895EF92FF920F931F93A2
:100AF000CF937C018B010E944305C82F811117C041
:100B00008091E80085FD0BC08091E8008E7780938E
:100B1000E8000E944305882399F3C82F08C0F70115
:100B200081917F018093F1000150110949F78C2FC9
:100B3000CF911F910F91FF90EF90089580918B03BB
:100B400087FF13C08091E80082FF06C08091E80013
:100B50008B778093E80004C0809189038111F2CFE4
:100B60000895809189038823D9F38091E80080FF5C
:100B7000F8CF8091E8008E77ECCF982F9093E90022
:100B8000242F762F50E0891731F07091EC002091DE
:100B9000ED005091F00021FD07C09F5F973071F785
:100BA0008093E90081E008953091EB003E7F30931F
:100BB000EB003091ED003D7F3093ED003091EB0084
:100BC00031603093EB007093EC002093ED00509374
:100BD000F0002091EE0027FDE0CF80E00895CF9255
:100BE000DF92EF92FF920F931F93CF93DF93C8EDA5
:100BF000D0E088818F7E8883E7EDF0E0808181609E
:100C0000808384E082BF81E08093640388818E7F4B
:100C1000888302EE10E0F80110821092DA0081EE73
:100C2000C82ED12CF601108288818F778883888125
:100C30008068888388818F7D888319BC109289039E
:100C400010928A03109288031092870390EEE92E87
:100C5000F12CF70180818B7F80838881816088837C
:100C600042E060E080E00E94BD05F60180818E7F59
:100C70008083F801808181608083808188608083A7
:100C8000F70180818E7F8083888180618883DF91F6
:100C9000CF911F910F91FF90EF90DF90CF9008952B
:100CA000FC01809191039091920386179707A0F021
:100CB0006115710529F49091E8009E779093E80002
:100CC00090E06115710551F4911108C08091E80020
:100CD00082FF34C080E00895BC01F2CF8091890387
:100CE0008823C1F18530C1F18091E80083FD30C0D7
:100CF0008091E80082FDEACF8091E80080FFE1CF9B
:100D00008091F3002091F200382F6115710519F0E0
:100D10002830310558F091E02830310509F090E095
:100D20002091E8002E772093E800CBCF819180932B
:100D3000F100615071092F5F3F4FE7CF8091890328
:100D4000882341F0853041F08091E80083FFBECFD9
:100D500081E0089582E0089583E0089508958091E8
:100D6000660308959C014FB7F89480915B039091BE
:100D70005C03A0915D03B0915E034FBF821B930B98
:100D800008952FB7F89480915B0390915C03A09134
:100D90005D03B0915E032FBF089520911E012223B1
:100DA000C9F020915F0327FF15C0E62FE695E69571
:100DB000E695EE31D8F4E80FF92FF11D677021E0C8
:100DC00030E001C0220F6A95EAF72095828128233E
:100DD00022830895FC01329608962191621303C084
:100DE000DF0111971C92E817F907B9F708952091D0
:100DF0001E012223C1F020915F0327FF14C0E62FBC
:100E0000E695E695E695EE31F8F4E80FF92FF11D39
:100E1000677021E030E001C0220F6A95EAF7828115
:100E2000822B82830895FC0132962FEF30E04191AE
:100E3000641751F02F3F19F4411101C0232F3F5F78
:100E40003630A9F72F3F09F40895820F911D27FD31
:100E50009A95FC01628308952091580330915903BB
:100E60002817390771F09093590380935803E09144
:100E70005603F0915703309721F00084F185E02D5F
:100E80000994089520915403309155032817390788
:100E900071F09093550380935403E0915603F091C1
:100EA0005703309721F00680F781E02D09940895CB
:100EB000E0915603F0915703309721F00190F081B3
:100EC000E02D099480E00895FA01811101C0FB0131
:100ED0000994089580916D0280FF02C0869508955F
:100EE00080E0089580916D02982F9E7F29F4817093
:100EF000826080936D0208958A34E8F3817088647B
:100F0000F8CFBF92CF92DF92EF92FF920F931F9391
:100F1000CF93DF93D82EC62EE42FF0E0E455FB4F9D
:100F2000611114C0E491BE2E8E2FD901EC9311965D
:100F30008C9311971296BC92DF91CF911F910F91D4
:100F4000FF90EF90DF90CF90BF900895062F10E0B4
:100F5000E491FE2FEE2EF12C46E0849FC001112477
:100F6000CFEFD0E0BE010E94542E8D2D90E0880F6F
:100F7000991FA5E5A69FA001A79F500D1124841BD2
:100F8000950B982F990F890FDE01A01BB10BAE9D19
:100F9000A001AF9D500DBE9D500D1124B52EC89ED1
:100FA00060011124CD2CDD24DE01AC19BD096D01D9
:100FB000CE9CD001CF9CB00DDE9CB00D11246E01F3
:100FC000C81AD108C09EC001C19E900DD09E900D40
:100FD0001124892F9927C81BD90BCE9D8001CF9D45
:100FE000100DDE9D100D1124812F62307105A1F0CE
:100FF00050F46115710509F498CF6130710581F0E5
:10100000852FBB2E92CF6430710569F080F0663079
:10101000710509F48ACFF4CFE52FB12E8F2F85CF3C
:101020008E2FEB2F82CFE12F852FBF2E7ECF8B2FE0
:10103000E52FFBCF0E94C1069C0190915E0280913A
:101040005F02982B21F030935B0220935A0290911B
:10105000600280916102982B21F030935902209315
:101060005802E0915603F0915703309749F082E01F
:1010700080935C020480F581E02D8CE592E0099478
:10108000089590915E02803F59F480915F0287FF3E
:101090000DC010925F0291110BC01092560208C051
:1010A000813F81F480915F0218169CF3992381F0AF
:1010B0008091600290916102892B09F064C01092C6
:1010C00055020895823F49F497FFF0CF10925E02D7
:1010D00080915F028111ECCFE0CF833F19F41916A4
:1010E000ACF3E4CF20916002893F29F41216F4F6A4
:1010F00010926002DBCF8A3F19F427FFD7CFF8CFD9
:10110000209161028B3F29F427FFD0CF109261021A
:10111000CDCF8C3F19F41216CCF3C8CF843F31F4F5
:1011200080915D028E7F80935D02C0CF853F21F468
:1011300080915D028D7FF7CF863F21F480915D0223
:101140008B7FF1CF873F21F480915D02877FEBCFCA
:10115000883F21F480915D028F7EE5CF8D3F31F491
:10116000809157028E7F80935702A0CF8E3F21F44B
:10117000809157028D7FF7CF8F3F09F097CF8091F5
:1011800057028B7FF0CF08958091570280FD16C0E3
:1011900081FD16C082FD16C0809155028823A1F002
:1011A000883280F428E0829FC001112468E270E058
:1011B0000E94682E862F672B39F0089582E00895EB
:1011C00084E0089588E0089581E0089580915702B1
:1011D00080FD14C081FD14C082FD16C080915602AE
:1011E000882381F0843180F422E3829FC00111249E
:1011F00064E170E00E94682E862F08958CE00895C7
:1012000089E1089585E0089582E30895803F31F4EF
:101210000E94E608819580935F020895813F19F44A
:101220000E94E608F8CF823F31F40E94E6088195DB
:1012300080935E020895833F19F40E94E608F8CF78
:10124000893F29F40E94C4088093600208958A3F70
:1012500021F40E94C4088195F7CF8B3F31F40E949E
:10126000C40881958093610208958C3F19F40E940F
:10127000C408F8CF843F31F480915D02816080938F
:101280005D020895853F21F480915D028260F7CF71
:10129000863F21F480915D028460F1CF873F21F485
:1012A00080915D028860EBCF883F21F480915D02E0
:1012B0008061E5CF8D3F31F480915702816080934A
:1012C000570208958E3F21F4809157028260F7CF34
:1012D0008F3FB9F7809157028460F1CF80E0089585
:1012E000F894E82FE295EF70F0E031A1282F2F70ED
:1012F00081E090E001C0880F2A95EAF7982F909539
:10130000932391A392A1892B82A37894089590911D
:101310005F0392FF06C0282F28712830F9F4877FD9
:10132000846093FF06C0282F28712831F1F4877E4E
:1013300084612091600320FF06C0382F3871383057
:10134000D9F4877F816021FF06C0282F28712831BA
:10135000D1F4877E816194FD877E0895282F2471C2
:101360002430F9F68B7F8860DCCF282F247124315C
:1013700001F78B7E8861DDCF382F3171313019F75D
:101380008E7F8860E0CF282F2171213121F78E7E5A
:101390008861E1CFCF93DF93EC0182389105A9F109
:1013A000D8F58133910509F496C048F58932910545
:1013B00009F48AC08A9709F495C0C11521E5D207BE
:1013C00008F0BCC0C11530E5D30708F014C1C83E11
:1013D000D10508F09CC0C03ED10560F5C83AD105E2
:1013E00008F087C0C53AD10508F0FDC0C130D1056D
:1013F00009F12097F9F0C430D105E0F440C08533FD
:10140000910509F45AC0C997C1F680915F038370B2
:1014100089F0C0EED0E00EC0833E910599F170F4E2
:10142000803E910501F1823E910539F680915F037E
:1014300082FD21C0CE01DF91CF910895863E9105B6
:1014400061F1873E910571F1843E910509F0B5CFB8
:101450008091600381FFEECF80915F03C7EED0E003
:1014600084FD0DC0E7CF80915F0380FD12C1909194
:10147000600390FFDFCFC3EED0E084FFDBCFD0E08E
:10148000C0E0D8CF80915F0382FD06C190916003D8
:1014900090FDBFCF84FFCECFF2CF80915F0383FD5D
:1014A000DDCFC8CF80915F0383FDF9C090916003C9
:1014B00091FFF0CFC4EED0E0BDCF80915F0385FFF8
:1014C000B9CFC9E2D0E0B6CF80915F0385FFB2CF3C
:1014D000C5E3D0E0AFCF80915F0386FFABCFCAE218
:1014E000D0E0A8CF80915F0386FFA4CFC1E3D0E016
:1014F000A1CFCF3BD10518F6C85AD0E0CC0FDD1FE5
:10150000C65DDE4F0990D881C02DD46493CFC1153C
:1015100040E2D40758F4C11581E0D80708F08ACF1B
:10152000C03FD10508F4ABCFD06584CFC11590E49E
:10153000D90708F4A4CFDF70D06A7CCFC11525E5A8
:10154000D20700F5C11534E5D30708F08AC0C115EC
:1015500043E5D40708F071C0C11582E5D80708F447
:1015600067C0CE018370992721E030E002C0220FCE
:10157000331F8A95E2F7C695C69580E2C89FE001C1
:10158000112452C0C11599E5D907A8F4C11528E561
:10159000D20708F06BC0C11536E5D30708F06FCF4E
:1015A0008C2F0E948709C82FD0E0DC2FCC27CC27B6
:1015B000DF71D0623FCFC1154AE5D40708F45BC0A4
:1015C000CE0190568115904208F059CF8D2F8F7122
:1015D0000E94870990E0982F882788279F719C0197
:1015E0002C2BE901E6CFC55AD0E0C95DDE4FC8819A
:1015F000D0E0D0641FCFCE01E4E096958795EA95C0
:10160000E1F783702C2F26952695237040E2249FC6
:1016100090011124382B8C2F8370C1E0D0E002C0E0
:10162000CC0FDD1F8A95E2F7C22BD32BDC6802CFEB
:10163000DC2FCC27C16FD06AFDCECE0183709927F5
:1016400021E030E002C0220F331F8A95E2F7C695F1
:10165000C69590E2C99FE0011124C22BD32BDA6812
:10166000E9CEDC2FCC27C46FD06AE4CEDC2FCC27A8
:10167000C06FD06ADFCE8C2F8F700E94870934E054
:10168000D695C7953A95E1F7CF709C2FEC01D069BC
:10169000D1CEC9E3D0E0CECEC2EED0E0CBCEC6EE06
:1016A000D0E0C8CE80912302882331F0109223022B
:1016B0001092220210922102089580959091A10229
:1016C00098239093A102089580959091A002982369
:1016D0009093A00208958091A0029091A102892B7D
:1016E00090912002892B8093A2018091230288236C
:1016F00029F10E94C1062091210230912202821B11
:10170000930B8838934110F00E94520B8091A201F4
:1017100090912302892B8093A20180911E0188233E
:1017200041F180915F0387FF24C08EE1E4EAF1E09C
:1017300090E0815000F591110E94520BE091560308
:10174000F09157033097E1F080911E01882359F002
:1017500080915F0387FF07C08091A2018093A3015E
:1017600086E08093A2010280F381E02D82EA91E07D
:10177000099486E0DBCF21912223D9F29F5FD9CF54
:101780000895EF92FF920F931F93CF93DF93EC0195
:101790008A85811134C0EB80FC8087E5F81A26E148
:1017A0002E9DC0012F9D900D1124DC01AC55BD4F25
:1017B0001496ED91FC911597309731F054966D91F8
:1017C0007C9186559D4F099586E18E9D80018F9D68
:1017D000100D11240C551D4FF80187810E94640BD8
:1017E000F80180850E945D0B0E946B0B18821986A0
:1017F0001B861E821D821092A3021092A202DF910C
:10180000CF911F910F91FF90EF900895CF93DF93A9
:10181000EC01898981111BC081E0898B8091A00234
:101820009F81892B8093A0028091A1029885892BAA
:101830008093A1020E946B0BEA81FB81309739F003
:101840006C897D89CE010696DF91CF910994DF9155
:10185000CF91089510921F0210921E0210921D0245
:10186000089580911C02811110921C0208958091AC
:101870001B029091EA01981301C008958F5F877051
:10188000FACF9E3F49F1E82F2FE0929FE00D1124FF
:101890009E2F9770E695E695E69583E0E89FF00128
:1018A0001124EA53FE4F50E040E080E0219130E007
:1018B000092E02C0369527950A94E2F72170332746
:1018C000042E01C0220F0A94EAF7822B4F5F5F4F6C
:1018D0004330510559F7089580E008959E3F69F11E
:1018E000E82F2FE0929FE00D11248E2F877041E0AA
:1018F00001C0440F8A95EAF7E695E695E69583E000
:10190000E89FF0011124EA53FE4F30E020E070E040
:101910005191DF011197CB01022E02C09695879558
:101920000A94E2F7817081958527842385278C931B
:101930002F5F3F4F2330310559F7089590E080E045
:101940000E94420790E080E00E942C071092A102C2
:10195000109220020E946B0B86E0ECE5F2E0DF01C2
:101960001D928A95E9F71092560210925502109234
:1019700057020C941A08809396030C949E0C809145
:101980009603982F9670963019F488600C94BB0CCF
:10199000877FFCCF21E030E001C0220F8A95EAF773
:1019A00020958091960382230C94BB0C90911F028A
:1019B0008095892380931F02282F277091F4282F68
:1019C000082E000C330B9217130659F09091600308
:1019D00092FD07C08595859585950E94CA0C0C944B
:1019E0002A0C089521E030E001C0220F8A95EAF721
:1019F00080919603822B0C94BB0C9091600392FD16
:101A000010C098E0899F90011124622B60931F02FF
:101A10000E94F20C0E94C10690931E0280931D0248
:101A200008950C94F20C809324020C949E0C88234D
:101A300021F00E945D0B0C946B0B0895882339F004
:101A40009091A102982B9093A1020C946B0B089596
:101A5000882321F00E94640B0C946B0B089588235B
:101A600039F09091A002982B9093A0020C946B0BEC
:101A70000895882379F19CEF980F913A38F4682FF4
:101A800082EA91E00E94CD060C946B0B90E2980FD5
:101A9000983050F4877091E001C0990F8A95EAF769
:101AA000892F0E94640BF0CF9BE5980F933020F4B0
:101AB00090E080E00C94420798E5980F973120F46D
:101AC00090E080E00C942C07803F20F00E944108B9
:101AD0000C941A080895CF93C82F882309F46FC077
:101AE0008CEF8C0F813AC0F580911E01882311F193
:101AF00080915F0387FF1EC0EC2FE695E695E69583
:101B0000F0E0EE55FE4F828190E04C2F477021E0CF
:101B100030E002C0220F331F4A95E2F7822393235D
:101B2000892B91F06C2F82EA91E00E94CD060E94F1
:101B30006B0B0AC0E4EAF1E08AEA91E02191C21756
:101B400089F38E179F07D1F76C2F82EA91E00E94EC
:101B5000F706CF910C946B0B80E28C0F883068F401
:101B6000C77021E030E001C0220FCA95EAF78091EA
:101B7000A002822B8093A002ECCFEBE5EC0FE330C8
:101B800040F4F0E0E95DFE4F808190E0CF910C944D
:101B90004207E8E5EC0FE73150F4F0E0EE0FFF1FED
:101BA000E65DFE4F80819181CF910C942C07C03F60
:101BB00030F08C2F0E940609CF910C941A08CF9117
:101BC00008959C013A9521153F4150F5FC01EE27FF
:101BD000F170BC0166277270AC01442754709C01FF
:101BE0002227387094FF0EC080E1EF2B09F480E0CB
:101BF000672B09F08062452B09F08064232B89F064
:101C00008068089581E0EF2B09F480E0672B09F0EC
:101C10008260452B09F08460232B19F088600895B9
:101C200080E008958093610370936303609362037F
:101C3000809189038430F9F48093E9008FEF9091CB
:101C4000E800815095FD06C095ED9A95F1F70000EA
:101C50008111F5CF8091E80085FF0DC050E040E094
:101C600063E070E081E693E00E9474058091E800F3
:101C70008E778093E8000895BC0184E00C94120EE6
:101C8000BC0183E00C94120E9C0184E08093E90077
:101C90009FEF8091E800915085FD06C085ED8A9503
:101CA000F1F700009111F5CF8091E80085FF0CC09D
:101CB00050E040E066E070E0C9010E947405809148
:101CC000E8008E778093E8000895CF93DF93EC01CE
:101CD00080911E018823B1F180915F0387FF32C09C
:101CE00060E284E08093E9008FEF9091E8008150FA
:101CF00095FD06C095ED9A95F1F700008111F5CF9D
:101D00008091E80085FF1BC080911E0170E050E0CB
:101D100040E0811104C050E040E068E070E0CE0196
:101D20000E9474058091E8008E778093E80080E23D
:101D3000FE01A7E6B3E001900D928A95E1F7DF91ED
:101D4000CF91089568E081E0CDCF81E08093E000FD
:101D500080E28093D8001092C9008FE19EE4019741
:101D6000F1F700C0000087E090EBDC01809397035F
:101D700090939803A0939903B0939A0388E19CE011
:101D80000FB6F894A895809360000FBE9093600002
:101D9000FFCF80916D0280FD0AC0E2E7F2E0108281
:101DA00011821282339652E0EA38F507C1F7539A4E
:101DB0003BB1377F2BB128604FB7F89482E792E0B0
:101DC000FC015191CF0168E02BB9000000C057FF22
:101DD0003BB9550F000000C000C000C03BB900C0B7
:101DE0006A9591F7F2E08A389F0751F74FBF8FE568
:101DF00094E00197F1F700C000000895EF92FF9280
:101E00000F931F93CF93DF938C01C2E7D2E0F12CA5
:101E1000E12CF801948160916F0280916E02F4E0F0
:101E2000EF16F104FCF49923F9F09E014091700241
:101E30000E9481072FEFE21AF20A239688E0E81643
:101E4000F10439F70E94C90EF801848190E00196EF
:101E5000817099278483DF91CF911F910F91FF901B
:101E6000EF900895992309F39E0140E0E1CF8F920E
:101E70009F92AF92BF92CF92DF92EF92FF920F9319
:101E80001F93CF93DF93EC014C81042F10E0980156
:101E9000D8010E94B32E9B01AC010E94C92E4B01B8
:101EA0005C01E0E2F0E0E01BF10BA5E5B0E0AC0185
:101EB0009B010E94C92E6B017C019F01DF010E94E2
:101EC000AB2E9B01AC010E94D42E9B01AC01280DCE
:101ED000391D4A1D5B1DC701B6010E947C2EF22EE2
:101EE000822F90E039E23F15D8F143E0249F900122
:101EF000112435952795122F109592E7C92E92E05F
:101F0000D92E00E085E5E82EEF188E2D01FD8F2DEE
:101F10009601412F60916F020E9481070F5F53E08D
:101F2000C50ED11C083089F70E94C90E9C8181E042
:101F3000992319F0903219F48FEF80931B0180914F
:101F40001B01890F8C83DF91CF911F910F91FF901F
:101F5000EF90DF90CF90BF90AF909F908F900895BB
:101F600025E530E0A901481B590BCA019A01220F4F
:101F7000331F280F391F37FFBCCF2F5F3F4FB9CF1B
:101F80000F931F93CF93DF93C2E7D2E0FE0110823D
:101F900011821282339682E0EA38F807C1F710E026
:101FA00000E080916B02082E000C990B08171907AE
:101FB0008CF180911A01082E000C990B8017910763
:101FC0004CF19E014091700260916F0280916E020F
:101FD0000E9481070F5F1F4F23960830110509F7F4
:101FE0000E94C90E8091190190916B02980F9093F5
:101FF0006B0220911A01280F20931A01121614F473
:1020000097301CF0819580931901DF91CF911F913A
:102010000F910895188219821A82DCCFCF92DF9235
:10202000EF92FF920F931F93CF93DF93FC01828176
:10203000DD24DA9480FD02C0DD24D394C2E7D2E02F
:1020400010E000E0188219821A8294E0E92EF12C47
:10205000C12C80916A028C0D8930CCF18770082EDA
:10206000000C990B8017910791F4809170028E9D5E
:10207000A0018F9D500D1124559547955595479575
:102080009E0160916F0280916E020E948107CD0CCB
:10209000F1E0EF1AF108E9F60F5F1F4F23960830C1
:1020A000110581F60E94C90E80916A0291E0D91251
:1020B00014C0811110C087E080936A02DF91CF9134
:1020C0001F910F91FF90EF90DF90CF90089587FFC1
:1020D000C6CF885FC4CF8150EFCF90E00196877064
:1020E0009927EACFEF92FF921F93CF93DF93EC01F2
:1020F00082E7E82E82E0F82E10E08C819701409173
:10210000700260916F02810F0E948107115E83E06F
:10211000E80EF11C183F89F70E94C90E9A818C8144
:1021200090FF08C08F5F8C83DF91CF911F91FF904C
:10213000EF9008958150F7CF90916D0290FF0CC001
:10214000E2E7F2E0808361834283339692E0EA38EB
:10215000F907C1F70C94C90E08950F931F93CF93FD
:10216000DF9300D00F92CDB7DEB78C0180916C0267
:1021700081110AC09E012F5F3F4F4FEF6FEF0E940A
:102180008107898180936C02F8016481613069F074
:1021900080916C0240E0662361F040E0623011F40F
:1021A00040916C0280E060E004C060916C0240E00D
:1021B00080E00E949C10F801848190E0019663E029
:1021C00070E00E94682E84830F900F900F90DF9133
:1021D000CF911F910F910895CF93DF9300D00F926D
:1021E000CDB7DEB790916D0290FF0AC09E012F5FC0
:1021F0003F4F0E9481074B816A8189810E949C1018
:102200000F900F900F90DF91CF910895CF93DF93B0
:10221000EC01EDE6F2E0438162818C810E94EC10DA
:102220008C818F5F8C83DF91CF910895CF93DF9363
:10223000EC01EC81F0E0EF54FA4F4491EDE6F2E06E
:10224000628181810E94EC108C818F5F8C83DF9191
:10225000CF9108951F93CF93DF93182FD0E0C0E064
:10226000893311F4C0E5D0E0812F0E946B0D2097D7
:1022700031F4812FDF91CF911F910C94390D8FE9AB
:102280009FE00197F1F700C000002197F0CF0F9376
:102290001F93CF93DF93C62FD42F022FFC0182818F
:1022A0008823A1F0609395030E94C1069093940344
:1022B00080939303C77081E001C0880FCA95EAF745
:1022C000DF91CF911F910F910C942F0D8091950369
:1022D000681335C080919303909194030E94B206D5
:1022E000883C910560F510E21D0FCD17B9F080E232
:1022F0008C0F883040F4C77081E001C0880FCA9508
:10230000EAF70E94280D183048F481E09D2F97705D
:1023100001C0880F9A95EAF70E942F0D802F0E9426
:102320002A11183098F4D77081E001C0880FDA952F
:10233000EAF7DF91CF911F910F910C94280DC77090
:1023400081E001C0880FCA95EAF7F3CFDF91CF9102
:102350001F910F910895AF92BF92CF92DF92EF92AB
:10236000FF920F931F93CF93DF93EC018AE0A82E87
:102370002881222309F48CC02130C9F599818A81F2
:10238000913021F422960E942A1105C0923029F43E
:1023900022960E946B0D2196EBCF933021F422966A
:1023A0000E94390DF8CF943011F02196F4CF229687
:1023B00030E020E0AE014F5F5F4F8053990B8A30D1
:1023C000910550F02150310930F38FE99FE00197DA
:1023D000F1F700C00000F6CFA29EB001A39E700DE1
:1023E00011249C01260F371F8981EA01E3CFE22FD8
:1023F000F0E0E650FE4FB490822F86958695869544
:1024000090E0FC01E651FE4FE4902770F12C022E83
:1024100002C0F594E7940A94E2F731E0E322FF2446
:10242000FC01E652FE4FC490D12C022E02C0D5947E
:10243000C7940A94E2F731E0C322DD24FC01E6539D
:10244000FE4F049110E002C0159507952A95E2F71A
:1024500001701127E114F10419F081EE0E946B0D57
:10246000C114D10419F086EE0E946B0D8B2D0E94D1
:102470002A11CD2819F086EE0E94390DEF2819F0A7
:1024800081EE0E94390D012B09F485CF8CE27BCFC0
:10249000DF91CF911F910F91FF90EF90DF90CF9040
:1024A000BF90AF900895CF93DF93CFECD2E060E080
:1024B000CE010E942A2F2196C11584E0D807B9F7D2
:1024C000DF91CF9108950F931F93CF93DF938901ED
:1024D000843048F5653038F54F3028F521153C45F6
:1024E00031F420911C0130911D01232BE1F0C42F08
:1024F000D0E0CC0FDD1F9EE1699FC00DD11D1124DE
:1025000096E9899FC00DD11D1124612FCE018796B8
:102510000E942A2F602FCE018896DF91CF911F91C4
:102520000F910C942A2FDF91CF911F910F91089555
:10253000CF93C82F6FEF81116DE983E290E00E9485
:102540002A2F6FEFC1116CE984E290E00E942A2FDC
:102550006FEFC11162E685E290E0CF910C942A2FD3
:10256000CF93C92F682F84E090E00E942A2F6C2F10
:1025700082E290E0CF910C942A2F9091600392FB1D
:10258000222720F9281769F080FB92F990936003C5
:1025900080915F03909160030E94B01282E00C94DE
:1025A000D60C08957F928F929F92AF92BF92CF9256
:1025B000DF92EF92FF920F931F93CF93DF93CDB7EC
:1025C000DEB72A970FB6F894DEBF0FBECDBFA0903E
:1025D0001C01B0901D0181E090E090931D0180935B
:1025E0001C0181EBC82E86E0D82E00E0760110E0B9
:1025F00015C0F40125913491472D612F802F0E9441
:10260000631282E0880E911C73948FE07812F1CFF0
:102610008EE1E80EF11C1F5F153019F04701712C97
:10262000E8CF0F5F86E9C80ED11C0430F9F61A8294
:1026300019821C821B821E821D8218861F8288ECD2
:1026400090E09A8789870FE712E04AE050E0B801EE
:10265000CE0101960E944E2F065F1F4F0F3C82E075
:10266000180799F7B0921D01A0921C012A960FB687
:10267000F894DEBF0FBECDBFDF91CF911F910F91B8
:10268000FF90EF90DF90CF90BF90AF909F908F9092
:102690007F90089580E00E94981260E086E290E0CA
:1026A0000E942A2F0E94D2120E94531281E00C94A1
:1026B00098129B01883070F49AE0899FB001112430
:1026C00061587D4F4AE050E0C9010E94062F90E01A
:1026D00080E008958FEF9FEF08958F929F92AF92C1
:1026E000BF92CF92DF92EF92FF920F931F93CF93FF
:1026F000DF93CDB7DEB72A970FB6F894DEBF0FBED3
:10270000CDBF04EA12E0F12CE12C89E5C82E84E269
:10271000D82E93E8A92E94E2B92E25EB822E23E23F
:10272000922EF801D182C082B382A28295828482E5
:10273000F58AE48ABE016F5F7F4F8E2D0E94591388
:10274000892B29F489859A85F801938B828BFFEF79
:10275000EF1AFF0A0A5E1F4F88E0E816F10409F736
:102760002A960FB6F894DEBF0FBECDBFDF91CF9192
:102770001F910F91FF90EF90DF90CF90BF90AF909F
:102780009F908F9008950F931F93CF93DF93843082
:1027900030F5653020F54F3010F5C42FD0E0CC0F68
:1027A000DD1F2EE1629FC00DD11D112436E9839FEC
:1027B000C00DD11D1124CE0187960E94162F082F1F
:1027C00010E0102F0027CE0188960E94162F980146
:1027D000282BC901DF91CF911F910F91089590E0AF
:1027E00080E0F8CF462F20919E0230919F02232B4C
:1027F00091F47E3F39F46E3F71F480919C02909188
:102800009D020895843038F4753028F46F3018F440
:10281000672F0C94C31390E080E00895CF92DF926D
:10282000FF920F931F93CF93DF936C010091960358
:1028300080912402082BC7E0D0E010E0FC2EC801F4
:102840000C2E02C0959587950A94E2F780FD0CC086
:102850002197A0F7F12C8F2DDF91CF911F910F9130
:10286000FF90DF90CF900895B6018C2F0E94F21355
:102870000E94CA09019761F3EECFCF93DF93EC0179
:102880000E940E14BE010E94F213DF91CF910C94AE
:10289000CA09FC01808191810E943D14292F2F706B
:1028A00092959F7092509E3078F4E92FF0E0E859AD
:1028B000F04D0C949E2E803F19F020F4883E20F4B9
:1028C00081E00895843FE1F380E00895883EC0F3FD
:1028D000813FD1F7F5CF822F86958695869508950D
:1028E00083E290E00E94162F8D3989F484E290E013
:1028F0000E94162F8C3959F485E290E00E94162F21
:1029000091E0823609F090E0892F8170089580E08F
:10291000FCCFCF9384E090E00E94162FC82F82E274
:1029200090E00E94162F982F8C2FCF910895CF9270
:10293000DF92EF92FF926B017C010E947207B70158
:10294000A60188E090E0FF90EF90DF90CF900C948C
:102950003C2F7F928F929F92AF92BF92CF92DF9245
:10296000EF92FF920F931F93CF93DF9300D00F92BC
:10297000CDB7DEB7182FD62E042FC22E90916D0240
:1029800090FF29C0E92FE695AE2FB0E0A459BE4FC5
:102990008C91809368029E7F923071F59E012F5F2B
:1029A0003F4F812F0E9481074B816A8189810E945C
:1029B0009C1010936E02D0926F0200937002CC2094
:1029C00051F060916D0270916E0280916F02909152
:1029D00070020E9497140F900F900F90DF91CF918B
:1029E0001F910F91FF90EF90DF90CF90BF90AF902D
:1029F0009F908F907F900895823019F4009170021B
:102A0000D8CF863019F410916E02D3CF8930D9F324
:102A1000893179F6E9512E2F2170722EE695F0E07A
:102A2000E455FA4F85909490992432E7E32E32E0F2
:102A3000F32EB12CA12CC50123E0969587952A95FC
:102A4000E1F7711013C0810F9701402F6D2D0E9487
:102A50008107A80CB91C83E0E80EF11C2AE8E216F5
:102A600022E0F20641F70E94C90EA3CF212F281BB6
:102A7000822FEACFEDE6F2E043812AE0421B08F420
:102A800040E021E0628181810C94A914EDE6F2E03E
:102A900043812AE0420F08F44FEF21E062818181F7
:102AA0000C94A914EDE6F2E0628128E0621B08F4C0
:102AB00060E021E0438181810C94A914EDE6F2E00D
:102AC000628128E0620F08F46FEF21E04381818189
:102AD0000C94A914EDE6F2E0818121E0438162814A
:102AE00088500C94A914EDE6F2E0818121E0438145
:102AF0006281885F0C94A914882359F0813079F0A1
:102B000020E040912B026091C2018091C3010C949E
:102B1000A9141092C30180EF8093C201F1CF88E520
:102B20008093C3018FEFF8CF80917102882319F051
:102B300081508093710260916D0270916E0280915C
:102B40006F02909170020C949714809171028330FF
:102B500018F48F5F8093710260916D0270916E0224
:102B600080916F02909170020C94971490916D0275
:102B700090FF3DC09170811129C0926090936D02C9
:102B8000662351F060916D0270916E0280916F0228
:102B9000909170020E94971460916D02669570E0AA
:102BA0004BE050E08EE091E00E94E52E892BA9F0E9
:102BB0001092690281E08093650220E040917002EA
:102BC00060916F0280916E020C94A914853210F00E
:102BD0009864D4CF880F982BD1CF81E0809369027D
:102BE0000E94C1069093630280936202E3CF08952E
:102BF00080916D028695815009F484E261E00C9425
:102C0000B61580916D0286958F5F853208F081E060
:102C100061E00C94B615CF93DF93C82FD62F0E9496
:102C20006A078C1730F08D1720F4DF91CF910C9448
:102C3000011661E08C2FDF91CF910C94B615EDE673
:102C4000F2E083E1808311828FEF82838FE78383B9
:102C5000148260817181828193810C949714109207
:102C6000A00280911E01E4EAF1E0882359F08091EE
:102C70005F0387FF07C08EE1DF011D928A95E9F7A8
:102C80000C949E0C86E0F8CF1F93CF93DF93CDB7C3
:102C9000DEB7AA970FB6F894DEBF0FBECDBF8BE8A4
:102CA00093E02091F100DC012D93CD01B3E0833955
:102CB0009B07B9F780918C03833009F472C0B8F494
:102CC000813009F449C0823009F4B3C08091E80032
:102CD00083FF96C280918B0390918C039A3008F009
:102CE0008FC2E92FF0E0EA58F04D0C949E2E8A3006
:102CF00009F48EC08B3009F471C0893039F78091A6
:102D00008B03813219F780918F0390919003009784
:102D100011F00297D9F68091E800877F8093E80050
:102D20008091E80082FF38C09091F3008091F2001A
:102D3000029731F48091F100813011F0863021F456
:102D40008091F100809366038091E8008B778093F7
:102D5000E8000E949E05BACF80918B03813A09F06A
:102D6000B5CF8091E800877F8093E80080918F0342
:102D700090919003892B61F460E287E693E070E024
:102D80000E9450068091E8008B778093E8009ECFE8
:102D900060E090E080E0F3CF809189038111C0CFA3
:102DA00095CF80918B03813A09F090CF80918F036A
:102DB00090919003892B09F089CF8091E800877F5B
:102DC0008093E8008091E80080FFFCCF80911E0195
:102DD0008093F1008091E8008E77B9CF80918B03CA
:102DE000813209F073CF80918F0390919003892BEA
:102DF00009F06CCF8091E800877F8093E8000E9403
:102E00009E0580918D0380931E010E942F165ECF38
:102E100080918B03813209F059CF8091E800877F40
:102E20008093E8000E949E0580918E038093650345
:102E30004DCF80918B03813A09F048CF8091E80013
:102E4000877F8093E8008091E80080FFFCCF80912D
:102E50006503BECF803899F0823809F0D1C18091E6
:102E60008F038F70873008F0CBC18093E900809189
:102E7000EB0085FB882780F91092E90006C080915D
:102E8000870390918803911182609091E800977F69
:102E90009093E8008093F1001092F1008091E80097
:102EA0008E77AAC1882309F498C1823009F0A8C19D
:102EB00080918D0381119BC180918F038F702FEFC3
:102EC000280F263008F09CC18093E9002091EB0088
:102ED00020FF8DC1933031F48091EB0080628093AC
:102EE000EB0085C19091EB0090619093EB0021E0A5
:102EF00030E001C0220F8A95EAF72093EA00109291
:102F0000EA008091EB008860EACF811179C11091CD
:102F10008D031F778091E3008078812B8093E300FD
:102F20008091E800877F8093E8000E949E05809151
:102F3000E80080FFFCCF8091E30080688093E3008D
:102F400082E0111183E0809389035AC18058823056
:102F500008F056C120918D0330918E032C3DE3E0A3
:102F60003E07A1F583E08A838AE289834FB7F8940C
:102F7000DE01139620E03EE051E2E32FF0E05093B3
:102F80005700E49120FF03C0E295EF703F5FEF70C0
:102F90008E2F90E0EA30C0F0C7968D939D932F5FFF
:102FA000243159F74FBF8091E800877F8093E80074
:102FB0006AE270E0CE0101960E9450068091E8001E
:102FC0008B778093E8001CC1C096E7CF80918F0378
:102FD00090919003432F55274330510509F44AC07F
:102FE00078F54130510509F485C08BE590E0E9E0C2
:102FF000F9E04230510509F003C12091E800277F34
:103000002093E80020919103309192038217930757
:1030100008F49C0140E02115310509F070C0411110
:103020006EC08091E80082FDC9CF8091890388231A
:1030300029F2853019F28091E80083FFF2CFBECFEC
:103040004132510509F447C04232510509F0D8C058
:103050008330910508F0D4C0FC01EE0FFF1FEC5641
:10306000FE4F0190F081E02D8F569E4FDC018C9138
:1030700090E01DC0332721303105E9F021153105DD
:1030800079F022303105F9F02330310509F0B8C06C
:10309000E6E7F9E0E4918E2F90E0E6E7F9E007C07B
:1030A000E2EBF9E0E4918E2F90E0E2EBF9E000979B
:1030B00009F4A6C0A2CFE4EAF9E0E4918E2F90E0F3
:1030C000E4EAF9E0F4CFE4E9F9E0E4918E2F90E04E
:1030D000E4E9F9E0ECCF8330910508F091C0880F66
:1030E000991FFC01E656FE4F0190F081E02D89E02A
:1030F00090E083CF82E190E0E4E6F9E07ECF80913A
:103100008903882309F45ACF853009F457CF809179
:10311000E80083FD53CF8091E80082FD82CF80914B
:10312000E80080FF78CF9091F3008091F2002115A4
:10313000310519F08830910550F041E0089709F009
:1031400040E08091E8008E778093E80064CF44915E
:103150004093F1003196215031090196E8CF803833
:1031600009F04EC08091E800877F8093E80080914D
:103170008A038093F10092CE811142C010918D0399
:103180001230F0F58091E800877F8093E80010937B
:103190008A030E949E05112311F084E005C08091EE
:1031A000E30087FDFACF81E08093890342E061EC80
:1031B00081E00E94BD0542E261EC84E00E94BD0511
:1031C00042E261EC82E00E94BD0542E260EC83E0F5
:1031D0000E94BD058091890313C080918D038130C9
:1031E00079F481E0933009F080E0809388031092B5
:1031F000E9008091E800877F8093E8000E949E05A7
:103200008091E80083FF0AC08091E800877F809367
:10321000E8008091EB0080628093EB00AA960FB6E5
:10322000F894DEBF0FBECDBFDF91CF911F910895FF
:103230006AEE7EEF90E080E00E94482F60E082E03E
:1032400090E00E942A2F60E083E090E00E942A2F05
:103250001092240260E084E090E00E942A2F60E057
:1032600082E290E00E942A2F60E085E090E00E94D8
:103270002A2F60E086E090E00E942A2F6FEF87E01F
:1032800090E00E942A2F40E050E0BA0188E090E0F0
:103290000E943C2F60E08DE090E00E942A2F40E0E9
:1032A00050E0BA0188E190E00E943C2F60E087E1A5
:1032B00090E00E942A2F40E050E0BA018CE190E0BB
:1032C0000E943C2F70E060E080E290E00E94482F76
:1032D00040E050E0BA0188E190E00E943C2F80E09D
:1032E0000E9498120E944A1340E050E0BA018FE019
:1032F00090E00E943C2F40E050E0BA0183E190E072
:103300000C943C2F8F929F92AF92BF92CF92DF92FC
:10331000EF92FF920F931F93CF93DF9300D000D0D3
:103320000F92CDB7DEB77C01DC0113968D919C9195
:103330001497892B39F08C9111969C9189238F3F9A
:1033400009F042C60F900F900F900F900F90DF91F1
:10335000CF911F910F91FF90EF90DF90CF90BF9092
:10336000AF909F908F9008950E940E14182F682F91
:1033700089819A810E946E0C69817A81812F0E94D5
:10338000F2138C01F7018281811155C0D701129689
:103390008C9181118FC000313FE5130709F423C1DF
:1033A00001314FE5140709F424C1680127E5D21A59
:1033B0003FEFC316D10411F008F071C562E972E065
:1033C0008C2D0E945913892B09F069C586E18C9DCB
:1033D000F0018D9DF00D1124EC55FD4F868181305B
:1033E00009F009C18091920290919302892B09F40E
:1033F00056C58091940290919502892B09F44FC58E
:1034000080919602909197022091980230919902B2
:10341000822B932B892B09F042C526E12C9DC001FC
:103420002D9D900D11248C559D4FDC0150961C92C2
:103430000E94060C34C58091000190910101019613
:1034400009F4A4CF54EAC52E52E0D52EB12CA12CFC
:103450009924939480910001909101018A159B0514
:103460000CF494CFF60186818823E9F0818592855A
:103470000817190739F48091A2029091A302081746
:10348000190789F0D6011F969C921F971C961C93D2
:103490000E931B97C6010E94060CC60106960E9459
:1034A000C10B1092A102BFEFAB1ABB0AE6E1CE0E30
:1034B000D11CD0CFC80182519F45409708F0DAC493
:1034C0008FEF93E00E94162F4EEED42ED00E0FEC0D
:1034D00012E08823F1F080911F02877009F432CF47
:1034E000F7018281882309F42DCF8091600382FD4A
:1034F00029CF82E00E94D60C25CF0115F4E01F07EA
:1035000051F3C8010E94162F811101C0DA940F5F98
:103510001F4FD110F2CF19821A821B821C82CC2439
:10352000CA9448012FEF821A920AC8010E94162FEE
:1035300089831A82882379F2813009F048C05801C2
:1035400032E0A30EB11CC4010E94162F982E8A836C
:10355000882309F4C0CFC5010E94162FD82E8FEF03
:10356000890D833068F4580143E0A40EB11CDB825E
:10357000DD2021F0CE0101960E94AB118501D1CF53
:1035800054E09512FBCF580184E0A80EB11CC8018D
:1035900003960E94162FDD2009F49DCF882309F49D
:1035A0009ACF8150990BC89E9001C99E300D11246D
:1035B000AD2DA150BB0BCD01820F931F0197F0F2EF
:1035C000EFE9FFE03197F1F700C00000F7CFCE013F
:1035D00001960E94AB115401D1CF81E00E94F20C00
:1035E0000E94BF0C78CF81E00E94CA0CF9CF82E024
:1035F000F5CF82E0F9CF823009F051C48091960274
:1036000090919702892B09F44AC407CF8091310227
:10361000882309F444C45FCF0E94580781FF3BC050
:1036200081E08093C401D090C40180913102811166
:103630001BC00E946A07880F909128029170982BF6
:103640009093280280916E028093290280916F02EC
:1036500080932A028091700280932B0281E08093F4
:10366000310260E00E94B6158D2D0E947C152FB7A7
:10367000F89480915B0390915C03A0915D03B091FD
:103680005E032FBF80932D0290932E02A0932F02F2
:10369000B093300204C41092C401C5CF882309F44A
:1036A0004DC4FA018189882309F448C4C5018655AF
:1036B0009D4F0E94C10B42C4033FFCE51F0739F137
:1036C00088F4083D3CE51307F1F0093D4CE514078B
:1036D00051F1073D5CE5150709F030C426E241EEE3
:1036E00061EE0DC0053F8CE51807C9F0A0F027E298
:1036F00045EE66EE063FACE51A0709F01FC4C701A8
:103700000E944711E8CE27E245EE65EEF8CF26E2AB
:1037100041EE60EEF4CF27E245EE64EEF0CF26E214
:1037200041EE62EEECCF28E241E0EFCF01363DE51D
:10373000130709F419C48091A00206319CE519070A
:1037400009F062C48A7A91E009F490E09093C5018F
:1037500069E2811165E382EA91E00E94F7060E9426
:103760006B0BB9CE80915F03806106302CE51207A8
:1037700009F491C080915F03886007301C4508F40C
:103780008AC080915F03806286C080915F038D7FD5
:103790000C304CE5140709F47EC058F40A308CE56F
:1037A000180709F493C008F48BC080915F038E7FE3
:1037B00072C080915F03877F0E30ACE51A0709F471
:1037C0006AC080915F038B7F0F301C4508F463C093
:1037D00080915F038F7E5FC00C3FECE51E0709F40C
:1037E00079C068F504312CE5120709F48BC080F428
:1037F00002314CE5140709F475C080915F038F7B9B
:1038000003311C4508F447C080915F03837F43C0A8
:103810000A3F8CE5180709F445C008F049C0053196
:103820001C4509F0C8C380915F0382FB992790F97A
:1038300021E0922790FB82F990FB83F92CC00115BF
:10384000BDE51B0709F454C088F4809160038360D0
:103850000E3FFCE51F0749F1809160038D7F0F3F0C
:103860001C4518F1809160038C7F1FC002303DE53C
:10387000130709F456C008F44EC001361D4509F07F
:103880009AC390915F03892F8F7E94FF806103C05C
:1038900080915F03816080935F038DC380915F039C
:1038A0008460F9CF8091600381608093600383C35B
:1038B000809160038260F9CF80915F038064EBCFD9
:1038C0000E942F1680915F038068E5CF80915F038F
:1038D0008C60E1CF809160038E7FE7CF80915F03A2
:1038E0008F7DD9CF0E942F1680915F038F77D3CF22
:1038F00080916003982F909591708E7F892B90FB1B
:1039000081F9D3CF0E942F1690915F03892F97FBE7
:1039100087F98058C0CF61E08EE090E00E942A2FA6
:103920004AC360E0F9CF80916D0280FF1BC08E7F9B
:1039300080936D0260916D0270916E0280916F02B2
:10394000909170020E94971410926902AFEFB0E755
:10395000E2E0A150B040E040E1F700C000000E946A
:10396000C90EB9CD816080936D0261E086950E9499
:10397000B615B1CD48EF55E161E076E10E946407EC
:10398000AACD41E056E168EF75E1F8CF43E755E194
:103990006AE675E1F3CF42E555E16EE575E1EECFFC
:1039A0004AE355E166E475E1E9CF46E455E16AE3AF
:1039B00075E1E4CF45EA55E164E975E1DFCF61E007
:1039C00081E0D5CF65E082E00E940B1684CD68E0EF
:1039D00086E0FACF64E18FE0F7CF67E185E1F4CFCD
:1039E00062E289E1F1CF61E083E2C1CF0B355DE5B1
:1039F000150701F10C351D4509F031C380916003B5
:103A000082FB882780F991E089270E94BD1227C395
:103A10000E942F169FEFA4E3BCE09150A040B0405D
:103A2000E1F700C000000E94A50E0E94181953CDB6
:103A300081E0EBCF80E0E9CFC8010E94410CD82E95
:103A40001FC3212F2F70D22E107F19F0D29490EF28
:103A5000D922CC20B9F0DD2069F080E2800F8830D7
:103A600010F0811009C08091A002D82AD092A00243
:103A70000E946B0B802F49C08091A102D82AD0925E
:103A8000A102F6CF802F0E94390DDD2009F43FC03E
:103A9000005E8D2D083010F0811003C00E94640B71
:103AA00002C00E945D0B0E946B0B31C0312F3F7032
:103AB000D32E107F103219F0D29480EFD8228820B4
:103AC000A1F041E0841609F48AC0CC2009F493C027
:103AD000BB2009F468C0D70115968C91159780FF1B
:103AE000C9CF8F7015968C935EC08091600382FF62
:103AF00035C0CC2061F1DD2039F08091A002D82AB8
:103B0000D092A0020E946B0B80E00E946B0DA92D49
:103B1000A850BB0B149710F40E945807AA2009F470
:103B200011CC80911F0280FD0DCCF701128285958A
:103B3000859585950E94F20CC7010E94821980919B
:103B40001F028595859585950E94CA0CFBCB80E068
:103B50000E94390DDD20D9F28D2DA0CFCC2039F176
:103B6000B11004C0809123028D291EC051E0B5120E
:103B700010C082FDCCCF80912302D82AD81639F20A
:103B80000E94C1069093220280932102D0922302C8
:103B9000BECF85E0B812E6CF0E94520B80911C0286
:103BA000D812D0921C028D2D0E942F0DB0CFB110D3
:103BB00006C00E94520B8D2D0E94280DA8CF91E0C7
:103BC000B91208C08091A0028D2109F4A0CF0E94F3
:103BD000310CEFCFA5E0BA1609F499CFEACFCC208B
:103BE00029F0B5E0BB1508F492CFDDCFE4E0EB158A
:103BF00008F48DCFE0CFBB20F1F2B9E38B1209C0FE
:103C0000EFEFF7EE23E0E150F0402040E1F700C095
:103C10000000802F0E94390D7ACF812F86958695DE
:103C2000837061F0813009F072CFC8019370C110C8
:103C300002C090E080E00E942C0769CFC801937019
:103C4000C11002C090E080E00E94420760CF802F48
:103C5000CC2029F00E9406090E941A0858CF0E9421
:103C60004108FACF812F837089F5C11050CF402FC2
:103C7000429546954770440F440F802F8F70042E55
:103C800001C0880F0A94EAF7202F207104FF07C0B3
:103C90002FE030E001C0220F4A95EAF720951695F3
:103CA00016951370123069F050F4309124021130DF
:103CB00029F0822B83230E94130D29CF832B822B83
:103CC000FACF282B809124028227F5CF8695CC202D
:103CD00011F0812F8170882309F419CF402F42956C
:103CE00046954770440F440F802F8F70042E01C0FB
:103CF000880F0A94EAF7202F207104FF07C02FE0F5
:103D000030E001C0220F4A95EAF7209516951695E6
:103D10001370123069F050F430919603113029F08D
:103D2000822B83230E94BB0CF2CE832B822BFACFF3
:103D3000282B809196038227F5CF1F70CC2029F085
:103D4000812F0E94F20C802F2FCF802F0E94280DF0
:103D5000812F0E94CA0CDBCE802F32EF8316A9F18F
:103D6000381570F040EF8416D1F051EF851691F0C0
:103D7000CC2009F46FC0B1107DCE812F8F7129C086
:103D800093EF891649F1A4EF8A12F2CF8091600374
:103D900082FF2DC0812F8F71CC20D9F21AC0CC2088
:103DA00079F0B4E0BB1508F4B2CE1F7181E090E069
:103DB00001C0880F1A95EAF7909196038927B2CF30
:103DC000E5E0EB1508F4A3CEF0CF812F8F71C11081
:103DD000C0CF0E94F20C9BCE80E0CC2009F4A2CF91
:103DE0001F7181E001C0880F1A95EAF79BCF80917F
:103DF0001C02CC20D9F00E94640B80911F028770B6
:103E0000843041F40E942A0C812F8F710E94CA0CC9
:103E1000A12C7DCEF4E0FB15D8F31F71812F0E94F9
:103E2000F20C63E0812F0E94FD0CF2CF9091A00272
:103E3000982B9093A00224E02B1540F40E942A0CAA
:103E40000E94310C64E0812F8F71EDCF81E00E94E0
:103E5000D60CDECFBB2059F0893309F0DACE3FEF24
:103E600047EE53E0315040405040E1F7D0CE812F33
:103E70008F716FCF0031FFE51F0709F4AECB013121
:103E80002FE5120709F4B3CB0933110509F4C4CBAC
:103E900030F0C801825C9C45099708F4B7CBC80193
:103EA00097558F3F910511F008F006CC2091000145
:103EB000309101012817390724F490930101809370
:103EC0000001F701228136E1389F5001399FB00C83
:103ED0001124A5014C555D4F6A01DA0150962C93CF
:103EE0005097928116968C911697992309F4D6CB08
:103EF0001A961C930E9319978F5F16968C930E94B7
:103F0000C106F60196878587809123028783809179
:103F1000A1029091A002892B80870190F081E02D71
:103F2000309741F0D60154966D917C91C50186552C
:103F30009D4F09951093A3020093A202F70182817D
:103F4000882309F454C0109295030330FDE51F0740
:103F500008F0ECCB0A3F2CE5120730F4C801825080
:103F60009C45449708F0E7CB0E9489149093600326
:103F700080935F0300314CE5140709F4AFCC08F0DF
:103F80002BCC08308CE5180709F496CC08F0FDCB53
:103F90000430ACE51A0709F481CC08F0E3CB023019
:103FA000ECE51E0709F474CC80915F038260033056
:103FB0001C4509F470CC80915F03909160030E94CE
:103FC000B0120E942F1687CA85E0F701DE01119614
:103FD00001900D928A95E1F7D70112962C91898173
:103FE0009A812111C1C90E94410C182FC5C90631FF
:103FF0001C45A9F58091C50169E2811165E382EA5A
:1040000091E00E94CD06ABCB82720C3CECE51E0722
:1040100009F4D0CC08F0A0C0063C2CE5120709F446
:10402000B5CC08F075C0033C4CE5140709F4A2CCEC
:1040300008F05FC0023C8CE5180709F474CC0A351F
:10404000FDE51F0709F4F4CC08F0D0CC01153CE5E0
:10405000130709F4DDCC0E3D1C4509F4E6CCD7016D
:1040600012968C9112970D911C91882309F4E4CC3F
:10407000C8010E940E14D82E682FC8010E946E0C31
:10408000B8018D2D0E94F2130E94CA098C01882E5E
:10409000F701C280B580B2943FE0B32280911F0245
:1040A0008770C1F0AC2CCC20B1F0812F807F8034A0
:1040B00021F080E2800F883068F08091600382FDFB
:1040C00009C082E00E94D60C80911F028770AA244A
:1040D000A3948111A12C912E92942FE09222FBE0C7
:1040E000F91508F414CDE92DF0E0E058F04D0C94EA
:1040F0009E2E043C9CE5190709F443CC4AE655E1A1
:1041000063E775E1053CACE51A0709F437CC97CFB6
:10411000093CBCE51B0709F443CC78F4073CFCE5FB
:104120001F0709F438CC4EE555E162E575E1083C1E
:104130002CE5120709F422CC82CF0A3C3CE5130798
:1041400009F433CC0B3C4CE5140709F078CF44E973
:1041500055E165EA75E112CC013D5CE5150709F40E
:1041600039CCA0F40E3C9CE5190709F42BCC08F4DB
:1041700026CC0F3CBCE51B0709F429CC6EE089E096
:10418000003DECE51E0709F41FCC59CF043DFCE5CA
:104190001F0709F425CC68F4023D3CE5130709F438
:1041A0001CCC61E088E1033D4CE5140709F4DFCB4A
:1041B00046CF053D5CE5150709F415CC0D35100714
:1041C00009F489C93CCF1F93CF93DF938091E90114
:1041D000807FA9F48091E601882389F080911B02F9
:1041E000D091EA016091E4017091E501A091E701AD
:1041F000B091E801C62FC72316E0D81304C0DF91A1
:10420000CF911F91089590E0109711F0CF3F19F4CE
:1042100001968770F2CF189F9001199F300D1124DD
:10422000F901E551FE4F41814713F2CF408146131A
:10423000EFCF42814111ECCF438154814A1B5B0B8C
:10424000483C510528F78091E9018F708061809387
:10425000E901F901E051FE4F80818F708061808318
:1042600084EE91E00E948219DF91CF911F910C940E
:10427000370CAF92BF92CF92DF92EF92FF920F93E3
:104280001F93CF93DF93CDB7DEB761970FB6F89446
:10429000DEBF0FBECDBF8C0185E0F801DE011D96AB
:1042A00001900D928A95E1F7F801E28084EEA82E44
:1042B00081E0B82E6091E7017091E8016115710508
:1042C00009F432C19091E4014091E501892F8423E2
:1042D0008F3F09F429C120813181C380D480F090BF
:1042E000E601F601E61BF70BFF2009F4E8C0809118
:1042F000E901582F507FE83CF10508F0ABC051119F
:1043000077C0FE2C431321C092131FC0E1101DC0C3
:104310008F7080618093E901C5010E9482198091AC
:10432000E901F80185838F2D61960FB6F894DEBF01
:104330000FBECDBFDF91CF911F910F91FF90EF90F6
:10434000DF90CF90BF90AF900895CD2829F0822FB5
:1043500083238F3F09F003C180E0F82FF170DF2E37
:1043600080FF3CC080911B024091EA0156E084131B
:1043700015C02D873E878D859E850E943D14292F6F
:1043800022952F702230F0F0243018F59F70F1F054
:10439000F8019581907FD1F4D12C1EC090E0589FF8
:1043A000F001599FF00D1124E551FE4F6181361344
:1043B00006C06081261303C06281E6120FC0019619
:1043C0008770D5CF9F7011F0882331F3805E8830DD
:1043D00018F3C8010E948219FD2CA5CFEE2009F424
:1043E000A2CF8091E90181608093E901F12C9BCFFC
:1043F000431306C0921304C0F801EE2009F479C0FB
:10440000C8010E944914882309F1EE20F9F0809137
:10441000E901803270F02091E4013091E5013887A4
:104420002F831986DB86CA868C87CE0107960E9469
:10443000821986E0F801A4EEB1E001900D928A9510
:10444000E1F70E94E320FF24F3946DCFC8010E949E
:104450008219F9CF51110AC084EE91E00E948219AD
:1044600086E0F50111928A95E9F7C0CF43130FC09A
:1044700092130DC0E1100BC0F8018583C8010E94A2
:10448000821986E0F50111928A95E9F74CCFC801AF
:104490000E9449148823D1F2EE20C1F28091E901F3
:1044A000803238F22091E4013091E5013A8329838A
:1044B0001B82DD82CC828E83CE010196B8CFE83C90
:1044C000F105F8F6FE2CEE2009F243131FC09213FB
:1044D0001DC08091E90180FD10C0982F907F69F088
:1044E000F8018583903F31F0982F907F905F8F7017
:1044F000892B8583C8010E94821986E0F801A4EE09
:10450000B1E001900D928A95E1F70DCFC8010E94AC
:10451000491481118ECF8091E90181608093E90176
:10452000C8010E948219FFCEEE2009F48FCFC80186
:104530000E944914F82E882309F488CF86E0F801F8
:10454000A4EEB1E001900D928A95E1F78091E4012B
:104550009091E5010E943D140E94E320E4CE81E0A9
:104560008E25FBCE1F93CF93DF93CDB7DEB7679732
:104570000FB6F894DEBF0FBECDBF4B8B5C8B6D8B3F
:104580007E8B8F8B61111092A1021A8A198A85E0A5
:10459000FE017396DE011D9601900D928A95E1F75A
:1045A0008091600382FD1CC00E94C10620911D0203
:1045B00030911E02821B930B8838934120F080912A
:1045C0001F0282FF7FC00E94C1062091210230910C
:1045D0002202821B930B8838934110F00E94520BE9
:1045E00086E0FE013D96DE01179601900D928A95B8
:1045F000E1F7CE0107960E943921882389F016E061
:1046000080911B029091EA01891349C067960FB609
:10461000F894DEBF0FBECDBFDF91CF911F910895FB
:1046200086E0FE013796DE01119601900D928A9583
:10463000E1F78A859B85892B11F38F8198858923E2
:104640008F3FE9F22091EA0130E0C90101968770BD
:10465000992740911B024817190671F40E942F16E2
:104660001092EA0110921B0286E0E4EEF1E0DF0115
:104670001D928A95E9F7C3CF96E0929FD001939F50
:10468000B00D1124A551BE4FFE01319601900D923F
:104690009A95E1F78093EA010E94370CB0CF819F91
:1046A000C001112485519E4F0E943921882309F4AD
:1046B000ADCF80911B0290E001968770992780937F
:1046C0001B029ECF82E00E94D60C7DCF0F931F93DA
:1046D000CF93DF9300D000D00F92CDB7DEB78C011F
:1046E00090939D0280939C02011580E2180720F5AB
:1046F000802F0E94390DC8010E94E10D9801205EB3
:1047000031092830310510F0012B59F40F900F902A
:104710000F900F900F90DF91CF911F910F910C94FC
:10472000280D0F900F900F900F900F90DF91CF9169
:104730001F910F910C94170D8EEF89838A831B8232
:104740000E94C1068160782F9D838C8349815A81A4
:104750006B818D810F900F900F900F900F90DF91D4
:10476000CF911F910F910C94B2220F931F93CF936F
:10477000DF938C01EB0162E972E08C2F0E945913E8
:10478000892B71F4DD27C657DD4F8881F80110822F
:104790001882833009F148F4813059F0823081F079
:1047A000DF91CF911F910F9108958430D1F0853022
:1047B000B9F78091920290919302009789F306C015
:1047C0008091940290919502009799F3DF91CF9197
:1047D0001F910F910C9466238091960290919702FD
:1047E000F3CF8091980290919902009779F72091E8
:1047F000920230919302809194029091950221153A
:104800003105D9F2009711F7C901E0CF0F931F933B
:10481000CF93DF9300D000D00F92CDB7DEB78C01DD
:1048200090939D0280939C02011580E21807E8F4A2
:10483000C8010E94E10D9801205E31092830310540
:1048400018F00115110571F40E942F0D802F0F90A3
:104850000F900F900F900F90DF91CF911F910F91BC
:104860000C946B0D0E941E0DF1CF8EEF89838A830D
:1048700081E08B830E94C1068160782F9D838C83A9
:1048800049815A816B818D810F900F900F900F900D
:104890000F90DF91CF911F910F910C94B222CF9383
:1048A000DF93EC010E940624CE01DF91CF910C949E
:1048B00066230F931F93CF93DF938C01862F62E9BA
:1048C00072E00E945913892BC9F4C0919202D091D1
:1048D0009302209799F0F8018081833069F4CE012A
:1048E0000E944F24CE010E944F24CE01DF91CF9130
:1048F0001F910F910C944F248430B8F7DF91CF9122
:104900001F910F9108950F931F93CF93DF938C0105
:10491000EB0162E972E08C2F0E945913892B09F098
:1049200064C0FE01FF27D8018C91E657FD4F81300E
:10493000D9F419969C911997992311F080830CC092
:104940001A969C919923D1F382E0808380919402FE
:10495000909195020097D9F48091920290919302E0
:10496000009709F442C013C08230E9F519968C9182
:10497000199781112DC01A968C9181110EC083E078
:1049800080838091960290919702009719F1DF91B0
:10499000CF911F910F910C94062484E08083809125
:1049A000980290919902009791F7809192029091CC
:1049B00093020097F9F00E944F2480919402909105
:1049C0009502009721F78091920290919302DFCF98
:1049D00085E080838091920290919302009729F064
:1049E0000E944F24F0CF86E08083DF91CF911F910A
:1049F0000F9108958091940290919502B1CF8F927A
:104A00009F92AF92BF92CF92DF92EF92FF920F935D
:104A10001F93CF93DF93CDB7DEB72A970FB6F894E5
:104A2000DEBF0FBECDBF8E010F5F1F4F8AE0F801C2
:104A300011928A95E9F758E5E52E51E0F52E6801C7
:104A4000AA24A394B12CF70181917F018F3F09F42F
:104A500046C0F894E82FE295EF70F0E021A18F7046
:104A6000A50102C0440F551F8A95E2F7CA01922F93
:104A7000982B91A392A18095892382A3789400C05A
:104A8000EDE5F1E021E030E0912C812C41914F3FA8
:104A900009F481C0A42FA295AF70B0E090968C91DC
:104AA00090E04F7002C0959587954A95E2F780FD9A
:104AB00072C0C901882A992A220F331F51E0EC36AF
:104AC000F50721F7F701319780818F3F11F00E94A0
:104AD000700980EA8A95F1F7F60191828082F2E00E
:104AE000CF0ED11C2DE5E21621E0F20609F0ABCF86
:104AF0004AE050E0B80182E392E00E94F22EFF24E7
:104B0000F394009709F4F12C892B09F447C08AE04B
:104B1000F801A2E3B2E001900D928A95E1F781E0FD
:104B2000809327020E94C10690932602809325025B
:104B300080912502909126020E94B206059790F17D
:104B4000809132029091330290934C0280934B02F9
:104B5000809134029091350290934E0280934D02E1
:104B600080913602909137029093500280934F02C9
:104B700080913802909139029093520280935102B1
:104B800080913A0290913B02909354028093530299
:104B90001092270207C090E080E08CCF809127021E
:104BA0008111C6CF809100019091010110E006E1D2
:104BB000019609F073C080913102882369F1409118
:104BC0002D0250912E0260912F02709130022FB76A
:104BD000F89480915B0390915C03A0915D03B09188
:104BE0005E032FBF841B950BA60BB70B893B9B4025
:104BF000A105B10588F021E040912B0260912A02C5
:104C0000809129020E94A9148091280261E0869572
:104C10000E94B615109231028F2D2A960FB6F89485
:104C2000DEBF0FBECDBFDF91CF911F910F91FF90DF
:104C3000EF90DF90CF90BF90AF909F908F900895AE
:104C4000089FF001099FF00D1124EC55FD4FC2881B
:104C5000D388C114D10419F428ECC22ED12C089F9A
:104C6000F001099FF00D1124EC55FD4F868188233A
:104C7000A1F0858596850E94B206C816D90668F40B
:104C8000109F60011124C6018C559D4F0E94060C97
:104C9000C60186559D4F0E94C10B1F5F812F90E07A
:104CA0002091000130910101281739074CF683CF7C
:104CB00090E080E00E94242F8A3E9E4F11F40C94D5
:104CC000701480E008951F920F920FB60F92112476
:104CD0002F933F934F935F936F937F938F939F9304
:104CE000AF93BF93CF93DF93EF93FF93D091E900FE
:104CF000DF708091EC00C82FC17080FDC0E8109279
:104D0000E9008091F000877F8093F00078940E9402
:104D100044161092E9008091F00088608093F000C2
:104D2000CD2BCF70C093E900FF91EF91DF91CF9130
:104D3000BF91AF919F918F917F916F915F914F91B3
:104D40003F912F910F900FBE0F901F9018951F92BB
:104D50000F920FB60F9211242F933F934F935F93AF
:104D60006F937F938F939F93AF93BF93EF93FF9333
:104D70008091E10082FF09C08091E20082FF05C0BE
:104D80008091E1008B7F8093E1008091DA0080FFC9
:104D900024C08091D80080FF20C08091DA008E7FEF
:104DA0008093DA008091D90080FF9DC080E189BDA9
:104DB00082E189BD09B400FEFDCF81E080938903C3
:104DC00080916403811109C00E9424050E94EF05AF
:104DD0008091E20084608093E2008091E10080FF96
:104DE00017C08091E20080FF13C08091E2008E7FA7
:104DF0008093E2008091E20080618093E2008091E4
:104E0000D80080628093D80019BC85E08093890324
:104E10008091E10084FF2BC08091E20084FF27C0D5
:104E200080E189BD82E189BD89B5982F917080FFAD
:104E3000FBCF8091D8008F7D8093D8008091E100D6
:104E40008F7E8093E1008091E2008F7E8093E2006C
:104E50008091E20081608093E20080918A03882340
:104E600009F447C084E0809389038091890380918D
:104E7000E10083FF27C08091E20083FF23C080917F
:104E8000E100877F8093E10082E0809389031092A4
:104E90008A038091E1008E7F8093E1008091E2009F
:104EA0008E7F8093E2008091E20080618093E20037
:104EB00042E060E080E00E94BD058091F0008860E3
:104EC0008093F000FF91EF91BF91AF919F918F91EF
:104ED0007F916F915F914F913F912F910F900FBEF6
:104EE0000F901F90189519BC1092890310926403BB
:104EF00074CF8091E30087FD93E090938903B5CF51
:104F000078941F921FB61F9211248F939F93AF9393
:104F1000BF9380915B0390915C03A0915D03B0917E
:104F20005E030196A11DB11D80935B0390935C030A
:104F3000A0935D03B0935E03BF91AF919F918F915A
:104F40001F901FBE1F9018951F921FB61F9211240D
:104F50008F939F93AF93BF9380915A03811113C096
:104F600080915B0390915C03A0915D03B0915E031F
:104F70004196A11DB11D80935B0390935C03A093A8
:104F80005D03B0935E03BF91AF919F918F911F908E
:104F90001FBE1F901895CDB7DEB7E4970FB6F894F3
:104FA000DEBF0FBECDBF84B7877F84BF0FB6F89436
:104FB000A8958091600088618093600010926000E5
:104FC0000FBE80E890E00FB6F89480936100909354
:104FD00061000FBE85B7806885BF85B7806885BFD3
:104FE0008EE699E09093A1018093A0010E946D1339
:104FF0000E9424050E94EF058091E2008460809366
:10500000E2007894809189038823A1F01091E9004F
:105010001F709091EC00892F817090FD80E8182B13
:105020001092E9008091E80083FD0E9444161F70F1
:105030001093E90082E084BD93E095BD9AEF97BD9F
:1050400080936E000E947014811102C00E944A1366
:1050500008E511E0D8018D918D018F3F11F00E947C
:105060007009B1E00D351B07A9F70DE511E0ACE6BD
:10507000EA2EA1E0FA2EF80181918F018F3F11F005
:105080000E947009E016F106B1F78AE0EBE4F2E065
:10509000DF01282F1D922A95E9F7E2E3F2E0DF0114
:1050A0001D928A95E9F70E945826811102C00E943C
:1050B000181982E090E00E94162F80933E020E9411
:1050C00089149093600380935F030E94FF24EFE3B1
:1050D000FCE93197F1F700C000000E94FF248091A5
:1050E0004B0280FF08C06FEF7FEF90E080E00E94EE
:1050F000482F0E94A50E83E090E00E94162F0E9488
:10510000130D80913C02811133C00E9458268111F9
:1051100004C00E9418190E941F1688E090E00E94A7
:105120001E2F60936D0270936E0280936F029093B6
:1051300070026E7F71F40E941F1688E090E00E945A
:105140001E2F60936D0270936E0280936F02909396
:1051500070020E9472071092690280916D0280FFB6
:1051600004C060E086950E94B61581E080933C0201
:1051700080915F03806880935F0380915F039091CB
:1051800060030E94B01282E091E0909357038093F5
:10519000560378E1672E712CE0E45E2EF5E5CF2E04
:1051A000F2E0DF2E8E010F5F1F4F8091890350E1E7
:1051B000E52E62E1F62E853009F4CDC10E94FF2470
:1051C000882359F08FB7F89440915B0350915C03AA
:1051D00060915D0370915E038FBFABE4B2E0EFE3DB
:1051E000F2E0F12CE12C7E2D8D919D912191319158
:1051F0002817390709F4BFC12827392760E0AA24F6
:10520000A394B12CA9014A215B21452B09F4ADC11E
:105210006BA77CA79C012A213B2191E0232B09F459
:1052200090E09DA70E94C1068160782F9FA78EA75E
:105230004BA55CA56DA58FA50E94B222F701EE0FCC
:10524000FF1FE15CFD4F80819181A826B926B182C4
:10525000A082809169028823D1F180916802E09157
:105260006D02E695E81BE0936402823009F09CC170
:10527000F0E0E857FD4FE491EE2EF12C46E1A42E2C
:1052800041E1B42E80916502882361F0109265029D
:105290000E94C1069093630280936202109267029B
:1052A000109266020E94C106E0916202F0916302D0
:1052B0008E1B9F0B8F3F9F4750F4EE0DFF1DF09309
:1052C0006302E093620282E692E0F501099586E0CE
:1052D000ECE5F2E0D80101900D928A95E1F7B090EB
:1052E0005E02A0905F02F0906002E0906102109276
:1052F0005E0210925F0210926002109261028B2D8A
:105300008A2909F448C080915A0290915B020E9458
:10531000B2069C0190915602992309F4C0C423332C
:105320003105C8F19F3F19F09F5F90935602BB2053
:1053300059F00E94E6089FEF1B140CF491E0899F3E
:10534000802D112480935E02AA2059F00E94E60865
:105350009FEF1A140CF491E0899F802D1124809303
:105360005F0230915E023323B1F020915F0222236D
:1053700091F045EB3403C0011124992309F473C162
:1053800090935E0245EB240390011124332309F42A
:105390006EC130935F028F2D8E2909F448C0809131
:1053A0005802909159020E94B2069C0190915502B8
:1053B000992309F46FC425363105C8F19F3F19F0D0
:1053C0009F5F90935502FF2059F00E94C4089FEF01
:1053D0001F140CF491E0899F802D112480936002AA
:1053E000EE2059F00E94C4089FEF1E140CF491E0C7
:1053F000899F802D112480936102309160023323B4
:10540000B1F020916102222391F045EB3403C001F9
:105410001124992309F42FC19093600245EB2403D2
:1054200090011124332309F42AC130936102809141
:105430005E0290915F02892B90916002892B90917E
:105440006102892B11F00E941A0886E0F801ACE590
:10545000B2E001900D928A95E1F70E945807909171
:105460003D02891721F00E94580780933D028091E8
:105470008903843009F099CE83E08093E90080911C
:10548000E80082FF92CE8091E80090E085FF0AC09C
:105490000E94430540E2A42EB12C7801882309F430
:1054A000FCC091E08091E8008B778093E80099231D
:1054B00009F47BCEE0909E02F0909F028981E11476
:1054C000F10409F4F8C08E3F09F088C18A81833065
:1054D00020F08550833008F081C1EA81EE3008F079
:1054E0007DC1F0E0E457F04D0C949E2E809189032D
:1054F000843009F110925A030FB6F894A89560927F
:1055000060000FBE5092600083B7817F846083BFCC
:1055100083B7816083BF7894889583B78E7F83BF7C
:105520000FB6F894A8958091600088618093600020
:10553000109260000FBE80918803882361F00E9462
:10554000FF24EBE4F2E081919191892B09F083C370
:10555000CE16DF06C1F780918903853009F4C6CFE6
:105560000E942F160E94580729CE6F5FAA0CBB1C01
:105570006F3009F047CE2FEFE21AF20A45E0E41649
:10558000F10409F030CE8FEF88AB89AB1AAA0E94E4
:10559000C1068160782F9CAB8BAB48A959A96AA939
:1055A0008CA90E94B22255CE863059F4F0E0EB5718
:1055B000FD4FE491EE2EF12C36E0A32E31E1B32E17
:1055C00061CE893061F4E695F0E0EE57FD4FE4914D
:1055D000EE2EF12C22E7A22E20E1B22E53CE8F30F8
:1055E00061F4E695F0E0E158FD4FE491EE2EF12CE8
:1055F0009EE0A92E90E1B92E45CE853159F4F0E018
:10560000E458FD4FE491EE2EF12C80ECA82E8FE0B3
:10561000B82E38CE78E2E72EF12CE7E3AE2EEFE09D
:10562000BE2E883109F42ECE833249F4EAE7F2E047
:10563000E590F490BDEAAB2EB0E1BB2E23CEF4EFA3
:10564000EF2EFF24F394AEEFAA2EAEE0BA2E8432F2
:1056500009F418CE50EDE52E57E0F52E69E6A62E9A
:1056600067E0B62E0FCE81E080935E028BCE81E0A4
:1056700080935F0290CE81E080936002CFCE81E084
:1056800080936102D4CE8091F100D7018D937D018A
:10569000B1E0AB1AB10809F404CF8091E80085FDB0
:1056A000F2CF8091E8008B778093E8000E94430559
:1056B000882399F3F6CE893009F468C128F584303F
:1056C00009F4F8C058F4823009F46DC008F0E3C062
:1056D000813009F464C08FEF898380C0863009F47B
:1056E000FFC008F4F2C0873009F4FDC0883099F794
:1056F0008A81813809F444C108F036C1803809F044
:105700006DC0809170024DC0803109F478C1D8F528
:105710008D3009F446C128F48C30E9F680E18A83A3
:105720005DC08E3009F441C18F30A9F680911C0113
:1057300090911D01892B09F451C0AC80B12CFDE181
:10574000AF16B10408F04AC0EA80FB80FE24EF24C3
:10575000FE244801AE0CBF1CC70181539D4FEA14C3
:10576000FB04E1F121E3E21621E0F20628F4D40182
:1057700014966C910E942A2FBFEF8B1A9B0AEFEFB1
:10578000EE1AFE0AE9CF823109F43EC108F43AC1AB
:10579000833109F462C18E3F09F09DCF9ECE1A82FB
:1057A00089E08B831BC08A81823009F46AC283300E
:1057B00009F43DC0813009F08ECF2FB7F894609185
:1057C0005B0370915C0380915D0390915E032FBF3A
:1057D0000E94A42E6B837C838D839E83809189039A
:1057E000843009F0E2CCF090E9008F2D8F70F82E14
:1057F0009091EC00892F817090FD80E8F82A82E07A
:105800008093E9008091E80080FF0CC050E040E008
:1058100060E270E0C8010E9474058091E8008E7714
:105820008093E8008F2D8F708093E900BECC80912B
:105830001C0190911D01892B89F280914B0290915E
:105840004C029827892798279C838B8380914D024F
:1058500090914E029827892798279E838D83809167
:105860004F029091500298278927982798878F8315
:1058700080915102909152029827892798279A8700
:1058800089878091530290915402982789279827FD
:105890009C878B87A3CF8A81823009F01CCF6B81D4
:1058A0007C818D819E810E94A42E86E290E00E94E0
:1058B0002A2F94CF4C816B818A810E94C313982731
:1058C000892798279E838D8389CF2D813E8132271A
:1058D000232732274C816B818A810E9463127ECFFD
:1058E0000E94D2127BCF8A818138C1F060F4803867
:1058F00009F074CF20E04B8160916F0280916E02BD
:105900000E94A9146BCF823859F1833809F066CF11
:1059100020E0409170026C818B81F2CF60E08B813E
:105920000E94B6159B8180916D02911111C08E7FEE
:1059300080936D0210926902EFEFF0E722E0E150F0
:10594000F0402040E1F700C000000E94C90E46CFA1
:10595000816080936D0260E086950E94B6153ECF0F
:105960008B81809371023ACF823869F0833809F0D5
:1059700035CF80916E028B8380916F028C832ECF06
:105980000E946A070ECF809171020BCF60916D0269
:1059900070916E0280916F02909170020E94971434
:1059A0001DCF81E08A8381E3FCCEEC80F12C4DE1B8
:1059B000E416F10408F012CFAA80BB80BA24AB240D
:1059C000BA244801E00EF11EC50181539D4FE81431
:1059D000F90409F403CFA1E3AA16A1E0BA0658F42A
:1059E0000E94162FF4018483BFEFAB1ABB0AEFEFBE
:1059F0008E1A9E0AE9CFD40114961C92F5CF0E940C
:105A00005312ECCE84E08BCEEC80F12CFDE1EF164E
:105A1000F10408F0E3CEAA80BB80BA24AB24BA24F8
:105A20004801E00EF11EC50187968E149F0409F40B
:105A3000D5CE28E5A21622E0B20660F40E94162F09
:105A4000D40114968C93FFEFAF1ABF0A2FEF821A7E
:105A5000920AE9CFF4011482F6CFAC80B12C4DE16B
:105A6000A416B10408F0BACEEA80FB80FE24EF242D
:105A7000FE2488E5E81682E0F80608F0AFCE88E557
:105A800092E08E199F098A159B0508F4A7CE48015C
:105A9000AE0CBF1CC7018796AE14BF0409F49ECE9E
:105AA000A8E5EA16A2E0FA0620F4F40164810E9457
:105AB0002A2FFFEF8F1A9F0A2FEFE21AF20AEACF7E
:105AC00088E0EFE1F1E0DE01919601900D928A9578
:105AD000E1F780E2D8011D928A95E9F784E0898395
