:100000000C94D7030C940F040C940F040C940F045D
:100010000C940F040C940F040C940F040C940F0414
:100020000C940F040C940F040C942F280C94EB27C1
:100030000C942C290C940F040C940F040C940F04B2
:100040000C940F040C940F040C940F040C940F04E4
:100050000C940F040C9408290C940F040C940F04B6
:100060000C940F040C940F040C940F040C940F04C4
:100070000C940F040C940F040C940F040C940F04B4
:100080000C940F040C940F040C940F040C940F04A4
:100090000C940F040C940F040C940F040C940F0494
:1000A0000C940F040C940F040C940F040501090226
:1000B000A10185020901A100050919012905150001
:1000C00025019505750181029501750381010501E1
:1000D000093009311581257F950275088106093897
:1000E0001581257F950175088106050C0A380215D2
:1000F00081257F950175088106C0C005010980A191
:1001000001850319012AB700150126B7009501756D
:10011000108100C0050C0901A101850419012AA064
:1001200002150126A002950175108100C005010984
:1001300006A1018506050719E029E71500250195A7
:1001400008750181020507190029EF1500250195A1
:10015000F0750181020508190129059505750191C0
:1001600002950175039101C00660FF0961A10109B3
:1001700062150026FF0095207508810209631500AD
:1001800026FF00952075089102C005010906A1010E
:10019000050719E029E71500250195087501810279
:1001A0009501750881010507190029FF150026FF33
:1001B0000095067508810005081901290595057542
:1001C000019102950175039101C00000000000003B
:1001D000000000000000000000000000000000001F
:1001E00000000000000000000000000000007E0F82
:1001F00000D4FFFFFFC700000078000000000000EF
:1002000000002A2B28000000000000000000000071
:10021000000000000029000000002C1E34202122D4
:1002200024342627252E362D3738271E1F2021223D
:10023000232425263333362E37381F0405060708B6
:10024000090A0B0C0D0E0F101112131415161718A6
:10025000191A1B1C1D2F3130232D350405060708E4
:10026000090A0B0C0D0E0F10111213141516171886
:10027000191A1B1C1D2F3130354CFD377A585A0086
:100280000004E6D6B4460200210116000000742FD7
:10029000E5A3E003AF013D5D003D8889C65436C348
:1002A000174FE4E4F432D597609ABB0A611DC1A3ED
:1002B000183EC7D5E71749BDD8FD7494D3986D494A
:1002C00097BE509EC356880EFDC52FCF72506A6AE6
:1002D0007FF2AD013234213FD3591FF048059B9D79
:1002E000E9D653A348353397A1341C4F5385409B1F
:1002F000901B52EF83892B0DEF505CE1E42B50EF04
:1003000049302FD8C046C0CA2367434F5F23E84D0A
:10031000E5C97779A317672F2284A3EB26BE28C5EA
:10032000DBB3C562F9E206136AE69703EA35DD330B
:1003300081B157AC24AC6A7BBCDF12973A3BD41B2B
:100340001750B32AD58F36B41F122DD520ABF6A582
:1003500055B53E1116A08A9E9DA98E769D70417856
:10036000430258719A87011B150E534A57DDBFA5EA
:10037000084435CBFA74D4B3225A199DFE9A64EB23
:10038000B7ACDB79019121B993718802AFBA709D46
:10039000DB103BBCB436A0030CFC00963E067BACE5
:1003A000A6767FF76A1A2FCFAB30556A77EBFAB291
:1003B000C03B951AFF7D18A28FDDD79AC7B7288753
:1003C00072C1D8CEE013B5DD1656D0606F3C78EA26
:1003D00084570562C43200000000AAFFF116D91844
:1003E000C8FD0001D902B007000045929994B1C43C
:1003F00067FB020000000004595A29001E001F007C
:1004000020002100220023002400250026002700D0
:100410002D002E002A004C002B0014001A000800AA
:10042000150017001C0018000C00120013002F000C
:10043000300031004B0039000400160007000900AD
:100440000A000B000D000E000F0033003400000006
:1004500028004E00E1001D001B00060019000500E9
:1004600011001000360037003800E500000052008F
:100470000151E000E300E20000002C000000000059
:10048000E600E400000000000000500051004F00B2
:1004900035003A003B003C003D003E003F0040007C
:1004A000410042004300440045000100005C01009F
:1004B0000100010001000100010001000100010034
:1004C000010001000100010001004A0001000100DB
:1004D0000100010001000100010001000100010014
:1004E00001000100000001004D00010001000100B9
:1004F00001000100010001000100010001000100F4
:1005000001000000010001000100010001000000E5
:1005100001000000000001000100000000000000D8
:1005200001000100010001000100010001000100C3
:1005300001000100010001000100010001000100B3
:1005400001000100010001000100010001000100A3
:100550000100010001000100010001000100010093
:100560000100010001000100010001000100010083
:100570000100010001000100010000000100010074
:100580000100010001000100010001000100010063
:100590000100010001000100000001000100010054
:1005A0000100010000000100000000000100010046
:1005B0000000000000000100010001000100010036
:1005C0000100010001000100010001000100010023
:1005D0000100010001000100010001000100010013
:1005E0000100010001000100010001000100010003
:1005F00001000100010001000100010001000100F3
:1006000001000100010001000100010001000100E2
:1006100000000100010001000100010001000100D3
:1006200001000100010001000100010001000000C3
:1006300001000100010001000100000001000000B4
:1006400000000100010000000000000001000100A6
:10065000010001000100B603000002000200B20325
:10066000000003000100B7030000040002009C0327
:10067000C00605000100B8030000060002009E034A
:10068000000007000200B403000008000100B903E5
:10069000000009000200A0039B060A000200A2035A
:1006A0009B060B000200A4039B060C000200A6039D
:1006B0009B060D000200A8039B060E000200AA0381
:1006C0009B060F000200AC039B0610000200AE0365
:1006D0009B0611000200B0039B0612000200BA0341
:1006E000000013000200BC03000009025B000301CC
:1006F00000A0FA0904000001030101000921110111
:1007000000012240000705810308000109040100DF
:100710000203000000092111010001222200070547
:1007200082032000010705030320000109040200E1
:10073000010300000009211101000122BC0007058E
:1007400084032000011201000200000008534F4BF7
:10075000510100010203011C037600690061006C75
:10076000003A006600360034006300320062003355
:1007700000630000001A0351004B003600350020D2
:100780000048006F00740073007700610070000083
:100790000016035100770065007200740079006B49
:1007A00000650079007300000004030904001124AF
:1007B0001FBECFEFDAE0DEBFCDBF04B603FE18C028
:1007C0008091B4049091B504A091B604B091B7049F
:1007D0008730904BA740B04B59F41092B40410925C
:1007E000B5041092B6041092B704E0E0F8E309955E
:1007F00011E0A0E0B1E0E2ECF1E602C005900D925C
:10080000AA37B107D9F724E0AAE7B1E001C01D92E9
:10081000A43BB207E1F70E9453290C94BB300C941F
:100820000000E8EDF0E080818E7F80831092E2008E
:100830001092DA001092E100A0EEB0E08C9181609D
:100840008C9380818F77808319BCA7EDB0E08C9169
:100850008E7F8C9380818F7E808310928304089595
:100860002091E4003091E50095E6A9012091EC008B
:10087000822F817020FF06C08091E80080FF06C0B3
:1008800080E008952091E80022FD1AC08091A8041C
:10089000882389F0853089F08091EB0085FD0FC0B9
:1008A0002091E4003091E50042175307F9F291508E
:1008B000E1F684E0089582E0089583E0089581E000
:1008C0000895EF92FF920F931F93CF937C018B01BA
:1008D0000E943004C82F811117C08091E80085FD67
:1008E0000BC08091E8008E778093E8000E9430046E
:1008F000882399F3C82F08C0F70181917F01809365
:10090000F1000150110949F78C2FCF911F910F91E0
:10091000FF90EF9008958091AA0487FF13C0809103
:10092000E80082FF06C08091E8008B778093E800A2
:1009300004C08091A8048111F2CF08958091A80489
:100940008823D9F38091E80080FFF8CF8091E800F8
:100950008E77ECCF982F9093E900242F762F50E0DC
:10096000891731F07091EC002091ED005091F0006A
:1009700021FD07C09F5F973071F78093E90081E008
:1009800008953091EB003E7F3093EB003091ED0005
:100990003D7F3093ED003091EB0031603093EB0000
:1009A0007093EC002093ED005093F0002091EE0046
:1009B00027FDE0CF80E00895CF92DF92EF92FF9283
:1009C0000F931F93CF93DF93C8EDD0E088818F7E84
:1009D0008883E7EDF0E080818160808384E082BFDE
:1009E00081E08093830488818E7F888302EE10E00B
:1009F000F80110821092DA0081EEC82ED12CF60197
:100A0000108288818F778883888180688883888135
:100A10008F7D888319BC1092A8041092A9041092AB
:100A2000A7041092A60490EEE92EF12CF701808124
:100A30008B7F808388818160888342E060E080E0F2
:100A40000E94AA04F60180818E7F8083F801808154
:100A500081608083808188608083F70180818E7FC0
:100A60008083888180618883DF91CF911F910F916E
:100A7000FF90EF90DF90CF900895FC018091B0043B
:100A80009091B10486179707A0F06115710529F4BC
:100A90009091E8009E779093E80090E061157105D1
:100AA00051F4911108C08091E80082FF34C080E0C9
:100AB0000895BC01F2CF8091A8048823C1F185304C
:100AC000C1F18091E80083FD30C08091E80082FD93
:100AD000EACF8091E80080FFE1CF8091F300209180
:100AE000F200382F6115710519F02830310558F0E2
:100AF00091E02830310509F090E02091E8002E7750
:100B00002093E800CBCF81918093F100615071096F
:100B10002F5F3F4FE7CF8091A804882341F08530B5
:100B200041F08091E80083FFBECF81E0089582E02C
:100B3000089583E0089508958091850408959C01A7
:100B40004FB7F89480917A0490917B04A0917C0433
:100B5000B0917D044FBF821B930B08952FB7F8947B
:100B600080917A0490917B04A0917C04B0917D04E3
:100B70002FBF089520911C012223C9F020917E04EB
:100B800027FF15C0E62FE695E695E695EE31D8F4F9
:100B9000E80FF92FF11D677021E030E001C0220F4E
:100BA0006A95EAF720958281282322830895FC0123
:100BB000329608962191621303C0DF0111971C92AF
:100BC000E817F907B9F7089520911C012223C1F015
:100BD00020917E0427FF14C0E62FE695E695E69562
:100BE000EE31F8F4E80FF92FF11D677021E030E0E5
:100BF00001C0220F6A95EAF78281822B82830895D1
:100C0000FC0132962FEF30E04191641751F02F3FF5
:100C100019F4411101C0232F3F5F3630A9F72F3F50
:100C200009F40895820F911D27FD9A95FC016283B6
:100C3000089520917704309178042817390771F0CE
:100C40009093780480937704E0917504F091760492
:100C5000309721F00084F185E02D099408952091CA
:100C60007304309174042817390771F09093740459
:100C700080937304E0917504F0917604309721F02D
:100C80000680F781E02D09940895E0917504F091B4
:100C90007604309721F00190F081E02D099480E0F6
:100CA0000895452B39F0682381E06F3F09F080E01B
:100CB0008170089581E0FCCFDC0160919803809100
:100CC0009903962F891301C00895292F30E0F90167
:100CD000EE0FFF1FE057FC4F408151814A175B0721
:100CE000A1F487E08A9FA0018B9F500D1124485AE0
:100CF0005C4F81E0FA0184839613E6CF2F5F3F4F6C
:100D0000237033272093980308952F5F3F4F922F2E
:100D10009370D8CF1092F5021092F402E8E5F3E058
:100D20008581811102C014821682379683E0E039F2
:100D3000F807B1F70895ECE9F3E0848195812AE0A2
:100D400030E0B9010E9406306093170186818093DC
:100D50001601828580931501848580931401868510
:100D60009785B9010E9406306093130180898093B2
:100D70001201828980931101848980931001089562
:100D800080919C0390919D03909319018093180189
:100D900008950E94AE059C019091650280916602C3
:100DA000982B21F0309362022093610290916702A8
:100DB00080916802982B21F03093600220935F02AB
:100DC000E0917504F0917604309749F082E08093C9
:100DD00063020480F581E02D83E692E00994089592
:100DE00090916502803F59F48091660287FF0DC0A3
:100DF0001092660291110BC010925D0208C0813FF3
:100E000081F48091660218169CF3992381F08091F9
:100E1000670290916802892B09F064C010925C020D
:100E20000895823F49F497FFF0CF109265028091B8
:100E300066028111ECCFE0CF833F19F41916ACF3B1
:100E4000E4CF20916702893F29F41216F4F610923C
:100E50006702DBCF8A3F19F427FFD7CFF8CF209165
:100E600068028B3F29F427FFD0CF10926802CDCFC4
:100E70008C3F19F41216CCF3C8CF843F31F4809123
:100E800064028E7F80936402C0CF853F21F48091FD
:100E900064028D7FF7CF863F21F4809164028B7FBF
:100EA000F1CF873F21F480916402877FEBCF883FA9
:100EB00021F4809164028F7EE5CF8D3F31F48091E3
:100EC0005E028E7F80935E02A0CF8E3F21F48091E0
:100ED0005E028D7FF7CF8F3F09F097CF80915E0242
:100EE0008B7FF0CF089580915E0280FF0CC06091EF
:100EF000110170E075956795759567956115710598
:100F000049F1862F089581FF06C06091110170E0BC
:100F100075956795F3CF6091110182FD0BC090919B
:100F20005C029923A1F06091100180911101961744
:100F300038F0682F70E06038710500F38FE708958E
:100F4000899FC001112470E00E941A30F4CF61E043
:100F500070E0D7CF81E0089580915E026091A40394
:100F60007091A50380FF16C020911501269FC00136
:100F7000279F900D1124BC0176956795769567950E
:100F80006038710508F043C06115710509F441C06E
:100F9000862F089581FF0BC020911501269FC00167
:100FA000279F900D1124BC0176956795E9CF82FFAC
:100FB00009C0809115019B01829FB001839F700D34
:100FC0001124DECF20915D022223D1F290911401F1
:100FD00080911501482F50E0291748F0CB01849FDC
:100FE000B001859F700D949F700D1124C9CF289F6B
:100FF00090011124269FA001279F500D369F500D70
:101000001124692F70E0CA010E940630B9CF8FE722
:10101000089581E00895803F31F40E94AC078195E6
:10102000809366020895813F19F40E94AC07F8CFBF
:10103000823F31F40E94AC07819580936502089548
:10104000833F19F40E94AC07F8CF893F29F40E942E
:1010500073078093670208958A3F21F40E94730703
:101060008195F7CF8B3F31F40E9473078195809370
:10107000680208958C3F19F40E947307F8CF843FEB
:1010800031F4809164028160809364020895853F09
:1010900021F4809164028260F7CF863F21F4809131
:1010A00064028460F1CF873F21F4809164028860FC
:1010B000EBCF883F21F4809164028061E5CF8D3FC2
:1010C00031F480915E02816080935E0208958E3FCC
:1010D00021F480915E028260F7CF8F3FB9F7809153
:1010E0005E028460F1CF80E00895F894E82FE295E5
:1010F000EF70F0E031A1282F2F7081E090E001C067
:10110000880F2A95EAF7982F9095932391A392A19F
:10111000892B82A37894089590917E0492FF06C053
:10112000282F28712830F9F4877F846093FF06C048
:10113000282F28712831F1F4877E846120917F0463
:1011400020FF06C0382F38713830D9F4877F81608E
:1011500021FF06C0282F28712831D1F4877E8161B4
:1011600094FD877E0895282F24712430F9F68B7F13
:101170008860DCCF282F2471243101F78B7E8861B1
:10118000DDCF382F3171313019F78E7F8860E0CF95
:10119000282F2171213121F78E7E8861E1CFCF93F5
:1011A000DF93EC0182389105A9F1D8F581339105DF
:1011B00009F496C048F58932910509F48AC08A97E6
:1011C00009F495C0C11521E5D20708F0BCC0C115CE
:1011D00030E5D30708F014C1C83ED10508F09CC023
:1011E000C03ED10560F5C83AD10508F087C0C53AC0
:1011F000D10508F0FDC0C130D10509F12097F9F003
:10120000C430D105E0F440C08533910509F45AC0DB
:10121000C997C1F680917E04837089F0C0EED0E05A
:101220000EC0833E910599F170F4803E910501F165
:10123000823E910539F680917E0482FD21C0CE0167
:10124000DF91CF910895863E910561F1873E91052A
:1012500071F1843E910509F0B5CF80917F0481FF43
:10126000EECF80917E04C7EED0E084FD0DC0E7CFC5
:1012700080917E0480FD12C190917F0490FFDFCFAA
:10128000C3EED0E084FFDBCFD0E0C0E0D8CF8091C8
:101290007E0482FD06C190917F0490FDBFCF84FF44
:1012A000CECFF2CF80917E0483FDDDCFC8CF809179
:1012B0007E0483FDF9C090917F0491FFF0CFC4EECE
:1012C000D0E0BDCF80917E0485FFB9CFC9E2D0E0E8
:1012D000B6CF80917E0485FFB2CFC5E3D0E0AFCF1B
:1012E00080917E0486FFABCFCAE2D0E0A8CF809188
:1012F0007E0486FFA4CFC1E3D0E0A1CFCF3BD105D0
:1013000018F6C85AD0E0CC0FDD1FC85DDE4F09903B
:10131000D881C02DD46493CFC11540E2D40758F4CE
:10132000C11581E0D80708F08ACFC03FD10508F485
:10133000ABCFD06584CFC11590E4D90708F4A4CF12
:10134000DF70D06A7CCFC11525E5D20700F5C11545
:1013500034E5D30708F08AC0C11543E5D40708F087
:1013600071C0C11582E5D80708F467C0CE0183704B
:10137000992721E030E002C0220F331F8A95E2F75F
:10138000C695C69580E2C89FE001112452C0C115E0
:1013900099E5D907A8F4C11528E5D20708F06BC074
:1013A000C11536E5D30708F06FCF8C2F0E948C084B
:1013B000C82FD0E0DC2FCC27CC27DF71D0623FCF05
:1013C000C1154AE5D40708F45BC0CE0190568115DB
:1013D000904208F059CF8D2F8F710E948C0890E0B9
:1013E000982F882788279F719C012C2BE901E6CF35
:1013F000C55AD0E0CB5DDE4FC881D0E0D0641FCFAE
:10140000CE01E4E096958795EA95E1F783702C2F5D
:1014100026952695237040E2249F90011124382BB5
:101420008C2F8370C1E0D0E002C0CC0FDD1F8A9505
:10143000E2F7C22BD32BDC6802CFDC2FCC27C16FA5
:10144000D06AFDCECE018370992721E030E002C042
:10145000220F331F8A95E2F7C695C69590E2C99F81
:10146000E0011124C22BD32BDA68E9CEDC2FCC2784
:10147000C46FD06AE4CEDC2FCC27C06FD06ADFCE39
:101480008C2F8F700E948C0834E0D695C7953A95C2
:10149000E1F7CF709C2FEC01D069D1CEC9E3D0E049
:1014A000CECEC2EED0E0CBCEC6EED0E0C8CE80919C
:1014B0002D02882331F010922D0210922C021092EE
:1014C0002B020895CF93C82F80917F0482FD0CC01A
:1014D00080912D028C1741F00E94AE0590932C0252
:1014E00080932B02C0932D02CF9108958095909107
:1014F000B30498239093B304089580959091CF02FC
:1015000098239093CF0208959091CF02892B8093D6
:10151000CF02089510920A02109209021092080256
:10152000089580919E0390919F03892B89F00E94DA
:10153000AE0520912B0230912C02AC01421B530BC3
:1015400081E020919E0330919F034217530708F4D6
:1015500080E0817008958091070281111092070246
:101560000895209106029091C501291302C080E0E0
:10157000089530E0F90153E0EE0FFF1F5A95E1F7AF
:10158000EA53FE4F5181561306C05081581303C0D1
:101590005281541304C02F5F3F4F2770E6CF81E084
:1015A0000895809106029091C501981301C0089595
:1015B0008F5F8770FACF9E3F49F1E82F2FE0929F0F
:1015C000E00D11249E2F9770E695E695E69583E051
:1015D000E89FF0011124E156FE4F50E040E080E02A
:1015E000219130E0092E02C0369527950A94E2F742
:1015F00021703327042E01C0220F0A94EAF7822BB0
:101600004F5F5F4F4330510559F7089580E00895CB
:101610009E3F69F1E82F2FE0929FE00D11248E2F5D
:10162000877041E001C0440F8A95EAF7E695E69598
:10163000E69583E0E89FF0011124E156FE4F30E08B
:1016400020E070E05191DF011197CB01022E02C022
:10165000969587950A94E2F7817081958527842372
:1016600085278C932F5F3F4F2330310559F708951D
:1016700092959F70963091F058F4925F9F709230DF
:1016800058F4803F19F030F4883E30F481E008953A
:101690009A5FF4CF843FD1F380E00895883EB0F3A1
:1016A000813FD1F7F3CF9C013A9521153F4150F589
:1016B000FC01EE27F170BC0166277270AC01442773
:1016C00054709C012227387094FF0EC080E1EF2BEC
:1016D00009F480E0672B09F08062452B09F08064F3
:1016E000232B89F08068089581E0EF2B09F480E0D6
:1016F000672B09F08260452B09F08460232B19F0D9
:101700008860089580E00895809380047093820437
:10171000609381048091A8048430F9F48093E900F7
:101720008FEF9091E800815095FD06C095ED9A9558
:10173000F1F700008111F5CF8091E80085FF0DC021
:1017400050E040E063E070E080E894E00E946104D3
:101750008091E8008E778093E8000895BC0184E0D2
:101760000C94840BBC0183E00C94840B9C0184E0FA
:101770008093E9009FEF8091E800915085FD06C0BD
:1017800085ED8A95F1F700009111F5CF8091E80081
:1017900085FF0CC050E040E066E070E0C9010E94A7
:1017A00061048091E8008E778093E8000895CF93DC
:1017B000DF93EC0180911C018823B1F180917E04BC
:1017C00087FF32C060E284E08093E9008FEF909160
:1017D000E800815095FD06C095ED9A95F1F700005F
:1017E0008111F5CF8091E80085FF1BC080911C011D
:1017F00070E050E040E0811104C050E040E068E05B
:1018000070E0CE010E9461048091E8008E778093A1
:10181000E80080E2FE01A6E8B4E001900D928A950E
:10182000E1F7DF91CF91089568E081E0CDCF81E0CD
:101830008093E00080E28093D8001092C9008FE18D
:101840009EE40197F1F700C0000087E090EBDC0117
:101850008093B4049093B504A093B604B093B704F6
:1018600088E19CE00FB6F894A895809360000FBEC5
:1018700090936000FFCF019708F40895EFE9FFE02F
:101880003197F1F700C00000F6CF0F931F93CF936D
:10189000DF930CE913E0CFE7D2E0CE010E94713074
:1018A000F80181938F012196C13AF2E0DF07A9F791
:1018B000C8E5D6E0FE0185919491009711F0FC01F6
:1018C00009952896F6E0C03FDF07A1F7DF91CF9199
:1018D0001F910F9108950F931F93CF93DF9384303F
:1018E00030F5653020F54F3010F5C42FD0E0CC0F27
:1018F000DD1F2EE1629FC00DD11D112436E9839FAB
:10190000C00DD11D1124CE0187960E947130082F81
:1019100010E0102F0027CE0188960E9471309801A8
:10192000282BC901DF91CF911F910F91089590E06D
:1019300080E0F8CF462F2091CD023091CE02232BAC
:1019400091F47E3F39F46E3F71F48091CB02909117
:10195000CC020895843038F4753028F46F3018F4D0
:10196000672F0C946B0C90E080E00895CF92DF928B
:10197000FF920F931F93CF93DF936C010091B204FA
:1019800080912E02082BC7E0D0E010E0FC2EC801A9
:101990000C2E02C0959587950A94E2F780FD0CC045
:1019A0002197A0F7F12C8F2DDF91CF911F910F91EF
:1019B000FF90DF90CF900895B6018C2F0E949A0C73
:1019C0000E94CF08019761F3EECFCF93DF93EC0134
:1019D0000E94B60CBE010E949A0CDF91CF910C942C
:1019E000CF08FC0186819781009721F00E94CF08E3
:1019F0000C94380B808191810E94E50CF9CF1F93E4
:101A0000CF93DF9300D000D00F92CDB7DEB74983DC
:101A10005A8389819A816623B9F02223A9F00E9412
:101A2000B60C182F682F89819A810E94080B698152
:101A30007A81812F0F900F900F900F900F90DF9170
:101A4000CF911F910C949A0C0E94DB0A182FEFCFB4
:101A5000FC01262F86819781009739F440815181BE
:101A60006281738184810C94FF0C089583E290E07D
:101A70000E947130843289F484E290E00E947130D7
:101A8000893559F485E290E00E94713091E0893BFC
:101A900009F090E0892F8170089580E0FCCFCF930A
:101AA00084E090E00E947130C82F82E290E00E94B2
:101AB0007130982F8C2FCF9108950F931F93CF9350
:101AC000DF930CE913E0CFE7D2E0CE010E94713042
:101AD000F80161918F01681719F0CE010E947F30E3
:101AE0002196C13AF2E0DF0781F7DF91CF911F9194
:101AF0000F910895ECE9F3E0128E138E8FEA90E0D7
:101B00009183808385E0848F88E893E19383828347
:101B10008AE090E09583848324E130E03783268354
:101B200048E050E051874087938782872EE130E07C
:101B3000358724879787868720E530E0318B208B97
:101B4000538B428B48E250E0558B448B42E350E08C
:101B5000578B468B48EC50E0518F408F158E978FF6
:101B6000868F31A320A30E945D0D0C94450CCF936A
:101B7000DF93C1E4D3E060E0CE010E947F30219684
:101B8000C11584E0D807B9F7DF91CF9108950F937D
:101B90001F93CF93DF938901843048F5653038F582
:101BA0004F3028F521153C4531F420910E0130913C
:101BB0000F01232BE1F0C42FD0E0CC0FDD1F9EE1FD
:101BC000699FC00DD11D112496E9899FC00DD11DBB
:101BD0001124612FCE0187960E947F30602FCE01A5
:101BE0008896DF91CF911F910F910C947F30DF91F8
:101BF000CF911F910F910895CF93C82F6FEF81114F
:101C000064E283E290E00E947F306FEFC11169E5EA
:101C100084E290E00E947F306FEFC11169EB85E2B2
:101C200090E0CF910C947F30CF93C92F682F84E040
:101C300090E00E947F306C2F82E290E0CF910C9474
:101C40007F307F928F929F92AF92BF92CF92DF921E
:101C5000EF92FF920F931F93CF93DF93CDB7DEB731
:101C600064970FB6F894DEBF0FBECDBFA0900E01F3
:101C7000B0900F0181E090E090930F0180930E01EE
:101C80008AEFC82E83E0D82E00E0760110E015C060
:101C9000F40125913491472D612F802F0E94C70DAB
:101CA00082E0880E911C7394EFE07E12F1CFFEE18A
:101CB000EF0EF11C1F5F153019F04701712CE8CFB2
:101CC0000F5F86E9C80ED11C0430F9F60E947A0D28
:101CD0001A8219821C821B821E821D8218861F8214
:101CE00088EC90E09A87898701EA12E04AE050E0A8
:101CF000B801CE0101960E94A330065F1F4F013F3D
:101D0000E2E01E0799F77E01FBE0EF0EF11C8AE08E
:101D1000F70111928A95E9F74AE050E0B801C7014E
:101D20000E94A330065F1F4F0134F3E01F07A1F7A5
:101D3000B0920F01A0920E0164960FB6F894DEBF28
:101D40000FBECDBFDF91CF911F910F91FF90EF900C
:101D5000DF90CF90BF90AF909F908F907F9008952D
:101D600080E00E94FC0D60E086E290E00E947F30FF
:101D70000E94210E0E94B70D81E00C94FC0D9B0186
:101D8000883070F49AE0899FB00111246F557D4F1F
:101D90004AE050E0C9010E94613090E080E008957F
:101DA0008FEF9FEF08958F929F92AF92BF92CF9245
:101DB000DF92EF92FF920F931F93CF93DF93CDB7F4
:101DC000DEB72A970FB6F894DEBF0FBECDBF03EC87
:101DD00013E0F12CE12C85E4C82E87E2D82E9FE693
:101DE000A92E97E2B92E2EEA822E26E2922EF80133
:101DF000D182C082B382A28295828482F58AE48AEB
:101E0000BE016F5F7F4F8E2D0E94BF0E892B29F47C
:101E100089859A85F801938B828BFFEFEF1AFF0A71
:101E20000A5E1F4F88E0E816F10409F72A960FB6FC
:101E3000F894DEBF0FBECDBFDF91CF911F910F9100
:101E4000FF90EF90DF90CF90BF90AF909F908F90DA
:101E50000895CF92DF92EF92FF920F931F93CF934B
:101E6000DF93CDB7DEB72A970FB6F894DEBF0FBE6B
:101E7000CDBFEBE7F2E080E5DF011D928A95E9F73F
:101E8000E8E5F3E088E3DF011D928A95E9F78BE747
:101E9000C82E82E0D82E7F0101EF12E0F701D18237
:101EA000C0824AE050E0B801CE0101960E94613044
:101EB00088E0FE013196D60101900D928A95E1F7F6
:101EC00089859A85D70113969C938E931297BAE0D1
:101ED000CB0ED11CE7E0EE0EF11C065F1F4F013464
:101EE000F3E01F07D9F62A960FB6F894DEBF0FBEAF
:101EF000CDBFDF91CF911F910F91FF90EF90DF90B9
:101F0000CF9008954F925F926F927F928F929F929F
:101F1000AF92BF92CF92DF92EF92FF920F931F93F7
:101F2000CF93DF93CDB7DEB72A970FB6F894DEBF15
:101F30000FBECDBF8E010F5F1F4F8AE0F8011192D7
:101F40008A95E9F796E5E92E91E0F92E68012BE5EF
:101F5000422E21E0522E66246394712C4AE6842E90
:101F600041E0942EF70181917F018F3F09F445C034
:101F7000F894E82FE295EF70F0E021A18F70A301B3
:101F800002C0440F551F8A95E2F7CA01922F982B81
:101F900091A392A18095892382A3789400C0EBE558
:101FA000F1E021E030E0B12CA12C41914F3F09F448
:101FB0007EC0A42FA295AF70B0E090968C9190E077
:101FC0004F7002C0959587954A95E2F780FD6FC0E6
:101FD000C901A82AB92A220F331F8E169F0629F796
:101FE000F701319780818F3F11F00E94750850EA08
:101FF0005A95F1F7F601B182A082F2E0CF0ED11C22
:102000004E145F0409F0AECF4AE050E0B80182E31D
:1020100092E00E944430FF24F394009709F4F12CDD
:10202000892B09F447C08AE0F801A2E3B2E00190ED
:102030000D928A95E1F781E0809331020E94AE050E
:102040009093300280932F0280912F029091300262
:102050000E949F05059790F1809132029091330282
:1020600090935302809352028091340290913502F2
:1020700090935502809354028091360290913702DA
:1020800090935702809356028091380290913902C2
:10209000909359028093580280913A0290913B02AA
:1020A00090935B0280935A021092310207C090E035
:1020B00080E08FCF809131028111C6CF8F2D2A967B
:1020C0000FB6F894DEBF0FBECDBFDF91CF911F9149
:1020D0000F91FF90EF90DF90CF90BF90AF909F90C7
:1020E0008F907F906F905F904F9008958091CF0276
:1020F0009091B304892B80937C0180912D028823D9
:1021000019F180919E0390919F03892B29F00E94E1
:10211000910A81110E94570A80917C0190912D02B1
:10212000892B80937C0180911C018823D9F18091B7
:102130007E0487FF37C08EE1EEE7F1E090E081504A
:1021400098F591110E94570A40E250E06BE072E06E
:102150008CE791E00E944430892B59F180E2ECE752
:10216000F1E0ABE0B2E001900D928A95E1F7E091E9
:102170007504F09176043097E1F080911C0188237A
:1021800059F080917E0487FF07C080917C01809385
:102190007D0186E080937C010280F381E02D8CE755
:1021A00091E0099486E0C8CF2191222341F29F5FFC
:1021B000C6CF0895EF92FF920F931F93CF93DF93B3
:1021C000EC018A85811134C0EB80FC8087E5F81A28
:1021D00026E12E9DC0012F9D900D1124DC01AD53F1
:1021E000BC4F1496ED91FC911597309731F05496B1
:1021F0006D917C9187539C4F099586E18E9D80015E
:102200008F9D100D11240D531C4FF80187810E94E2
:102210007D0AF80180850E94760A0E947610188255
:1022200019861B861E821D821092C2031092C10362
:10223000DF91CF911F910F91FF90EF900895CF9371
:10224000DF93EC018989811118C081E0898B8F812E
:102250000E94840A8091B3049885892B8093B304EB
:102260000E947610EA81FB81309739F06C897D8974
:10227000CE010696DF91CF910994DF91CF91089519
:1022800080911A01877F80931A0182E00E94760A6A
:1022900080911A0184FF06C08F7E80931A0182E02C
:1022A0000E94840A80911A0185FF06C08F7D809369
:1022B0001A0180E20E94840A0C94761090E080E07B
:1022C0000E942F0690E080E00E9419061092B3044D
:1022D0000E94761086E0E3E6F2E0DF011D928A9527
:1022E000E9F710925D0210925C0210925E020C946B
:1022F000C9068093B2040C945E118091B204982FA9
:102300009670963019F488600C947911877FFCCF11
:1023100021E030E001C0220F8A95EAF720958091F4
:10232000B20482230C94791190910A02809589233A
:1023300080930A02282F277091F4282F082E000C72
:10234000330B9217130659F090917F0492FD07C04A
:102350008595859585950E9488110C948A0A089523
:1023600090917F0492FB222720F9281769F080FBC7
:1023700092F990937F0480917E0490917F040E9453
:10238000140E82E00C949411089521E030E001C015
:10239000220F8A95EAF78091B204822B0C9479116E
:1023A00090917F0492FD10C098E0899F90011124C4
:1023B000622B60930A020E94C5110E94AE059093A1
:1023C00009028093080208950C94C51180932E028F
:1023D0000C945E111092CF0280911C01EEE7F1E0A7
:1023E000882359F080917E0487FF07C08EE1DF01CA
:1023F0001D928A95E9F70C945E1186E0F8CF1F9341
:10240000CF93DF93CDB7DEB7AA970FB6F894DEBFB0
:102410000FBECDBF8AEA94E02091F100DC012D933C
:10242000CD01B4E0823B9B07B9F78091AB048330C8
:1024300009F472C0B8F4813009F449C0823009F45B
:10244000B3C08091E80083FF96C28091AA04909166
:10245000AB049A3008F08FC2E92FF0E0E354FF4C50
:102460000C942E308A3009F48EC08B3009F471C080
:10247000893039F78091AA04813219F78091AE042E
:102480009091AF04009711F00297D9F68091E8007F
:10249000877F8093E8008091E80082FF38C09091A8
:1024A000F3008091F200029731F48091F1008130C5
:1024B00011F0863021F48091F100809385048091A1
:1024C000E8008B778093E8000E948B04BACF80915C
:1024D000AA04813A09F0B5CF8091E800877F809304
:1024E000E8008091AE049091AF04892B61F460E222
:1024F00086E894E070E00E943D058091E8008B77CB
:102500008093E8009ECF60E090E080E0F3CF809180
:10251000A8048111C0CF95CF8091AA04813A09F017
:1025200090CF8091AE049091AF04892B09F089CFB0
:102530008091E800877F8093E8008091E80080FF29
:10254000FCCF80911C018093F1008091E8008E7790
:10255000B9CF8091AA04813209F073CF8091AE0483
:102560009091AF04892B09F06CCF8091E800877FB0
:102570008093E8000E948B048091AC0480931C013E
:102580000E94EA115ECF8091AA04813209F059CFEE
:102590008091E800877F8093E8000E948B048091FF
:1025A000AD04809384044DCF8091AA04813A09F050
:1025B00048CF8091E800877F8093E8008091E80011
:1025C00080FFFCCF80918404BECF803899F08238A0
:1025D00009F0D1C18091AE048F70873008F0CBC173
:1025E0008093E9008091EB0085FB882780F91092A9
:1025F000E90006C08091A6049091A7049111826021
:102600009091E800977F9093E8008093F1001092FA
:10261000F1008091E8008E77AAC1882309F498C15F
:10262000823009F0A8C18091AC0481119BC18091D6
:10263000AE048F702FEF280F263008F09CC18093D6
:10264000E9002091EB0020FF8DC1933031F480919F
:10265000EB0080628093EB0085C19091EB0090616C
:102660009093EB0021E030E001C0220F8A95EAF759
:102670002093EA001092EA008091EB008860EACF94
:10268000811179C11091AC041F778091E3008078AB
:10269000812B8093E3008091E800877F8093E8009E
:1026A0000E948B048091E80080FFFCCF8091E300C2
:1026B00080688093E30082E0111183E08093A80496
:1026C0005AC18058823008F056C12091AC04309134
:1026D000AD042C3DE3E03E07A1F583E08A838AE266
:1026E00089834FB7F894DE01139620E03EE051E273
:1026F000E32FF0E050935700E49120FF03C0E295F0
:10270000EF703F5FEF708E2F90E0EA30C0F0C79619
:102710008D939D932F5F243159F74FBF8091E8002F
:10272000877F8093E8006AE270E0CE0101960E9404
:102730003D058091E8008B778093E8001CC1C0962E
:10274000E7CF8091AE049091AF04432F55274330DB
:10275000510509F44AC078F54130510509F485C0A6
:102760008BE590E0EAEEF6E04230510509F003C156
:102770002091E800277F2093E8002091B004309159
:10278000B1048217930708F49C0140E0211531053C
:1027900009F070C041116EC08091E80082FDC9CF80
:1027A0008091A804882329F2853019F28091E800ED
:1027B00083FFF2CFBECF4132510509F447C0423208
:1027C000510509F0D8C08330910508F0D4C0FC0150
:1027D000EE0FFF1FE359FE4F0190F081E02D865967
:1027E0009E4FDC018C9190E01DC0332721303105D4
:1027F000E9F02115310579F022303105F9F0233067
:10280000310509F0B8C0E7E5F7E0E4918E2F90E0DC
:10281000E7E5F7E007C0E9EAF7E0E4918E2F90E002
:10282000E9EAF7E0009709F4A6C0A2CFE1E9F7E0F2
:10283000E4918E2F90E0E1E9F7E0F4CFE5E7F7E0EF
:10284000E4918E2F90E0E5E7F7E0ECCF833091053F
:1028500008F091C0880F991FFC01ED58FE4F0190C0
:10286000F081E02D89E090E083CF82E190E0E5E423
:10287000F7E07ECF8091A804882309F45ACF8530F1
:1028800009F457CF8091E80083FD53CF8091E80091
:1028900082FD82CF8091E80080FF78CF9091F30095
:1028A0008091F2002115310519F08830910550F022
:1028B00041E0089709F040E08091E8008E7780932E
:1028C000E80064CF44914093F100319621503109E2
:1028D0000196E8CF803809F04EC08091E800877FEC
:1028E0008093E8008091A9048093F10092CE811139
:1028F00042C01091AC041230F0F58091E800877F5F
:102900008093E8001093A9040E948B04112311F016
:1029100084E005C08091E30087FDFACF81E08093D9
:10292000A80442E061EC81E00E94AA0442E261EC6A
:1029300084E00E94AA0442E261EC82E00E94AA04C0
:1029400042E260EC83E00E94AA048091A80413C0D4
:102950008091AC04813079F481E0933009F080E01B
:102960008093A7041092E9008091E800877F80930C
:10297000E8000E948B048091E80083FF0AC08091E8
:10298000E800877F8093E8008091EB00806280936D
:10299000EB00AA960FB6F894DEBF0FBECDBFDF9155
:1029A000CF911F910895882321F00E94760A0C94FC
:1029B00076100895882339F09091B304982B909362
:1029C000B3040C9476100895882321F00E947D0AA8
:1029D0000C9476100895882321F00E94840A0C94A8
:1029E00076100895882379F19CEF980F913A38F486
:1029F000682F8CE791E00E94BA050C94761090E263
:102A0000980F983050F4877091E001C0990F8A9523
:102A1000EAF7892F0E947D0AF0CF9BE5980F93304B
:102A200020F490E080E00C942F0698E5980F973101
:102A300020F490E080E00C941906803F20F00E9482
:102A4000F0060C94C9060895CF93DF93EC010E9421
:102A5000F214CE010E94530B9E01205E31092830F2
:102A6000310510F0CD2B21F4DF91CF910C94E414BB
:102A7000DF91CF910C94D314CF93C82F882309F4FE
:102A80006BC08CEF8C0F813AC0F580911C018823BC
:102A900011F180917E0487FF1EC0EC2FE695E6952C
:102AA000E695F0E0E458FE4F828190E04C2F4770AD
:102AB00021E030E002C0220F331F4A95E2F7822363
:102AC0009323892B91F06C2F8CE791E00E94BA053B
:102AD0000E9476100AC0EEE7F1E084E891E02191CF
:102AE000C21789F38E179F07D1F76C2F8CE791E0FF
:102AF0000E94E405CF910C94761080E28C0F883010
:102B000048F4C77081E001C0880FCA95EAF70E94B7
:102B1000840AF0CFEBE5EC0FE33040F4F0E0EB5D3E
:102B2000FE4F808190E0CF910C942F06E8E5EC0FEA
:102B3000E73150F4F0E0EE0FFF1FE85DFE4F8081BB
:102B40009181CF910C941906C03F30F08C2F0E94D8
:102B50000B08CF910C94C906CF9108951F93CF9382
:102B6000DF93182FC091BC03D091BD03893321F0AE
:102B7000C091BA03D091BB03812F0E943C152097CE
:102B800031F4812FDF91CF911F910C94F2148FE9D2
:102B90009FE00197F1F700C000002197F0CF0F935D
:102BA0001F93CF93DF93C42FD22FFC018281882300
:102BB000A1F04093C0030E94AE059093BF038093A1
:102BC000BE03C77081E001C0880FCA95EAF7DF91A4
:102BD000CF911F910F910C94EB141091C00314131B
:102BE00039C08091BE039091BF030E949F05209140
:102BF000B4033091B5038217930760F5C0E2CD0F9F
:102C00001D17B9F080E2810F883040F4177081E021
:102C100001C0880F1A95EAF70E94E414C83048F4FE
:102C200081E09D2F977001C0880F9A95EAF70E9466
:102C3000EB14802F0E94AE15C83098F4D77081E055
:102C400001C0880FDA95EAF7DF91CF911F910F91BC
:102C50000C94E414C77081E001C0880FCA95EAF7AC
:102C6000F3CFDF91CF911F910F910895AF92BF9253
:102C7000CF92DF92EF92FF920F931F93CF93DF9348
:102C8000EC018AE0A82E2881222309F48CC021308F
:102C9000C9F599818A81913021F422960E94AE155E
:102CA00005C0923029F422960E943C152196EBCF64
:102CB000933021F422960E94F214F8CF943011F050
:102CC0002196F4CF229630E020E0AE014F5F5F4FB7
:102CD0008053990B8A30910550F02150310930F31F
:102CE0008FE99FE00197F1F700C00000F6CFA29EA8
:102CF000B001A39E700D11249C01260F371F8981FE
:102D0000EA01E3CFE22FF0E0E650FE4FB490822FCD
:102D100086958695869590E0FC01E651FE4FE490FD
:102D20002770F12C022E02C0F594E7940A94E2F782
:102D300031E0E322FF24FC01E652FE4FC490D12C87
:102D4000022E02C0D594C7940A94E2F731E0C32260
:102D5000DD24FC01E653FE4F049110E002C01595FE
:102D600007952A95E2F701701127E114F10419F093
:102D700081EE0E943C15C114D10419F086EE0E9428
:102D80003C158B2D0E94AE15CD2819F086EE0E94C1
:102D9000F214EF2819F081EE0E94F214012B09F4CD
:102DA00085CF8CE27BCFDF91CF911F910F91FF9068
:102DB000EF90DF90CF90BF90AF900895CF93DF93C7
:102DC000EC010E94530B9E01205E31092830310531
:102DD00010F0209739F40E94EB148C2FDF91CF91E3
:102DE0000C943C150E94DA14F8CF662329F0209148
:102DF000B30422602093B3049C013056211540E2B5
:102E0000340720F0305E2115304108F499270C94E6
:102E1000DE16DF92EF92FF920F931F93CF93DF9313
:102E20007C018B01D42E80911A0182FF8CC0C0914D
:102E3000F202D091F302CE15DF0521F0E114F10486
:102E400009F081C080911A018B7F80931A0181FD66
:102E500073C08091F0029091F102A801481B590BB8
:102E600081E020911801309119014217530708F4AD
:102E700080E08170F82E80911A01F0FA81F9809338
:102E80001A01FE0183E0F695E7958A95E1F7EE7168
:102E9000FF27E053FD4F20813181AE014F70552750
:102EA00081E090E002C0880F991F4A95E2F7FF2069
:102EB00009F444C0822B932B918380838091CF02AD
:102EC00081FF08C080911A01806180931A0182E01D
:102ED0000E947D0A8091CF0285FF08C080911A016F
:102EE000806280931A0180E20E947D0A6F2DCE01DC
:102EF0000E94F516DD2031F08091B70385FF02C0F6
:102F000086FF3BC08091BA039091BB030E943B0CAB
:102F10008091F2029091F3029C013056211540E21B
:102F2000340720F0305E2115304108F499270E94C3
:102F300024150E9440111DC081E09BCF8095909583
:102F400082239323B9CFC7019927970130562115C2
:102F500040E2340728F0305E2115304108F0C70107
:102F60000E9424158091F2029091F3028E159F0524
:102F700001F31093F1020093F002DF91CF911F91C2
:102F80000F91FF90EF90DF90089569EE7EEF90E053
:102F900080E00E949D3060E082E090E00E947F30FF
:102FA00060E083E090E00E947F3010922E0260E0AB
:102FB00084E090E00E947F3060E082E290E00E9436
:102FC0007F3060E085E090E00E947F3060E086E046
:102FD00090E00E947F306FEF87E090E00E947F30AA
:102FE00040E050E0BA0188E090E00E94913060E05B
:102FF0008DE090E00E947F3040E050E0BA0188E12F
:1030000090E00E94913060E087E190E00E947F3084
:1030100040E050E0BA018CE190E00E94913070E015
:1030200060E080E290E00E949D3040E050E0BA0114
:1030300088E190E00E94913080E00E94FC0D0E94A7
:10304000B00E40E050E0BA018FE090E00E94913075
:1030500040E050E0BA0183E190E00C9491308F920F
:103060009F92AF92BF92CF92DF92EF92FF920F9317
:103070001F93CF93DF9300D000D0CDB7DEB77C0194
:10308000DC0113964D915C91149711966C911197F8
:103090008C910E945106811179C061E0C7010E94A4
:1030A000280D8C01F7018281811111C0D701129680
:1030B0008C91811149C00031FFE51F0709F4EEC072
:1030C00001312FE5120709F010C782E0E8C08091B6
:1030D0000C0190910D01019649F363ECC62E63E05B
:1030E000D62EB12CA12C9924939480910C0190910F
:1030F0000D018A159B05D4F2F60186818823E9F03B
:10310000818592850817190739F48091C103909140
:10311000C2030817190789F0D6011F969C921F97C2
:103120001C961C930E931B97C6010E941F11C6018B
:1031300006960E94DA101092B304BFEFAB1ABB0AD6
:10314000E6E1CE0ED11CD1CF980122513F4520316E
:10315000310508F0C0C68FEF93E00E9471305EEE3B
:10316000D52ED00E01E413E0882369F180910A0284
:10317000877061F0D70112968C91882339F0809185
:103180007F0482FD03C082E00E9494110F900F9093
:103190000F900F90DF91CF911F910F91FF90EF90C3
:1031A000DF90CF90BF90AF909F908F9008950115C2
:1031B000F4E01F07D9F2C8010E947130811101C0EB
:1031C000DA940F5F1F4FD110F2CF19821A821B823F
:1031D0001C82CC24CA9448012FEF821A920AC8019B
:1031E0000E94713089831A82882309F4BFCF81300D
:1031F00009F048C0580132E0A30EB11CC4010E947E
:103200007130982E8A83882309F4B0CFC5010E94BB
:103210007130D82E8FEF890D833068F4580143E068
:10322000A40EB11CDB82DD2021F0CE0101960E94AC
:1032300036168501D0CF54E09512FBCF580184E0BB
:10324000A80EB11CC80103960E947130DD2009F45C
:103250008DCF882309F48ACF8150990BC89E9001A5
:10326000C99E300D1124AD2DA150BB0BCD01820F95
:10327000931F0197F0F2EFE9FFE03197F1F700C0FB
:103280000000F7CFCE0101960E9436165401D1CF2F
:1032900081E00E94C5110E947D1168CF81E00E94EB
:1032A0008811F9CF82E0F5CF4FEFC416D10411F0A9
:1032B00008F027C661E772E08C2D0E94BF0E892BB3
:1032C00029F586E18C9DF0018D9DF00D1124ED53C3
:1032D000FC4F8681813009F062C08091710290912B
:1032E0007202892B99F08091730290917402892B5C
:1032F00069F0809175029091760220917702309169
:103300007802822B932B892B09F453C080910C01F6
:1033100090910D018C159D0524F4D0920D01C09261
:103320000C01F701828196E19C9D50019D9DB00C9E
:10333000112495012D533C4F6901D90150968C936E
:103340005097928116968C911697992309F43FC055
:103350001A961C930E9319978F5F16968C930E9462
:10336000AE05F6019687858780912D02878380912F
:10337000B3049091CF02892B80870190F081E02DDA
:10338000309741F0D60154966D917C91C5018753D9
:103390009C4F09951093C2030093C103B2C58230BC
:1033A00009F0B4CF8091750290917602892B09F4CF
:1033B000ADCF26E12C9DC0012D9D900D11248D5384
:1033C0009C4FDC0150961C920E941F119FCF8823B6
:1033D00009F497C5F9018189882309F492C5C501CB
:1033E00087539C4F0E94DA108CC580911A0181602E
:1033F00080931A01B4C580911A018E7F80931A01BF
:103400000E944011ACC580911A018F7E013E1105CA
:1034100031F0053E1105C9F480911A018F7D80932A
:103420001A0180911A0180FFA9C5D70112968C91CB
:103430000832110528F50E31110508F074C004306A
:10344000110580F5811196C599C5C8019056811561
:1034500040E2940720F0905E8115904110F7809132
:103460001A0182FF8BC58091B90381FD87C527E4CE
:1034700032E040E0B60190E080E00E9409177EC58E
:103480000933110558F40D32110518F40B321105EA
:10349000C9F69091B70392FDD5CF08C00436110547
:1034A000C1F3D0CF9091B70394FDCCCF882309F41A
:1034B000A1C09091CF0280912D02282F292B322F6D
:1034C0003D7FB1F11092F3021092F2023091B703F6
:1034D00031FD2EC0F80143E0F695E7954A95E1F7F6
:1034E000EE71FF27E053FD4F98012F70332781E0E5
:1034F00090E002C0880F991F2A95E2F78095909579
:1035000020813181822393239183808360E0C801ED
:103510000E94F51680912D028D7F0E94620A82E042
:103520000E94941123CE9091B70393FD8BCFBECF11
:1035300038E0F701A7E4B2E001900D923A95E1F787
:103540001092490210924B0210924A02A090F2028D
:10355000B090F3020A151B05B1F53091B70335FFA2
:1035600032C040911A0141FB992490F841FF02C0FA
:1035700036FF29C04091F0025091F102B601641B60
:10358000750B4091B4035091B50364177507D8F4D7
:1035900091FF08C080911A01806180931A0182E036
:1035A0000E947D0A8091CF0285FF08C080911A0198
:1035B000806280931A0180E20E947D0A692DC50114
:1035C0000E94F516D3CD90911A0121FB91F99093A9
:1035D0001A018D7F0E94620A1093F3020093F20297
:1035E000D092F102C092F00280911A01846080931F
:1035F0001A0195CF970140E0B601C8010E94091752
:10360000B5CD053F4CE5140709F462C008F45AC073
:10361000063F8CE5180709F461C0D70112963C916A
:10362000332309F4CAC41092C0030330BDE51B075D
:1036300008F060C00A3FECE51E0730F4C801825074
:103640009C45449708F060C00E944F0D90937F0402
:1036500080937E0401313CE5130709F465C108F04D
:10366000E2C009305CE5150709F44CC108F0AFC0B1
:1036700005309CE5190709F43DC108F095C00330F9
:10368000BCE51B0709F42CC108F030C180917E0411
:10369000816002301C4509F426C180917E0490911E
:1036A0007F040E94140E0E94EA1160CD07E225EE0D
:1036B00045EE68ED7CE57DC406E221EE40EE63EF69
:1036C0007CE577C407E225EE44EE64EF7CE571C447
:1036D00006E221EE42EE65EF7CE56BC407E225EEE3
:1036E00046EE66EF7CE565C408E221E045EE69ED53
:1036F0007CE55FC40136FDE51F0709F4A5CF053A57
:103700002DE5120709F4A0CF06315CE5150709F491
:1037100058C40A358DE5180709F45CC108F038C1B2
:103720000115ACE51A0709F445C10E3D1C4509F425
:103730004EC1F70186819781009709F44FC10E941D
:10374000CF08182F092FF701D280C580C2943FE01F
:10375000C32280910A028770C1F0AD2CDD20B1F048
:10376000892F807F803421F080E2810F883068F0DB
:1037700080917F0482FD09C082E00E9494118091B3
:103780000A028770AA24A3948111A12C902E9294EE
:103790002FE09222FBE0F91508F4ADC1E92DF0E02D
:1037A000E953FF4C0C942E3080917E0480620730E8
:1037B0002CE5120709F497C080917E0480610830DF
:1037C0001C4508F490C080917E0480648CC0809178
:1037D0007E048B7F0D304CE5140709F484C080F41F
:1037E0000B308CE5180709F493C080917E048C603F
:1037F0000C301C4508F477C080917E048D7F73C027
:1038000080917E048F7E0F30ACE51A0709F46BC0FF
:1038100080917E04877F00311C4508F464C080914C
:103820007E048F7D60C00D3FECE51E0709F478C073
:1038300050F505312CE5120709F480C098F4809109
:103840007E04837F03314CE5140709F44CC008F46F
:103850006FC00E94EA1190917E04892F97FB87F92F
:10386000805841C00B3F8CE5180709F447C008F0A9
:1038700053C080917F0481600A3F1C4509F00DCF41
:1038800080937F040ACF0130BDE51B0709F462C0B5
:10389000B8F480917F048C7F0F3FFCE51F0781F314
:1038A00080917F04836001151D4550F380917F0452
:1038B000982F909591708E7F892B90FB81F9E0CFA6
:1038C00001363DE5130709F44BC0053A4DE51407F1
:1038D00009F44DC002301D4509F0DFCE60E03BC069
:1038E00080917E04826080937E04D7CE80917E0496
:1038F0008460F9CF80917E048860F5CF80917F0449
:103900008260BECF0E94EA1180917E048068EBCF76
:1039100080917E048E7FE7CF80917F048E7FB0CF31
:1039200080917F048D7FACCF80917E048F7BDBCF35
:103930000E94EA1180917E048F77D5CF80917E041A
:1039400082FB992790F921E0922790FB82F990FB66
:1039500083F9C9CF61E08EE090E00E947F309DCE78
:1039600090917E04892F8F7E94FF8061BCCF9091CF
:103970007E04892F8E7F90FF8160B5CF80919C015E
:1039800069E2811165E38CE791E00E94BA0546C3C4
:103990000B35EDE51E0701F10C351D4509F0C9CECB
:1039A00080917F0482FB882780F991E089270E941B
:1039B000B011BFCE0E94EA112FEF34E34CE021504A
:1039C00030404040E1F700C000000E94170C0E9408
:1039D000C517CCCB81E0EBCF80E0E9CF82810081BD
:1039E0001181882369F0C8010E94B60CD82E682F77
:1039F000C8010E94080BB8018D2D0E949A0C9FCE21
:103A0000C8010E94DB0AD82EF6CF202F2F70B22ECD
:103A1000802F807F19F0B29490EFB922DD20A9F0B9
:103A2000BB2059F080E2810F883010F0111107C0DF
:103A30008B2D0E94840A0E947610812F5AC080919B
:103A4000B304B82AB092B304F6CF812F0E94F214C7
:103A5000BB2009F450C080E2810F883010F01111B2
:103A600004C08B2D0E947D0A03C08B2D0E94760A14
:103A70000E94761040C0302F3F70B32E802F807F81
:103A8000803219F0B29480EFB822112321F1113065
:103A900009F4A4C0DD2009F4ADC0CC2009F47DC038
:103AA00020E0D7014C9111965C91119712966C9180
:103AB000129713967C91139714968C910E94FF0C89
:103AC0008091B90381FDB9CFF701858180FFB5CF22
:103AD0008F70858362C080917F0482FF40C0DD20AB
:103AE000C1F1BB2029F08B2D0E94840A0E94761020
:103AF00080E00E943C15A92DA850BB0B149710F430
:103B00000E944506812F902F0E94380B8111C4C15D
:103B100010929E0110929D01AA20B1F080910A029C
:103B200080FD12C0D70112961C92859585958595CA
:103B30000E94C511C7010E942F1880910A02859525
:103B4000859585950E94881160E0C7010E94280D27
:103B50001DCB80E00E94F214BB2069F282CFDD20F1
:103B600001F1C11004C080912D028B2917C041E0E2
:103B7000C41206C080912D028B290E94620ABBCF1D
:103B80008091B803823078F3C812EDCF0E94570AB3
:103B900080910702B812B09207028B2D0E94EB149D
:103BA000AACFC11006C00E94570A8B2D0E94E414B0
:103BB000A2CF8091B80351E0C5120BC0823008F447
:103BC0009ACF8091CF028B2109F495CF0E94AB0A46
:103BD000EACF823040F38C11E6CF8DCFDD2029F083
:103BE00085E08C1508F487CFD8CF94E09C1508F4B5
:103BF00082CFDBCFCC20C9F28091BC039091BD0372
:103C0000193321F08091BA039091BB030E943B0CC1
:103C1000812F0E94F2146FCF802F86958695837036
:103C200069F0813009F067CF812F902F9370D11008
:103C300002C090E080E00E9419065DCF812F902F96
:103C40009370D11002C090E080E00E942F0653CF05
:103C5000812FDD2029F00E940B080E94C9064BCF5E
:103C60000E94F006FACF802F837091F5D11043CFD8
:103C7000412F429546954770440F440F812F8F7016
:103C8000042E01C0880F0A94EAF7212F207114FF37
:103C900007C02FE030E001C0220F4A95EAF72095D7
:103CA000302F369536953370323069F050F44091AC
:103CB0002E02313029F0822B84230E94E6111BCF83
:103CC000842B822BFACF282B80912E028227F5CFCE
:103CD0008695DD2011F0802F8170882309F40BCFA9
:103CE000412F429546954770440F440F812F8F70A6
:103CF000042E01C0880F0A94EAF7212F207114FFC7
:103D000007C02FE030E001C0220F4A95EAF7209566
:103D1000302F369536953370323069F050F440913B
:103D2000B204313029F0822B84230E947911E3CE32
:103D3000842B822BFACF282B8091B2048227F5CFD7
:103D4000F02FFF70BF2EDD2029F08F2F0E94C511AC
:103D5000812F24CF812F0E94E4148B2D0E94881183
:103D6000CACE123F89F160F4103FB9F0113F81F0E3
:103D7000DD2009F48CC0C11060CE802F8F7128C067
:103D8000133F49F1143FA1F780917F0482FF2FC0B8
:103D9000802F8F71DD2011F31BC0DD2081F024E026
:103DA0002C1508F4A8CE202F2F7181E090E001C0DF
:103DB000880F2A95EAF79091B2048927B6CF35E0AB
:103DC0003C1508F498CEEFCF802F8F71D110C6CF5D
:103DD0000E94C51190CE80E0DD2009F4A6CF81E0DD
:103DE000902F9F7101C0880F9A95EAF79ECF80911E
:103DF000B8038230A0F180910702DD20F1F00E942B
:103E00007D0A80910A028770843041F40E948A0AF8
:103E1000802F8F710E948811A12C6DCE8091B803E4
:103E2000C816D0F7402F4F71B42E842F0E94C511B1
:103E300063E08B2D0E94D011EFCF0E94840A809105
:103E4000B803C81640F00E948A0A0E94AB0A64E0D8
:103E5000802F8F71EFCF81E00E949411DDCFDD20A4
:103E600059F0502F5F71B52E852F0E94C51163E068
:103E70008B2D0E94D0113FCE81E00E94941181E0F1
:103E80008C1508F038CE82E00E94941134CEC11017
:103E9000B3CE802F8F7162CFDD2019F0C11038CEE4
:103EA0003BCEC11035CE20E0F701408151816281C7
:103EB000738184810E94FF0C8091B90383FF28CE17
:103EC00080919D0190919E01029709F021CE812F52
:103ED0000E94AE151DCE0031BFE51B0709F4D8C9FD
:103EE0000131EFE51E0709F4DDC9680127E5D21AA3
:103EF000882309F4D9C93FEFC316D10409F008F4A7
:103F000005CA8091B70380FF39C00E94AE056C01DD
:103F1000D70112968C91882309F475CA80911A01F1
:103F200082FF08C027E432E040E0B60190E080E084
:103F30000E9409170B31BCE51B0709F456CA0C3166
:103F4000ECE51E0709F457CA90911A01892F8E7F5C
:103F500090FF81600A31FCE51F0709F44FCAC801D0
:103F60009056811520E2920728F0905E81159041CD
:103F700008F057CA1092F3021092F202033FBCE518
:103F80001B0709F499CB08F03CCB083DFCE51F0763
:103F900009F48CCB093D2CE5120709F4A5CB073DAC
:103FA0003CE5130709F039CB06E221EE41EE67ED5F
:103FB0007CE5C7010E94CF15D9C806311C4509F020
:103FC000B8CB8091CF02982F9A7A2091B60320FF28
:103FD00004C0482F447409F090E021FF04C0482F2A
:103FE000417109F090E022FF04C0482F487809F0A1
:103FF00090E023FF03C0827209F090E0332309F4BC
:10400000BDCC81E0911101C080E080939C0169E208
:10401000911165E38CE791E00E94E4050E9476101F
:10402000A5C8CF92DF92EF92FF920F931F93CF9389
:10403000DF938091C201807F31F48091BF01C091F4
:10404000060281110BC0DF91CF911F910F91FF905C
:10405000EF90DF90CF9008952196C7708091C501B1
:104060008C1789F3F090BD01E090BE01C090C001B3
:10407000D090C101A6016E2D8F2D0E945106D0E077
:104080008111EACF8E0183E0000F111F8A95E1F7BD
:10409000F801EA53FE4F81818E11DECF80818F11AE
:1040A000DBCF82818111D8CFE380F480EC18FD084A
:1040B00060E08DEB91E00E94280D8091B403909117
:1040C000B503E816F90640F68091C2018F70806151
:1040D0008093C201F801E553FE4F80818F708061AB
:1040E00080838DEB91E00E942F18DF91CF911F917B
:1040F0000F91FF90EF90DF90CF900C94D10A3F92F8
:104100004F925F926F927F928F929F92AF92BF92E7
:10411000CF92DF92EF92FF920F931F93CF93DF9393
:10412000CDB7DEB765970FB6F894DEBF0FBECDBF33
:104130008C0185E0F801DE01519601900D928A957F
:10414000E1F7D8014C9011965C9011971296EC9083
:1041500012971396CD90DC9060E08DEB91E00E9479
:10416000280D8DEBA82E81E0B82E8090C001909094
:10417000C101A4016091BE018091BD010E94510660
:104180008111CAC1F090BF01F601E819F9094F0188
:1041900060E0FF2009F46DC1C5010E94280D609008
:1041A000B4037090B5033090C2018614970408F0F0
:1041B00013C14091C0015091C101B090BD01A090C8
:1041C000BE01832D807F6A2D09F0ADC08B2D0E942A
:1041D0005106FE2C81113BC0D80111968C9111978C
:1041E0008A1135C08C918B1132C02091C30130915E
:1041F000C40116968D919C912817390741F5E1105D
:1042000026C0832D8F7080618093C2018DEB91E079
:104210000E942F188091C201F80185838F2D659629
:104220000FB6F894DEBF0FBECDBFDF91CF911F91C7
:104230000F91FF90EF90DF90CF90BF90AF909F9045
:104240008F907F906F905F904F903F900895F4EF24
:104250006F16F1E07F0620F48091B90380FF21C042
:10426000A601652D842D0E945106811118C081E0A0
:104270008E2580FF16C04E2D652D842D0E94B10A1B
:10428000882379F08DEB91E00E942F1888E0EDEB08
:10429000F1E0DF011D928A95E9F7F12CBFCF80E0B4
:1042A000E8CFA601652D842D0E945106811124C0FE
:1042B00081E08E25B82FB170CB2E80FF2BC04E2D04
:1042C000652D842D0E94B10AD82E811123C0498A00
:1042D0005A8A89899A890E94E50C292F22952F7084
:1042E000223060F0243088F49F7061F0F8019581ED
:1042F000907F41F4FD2C92CF80E0DCCF9F7011F0D5
:104300008823C1F3805E8830A8F3C8010E942F186B
:10431000DC2CF0CFEE2009F481CF8091C2018160C6
:104320008093C201BACF8B2D0E945106811124C007
:10433000D80111968C9111978A111EC08C918B1106
:104340001BC02091C3013091C40116968D919C91A0
:1043500017972817390781F4E1100EC015963C9283
:10436000C8010E942F1888E0F801ADEBB1E0019080
:104370000D928A95E1F752CFC8010E94F10C882373
:1043800039F1EE2029F18091C2018032A0F0209114
:10439000BD013091BE013A8729871B86DD86CC8618
:1043A0008E878091C3019091C401988B8F87CE0135
:1043B00009960E942F1888E0F801ADEBB1E001905A
:1043C0000D928A95E1F70E941120FF24F39426CFE5
:1043D000C8010E942F18F9CF832D807F09F452CF96
:1043E0009090BD018090BE014091C0015091C101EB
:1043F000682D892D0E94510681111CC0F801818110
:10440000881118C08081891115C02091C301309195
:10441000C401868197812817390761F4E1100AC029
:104420003582C8010E942F1888E0D5011D928A9517
:10443000E9F7F4CEC8010E94F10C882349F2EE207E
:1044400039F28091C201803208F4B5CF2091BD01CC
:104450003091BE013A8329831B82DD82CC828E8318
:104460008091C3019091C40198878F83CE010196FA
:10447000A0CF8DEB91E00E94280D8091B403909124
:10448000B5038816990680F6FE2CEE2009F4A0CF1D
:10449000E090BD01D090BE014091C0015091C1019A
:1044A0006D2D8E2D0E945106811128C0F801818149
:1044B0008D1124C080818E1121C02091C3013091C3
:1044C000C4018681978128173907C1F48091B90307
:1044D00082FD49CF9091C20190FD45CF907F09F4B4
:1044E00042CF8091C2018583903F09F439CF982F44
:1044F000907F905F8F70892B858332CFC8010E9497
:10450000F10C811158CF8091C20181608093C2016A
:10451000C8010E942F1882CEEE2009F459CFC8019D
:104520000E94F10CF82E882309F452CF88E0F8019C
:10453000ADEBB1E001900D928A95E1F78091BD015C
:104540009091BE010E94E50C0E94112067CECF938E
:10455000DF93CDB7DEB760970FB6F894DEBF0FBE1E
:10456000CDBF29873A874B875C876D877E878F878A
:10457000988BCE0109960E947F2081112FC088E080
:10458000FE013996DE01119601900D928A95E1F7B0
:104590004C855D856A8589850E94510681111EC002
:1045A000A091C501B0E0CD010196877099272091B7
:1045B00006022817190609F193E0AA0FBB1F9A9566
:1045C000E1F7AA53BE4F98E0FE01319601900D929B
:1045D0009A95E1F78093C5010E94D10A8091060265
:1045E0009091C501891317C060960FB6F894DEBF8D
:1045F0000FBECDBFDF91CF9108950E94EA111092B6
:10460000C5011092060288E0EDEBF1E0DF011D929A
:104610008A95E9F7E3CFB8E08B9FC00111248A5354
:104620009E4F0E947F208823F9F28091060290E03D
:1046300001968770992780930602D0CFEF92FF9260
:104640000F931F93CF93DF938091F702882361F03C
:10465000C091F6028CE0F82E8091F702C81758F04E
:104660001092F7021092F602DF91CF911F910F91F5
:10467000FF90EF900895EE24E394EC0EE092F602A2
:104680000C2F10E0CF9DE0011124C850DD4F4B816D
:104690005C81698188810E94510681111DC08E81D3
:1046A0009F81892B21F488859985019651F4288171
:1046B00039814A815B816C817D818E819F810E94DD
:1046C000A722F09EF001F19EF00D1124E850FD4F5D
:1046D000148213821092B304CE2DBECF10929B038E
:1046E00010929A0310921B01809199038093980372
:1046F0000E948A060C941E233F924F925F926F9203
:104700007F928F929F92AF92BF92CF92DF92EF9261
:10471000FF920F931F93CF93DF93C091980397E07D
:10472000892E01E010E02CE0322E3EEF932E44243F
:104730004394809199038C1315C00E941E23DF912E
:10474000CF911F910F91FF90EF90DF90CF90BF908E
:10475000AF909F908F907F906F905F904F903F9021
:104760000C948A06D0E0FE01EE0FFF1FE057FC4FCD
:1047700080819181889ED001899EB00D1124A85A14
:10478000BC4F14962C911497211157C05090F702EA
:10479000E8EFF2E030E020E0712C5D01251508F033
:1047A0004AC0E284F384D501CD90DC906FEF7FEFB7
:1047B000612C462D50E0DA01AA0FBB1FAC0DBD1DC8
:1047C0000D90BC91A02D109731F0EA16FB0609F46C
:1047D000BA016394EECF6F3F7607A1F1D80102C012
:1047E000AA0FBB1F6A95E2F77A2AB80102C0660FCA
:1047F000771F6A94E2F7AB01415051097416150610
:10480000F9F4329EF001339EF00D1124E850FD4F73
:10481000889ED001899EB00D1124A85ABC4F1296D3
:104820002D913C91139737832683908291829187B3
:10483000808715964C920E945C062196C37079CFB2
:10484000148213822F5F3F4F3C96A8CF2F923F9246
:104850004F925F926F927F928F929F92AF92BF9290
:10486000CF92DF92EF92FF920F931F93CF93DF933C
:10487000CDB7DEB769970FB6F894DEBF0FBECDBFD8
:10488000942F498B252F5A8B6B8B7C8B8D8B4C896E
:104890005D89622F892F0E945106811109C0809184
:1048A0009D0190919E01019690939E0180939D01A0
:1048B0008B8981111092B3041D861E861F86188A6B
:1048C00085E0FE017196DE01199601900D928A95A0
:1048D000E1F780917F0482FD1EC080919E0390913C
:1048E0009F03892BC1F00E94AE05209108023091F0
:1048F0000902821B930B20919E0330919F03821724
:10490000930720F080910A0282FFF5C10E94910A6C
:1049100081110E94570A4C855D856A8589850E94B0
:104920005106811111C061E0CE0109960E94280D47
:104930006C018B8527EFC2162CE5D20681F4882303
:1049400021F181E080931B0129853A854B855C85A7
:104950006D857E858F8598890E94A722C5C038EF16
:10496000C3163CE5D30629F4882379F00E946E2310
:10497000EBCF49EFC4164CE5D40639F4882329F06F
:1049800080911B018111F2CFDCCF08E513E0512C9F
:10499000B12CA12C22242394312C2EEF422EF8018D
:1049A0004081518188248A94982C20E0822F90E0C5
:1049B000FC01EE0FFF1FE40FF51F6081718161158F
:1049C000710531F0C616D70609F44C012F5FEECF02
:1049D000F12CFFEF8F169F0609F448C0F8014481BF
:1049E000F0901B018F2D411180E0F82FF170FF2E08
:1049F000F801E58086819B85992309F40CC1FF208D
:104A000009F409C16090B2037090B303E11012C0C1
:104A1000A10101C0440F8A94EAF7842B8683809118
:104A2000F4029091F5028615970520F47092F50234
:104A30006092F402C10102C0880F991F2A95E2F723
:104A40000197F80126812817190681F480919A03AD
:104A500090919B03009709F460C00E949F0568161F
:104A6000790608F05AC021E0F80124835F28FFEF9F
:104A7000AF1ABF0A095F1F4F28E0A216B10409F060
:104A80008ECF8B85882309F421C1552009F41EC1DE
:104A90000E94AE0590939B0380939A038091F70246
:104AA000883010F591E0980F9093F70298E0FE019E
:104AB0003996DE01119601900D929A95E1F73CE04E
:104AC000839FC001112488509D4F28E0FE0131963C
:104AD000DC0101900D922A95E1F72FEF3FEFFC01E9
:104AE00031872087D386C28669960FB6F894DEBFD9
:104AF0000FBECDBFDF91CF911F910F91FF90EF902F
:104B0000DF90CF90BF90AF909F908F907F906F90ED
:104B10005F904F903F902F9008958091980350910F
:104B20009903982FF0E0E0E0851314C09093980368
:104B3000E017F10709F49ACF90E0FC01EE0FFF1F98
:104B4000E057FC4FB182A082019683709927809331
:104B500099038CCF682E712CF301EE0FFF1FE057E5
:104B6000FC4F2081318147E0429FD001439FB00D2F
:104B70001124A85ABC4F6D917C911197798F688F41
:104B800040E020E030E0E32FF0E0EE0FFF1F688D03
:104B9000798DE60FF71F8080918081149104E1F0F8
:104BA000F8010190F081E02DFF8BEE8B20E005C035
:104BB0008616970609F44F2D2F5FE22FF0E0EE0FD7
:104BC000FF1F6E897F89E60FF71F60817181611574
:104BD000710571F73F5FD7CF4423D1F0F801231758
:104BE00008F0FD0121E024830E171F0721F49093A4
:104BF0009803F42E3BCF981305C0AE17BF0711F4EE
:104C00009F5F937093012F5F3F4F822F83708CCFF4
:104C1000F0E0E0E0F7CF90E0E1101FC0B10102C08A
:104C2000660F771F2A95E2F79B0121503109821701
:104C3000930731F4442309F447C0C5010E945C0680
:104C4000C10101C0880F8A94EAF7982F9095F80166
:104C5000868189238683FE2C09CF9C01082C02C003
:104C6000359527950A94E2F7A90141705527BC01B3
:104C70006150710986239723892B11F5452B01F18A
:104C8000F80182819381892BC1F01B821C821D82D5
:104C90001E8249824A820E94AE058160582F9D8300
:104CA0008C83F801828193818F83988729813A814F
:104CB0004B816D817E810E94A722F8011582C0CFB1
:104CC000F22FF170EF2EBCCFEF2CBACF909198035A
:104CD00080919903981731F00E947C23552009F4A4
:104CE00033CE02CF0E941E2310929B0310929A0390
:104CF0000E948A06F3CF82E00E94941107CECF93E0
:104D0000DF9300D000D00F92CDB7DEB79093CC02E6
:104D10008093CB02811520E2920748F40F900F9008
:104D20000F900F900F90DF91CF910C9424158EEF80
:104D300089838A831B820E94AE058160782F9D83C0
:104D40008C8349815A816B818D810F900F900F90D8
:104D50000F900F90DF91CF910C9426240F931F9307
:104D6000CF93DF938C01EB0161E772E08C2F0E94FF
:104D7000BF0E892BA1F48091BA039091BB030E94CE
:104D80003B0CDD27C759DD4F8881F801108218825E
:104D9000833009F148F4813059F0823081F0DF919D
:104DA000CF911F910F9108958430D1F08530B9F7DC
:104DB0008091710290917202009789F306C08091F0
:104DC000730290917402009799F3DF91CF911F9134
:104DD0000F910C947F268091750290917602F3CF0B
:104DE0008091770290917802009779F72091710273
:104DF00030917202809173029091740221153105F5
:104E0000D9F2009711F7C901E0CFCF93DF9300D01B
:104E100000D00F92CDB7DEB79093CC028093CB0237
:104E2000811520E2920748F40F900F900F900F9099
:104E30000F90DF91CF910C94DE168EEF89838A83D9
:104E400081E08B830E94AE058160782F9D838C83E7
:104E500049815A816B818D810F900F900F900F9037
:104E60000F90DF91CF910C942624CF93DF93EC0128
:104E70000E9405278091BA039091BB030E943B0CCE
:104E8000CE01DF91CF910C947F260F931F93CF9388
:104E9000DF938C01862F61E772E00E94BF0E892BA1
:104EA000C9F4C0917102D0917202209799F0F80173
:104EB0008081833069F4CE010E943527CE010E94A3
:104EC0003527CE01DF91CF911F910F910C9435279B
:104ED0008430B8F7DF91CF911F910F9108950F9310
:104EE0001F93CF93DF938C01EB0161E772E08C2F6E
:104EF0000E94BF0E892B09F064C0FE01FF27D80174
:104F00008C91E759FD4F8130D9F419969C911997EE
:104F1000992311F080830CC01A969C919923D1F3A8
:104F200082E0808380917302909174020097D9F49B
:104F30008091710290917202009709F442C013C0EF
:104F40008230E9F519968C91199781112DC01A9626
:104F50008C9181110EC083E08083809175029091C5
:104F60007602009719F1DF91CF911F910F910C9468
:104F7000052784E0808380917702909178020097E2
:104F800091F780917102909172020097F9F00E945E
:104F900035278091730290917402009721F78091D8
:104FA000710290917202DFCF85E08083809171025F
:104FB00090917202009729F00E943527F0CF86E089
:104FC0008083DF91CF911F910F910895809173029B
:104FD00090917402B1CF1F920F920FB60F921124CD
:104FE0002F933F934F935F936F937F938F939F93F1
:104FF000AF93BF93CF93DF93EF93FF93D091E900EB
:10500000DF708091EC00C82FC17080FDC0E8109265
:10501000E9008091F000877F8093F00078940E94EF
:10502000FF111092E9008091F00088608093F000F9
:10503000CD2BCF70C093E900FF91EF91DF91CF911D
:10504000BF91AF919F918F917F916F915F914F91A0
:105050003F912F910F900FBE0F901F9018951F92A8
:105060000F920FB60F9211242F933F934F935F939C
:105070006F937F938F939F93AF93BF93EF93FF9320
:105080008091E10082FF09C08091E20082FF05C0AB
:105090008091E1008B7F8093E1008091DA0080FFB6
:1050A00024C08091D80080FF20C08091DA008E7FDC
:1050B0008093DA008091D90080FF9DC080E189BD96
:1050C00082E189BD09B400FEFDCF81E08093A80490
:1050D00080918304811109C00E9411040E94DC04A4
:1050E0008091E20084608093E2008091E10080FF83
:1050F00017C08091E20080FF13C08091E2008E7F94
:105100008093E2008091E20080618093E2008091D0
:10511000D80080628093D80019BC85E08093A804F1
:105120008091E10084FF2BC08091E20084FF27C0C2
:1051300080E189BD82E189BD89B5982F917080FF9A
:10514000FBCF8091D8008F7D8093D8008091E100C3
:105150008F7E8093E1008091E2008F7E8093E20059
:105160008091E20081608093E2008091A90488230D
:1051700009F447C084E08093A8048091A80480913A
:10518000E10083FF27C08091E20083FF23C080916C
:10519000E100877F8093E10082E08093A804109271
:1051A000A9048091E1008E7F8093E1008091E2006C
:1051B0008E7F8093E2008091E20080618093E20024
:1051C00042E060E080E00E94AA048091F0008860E4
:1051D0008093F000FF91EF91BF91AF919F918F91DC
:1051E0007F916F915F914F913F912F910F900FBEE3
:1051F0000F901F90189519BC1092A8041092830468
:1052000074CF8091E30087FD93E09093A804B5CF1D
:1052100078941F921FB61F9211248F939F93AF9380
:10522000BF9380917A0490917B04A0917C04B0910B
:105230007D040196A11DB11D80937A0490937B0497
:10524000A0937C04B0937D04BF91AF919F918F9107
:105250001F901FBE1F9018951F921FB61F921124FA
:105260008F939F93AF93BF9380917904811113C063
:1052700080917A0490917B04A0917C04B0917D048C
:105280004196A11DB11D80937A0490937B04A09355
:105290007C04B0937D04BF91AF919F918F911F903B
:1052A0001FBE1F901895CDB7DEB7E4970FB6F894E0
:1052B000DEBF0FBECDBF84B7877F84BF0FB6F89423
:1052C000A8958091600088618093600010926000D2
:1052D0000FBE80E890E00FB6F89480936100909341
:1052E00061000FBE85B7806885BF85B7806885BFC0
:1052F00083E798E090937B0180937A010E94D30E1C
:105300000E94290F0E94450C0E9411040E94DC0497
:105310008091E20084608093E20078948091A804F8
:105320008823A1F01091E9001F709091EC00892F63
:10533000817090FD80E8182B1092E9008091E800C0
:1053400083FD0E94FF111F701093E90082E084BD6D
:1053500093E095BD9AEF97BD80936E000E94360D45
:10536000811102C00E94B00E06E511E0BBE5EB2EF4
:10537000B1E0FB2ED8018D918D018F3F11F00E947D
:105380007508E016F106B1F70BE511E0AAE6EA2E82
:10539000A1E0FA2EF80181918F018F3F11F00E9458
:1053A0007508E016F106B1F78AE0E2E5F2E0DF0108
:1053B000282F1D922A95E9F7E2E3F2E0DF011D9222
:1053C0008A95E9F790E080E00E947930893E9E4F0F
:1053D00021F40E94360D811102C00E94C51782E09F
:1053E00090E00E94713080933C020E944F0D909398
:1053F0007F0480937E040E94820FEFE3FCE93197E3
:10540000F1F700C000000E94820F8091520280FFDD
:1054100008C06FEF7FEF90E080E00E949D300E9417
:10542000170C83E090E00E9471300E94E611809199
:105430007E04806880937E0480917E0490917F0436
:105440000E94140E80E091E090937604809375049E
:1054500078E1672E712CE0E45E2EFCE5CF2EF2E0C1
:10546000DF2E8E010F5F1F4F8091A80450E1E52EC3
:1054700062E1F62E853009F44EC10E94820F882326
:1054800059F08FB7F89440917A0450917B04609161
:105490007C0470917D048FBFA2E5B2E0EDE3F2E001
:1054A000F12CE12C7E2D8D919D9121913191281728
:1054B000390709F440C12827392760E0AA24A394BA
:1054C000B12CA9014A215B21452B09F42EC16BA700
:1054D0007CA79C012A213B2191E0232B09F490E039
:1054E0009DA70E94AE058160782F9FA78EA74BA530
:1054F0005CA56DA58FA50E942624F701EE0FFF1F66
:10550000E35CFD4F80819181A826B926B182A082FB
:1055100080910C0190910D01F12C66E1E62E01962F
:1055200009F051C180911B01811157C18091B703CE
:1055300080FF1EC080911A0182FF1AC00E94AE0532
:105540002091F0023091F102AC01421B530B2091EB
:105550001801309119014217530750F027E432E047
:1055600041E0BC018091F2029091F3020E94091780
:1055700086E0E3E6F2E0D80101900D928A95E1F72A
:10558000A0906502B0906602E0906702F090680219
:1055900010926502109266021092670210926802E1
:1055A0008A2D8B2991F080916102909162020E9474
:1055B0009F05AC0190915D02992309F439C1809156
:1055C00016018417150608F441C18E2D8F2991F01C
:1055D00080915F02909160020E949F05AC019091C2
:1055E0005C02992309F471C1809112018417150698
:1055F00008F479C18091650290916602892B90919F
:105600006702892B90916802892B11F00E94C906CC
:1056100086E0F801A3E6B2E001900D928A95E1F7E9
:105620000E94450690914F02891380934F0280910A
:10563000A804843009F018CF83E08093E9008091BA
:10564000E80082FF11CF8091E80090E085FF0AC05A
:105650000E94300450E2A52EB12C7801882309F471
:105660008BC191E08091E8008B778093E8009923CB
:1056700009F4FACEE090CD02F090CE028981E114D7
:10568000F10409F487C18E3F09F0CFC18A818330CC
:1056900020F08550833008F0C8C1EA81EE3008F070
:1056A000C4C1F0E0ED52FF4C0C942E308091A80460
:1056B000843009F1109279040FB6F894A89560929D
:1056C00060000FBE5092600083B7817F846083BF0B
:1056D00083B7816083BF7894889583B78E7F83BFBB
:1056E0000FB6F894A895809160008861809360005F
:1056F000109260000FBE8091A704882361F00E9481
:10570000820FE2E5F2E081919191892B09F027C4A3
:10571000CE16DF06C1F78091A804853009F4C6CF04
:105720000E94EA110E944506A8CE6F5FAA0CBB1C1E
:105730006F3009F0C6CE2FEFE21AF20A35E0E31619
:10574000F10409F0AFCE8FEF88AB89AB1AAA0E94A3
:10575000AE058160782F9CAB8BAB48A959A96AA98B
:105760008CA90E942624D4CEE89EF001E99EF00D7B
:105770001124ED53FC4FA288B388A114B10421F485
:10578000A090B403B090B503E89EF001E99EF00D3F
:105790001124ED53FC4F86818823A1F085859685E1
:1057A0000E949F05A816B90668F4FE9C50011124BA
:1057B000C5018D539C4F0E941F11C50187539C4FFB
:1057C0000E94DA10F3948F2D90E020910C0130911B
:1057D0000D012817390744F6A5CE80919A039091C0
:1057E0009B03009709F4A2CE0E949F052091F4022A
:1057F0003091F5022817390708F098CE9091980358
:1058000080919903981759F00E947C231092F50219
:105810001092F40210929B0310929A0387CE0E947A
:105820001E2310929B0310929A030E948A067ECE3A
:10583000209117018AE0289F900111242417350731
:1058400008F0C3CE9F5F90935D0202C09F3FD1F7E7
:10585000AA2059F00E94AC079FEF1A140CF491E0B3
:10586000899F802D112480936502BB2059F00E94EE
:10587000AC079FEF1B140CF491E0899F802D11243D
:105880008093660230916502332309F49ECE209105
:105890006602222309F499CE45EB3403C00111249A
:1058A000992359F09093650245EB2403900111244C
:1058B000332339F03093660288CE81E0809365020D
:1058C000F3CF81E08093660280CE209113018AE0BD
:1058D000289F900111242417350708F08BCE9F5F75
:1058E00090935C0202C09F3FD1F7EE2059F00E94D6
:1058F00073079FEF1E140CF491E0899F802D1124F3
:1059000080936702FF2059F00E9473079FEF1F14D6
:105910000CF491E0899F802D1124809368023091CE
:105920006702332309F466CE20916802222309F42A
:1059300061CE45EB3403C0011124992359F09093B3
:10594000670245EB240390011124332339F030938F
:10595000680250CE81E080936702F3CF81E08093AC
:10596000680248CE8091F100D7018D937D01B1E0AE
:10597000AB1AB10809F475CE8091E80085FDF2CF2D
:105980008091E8008B778093E8000E9430048823A0
:1059900099F367CE8D3009F4CDC0B0F4843009F4AA
:1059A000B0C040F4823041F108F09CC0813001F178
:1059B0008FEF01C3863009F4BAC008F4ADC08C3053
:1059C000B9F780E18A8331C0813109F40CC140F418
:1059D0008F3009F4DBC008F4B0C00E94B70D25C0B9
:1059E000833109F42BC108F400C18E3F09F755CE6D
:1059F0001A8289E08B8319C08A81823009F4FDC242
:105A00008330E1F18130A1F62FB7F89460917A04E8
:105A100070917B0480917C0490917D042FBF0E9443
:105A200034306B837C838D839E838091A804843083
:105A300009F01ACDF090E9002F2D2F70F22E9091E1
:105A4000EC00892F817090FD80E8F82A82E0809335
:105A5000E9008091E80080FF0CC050E040E060E287
:105A600070E0C8010E9461048091E8008E77809305
:105A7000E8008F2D8F708093E900F6CC80910E01A5
:105A800090910F01892B89F28091520290915302DB
:105A90009827892798279C838B8380915402909123
:105AA00055029827892798279E838D8380915602D7
:105AB0009091570298278927982798878F838091FC
:105AC0005802909159029827892798279A878987A1
:105AD00080915A0290915B029827892798279C878A
