:100000000C94E2030C941A040C941A040C941A0431
:100010000C941A040C941A040C941A040C941A04E8
:100020000C941A040C941A040C9477230C94332324
:100030000C9474240C941A040C941A040C941A044E
:100040000C941A040C941A040C941A040C941A04B8
:100050000C941A040C9450240C941A040C941A0452
:100060000C941A040C941A040C941A040C941A0498
:100070000C941A040C941A040C941A040C941A0488
:100080000C941A040C941A040C941A040C941A0478
:100090000C941A040C941A040C941A040C941A0468
:1000A0000C941A040C941A040C941A040501090205
:1000B000A10185020901A100050919012905150001
:1000C00025019505750181029501750381010501E1
:1000D000093009311581257F950275088106093897
:1000E0001581257F950175088106050C0A380215D2
:1000F00081257F950175088106C0C005010980A191
:1001000001850319012AB700150126B7009501756D
:10011000108100C0050C0901A101850419012AA064
:1001200002150126A002950175108100C005010984
:1001300006A1018506050719E029E71500250195A7
:1001400008750181020507190029EF1500250195A1
:10015000F0750181020508190129059505750191C0
:1001600002950175039101C00660FF0961A10109B3
:1001700062150026FF0095207508810209631500AD
:1001800026FF00952075089102C005010906A1010E
:10019000050719E029E71500250195087501810279
:1001A0009501750881010507190029FF150026FF33
:1001B0000095067508810005081901290595057542
:1001C000019102950175039101C00000000000003B
:1001D000000000000000000000000000000000001F
:1001E00000000000000000000000000000007E0F82
:1001F00000D4FFFFFFC700000078000000000000EF
:1002000000002A2B28000000000000000000000071
:10021000000000000029000000002C1E34202122D4
:1002200024342627252E362D3738271E1F2021223D
:10023000232425263333362E37381F0405060708B6
:10024000090A0B0C0D0E0F101112131415161718A6
:10025000191A1B1C1D2F3130232D350405060708E4
:10026000090A0B0C0D0E0F10111213141516171886
:10027000191A1B1C1D2F3130354CFD377A585A0086
:100280000004E6D6B4460200210116000000742FD7
:10029000E5A3E0064101ED5D003D8889C65436C303
:1002A000174FE4E4F432D5976116B7B83EBFBE638A
:1002B00080507F3261852FAE9FE8687A5D1CCAF05E
:1002C00021D601F9DCF42C965D76A0B2FF70902F58
:1002D0009082B977233B9CB9DDE8BA973DC3C94DFD
:1002E000BF1786FD8392B8CEF15D682BAB9AF84AB2
:1002F000D9098572BBE170A4347F5AF8CAE9D2BE2D
:10030000E9ABAF6DF50909FD706AD28E54454A8A92
:100310000E34ED83D901C8640495C24FE936572ADB
:1003200044E6E92A6B4A057ABD4D55C9EA3E0DD728
:10033000C30568C932C3CA669906631B54A25856DE
:10034000BFE185EA14A64BF2E608260533360A1308
:1003500089C8D5F5F0658D815AD3D9CCD0ED32342A
:100360001D69E5DE9A5DF9EA6D0358F6259BCEE03E
:10037000D6023404361DAC46AA1AEAE997F26DBDDE
:100380003E895B193E934D2132BBFA9BEE5A084CD5
:10039000B4AE4A57B29516C517B4EDC7958BB507DD
:1003A0007441DE0EB306295C9E1044061BB79FC83D
:1003B000A3FBFF58AFCB4169BA5342A9C70C33081E
:1003C000A12FE139825293481AB371B15D817EF059
:1003D000A76320785A12ECA5C1D29CE24207345F91
:1003E0003EA86EEB337F68F03C060F69CD626198E2
:1003F000F183E8582604178492F34C1740B67D67C2
:100400000ECC107211CE7DE3CCF5844AE481670DE9
:10041000D90B7D348C0C4225FE09C2782E6CFB472B
:100420006752973E4C60AF1AB34FCC84E06AC52C3C
:100430000BB7262CAB3DC07C89782342A3E614CCB5
:100440008E8D4588E6836F45AEC5795DEEBC26FB93
:1004500057CF5440A694CDEE40BDD4BB59761D175E
:10046000F21C3848EDDE6C5B17452720AC00467D5A
:10047000379E34CD8EDE0F16A3512E69994D1AF496
:10048000C512E41ACC0C00000000927C0B2D4EF239
:10049000805600018904C20C0000E4E834DAB1C4DB
:1004A00067FB020000000004595A29001E001F00CB
:1004B0002000210022002300240025002600270020
:1004C0002D002E002A004C002B0014001A000800FA
:1004D000150017001C0018000C00120013002F005C
:1004E000300031004B0039000400160007000900FD
:1004F0000A000B000D000E000F0033003400310025
:1005000028004E00E1001D001B0006001900050038
:1005100011001000360037003800E50031005200AD
:100520000151E000E300E20000002C0000000000A8
:10053000E600E400000000000000500051004F0001
:1005400035003A003B003C003D003E003F004000CB
:10055000410042004300440045000100005C0100EE
:100560000100010001000100010001000100010083
:10057000010001000100010001004A00010001002A
:100580000100010001000100010001000100010063
:1005900001000100010001004D0001000100010007
:1005A0000100010001000100010001000100010043
:1005B0000100010001000100010001000100000034
:1005C0000100000000000100010000000000000028
:1005D0000100010001000100010001000100010013
:1005E0000100010001000100010001000100010003
:1005F00001000100010001000100010001000100F3
:1006000001000100010001000100010001000100E2
:1006100001000100010001000100010001000100D2
:1006200001000100010001000100010001000100C2
:1006300001000100010001000100010001000100B2
:1006400001000100010001000100010001000100A2
:100650000100010000000100000000000100010095
:100660000000000000000100010001000100010085
:100670000100010001000100010001000100010072
:100680000100010001000100010001000100010062
:100690000100010001000100010001000100010052
:1006A0000100010001000100010001000100010042
:1006B0000100010001000100010001000100010032
:1006C0000100010001000100010001000100010022
:1006D0000100010001000100010001000100010012
:1006E0000100010001000100010000000100000004
:1006F00000000100010000000000000001000100F6
:10070000010009025B00030100A0FA0904000001D6
:1007100003010100092111010001224000070581A8
:10072000030800010904010002030000000921116F
:1007300001000122220007058203200001070503B2
:100740000320000109040200010300000009211137
:1007500001000122BC0007058403200001120100F2
:100760000200000008534F53510100010203011C15
:10077000037600690061006C003A006600360034C0
:100780000063003200620033006300000018035170
:10079000004B0036003500200053006F006C0064F1
:1007A00000650072000000160351007700650072BA
:1007B00000740079006B006500790073000000048C
:1007C0000309040011241FBECFEFDAE0DEBFCDBF66
:1007D00004B603FE18C08091580490915904A0916A
:1007E0005A04B0915B048730904BA740B04B59F44A
:1007F000109258041092590410925A0410925B04FB
:10080000E0E0F8E3099511E0A0E0B1E0EEEBF6E5F9
:1008100002C005900D92AE36B107D9F724E0AEE6DE
:10082000B1E001C01D92A835B207E1F70E949B24F8
:100830000C94392B0C940000E8EDF0E080818E7F61
:1008400080831092E2001092DA001092E100A0EE94
:10085000B0E08C9181608C9380818F77808319BC0C
:10086000A7EDB0E08C918E7F8C9380818F7E80830A
:100870001092250408952091E4003091E50095E65A
:10088000A9012091EC00822F817020FF06C0809189
:10089000E80080FF06C080E008952091E80022FD76
:1008A0001AC080914A04882389F0853089F08091AC
:1008B000EB0085FD0FC02091E4003091E500421768
:1008C0005307F9F29150E1F684E0089582E008952B
:1008D00083E0089581E00895EF92FF920F931F93B4
:1008E000CF937C018B010E943B04C82F811117C05C
:1008F0008091E80085FD0BC08091E8008E778093A1
:10090000E8000E943B04882399F3C82F08C0F70130
:1009100081917F018093F1000150110949F78C2FDB
:10092000CF911F910F91FF90EF90089580914C040B
:1009300087FF13C08091E80082FF06C08091E80025
:100940008B778093E80004C080914A048111F2CF34
:10095000089580914A048823D9F38091E80080FFAC
:10096000F8CF8091E8008E77ECCF982F9093E90034
:10097000242F762F50E0891731F07091EC002091F0
:10098000ED005091F00021FD07C09F5F973071F797
:100990008093E90081E008953091EB003E7F309331
:1009A000EB003091ED003D7F3093ED003091EB0096
:1009B00031603093EB007093EC002093ED00509386
:1009C000F0002091EE0027FDE0CF80E00895CF9267
:1009D000DF92EF92FF920F931F93CF93DF93C8EDB7
:1009E000D0E088818F7E8883E7EDF0E080818160B0
:1009F000808384E082BF81E08093250488818E7F9C
:100A0000888302EE10E0F80110821092DA0081EE85
:100A1000C82ED12CF601108288818F778883888137
:100A20008068888388818F7D888319BC10924A04EE
:100A300010924B04109249041092480490EEE92E53
:100A4000F12CF70180818B7F80838881816088838E
:100A500042E060E080E00E94B504F60180818E7F74
:100A60008083F801808181608083808188608083B9
:100A7000F70180818E7F8083888180618883DF9108
:100A8000CF911F910F91FF90EF90DF90CF9008953D
:100A9000FC01809152049091530486179707A0F0AF
:100AA0006115710529F49091E8009E779093E80014
:100AB00090E06115710551F4911108C08091E80032
:100AC00082FF34C080E00895BC01F2CF80914A04D7
:100AD0008823C1F18530C1F18091E80083FD30C0E9
:100AE0008091E80082FDEACF8091E80080FFE1CFAD
:100AF0008091F3002091F200382F6115710519F0F3
:100B00002830310558F091E02830310509F090E0A7
:100B10002091E8002E772093E800CBCF819180933D
:100B2000F100615071092F5F3F4FE7CF80914A0478
:100B3000882341F0853041F08091E80083FFBECFEB
:100B400081E0089582E0089583E0089508958091FA
:100B5000270408959C014FB7F89480911C0490914C
:100B60001D04A0911E04B0911F044FBF821B930B64
:100B700008952FB7F89480911C0490911D04A091C2
:100B80001E04B0911F042FBF08952091110122234C
:100B9000C9F02091200427FF15C0E62FE695E695C1
:100BA000E695EE31D8F4E80FF92FF11D677021E0DA
:100BB00030E001C0220F6A95EAF720958281282350
:100BC00022830895FC01329608962191621303C096
:100BD000DF0111971C92E817F907B9F708952091E2
:100BE00011012223C1F02091200427FF14C0E62F19
:100BF000E695E695E695EE31F8F4E80FF92FF11D4C
:100C0000677021E030E001C0220F6A95EAF7828127
:100C1000822B82830895FC0132962FEF30E04191C0
:100C2000641751F02F3F19F4411101C0232F3F5F8A
:100C30003630A9F72F3F09F40895820F911D27FD43
:100C40009A95FC01628308952091190430911A0449
:100C50002817390771F090931A0480931904E091D2
:100C60001704F0911804309721F00084F185E02DED
:100C70000994089520911504309116042817390716
:100C800071F09093160480931504E0911704F0918D
:100C90001804309721F00680F781E02D099408951B
:100CA000E0911704F0911804309721F00190F08141
:100CB000E02D099480E00895DC0160915D0380914E
:100CC0005E03962F891301C00895292F30E0F901A2
:100CD000EE0FFF1FEB5AFC4F408151814A175B0713
:100CE000A1F487E08A9FA0018B9F500D1124435EE1
:100CF0005C4F81E0FA0184839613E6CF2F5F3F4F6C
:100D00002370332720935D0308952F5F3F4F922F69
:100D10009370D8CF1092BA021092B902EDE1F3E0CD
:100D20008581811102C014821682379683E0E535F1
:100D3000F807B1F708950E94B9059C0190914F0200
:100D400080915002982B21F030934C0220934B025B
:100D50009091510280915202982B21F030934A02D7
:100D600020934902E0911704F0911804309749F05C
:100D700082E080934D020480F581E02D8DE492E0C5
:100D80000994089590914F02803F59F48091500248
:100D900087FF0DC01092500291110BC010924702B4
:100DA00008C0813F81F48091500218169CF399236A
:100DB00081F08091510290915202892B09F064C018
:100DC000109246020895823F49F497FFF0CF1092A7
:100DD0004F02809150028111ECCFE0CF833F19F494
:100DE0001916ACF3E4CF20915102893F29F4121671
:100DF000F4F610925102DBCF8A3F19F427FFD7CFC8
:100E0000F8CF209152028B3F29F427FFD0CF1092C8
:100E10005202CDCF8C3F19F41216CCF3C8CF843FC9
:100E200031F480914E028E7F80934E02C0CF853F79
:100E300021F480914E028D7FF7CF863F21F480917F
:100E40004E028B7FF1CF873F21F480914E02877F46
:100E5000EBCF883F21F480914E028F7EE5CF8D3F0E
:100E600031F4809148028E7F80934802A0CF8E3F5C
:100E700021F4809148028D7FF7CF8F3F09F097CF03
:100E8000809148028B7FF0CF08958091480280FDC9
:100E900016C081FD16C082FD16C0809146028823CF
:100EA000A1F0883280F428E0829FC001112468E21A
:100EB00070E00E948D2A862F672B39F0089582E01A
:100EC000089584E0089588E0089581E00895809170
:100ED000480280FD14C081FD14C082FD16C08091BF
:100EE0004702882381F08E3180F420E5829FC00183
:100EF00011246EE170E00E948D2A862F089584E10E
:100F0000089588E2089588E0089580E50895803F77
:100F100031F40E9467078195809350020895813FC4
:100F200019F40E946707F8CF823F31F40E946707E7
:100F3000819580934F020895833F19F40E946707BB
:100F4000F8CF893F29F40E94450780935102089504
:100F50008A3F21F40E9445078195F7CF8B3F31F4FA
:100F60000E94450781958093520208958C3F19F4A1
:100F70000E944507F8CF843F31F480914E02816092
:100F800080934E020895853F21F480914E02826045
:100F9000F7CF863F21F480914E028460F1CF873FE6
:100FA00021F480914E028860EBCF883F21F480913C
:100FB0004E028061E5CF8D3F31F48091480281601F
:100FC0008093480208958E3F21F480914802826008
:100FD000F7CF8F3FB9F7809148028460F1CF80E06E
:100FE0000895F894E82FE295EF70F0E031A1282FF2
:100FF0002F7081E090E001C0880F2A95EAF7982FC2
:101000009095932391A392A1892B82A3789408951C
:101010009091200492FF06C0282F28712830F9F4FF
:10102000877F846093FF06C0282F28712831F1F450
:10103000877E84612091210420FF06C0382F3871FB
:101040003830D9F4877F816021FF06C0282F2871AE
:101050002831D1F4877E816194FD877E0895282F01
:1010600024712430F9F68B7F8860DCCF282F24711F
:10107000243101F78B7E8861DDCF382F317131301B
:1010800019F78E7F8860E0CF282F2171213121F759
:101090008E7E8861E1CFCF93DF93EC01823891059A
:1010A000A9F1D8F58133910509F496C048F5893244
:1010B000910509F48AC08A9709F495C0C11521E504
:1010C000D20708F0BCC0C11530E5D30708F014C141
:1010D000C83ED10508F09CC0C03ED10560F5C83AB5
:1010E000D10508F087C0C53AD10508F0FDC0C13070
:1010F000D10509F12097F9F0C430D105E0F440C0E2
:101100008533910509F45AC0C997C1F6809120042E
:10111000837089F0C0EED0E00EC0833E910599F156
:1011200070F4803E910501F1823E910539F680917F
:10113000200482FD21C0CE01DF91CF910895863E2B
:10114000910561F1873E910571F1843E910509F0A9
:10115000B5CF8091210481FFEECF80912004C7EEAE
:10116000D0E084FD0DC0E7CF8091200480FD12C146
:101170009091210490FFDFCFC3EED0E084FFDBCF5E
:10118000D0E0C0E0D8CF8091200482FD06C19091CC
:10119000210490FDBFCF84FFCECFF2CF80912004F9
:1011A00083FDDDCFC8CF8091200483FDF9C09091ED
:1011B000210491FFF0CFC4EED0E0BDCF8091200498
:1011C00085FFB9CFC9E2D0E0B6CF8091200485FF7A
:1011D000B2CFC5E3D0E0AFCF8091200486FFABCF84
:1011E000CAE2D0E0A8CF8091200486FFA4CFC1E35B
:1011F000D0E0A1CFCF3BD10518F6C85AD0E0CC0F34
:10120000DD1FC35EDE4F0990D881C02DD46493CF1B
:10121000C11540E2D40758F4C11581E0D80708F0A1
:101220008ACFC03FD10508F4ABCFD06584CFC115BC
:1012300090E4D90708F4A4CFDF70D06A7CCFC11541
:1012400025E5D20700F5C11534E5D30708F08AC0BB
:10125000C11543E5D40708F071C0C11582E5D80770
:1012600008F467C0CE018370992721E030E002C006
:10127000220F331F8A95E2F7C695C69580E2C89F74
:10128000E001112452C0C11599E5D907A8F4C11590
:1012900028E5D20708F06BC0C11536E5D30708F082
:1012A0006FCF8C2F0E940808C82FD0E0DC2FCC27EE
:1012B000CC27DF71D0623FCFC1154AE5D40708F4CF
:1012C0005BC0CE0190568115904208F059CF8D2F0A
:1012D0008F710E94080890E0982F882788279F71B7
:1012E0009C012C2BE901E6CFC55AD0E0C65EDE4F4B
:1012F000C881D0E0D0641FCFCE01E4E096958795F9
:10130000EA95E1F783702C2F26952695237040E20D
:10131000249F90011124382B8C2F8370C1E0D0E0E2
:1013200002C0CC0FDD1F8A95E2F7C22BD32BDC68FD
:1013300002CFDC2FCC27C16FD06AFDCECE018370E7
:10134000992721E030E002C0220F331F8A95E2F78F
:10135000C695C69590E2C99FE0011124C22BD32BFC
:10136000DA68E9CEDC2FCC27C46FD06AE4CEDC2F5C
:10137000CC27C06FD06ADFCE8C2F8F700E940808F8
:1013800034E0D695C7953A95E1F7CF709C2FEC01E4
:10139000D069D1CEC9E3D0E0CECEC2EED0E0CBCE84
:1013A000C6EED0E0C8CE80911F02882331F01092A3
:1013B0001F0210921E0210921D02089580959091B6
:1013C000620398239093620308958095909161033E
:1013D00098239093610308951092FC011092FB01F1
:1013E0001092FA0108958091F90181111092F9018A
:1013F00008958091F8019091B701981301C0089564
:101400008F5F8770FACF9E3F49F1E82F2FE0929FC0
:10141000E00D11249E2F9770E695E695E69583E002
:10142000E89FF0011124EF56FE4F50E040E080E0CD
:10143000219130E0092E02C0369527950A94E2F7F3
:1014400021703327042E01C0220F0A94EAF7822B61
:101450004F5F5F4F4330510559F7089580E008957D
:101460009E3F69F1E82F2FE0929FE00D11248E2F0F
:10147000877041E001C0440F8A95EAF7E695E6954A
:10148000E69583E0E89FF0011124EF56FE4F30E02F
:1014900020E070E05191DF011197CB01022E02C0D4
:1014A000969587950A94E2F7817081958527842324
:1014B00085278C932F5F3F4F2330310559F70895CF
:1014C0009C013A9521153F4150F5FC01EE27F17042
:1014D000BC0166277270AC01442754709C0122271E
:1014E000387094FF0EC080E1EF2B09F480E0672B89
:1014F00009F08062452B09F08064232B89F0806815
:10150000089581E0EF2B09F480E0672B09F08260F9
:10151000452B09F08460232B19F08860089580E042
:10152000089580932204709324046093230480918F
:101530004A048430F9F48093E9008FEF9091E80039
:10154000815095FD06C095ED9A95F1F70000811147
:10155000F5CF8091E80085FF0DC050E040E063E0EA
:1015600070E082E294E00E946C048091E8008E7743
:101570008093E8000895BC0184E00C94910ABC01BA
:1015800083E00C94910A9C0184E08093E9009FEF32
:101590008091E800915085FD06C085ED8A95F1F7B0
:1015A00000009111F5CF8091E80085FF0CC050E05C
:1015B00040E066E070E0C9010E946C048091E800A0
:1015C0008E778093E8000895CF93DF93EC018091AC
:1015D00011018823B1F18091200487FF32C060E2BD
:1015E00084E08093E9008FEF9091E800815095FDB1
:1015F00006C095ED9A95F1F700008111F5CF809125
:10160000E80085FF1BC08091110170E050E040E0D0
:10161000811104C050E040E068E070E0CE010E941B
:101620006C048091E8008E778093E80080E2FE01F0
:10163000A8E2B4E001900D928A95E1F7DF91CF9195
:10164000089568E081E0CDCF81E08093E00080E202
:101650008093D8001092C9008FE19EE40197F1F7C2
:1016600000C0000087E090EBDC0180935804909369
:101670005904A0935A04B0935B0488E19CE00FB630
:10168000F894A895809360000FBE90936000FFCF00
:10169000CF93DF93CFE1D3E060E0CE010E94FD2A3B
:1016A0002196C11584E0D807B9F7DF91CF9108954D
:1016B0000F931F93CF93DF938901843048F56530F2
:1016C00038F54F3028F521153C4531F420910E01B5
:1016D00030910F01232BE1F0C42FD0E0CC0FDD1FA0
:1016E0009EE1699FC00DD11D112496E9899FC00D0F
:1016F000D11D1124612FCE0187960E94FD2A602FF3
:10170000CE018896DF91CF911F910F910C94FD2A05
:10171000DF91CF911F910F910895CF93C82F6FEF55
:10172000811164E283E290E00E94FD2A6FEFC11113
:1017300069E584E290E00E94FD2A6FEFC11169EB38
:1017400085E290E0CF910C94FD2ACF93C92F682FAA
:1017500084E090E00E94FD2A6C2F82E290E0CF911D
:101760000C94FD2A7F928F929F92AF92BF92CF925C
:10177000DF92EF92FF920F931F93CF93DF93CDB73A
:10178000DEB764970FB6F894DEBF0FBECDBFA09052
:101790000E01B0900F0181E090E090930F018093D3
:1017A0000E018AEAC82E84E0D82E00E0760110E00F
:1017B00015C0F40125913491472D612F802F0E948F
:1017C000580B82E0880E911C7394EFE07E12F1CFEB
:1017D000FEE1EF0EF11C1F5F153019F04701712C6F
:1017E000E8CF0F5F86E9C80ED11C0430F9F61A82E3
:1017F00019821C821B821E821D8218861F8288EC21
:1018000090E09A8789870FE712E04AE050E0B8013C
:10181000CE0101960E94212B065F1F4F0F3CE2E094
:101820001E0799F77E01FBE0EF0EF11C8AE0F7013D
:1018300011928A95E9F74AE050E0B801C7010E9489
:10184000212B065F1F4F0F31F3E01F07A1F7B09266
:101850000F01A0920E0164960FB6F894DEBF0FBE82
:10186000CDBFDF91CF911F910F91FF90EF90DF904F
:10187000CF90BF90AF909F908F907F90089580E021
:101880000E948D0B60E086E290E00E94FD2A0E949B
:10189000B20B0E94480B81E00C948D0B9B018830A9
:1018A00070F49AE0899FB001112461587D4F4AE09D
:1018B00050E0C9010E94DF2A90E080E008958FEF98
:1018C0009FEF08958F929F92AF92BF92CF92DF9237
:1018D000EF92FF920F931F93CF93DF93CDB7DEB7B5
:1018E0002A970FB6F894DEBF0FBECDBF05E613E012
:1018F000F12CE12C8DE8C82E82E2D82E97EBA92E90
:1019000092E2B92E29EE822E21E2922EF801D182A6
:10191000C082B382A28295828482F58AE48ABE0163
:101920006F5F7F4F8E2D0E944E0C892B29F4898585
:101930009A85F801938B828BFFEFEF1AFF0A0A5EFC
:101940001F4F88E0E816F10409F72A960FB6F894BD
:10195000DEBF0FBECDBFDF91CF911F910F91FF90E2
:10196000EF90DF90CF90BF90AF909F908F900895B1
:101970000F931F93CF93DF93843030F5653020F5BC
:101980004F3010F5C42FD0E0CC0FDD1F2EE1629F49
:10199000C00DD11D112436E9839FC00DD11D112426
:1019A000CE0187960E94EF2A082F10E0102F002703
:1019B000CE0188960E94EF2A9801282BC901DF9159
:1019C000CF911F910F91089590E080E0F8CF462FBE
:1019D0002091B7023091B802232B91F47E3F39F465
:1019E0006E3F71F48091B5029091B60208958430F3
:1019F00038F4753028F46F3018F4672F0C94B80C55
:101A000090E080E00895CF92DF92FF920F931F93B2
:101A1000CF93DF936C010091540480912002082B36
:101A2000C7E0D0E010E0FC2EC8010C2E02C0959556
:101A300087950A94E2F780FD0CC02197A0F7F12C5E
:101A40008F2DDF91CF911F910F91FF90DF90CF905D
:101A50000895B6018C2F0E94E70C0E944B08019755
:101A600061F3EECFCF93DF93EC010E94030DBE0133
:101A70000E94E70CDF91CF910C944B08FC0186810A
:101A80009781009791F00E944B0892959F70963035
:101A9000B9F080F4925F9F70923080F4803F19F02B
:101AA00058F4883E58F481E00895808191810E9425
:101AB000320DEBCF9A5FEFCF843FA9F380E008951A
:101AC000883E88F3813FD1F7EECF1F93CF93DF930A
:101AD00000D000D00F92CDB7DEB7FC012681378150
:101AE0002115310541F525E0DE01119601900D9299
:101AF0002A95E1F7FC01228189819A812223B9F09C
:101B00006623A9F00E94030D182F682F89819A81FE
:101B10000E94300A69817A81812F0F900F900F9077
:101B20000F900F90DF91CF911F910C94E70C0E94C2
:101B3000030A182FEFCFC9010F900F900F900F904D
:101B40000F90DF91CF911F91089583E290E00E9462
:101B5000EF2A843289F484E290E00E94EF2A8935EA
:101B600059F485E290E00E94EF2A91E0893B09F068
:101B700090E0892F8170089580E0FCCFCF9384E0BE
:101B800090E00E94EF2AC82F82E290E00E94EF2AA4
:101B9000982F8C2FCF910895CF92DF92EF92FF92E2
:101BA0000F931F93CF93DF93CDB7DEB72A970FB66E
:101BB000F894DEBF0FBECDBFE5E6F2E080E5DF01C1
:101BC0001D928A95E9F7EDE1F3E088E3DF011D92CC
:101BD0008A95E9F785E6C82E82E0D82E7F010FECC2
:101BE00012E0F701D182C0824AE050E0B801CE0194
:101BF00001960E94DF2A88E0FE013196D60101900D
:101C00000D928A95E1F789859A85D70113969C9361
:101C10008E931297BAE0CB0ED11CE7E0EE0EF11CCA
:101C2000065F1F4F0F31F3E01F07D9F62A960FB654
:101C3000F894DEBF0FBECDBFDF91CF911F910F9102
:101C4000FF90EF90DF90CF9008954F925F926F9248
:101C50007F928F929F92AF92BF92CF92DF92EF923C
:101C6000FF920F931F93CF93DF93CDB7DEB72A97E1
:101C70000FB6F894DEBF0FBECDBF8E010F5F1F4FB2
:101C80008AE0F80111928A95E9F79BE4E92E91E048
:101C9000F92E680120E5422E21E0522E662463943D
:101CA000712C4FE5842E41E0942EF70181917F0144
:101CB0008F3F09F445C0F894E82FE295EF70F0E00B
:101CC00021A18F70A30102C0440F551F8A95E2F72E
:101CD000CA01922F982B91A392A18095892382A368
:101CE000789400C0E0E5F1E021E030E0B12CA12CD7
:101CF00041914F3F09F47EC0A42FA295AF70B0E090
:101D000090968C9190E04F7002C0959587954A957A
:101D1000E2F780FD6FC0C901A82AB92A220F331F3C
:101D20008E169F0629F7F701319780818F3F11F0BA
:101D30000E94F10750EA5A95F1F7F601B182A082AC
:101D4000F2E0CF0ED11C4E145F0409F0AECF4AE092
:101D500050E0B80184E292E00E94CB2AFF24F39481
:101D6000009709F4F12C892B09F447C08AE0F801A7
:101D7000A4E2B2E001900D928A95E1F781E08093B0
:101D800023020E94B9059093220280932102809140
:101D90002102909122020E94AA05059790F180915C
:101DA00024029091250290933D0280933C02809101
:101DB00026029091270290933F0280933E028091E9
:101DC00028029091290290934102809340028091D1
:101DD0002A0290912B0290934302809342028091B9
:101DE0002C0290912D029093450280934402109210
:101DF000230207C090E080E08FCF80912302811101
:101E0000C6CF8F2D2A960FB6F894DEBF0FBECDBF7A
:101E1000DF91CF911F910F91FF90EF90DF90CF90C6
:101E2000BF90AF909F908F907F906F905F904F90FA
:101E300008958091610390916203892B80937001D2
:101E400080911F02882329F10E94B90520911D026B
:101E500030911E02821B930B8838934110F00E9430
:101E6000D3098091700190911F02892B809370019A
:101E7000809111018823D9F18091200487FF37C018
:101E80008EE1E2E7F1E090E0815098F591110E9437
:101E9000D30940E250E06DEF71E080E791E00E94ED
:101EA000CB2A892B59F180E2E0E7F1E0ADEFB1E018
:101EB00001900D928A95E1F7E0911704F0911804D2
:101EC0003097E1F080911101882359F0809120042E
:101ED00087FF07C0809170018093710186E0809335
:101EE00070010280F381E02D80E791E0099486E0A3
:101EF000C8CF2191222341F29F5FC6CF0895EF9270
:101F0000FF920F931F93CF93DF93EC018A8581118A
:101F100034C0EB80FC8087E5F81A26E12E9DC001D5
:101F20002F9D900D1124DC01AB59BC4F1496ED91FF
:101F3000FC911597309731F054966D917C918559AD
:101F40009C4F099586E18E9D80018F9D100D112477
:101F50000B591C4FF80187810E94E509F801808523
:101F60000E94DE090E94190F188219861B861E82A4
:101F70001D821092640310926303DF91CF911F9131
:101F80000F91FF90EF900895CF93DF93EC01898933
:101F900081111BC081E0898B809161039F81892B16
:101FA00080936103809162039885892B80936203FB
:101FB0000E94190FEA81FB81309739F06C897D8985
:101FC000CE010696DF91CF910994DF91CF910895CC
:101FD00090E080E00E943A0690E080E00E942406B3
:101FE000109262030E94190F86E0EDE4F2E0DF0137
:101FF0001D928A95E9F710924702109246021092BC
:1020000048020C949B06809354040C94E80F809132
:102010005404982F9670963019F488600C9403102D
:10202000877FFCCF21E030E001C0220F8A95EAF7DC
:1020300020958091540482230C9403109091FC010C
:10204000809589238093FC01282F277091F4282FF5
:10205000082E000C330B9217130659F090912104AF
:1020600092FD07C08595859585950E9412100C9468
:10207000EC0908959091210492FB222720F928175A
:1020800069F080FB92F99093210480912004909153
:1020900021040E94A50B82E00C941E10089521E0FB
:1020A00030E001C0220F8A95EAF780915404822B18
:1020B0000C9403109091210492FD10C098E0899F28
:1020C00090011124622B6093FC010E944F100E942A
:1020D000B9059093FB018093FA0108950C944F1079
:1020E000809320020C94E80F1092610380911101FB
:1020F000E2E7F1E0882359F08091200487FF07C0D0
:102100008EE1DF011D928A95E9F70C94E80F86E0D5
:10211000F8CF1F93CF93DF93CDB7DEB7AA970FB653
:10212000F894DEBF0FBECDBF8CE494E02091F100A7
:10213000DC012D93CD01B4E084359B07B9F7809184
:102140004D04833009F472C0B8F4813009F449C0F9
:10215000823009F4B3C08091E80083FF96C2809179
:102160004C0490914D049A3008F08FC2E92FF0E0B2
:10217000E55CF44D0C94A12A8A3009F48EC08B30B2
:1021800009F471C0893039F780914C04813219F714
:102190008091500490915104009711F00297D9F664
:1021A0008091E800877F8093E8008091E80082FFBB
:1021B00038C09091F3008091F200029731F4809141
:1021C000F100813011F0863021F48091F10080938C
:1021D00027048091E8008B778093E8000E949604A2
:1021E000BACF80914C04813A09F0B5CF8091E800D4
:1021F000877F8093E8008091500490915104892B4F
:1022000061F460E288E294E070E00E944805809109
:10221000E8008B778093E8009ECF60E090E080E05C
:10222000F3CF80914A048111C0CF95CF80914C04A7
:10223000813A09F090CF8091500490915104892BFC
:1022400009F089CF8091E800877F8093E800809132
:10225000E80080FFFCCF809111018093F100809114
:10226000E8008E77B9CF80914C04813209F073CFAA
:102270008091500490915104892B09F06CCF80918A
:10228000E800877F8093E8000E94960480914E04C6
:10229000809311010E9474105ECF80914C048132B2
:1022A00009F059CF8091E800877F8093E8000E9471
:1022B000960480914F04809326044DCF80914C0466
:1022C000813A09F048CF8091E800877F8093E80049
:1022D0008091E80080FFFCCF80912604BECF80383B
:1022E00099F0823809F0D1C1809150048F70873005
:1022F00008F0CBC18093E9008091EB0085FB882733
:1023000080F91092E90006C0809148049091490438
:10231000911182609091E800977F9093E8008093FC
:10232000F1001092F1008091E8008E77AAC1882315
:1023300009F498C1823009F0A8C180914E0481113E
:102340009BC1809150048F702FEF280F263008F02A
:102350009CC18093E9002091EB0020FF8DC1933058
:1023600031F48091EB0080628093EB0085C1909105
:10237000EB0090619093EB0021E030E001C0220F70
:102380008A95EAF72093EA001092EA008091EB0028
:102390008860EACF811179C110914E041F77809136
:1023A000E3008078812B8093E3008091E800877FB1
:1023B0008093E8000E9496048091E80080FFFCCFA3
:1023C0008091E30080688093E30082E0111183E054
:1023D00080934A045AC18058823008F056C1209137
:1023E0004E0430914F042C3DE3E03E07A1F583E01D
:1023F0008A838AE289834FB7F894DE01139620E03E
:102400003EE051E2E32FF0E050935700E49120FFCB
:1024100003C0E295EF703F5FEF708E2F90E0EA30DF
:10242000C0F0C7968D939D932F5F243159F74FBF0E
:102430008091E800877F8093E8006AE270E0CE0137
:1024400001960E9448058091E8008B778093E80010
:102450001CC1C096E7CF8091500490915104432F46
:1024600055274330510509F44AC078F541305105EC
:1024700009F485C08BE590E0E2E0F7E042305105D9
:1024800009F003C12091E800277F2093E800209104
:102490005204309153048217930708F49C0140E0E2
:1024A0002115310509F070C041116EC08091E8001E
:1024B00082FDC9CF80914A04882329F2853019F220
:1024C0008091E80083FFF2CFBECF4132510509F47D
:1024D00047C04232510509F0D8C08330910508F059
:1024E000D4C0FC01EE0FFF1FEE59FE4F0190F081AA
:1024F000E02D815A9E4FDC018C9190E01DC0332766
:1025000021303105E9F02115310579F0223031050E
:10251000F9F02330310509F0B8C0EFE6F7E0E491B7
:102520008E2F90E0EFE6F7E007C0EFEBF7E0E491E5
:102530008E2F90E0EFEBF7E0009709F4A6C0A2CF52
:10254000E7EAF7E0E4918E2F90E0E7EAF7E0F4CFD6
:10255000EDE8F7E0E4918E2F90E0EDE8F7E0ECCFC6
:102560008330910508F091C0880F991FFC01E8594C
:10257000FE4F0190F081E02D89E090E083CF82E171
:1025800090E0EDE5F7E07ECF80914A04882309F4DE
:102590005ACF853009F457CF8091E80083FD53CF9F
:1025A0008091E80082FD82CF8091E80080FF78CFA3
:1025B0009091F3008091F2002115310519F08830D7
:1025C000910550F041E0089709F040E08091E80063
:1025D0008E778093E80064CF44914093F100319668
:1025E000215031090196E8CF803809F04EC0809122
:1025F000E800877F8093E80080914B048093F1008E
:1026000092CE811142C010914E041230F0F58091AB
:10261000E800877F8093E80010934B040E949604A3
:10262000112311F084E005C08091E30087FDFACF0B
:1026300081E080934A0442E061EC81E00E94B504AD
:1026400042E261EC84E00E94B50442E261EC82E087
:102650000E94B50442E260EC83E00E94B5048091E0
:102660004A0413C080914E04813079F481E09330A4
:1026700009F080E0809349041092E9008091E8001D
:10268000877F8093E8000E9496048091E80083FF92
:102690000AC08091E800877F8093E8008091EB007A
:1026A00080628093EB00AA960FB6F894DEBF0FBE4F
:1026B000CDBFDF91CF911F910895882321F00E9413
:1026C000DE090C94190F0895882339F09091620364
:1026D000982B909362030C94190F0895882321F08E
:1026E0000E94E5090C94190F0895882339F0909100
:1026F0006103982B909361030C94190F089588231C
:1027000079F19CEF980F913A38F4682F80E791E0C7
:102710000E94C5050C94190F90E2980F983050F460
:10272000877091E001C0990F8A95EAF7892F0E947E
:10273000E509F0CF9BE5980F933020F490E080E01E
:102740000C943A0698E5980F973120F490E080E0D9
:102750000C942406803F20F00E94C2060C949B0635
:102760000895CF93C82F882309F46FC08CEF8C0F86
:10277000813AC0F580911101882311F180912004E4
:1027800087FF1EC0EC2FE695E695E695F0E0E05950
:10279000FE4F828190E04C2F477021E030E002C074
:1027A000220F331F4A95E2F782239323892B91F05E
:1027B0006C2F80E791E00E94C5050E94190F0AC0A6
:1027C000E2E7F1E088E791E02191C21789F38E17E3
:1027D0009F07D1F76C2F80E791E00E94EF05CF9122
:1027E0000C94190F80E28C0F883068F4C77021E0D8
:1027F00030E001C0220FCA95EAF780916103822B75
:1028000080936103ECCFEBE5EC0FE33040F4F0E0B4
:10281000E65EFE4F808190E0CF910C943A06E8E5A9
:10282000EC0FE73150F4F0E0EE0FFF1FE35EFE4FD8
:1028300080819181CF910C942406C03F30F08C2F81
:102840000E948707CF910C949B06CF9108951F9308
:10285000CF93DF93182FD0E0C0E0893311F4C0E5A7
:10286000D0E0812F0E94B113209731F4812FDF91A6
:10287000CF911F910C947F138FE99FE00197F1F79F
:1028800000C000002197F0CF0F931F93CF93DF93E9
:10289000C62FD42F022FFC0182818823A1F06093E0
:1028A00057040E94B9059093560480935504C7704D
:1028B00081E001C0880FCA95EAF7DF91CF911F919F
:1028C0000F910C94751380915704681335C0809153
:1028D0005504909156040E94AA05883C910560F524
:1028E00010E21D0FCD17B9F080E28C0F883040F454
:1028F000C77081E001C0880FCA95EAF70E946E1385
:10290000183048F481E09D2F977001C0880F9A9588
:10291000EAF70E947513802F0E942714183098F44C
:10292000D77081E001C0880FDA95EAF7DF91CF9187
:102930001F910F910C946E13C77081E001C0880F36
:10294000CA95EAF7F3CFDF91CF911F910F910895C8
:10295000AF92BF92CF92DF92EF92FF920F931F93AD
:10296000CF93DF93EC018AE0A82E2881222309F47B
:102970008CC02130C9F599818A81913021F4229649
:102980000E94271405C0923029F422960E94B113A8
:102990002196EBCF933021F422960E947F13F8CF3B
:1029A000943011F02196F4CF229630E020E0AE0171
:1029B0004F5F5F4F8053990B8A30910550F0215043
:1029C000310930F38FE99FE00197F1F700C0000073
:1029D000F6CFA29EB001A39E700D11249C01260F7C
:1029E000371F8981EA01E3CFE22FF0E0E650FE4F86
:1029F000B490822F86958695869590E0FC01E651ED
:102A0000FE4FE4902770F12C022E02C0F594E7945B
:102A10000A94E2F731E0E322FF24FC01E652FE4F84
:102A2000C490D12C022E02C0D594C7940A94E2F728
:102A300031E0C322DD24FC01E653FE4F049110E097
:102A400002C0159507952A95E2F701701127E11448
:102A5000F10419F081EE0E94B113C114D10419F0F0
:102A600086EE0E94B1138B2D0E942714CD2819F0F9
:102A700086EE0E947F13EF2819F081EE0E947F13EB
:102A8000012B09F485CF8CE27BCFDF91CF911F9191
:102A90000F91FF90EF90DF90CF90BF90AF9008958F
:102AA00069EE7EEF90E080E00E941B2B60E082E008
:102AB00090E00E94FD2A60E083E090E00E94FD2A01
:102AC0001092200260E084E090E00E94FD2A60E025
:102AD00082E290E00E94FD2A60E085E090E00E94A2
:102AE000FD2A60E086E090E00E94FD2A6FEF87E01B
:102AF00090E00E94FD2A40E050E0BA0188E090E0BA
:102B00000E940F2B60E08DE090E00E94FD2A40E0E3
:102B100050E0BA0188E190E00E940F2B60E087E16D
:102B200090E00E94FD2A40E050E0BA018CE190E084
:102B30000E940F2B70E060E080E290E00E941B2B6F
:102B400040E050E0BA0188E190E00E940F2B80E065
:102B50000E948D0B0E943F0C40E050E0BA018FE0D4
:102B600090E00E940F2B40E050E0BA0183E190E03A
:102B70000C940F2B8F929F92AF92BF92CF92DF92C5
:102B8000EF92FF920F931F93CF93DF9300D000D06B
:102B9000CDB7DEB77C01DC0113968D919C91149723
:102BA000892B39F08C9111969C9189238F3F09F0E4
:102BB0005BC50F900F900F900F90DF91CF911F91F9
:102BC0000F91FF90EF90DF90CF90BF90AF909F90CC
:102BD0008F900895D60116968C9116978823D1F080
:102BE00019968D919C910817190739F48091630308
:102BF000909164030817190769F0F6019786148706
:102C00000387C6010E94C40FC60106960E947F0F6B
:102C100010926203FFEFAF1ABF0A26E1C20ED11C69
:102C20003BC5980122513F452031310508F0ECC4E5
:102C30008FEF93E00E94EF2A4EEED42ED00E0FE1DC
:102C400013E08823F9F08091FC01877009F4B1CF7B
:102C5000D70112968C91882309F4ABCF809121047F
:102C600082FDA7CF82E00E941E10A3CF011534E0A1
:102C7000130749F3C8010E94EF2A811101C0DA94B9
:102C80000F5F1F4FD110F2CF19821A821B821C8254
:102C9000CC24CA9448014FEF841A940AC8010E94B8
:102CA000EF2A89831A82882371F2813009F048C0A3
:102CB000580152E0A50EB11CC4010E94EF2A982EC3
:102CC0008A83882309F4BFCFC5010E94EF2AD82E3A
:102CD0008FEF890D833068F4580183E0A80EB11C92
:102CE000DB82DD2021F0CE0101960E94A81485012F
:102CF000D1CF94E09912FBCF5801A4E0AA0EB11CE9
:102D0000C80103960E94EF2ADD2009F49CCF882396
:102D100009F499CF8150990BC89E9001C99E300D3E
:102D20001124ED2DE150FF0BCF01820F931F01976E
:102D3000F0F2AFE9BFE01197F1F700C00000F7CF64
:102D4000CE0101960E94A8145401D1CF81E00E94C7
:102D50004F100E94071077CF81E00E941210F9CF28
:102D600082E0F5CF2FEFC216D10411F008F062C453
:102D70006BE572E08C2D0E944E0C892B29F586E1C3
:102D80008C9DF0018D9DF00D1124EB59FC4F868137
:102D9000813009F0A9C080915B0290915C02892B7F
:102DA00099F080915D0290915E02892B69F080918B
:102DB0005F02909160022091610230916202822B49
:102DC000932B892B09F49AC080910C0190910D01ED
:102DD0008C159D0524F4D0920D01C0920C01F701D1
:102DE000828196E19C9D50019D9DB00C112495011E
:102DF0002B593C4F6901D90150968C935097928181
:102E000016968C911697992309F486C01A961C93EE
:102E10000E9319978F5F16968C930E94B905F60151
:102E20009687858780911F028783809162039091A6
:102E30006103892B80870190F081E02D309741F06C
:102E4000D60154966D917C91C50185599C4F099589
:102E50001093640300936303F7018281882309F4CC
:102E600033C4109257040330FDE51F0708F086C0F5
:102E70000A3F2CE5120730F4C80182509C45449764
:102E800008F086C00E94BE0D909321048093200418
:102E900001315CE5150709F44FC108F0CFC00930D6
:102EA0009CE5190709F436C108F09CC00530BCE563
:102EB0001B0709F427C108F082C00330FCE51F0797
:102EC00009F416C108F01AC1809120048160023013
:102ED0001C4509F410C180912004909121040E94A6
:102EE000A50B0E947410AFCE823009F06DCF809197
:102EF0005F0290916002892B09F466CF26E12C9D38
:102F0000C0012D9D900D11248B599C4FDC015096D2
:102F10001C920E94C40F58CF882309F49DCFF90159
:102F20008189882309F498CFC50185599C4F0E9457
:102F30007F0F92CF053F8CE51807C9F0A0F027E27C
:102F400045EE66EE063FACE51A0709F085CFC701EE
:102F50000E94441478CE27E245EE65EEF8CF26E2D3
:102F600041EE60EEF4CF27E245EE64EEF0CF26E2CC
:102F700041EE62EEECCF28E241E0EFCF01363DE5D5
:102F8000130709F47FCF053A4DE5140709F47ACF0A
:102F90000631ACE51A0709F0A4C3809161038A7A6F
:102FA00091E009F490E09093900169E2811165E36A
:102FB00080E791E00E94EF050E94190F44CE8091B6
:102FC0002004806207304CE5140709F494C0809116
:102FD0002004806108301C4508F48DC080912004D5
:102FE000806489C00D308CE5180709F499C098F405
:102FF000809120048E7F0B30ACE51A0709F47BC06A
:10300000809120048C600C301C4508F474C08091C1
:1030100020048D7F70C0809120048F7E0F30ECE5FE
:103020001E0709F468C080912004877F00311C4589
:1030300008F461C0809120048F7D5DC00D3F2CE5B8
:10304000120709F475C038F505314CE5140709F489
:1030500081C080F403318CE5180709F477C008F4C7
:103060006FC00E94741090912004892F97FB87F9FC
:10307000805841C00B3FACE51A0709F447C008F07F
:1030800053C08091210481600A3F1C4509F023CF81
:103090008093210420CF0130FDE51F0709F466C0AD
:1030A000B8F4809121048C7F0F3F3CE5130781F336
:1030B00080912104836001151D4550F38091210406
:1030C000982F909591708E7F892B90FB81F9E0CF9E
:1030D00001365DE5150709F44FC0053A8DE518077F
:1030E00009F451C002301D4509F0F5CE60E03FC043
:1030F00080912004826080932004EDCE8091200492
:103100008460F9CF809120048860F5CF80912104FC
:103110008260BECF0E947410809120048068EBCF43
:10312000809120048B7FE7CF809121048E7FB0CFE8
:10313000809121048D7FACCF809120048F7BDBCFE9
:103140000E947410809120048F77D5CF8091200445
:10315000837FD1CF8091200482FB992790F921E0D1
:10316000922790FB82F990FB83F9C5CF61E08EE056
:1031700090E00E94FD2AAFCE90912004892F8F7E8F
:1031800094FF8061B8CF90912004892F8E7F90FFAB
:103190008160B1CF0E947410BFEFE4E3FCE0B15056
:1031A000E040F040E1F700C000000E94240B81E005
:1031B000B8C280E0B6C2828100811181882369F0A3
:1031C000C8010E94030DD82E682FC8010E94300A42
:1031D000B8018D2D0E94E70CACC2C8010E94030A01
:1031E000D82EF6CF212F2F70D22E107F19F0D29427
:1031F00090EFD922CC20B9F0DD2069F080E2800F79
:10320000883010F0011109C080916103D82AD09252
:1032100061030E94190F802F46C080916203D82A53
:10322000D0926203F6CF802F0E947F13DD20E9F158
:1032300080E2800F883010F0011104C08D2D0E94B3
:10324000E50903C08D2D0E94DE090E94190F2DC0D3
:10325000312F3F70D32E107F103219F0D29480EFAF
:10326000D822002381F0013009F48BC0CC2009F46E
:1032700094C0BB2009F469C0F701858180FFCBCFE2
:103280008F70858362C08091210482FF39C0CC2079
:1032900089F1DD2039F080916103D82AD092610351
:1032A0000E94190F80E00E94B113292D2850330B82
:1032B0002430310510F40E945006AA20B1F080910C
:1032C000FC0180FD12C0D70112961C928595859550
:1032D00085950E944F10C7010E94BA158091FC018C
:1032E0008595859585950E94121060E0C7010E9422
:1032F000650D5FCC80E00E947F13DD20B1F29ECF90
:10330000CC2039F1B11004C080911F028D291EC05C
:1033100041E0B41210C082FDC8CF80911F02D82AAC
:10332000D81619F20E94B90590931E0280931D02CF
:10333000D0921F02BACF55E0B512E6CF0E94D30952
:103340008091F901D812D092F9018D2D0E94751348
:10335000ACCFB11006C00E94D3098D2D0E946E1310
:10336000A4CF81E0B81208C0809161038D2109F4D7
:103370009CCF0E94F309EFCF95E0B91609F495CFE1
:10338000EACFCC2029F0A5E0AB1508F48ECFDDCF35
:10339000B4E0BB1508F489CFE0CFBB20F1F20933CC
:1033A00049F4FFEF27EE33E0F15020403040E1F7E1
:1033B00000C00000802F0E947F1377CF812F869559
:1033C0008695837061F0813009F06FCFC8019370EA
:1033D000C11002C090E080E00E94240666CFC801C0
:1033E0009370C11002C090E080E00E943A065DCF69
:1033F000802FCC2029F00E9487070E949B0655CF82
:103400000E94C206FACF812F837089F5C1104DCF7B
:10341000402F429546954770440F440F802F8F7080
:10342000042E01C0880F0A94EAF7202F207104FFB0
:1034300007C02FE030E001C0220F4A95EAF720953F
:10344000169516951370123069F050F430912002E1
:10345000113029F0822B83230E94701026CF832BFA
:10346000822BFACF282B809120028227F5CF8695D8
:10347000CC2011F0812F8170882309F416CF402FC2
:10348000429546954770440F440F802F8F70042E4D
:1034900001C0880F0A94EAF7202F207104FF07C0AB
:1034A0002FE030E001C0220F4A95EAF720951695EB
:1034B00016951370123069F050F4309154041130A5
:1034C00029F0822B83230E940310EFCE832B822BC3
:1034D000FACF282B809154048227F5CF1F70CC207F
:1034E00029F0812F0E944F10802F30CF802F0E9413
:1034F0006E13812F0E941210D8CE023F81F160F42A
:10350000003FB9F0013F81F0CC2009F46DC0B1104B
:1035100082CE812F8F7127C0033F41F1043FA1F775
:103520008091210482FF2DC0812F8F71CC2011F357
:103530001AC0CC2079F044E04B1508F4B6CE1F71C8
:1035400081E090E001C0880F1A95EAF79091540449
:103550008927B9CF55E05B1508F4A7CEF0CF812FAE
:103560008F71C110C7CF0E944F109FCE80E0CC203A
:1035700009F4A9CF1F7181E001C0880F1A95EAF7FD
:10358000A2CF8091F901CC20D9F00E94E509809169
:10359000FC018770843041F40E94EC09812F8F7107
:1035A0000E941210A12C81CE84E08B15D8F31F71DC
:1035B000812F0E944F1063E0812F0E945A10F2CF9A
:1035C00090916103982B9093610394E09B1540F4D4
:1035D0000E94EC090E94F30964E0812F8F71EDCF06
:1035E00081E00E941E10DECFBB2059F0093309F0A4
:1035F000E1CEAFEFB7EEE3E0A150B040E040E1F73D
:10360000D7CE812F8F7176CF0031BFE51B0709F42C
:103610009DCB0131EFE51E0709F4A2CB6801E7E578
:10362000DE1A882309F49ECBFFEFCF16D10409F0F0
:1036300008F4CACB033FFCE51F0709F490CC08F05F
:1036400079CC083D3CE5130709F485CC093D4CE5F0
:10365000140709F490CC073D5CE5150709F0FCCB95
:1036600026E241EE61EE73CC61E0C7010E94650D78
:103670008C01D70112968C918823B1F080910C01B6
:1036800090910D01019681F055E6C52E53E0D52E9F
:10369000B12CA12C9924939480910C0190910D014F
:1036A0008A159B050CF096CAF70182818111B9CA6F
:1036B0000031FFE51F0709F44FCB01312FE5120759
:1036C00009F0ACCF82E049CB06311C4561F5809111
:1036D000900169E2811165E380E791E00E94C505F0
:1036E0006BCC0A35EDE51E0709F461CD58F40115E0
:1036F0002CE5120709F44ECD0E3D1C45A1F40E94A5
:103700005015A1CA0B354DE5140709F452CD0C35FF
:103710001D4549F48091210482FB882780F991E0BE
:1037200089270E943A10F70186819781009709F452
:1037300042CD0E944B088C01F701C280B580B29443
:103740003FE0B3228091FC018770C1F0AC2CCC200B
:10375000B1F0812F807F803421F080E2800F8830AB
:1037600068F08091210482FD09C082E00E941E1051
:103770008091FC018770AA24A3948111A12C912E21
:1037800092942FE09222FBE0F91508F48ECDE92DFA
:10379000F0E0EB5BF44D0C94A12ACF93DF93809182
:1037A000B401807FA1F48091B101882381F08091E0
:1037B000F801D091B7016091AF017091B001A09173
:1037C000B201B091B301C62FC723D81303C0DF9154
:1037D000CF91089590E0109711F0CF3F19F4019622
:1037E0008770F3CF9C0143E0220F331F4A95E1F726
:1037F000F901E854FE4F41814713F1CF4081461350
:10380000EECF42814111EBCF438154814A1B5B0BC8
:10381000483C510520F78091B4018F7080618093FE
:10382000B401F901E354FE4F80818F708061808381
:103830008FEA91E00E94BA15DF91CF910C94F909BB
:10384000AF92BF92CF92DF92EF92FF920F931F93AE
:10385000CF93DF93CDB7DEB765970FB6F894DEBF91
:103860000FBECDBF8C0185E0F801DE0151960190BD
:103870000D928A95E1F7F801E2806FEAA62E61E0E9
:10388000B62E6091B2017091B3016115710509F412
:1038900068C19091AF014091B001892F84238F3F7F
:1038A00009F45FC120813181C380D480F090B101DF
:1038B000F601E61BF70BFF2009F41DC18091B4014E
:1038C000582F507FE83CF10508F0D0C0511181C05D
:1038D000FE2C43132BC0921329C06091B501709147
:1038E000B601F8014681578164177507F9F4E110B4
:1038F0001DC08F7080618093B401C5010E94BA150C
:103900008091B401F80185838F2D65960FB6F894E8
:10391000DEBF0FBECDBFDF91CF911F910F91FF9002
:10392000EF90DF90CF90BF90AF900895CD2829F011
:10393000822F83238F3F09F02FC180E0F82FF17091
:10394000DF2E80FF3CC08091F8014091B7018413C5
:1039500015C0298B3A8B89899A890E94320D292FAB
:1039600022952F702230F8F0243020F59F70F9F066
:10397000F8019581907FD9F4D12C1FC090E0FC0113
:1039800053E0EE0FFF1F5A95E1F7E854FE4F5181C7
:10399000351306C05081251303C05281E5120FC0B4
:1039A00001968770D4CF9F7011F0882329F3805E31
:1039B000883010F3C8010E94BA15FD2CA5CFEE2067
:1039C00009F4A2CF8091B40181608093B401F12CFD
:1039D0009BCF43131BC0921319C04091B501509166
:1039E000B601F801268137814217530779F4E110B7
:1039F0000DC08583C8010E94BA1588E0F801AFEABE
:103A0000B1E001900D928A95E1F77ECFC8010E9446
:103A10003E0D882339F1EE2029F18091B4018032E6
:103A2000A0F02091AF013091B0013A8729871B8621
:103A3000DD86CC868E878091B5019091B601988BFA
:103A40008F87CE0109960E94BA1588E0F801AFEA87
:103A5000B1E001900D928A95E1F70E94CD1BFF2401
:103A6000F39452CFC8010E94BA15F9CF51110AC080
:103A70008FEA91E00E94BA1588E0F50111928A95CB
:103A8000E9F7A5CF431318C0921316C04091B501B2
:103A90005091B601F801268137814217530761F42E
:103AA000E1100AC08583C8010E94BA1588E0F501BB
:103AB00011928A95E9F728CFC8010E943E0D88230C
:103AC00089F2EE2079F28091B401803208F4BDCF02
:103AD0002091AF013091B0013A8329831B82DD82AE
:103AE000CC828E838091B5019091B60198878F83A7
:103AF000CE010196A8CFE83CF105C0F6FE2CEE20E1
:103B000009F4B0CF43131FC092131DC02091B5011B
:103B10003091B601F801868197812817390799F409
:103B20009091B40190FD69CF907F09F466CF8091A8
:103B3000B4018583903F09F45DCF982F907F905F0B
:103B40008F70892B56CFC8010E943E0D81117DCF09
:103B50008091B40181608093B401C8010E94BA15BC
:103B6000D3CEEE2009F47ECFC8010E943E0DF82E80
:103B7000882309F477CF88E0F801AFEAB1E001903B
:103B80000D928A95E1F78091AF019091B0010E946A
:103B9000320D0E94CD1BB8CE81E08E25CFCECF93C3
:103BA000DF93CDB7DEB760970FB6F894DEBF0FBED8
:103BB000CDBF29873A874B875C876D877E878F8744
:103BC000988BCE0109960E94201C811112C088E0BA
:103BD000FE013996DE01119601900D928A95E1F76A
:103BE0008C859D85892B29F089859A8589238F3F2E
:103BF000A9F58091F8019091B70189131CC06096D6
:103C00000FB6F894DEBF0FBECDBFDF91CF91089500
:103C100093E0AA0FBB1F9A95E1F7A854BE4F98E016
:103C2000FE01319601900D929A95E1F78093B701CC
:103C30000E94F909DECFB8E08B9FC001112488549F
:103C40009E4F0E94201C8823D1F28091F80190E0C1
:103C50000196877099278093F801CBCFA091B70187
:103C6000B0E0CD010196877099272091F8012817BF
:103C7000190671F60E9474101092B7011092F801A3
:103C800088E0EFEAF1E0DF011D928A95E9F7B1CF14
:103C90000F931F93CF93DF938091BC02E091BB02FF
:103CA000CCE081111AC0DF91CF911F910F9108953F
:103CB000D1E0DE0FD093BB020E2F10E0EC9FF0019D
:103CC0001124E354FD4F83819481892B29F0808155
:103CD000918189238F3F51F4ED2F8091BC02E81729
:103CE00038F31092BC021092BB02DDCFC09FD0010E
:103CF000C19FB00D1124A354BD4F16968D919C9178
:103D00001797892B29F418968D919C91019651F45F
:103D100020813181428153816481758186819781BF
:103D20000E94CF1DC09FF001C19FF00D1124E354EC
:103D3000FD4F1482138210926203CECF1092600363
:103D400010925F031092100180915E0380935D03D7
:103D50000E948A060C94481E3F924F925F926F9287
:103D60007F928F929F92AF92BF92CF92DF92EF920B
:103D7000FF920F931F93CF93DF93C0915D0397E062
:103D8000892E01E010E02CE0322E3EEF932E4424E9
:103D9000439480915E038C1315C00E94481EDF91EE
:103DA000CF911F910F91FF90EF90DF90CF90BF9038
:103DB000AF909F908F907F906F905F904F903F90CB
:103DC0000C948A06D0E0FE01EE0FFF1FEB5AFC4F69
:103DD00080819181889ED001899EB00D1124A35EBF
:103DE000BC4F14962C911497211157C05090BC02CF
:103DF000EDEBF2E030E020E0712C5D01251508F0DC
:103E00004AC0E284F384D501CD90DC906FEF7FEF60
:103E1000612C462D50E0DA01AA0FBB1FAC0DBD1D71
:103E20000D90BC91A02D109731F0EA16FB0609F415
:103E3000BA016394EECF6F3F7607A1F1D80102C0BB
:103E4000AA0FBB1F6A95E2F77A2AB80102C0660F73
:103E5000771F6A94E2F7AB014150510974161506B9
:103E6000F9F4329EF001339EF00D1124E354FD4F1E
:103E7000889ED001899EB00D1124A35EBC4F12967E
:103E80002D913C911397378326839082918291875D
:103E9000808715964C920E945C062196C37079CF5C
:103EA000148213822F5F3F4F3C96A8CF2F923F92F0
:103EB0004F925F926F927F928F929F92AF92BF923A
:103EC000CF92DF92EF92FF920F931F93CF93DF93E6
:103ED000CDB7DEB769970FB6F894DEBF0FBECDBF82
:103EE000498B5A8B6B8B7C8B8D8B6111109262038B
:103EF0001D861E861F86188A85E0FE017196DE01EA
:103F0000199601900D928A95E1F78091210482FD26
:103F10001CC00E94B9052091FA013091FB01821B5F
:103F2000930B8838934120F08091FC0182FFFEC101
:103F30000E94B90520911D0230911E02821B930B35
:103F40008838934110F00E94D3098C859D85892B78
:103F500031F089859A8589238F3F09F0D3C129855E
:103F60003A854B855C856D857E858F8598890E9415
:103F7000CF1DC2C048EFC4164CE5D40629F48823EF
:103F800079F00E949E1EEBCF69EFC6166CE5D6064F
:103F900039F4882329F0809110018111F2CFC2C138
:103FA0000DE113E0E12CB12CA12C88248394912CF9
:103FB0002EEF522E44244394F8014081518166240F
:103FC0006A94762C20E0822F90E0FC01EE0FFF1F18
:103FD000E40FF51F608171816115710531F0C6161E
:103FE000D70609F43C012F5FEECFF12CFFEF6F16DF
:103FF0007F0609F443C0F8014481F09010018F2D31
:10400000411180E0F82FF170FF2EF80125808681A4
:104010009B85992309F406C1FF2009F403C12110EF
:1040200013C0A40101C0440F6A94EAF7842B86836D
:104030008091B9029091BA02C29730F462E370E0C5
:104040007093BA026093B902C40102C0880F991F2D
:104050002A95E2F70197F80126812817190671F4CD
:1040600080915F0390916003009709F45EC00E9405
:10407000AA05C39708F459C0F8014482EF28FFEF5E
:10408000AF1ABF0A095F1F4F28E0A216B10409F05A
:1040900093CF8B85882309F420C1EE2009F41DC13C
:1040A0000E94B9059093600380935F038091BC02E6
:1040B000883010F591E0980F9093BC0298E0FE01D3
:1040C0003996DE01119601900D929A95E1F73CE048
:1040D000839FC001112483549D4F28E0FE01319637
:1040E000DC0101900D922A95E1F72FEF3FEFFC01E3
:1040F00031872087D386C28669960FB6F894DEBFD3
:104100000FBECDBFDF91CF911F910F91FF90EF9028
:10411000DF90CF90BF90AF909F908F907F906F90E7
:104120005F904F903F902F90089580915D03509144
:104130005E03982FF0E0E0E0851314C090935D03D8
:104140000E171F0709F49ACF90E0FC01EE0FFF1F36
:10415000EB5AFC4FB182A08201968370992780931D
:104160005E038CCF282E312CF101EE0FFF1FEB5A8E
:10417000FC4F20813181F7E0F29FD001F39FB00D19
:104180001124A35EBC4F2D913C911197398F288F3C
:1041900040E020E030E0E32FF0E0EE0FFF1F688DFD
:1041A000798DE60FF71F6080718061147104E1F072
:1041B000F8010190F081E02DFF8BEE8B20E005C02F
:1041C0006616770609F44F2D2F5FE22FF0E0EE0F11
:1041D000FF1F6E897F89E60FF71F6081718161156E
:1041E000710571F73F5FD7CF4423C9F0F80123175A
:1041F00008F0FD014482E017F10721F490935D037C
:10420000F42E3CCF981305C0EA17FB0711F49F5F0B
:10421000937091012F5F3F4F822F83708DCFF0E01D
:10422000E0E0F7CF90E021101FC0B40102C0660F9C
:10423000771F2A95E2F79B012150310982179307D6
:1042400031F4442309F447C0C5010E945C06C4014F
:1042500001C0880F6A94EAF7982F9095F80186813B
:1042600089238683F22C0ACF9C01062C02C0359547
:1042700027950A94E2F7A90141705527BC016150C6
:10428000710986239723892B11F5452B01F1F8013C
:1042900082819381892BC1F01B821C821D821E8228
:1042A00059825A820E94B9058160582F9D838C8360
:1042B000F801828193818F83988729813A814B818C
:1042C0006D817E810E94CF1DF8011582C0CFF22F33
:1042D000F1702F2EBCCF2F2CBACF90915D0380911F
:1042E0005E03981731F00E94AC1EEE2009F437CE21
:1042F00003CF0E94481E1092600310925F030E9439
:104300008A06F3CF61E0CE0109960E94650D6C012B
:104310008B85F7EFCF16FCE5DF0609F02BCE88235F
:1043200009F43ECE81E08093100119CE82E00E9414
:104330001E10FECD0F931F93CF93DF9300D000D0BC
:104340000F92CDB7DEB78C019093B6028093B50281
:10435000011580E2180720F5802F0E947F13C80105
:104360000E94600A9801205E31092830310510F062
:10437000012B59F40F900F900F900F900F90DF9139
:10438000CF911F910F910C946E130F900F900F907F
:104390000F900F90DF91CF911F910F910C945D13AF
:1043A0008EEF89838A831B820E94B9058160782FF2
:1043B0009D838C8349815A816B818D810F900F90F1
:1043C0000F900F900F90DF91CF911F910F910C9450
:1043D000561F0F931F93CF93DF938C01EB016BE577
:1043E00072E08C2F0E944E0C892B71F4DD27CD5A80
:1043F000DD4F8881F80110821882833009F148F47A
:10440000813059F0823081F0DF91CF911F910F916F
:1044100008958430D1F08530B9F780915B02909196
:104420005C02009789F306C080915D0290915E0264
:10443000009799F3DF91CF911F910F910C949A21DE
:1044400080915F0290916002F3CF80916102909120
:104450006202009779F720915B0230915C028091B3
:104460005D0290915E0221153105D9F2009711F796
:10447000C901E0CF0F931F93CF93DF9300D000D0FB
:104480000F92CDB7DEB78C019093B6028093B50240
:10449000011580E21807E8F4C8010E94600A98013B
:1044A000205E31092830310518F00115110571F42D
:1044B0000E947513802F0F900F900F900F900F9008
:1044C000DF91CF911F910F910C94B1130E9464134F
:1044D000F1CF8EEF89838A8381E08B830E94B905B7
:1044E0008160782F9D838C8349815A816B818D8176
:1044F0000F900F900F900F900F90DF91CF911F9121
:104500000F910C94561FCF93DF93EC010E943A2237
:10451000CE01DF91CF910C949A210F931F93CF93EB
:10452000DF938C01862F6BE572E00E944E0C892B85
:10453000C9F4C0915B02D0915C02209799F0F80118
:104540008081833069F4CE010E948322CE010E94D3
:104550008322CE01DF91CF911F910F910C94832282
:104560008430B8F7DF91CF911F910F9108950F9389
:104570001F93CF93DF938C01EB016BE572E08C2FDF
:104580000E944E0C892B09F064C0FE01FF27D80160
:104590008C91ED5AFD4F8130D9F419969C91199761
:1045A000992311F080830CC01A969C919923D1F322
:1045B00082E0808380915D0290915E020097D9F441
:1045C00080915B0290915C02009709F442C013C095
:1045D0008230E9F519968C91199781112DC01A96A0
:1045E0008C9181110EC083E0808380915F02909155
:1045F0006002009719F1DF91CF911F910F910C94F8
:104600003A2284E080838091610290916202009757
:1046100091F780915B0290915C020097F9F00E9403
:10462000832280915D0290915E02009721F7809134
:104630005B0290915C02DFCF85E0808380915B021A
:1046400090915C02009729F00E948322F0CF86E0CF
:104650008083DF91CF911F910F91089580915D022A
:1046600090915E02B1CF1F920F920FB60F9211245C
:104670002F933F934F935F936F937F938F939F936A
:10468000AF93BF93CF93DF93EF93FF93D091E90064
:10469000DF708091EC00C82FC17080FDC0E81092DF
:1046A000E9008091F000877F8093F00078940E9469
:1046B00089101092E9008091F00088608093F000EA
:1046C000CD2BCF70C093E900FF91EF91DF91CF9197
:1046D000BF91AF919F918F917F916F915F914F911A
:1046E0003F912F910F900FBE0F901F9018951F9222
:1046F0000F920FB60F9211242F933F934F935F9316
:104700006F937F938F939F93AF93BF93EF93FF9399
:104710008091E10082FF09C08091E20082FF05C024
:104720008091E1008B7F8093E1008091DA0080FF2F
:1047300024C08091D80080FF20C08091DA008E7F55
:104740008093DA008091D90080FF9DC080E189BD0F
:1047500082E189BD09B400FEFDCF81E080934A0467
:1047600080912504811109C00E941C040E94E70465
:104770008091E20084608093E2008091E10080FFFC
:1047800017C08091E20080FF13C08091E2008E7F0D
:104790008093E2008091E20080618093E20080914A
:1047A000D80080628093D80019BC85E080934A04C9
:1047B0008091E10084FF2BC08091E20084FF27C03C
:1047C00080E189BD82E189BD89B5982F917080FF14
:1047D000FBCF8091D8008F7D8093D8008091E1003D
:1047E0008F7E8093E1008091E2008F7E8093E200D3
:1047F0008091E20081608093E20080914B048823E5
:1048000009F447C084E080934A0480914A0480916F
:10481000E10083FF27C08091E20083FF23C08091E5
:10482000E100877F8093E10082E080934A04109248
:104830004B048091E1008E7F8093E1008091E20043
:104840008E7F8093E2008091E20080618093E2009D
:1048500042E060E080E00E94B5048091F000886052
:104860008093F000FF91EF91BF91AF919F918F9155
:104870007F916F915F914F913F912F910F900FBE5C
:104880000F901F90189519BC10924A04109225049D
:1048900074CF8091E30087FD93E090934A04B5CFF5
:1048A00078941F921FB61F9211248F939F93AF93FA
:1048B000BF9380911C0490911D04A0911E04B0919F
:1048C0001F040196A11DB11D80931C0490931D042B
:1048D000A0931E04B0931F04BF91AF919F918F913D
:1048E0001F901FBE1F9018951F921FB61F92112474
:1048F0008F939F93AF93BF9380911B04811113C03B
:1049000080911C0490911D04A0911E04B0911F047D
:104910004196A11DB11D80931C0490931D04A0938A
:104920001E04B0931F04BF91AF919F918F911F9070
:104930001FBE1F901895CDB7DEB7E4970FB6F89459
:10494000DEBF0FBECDBF84B7877F84BF0FB6F8949C
:10495000A89580916000886180936000109260004B
:104960000FBE80E890E00FB6F894809361009093BA
:1049700061000FBE85B7806885BF85B7806885BF39
:104980008FEE97E090936F0180936E010E94620C0E
:104990000E94CC0D0E941C040E94E7048091E2005A
:1049A00084608093E200789480914A048823A1F087
:1049B0001091E9001F709091EC00892F817090FD9B
:1049C00080E8182B1092E9008091E80083FD0E9496
:1049D00089101F701093E90082E084BD93E095BDBB
:1049E0009AEF97BD80936E000E94A50D811102C0C1
:1049F0000E943F0C0BE411E0D8018D918D018F3F97
:104A000011F00E94F107B1E000351B07A9F700E59E
:104A100011E0EFE5EE2EE1E0FE2EF80181918F012D
:104A20008F3F11F00E94F107E016F106B1F78AE01E
:104A3000ECE3F2E0DF01282F1D922A95E9F7E4E28A
:104A4000F2E0DF011D928A95E9F790E080E00E9494
:104A5000F72A893E9E4F21F40E94A50D811102C0C4
:104A60000E94501582E090E00E94EF2A80932E026F
:104A70000E94BE0D90932104809320040E94250E75
:104A8000EFE3FCE93197F1F700C000000E94250E2A
:104A900080913C0280FF08C06FEF7FEF90E080E0E4
:104AA0000E941B2B0E94240B83E090E00E94EF2ABF
:104AB0000E9470108091200480688093200480916F
:104AC0002004909121040E94A50B80E091E0909336
:104AD00018048093170458E1652E712C60E4562E5B
:104AE00076E4A72E72E0B72E80914A0400E112E12D
:104AF000853009F49CC10E94250E882359F08FB798
:104B0000F89440911C0450911D0460911E04709112
:104B10001F048FBFACE3B2E0EFE2F2E010E000E090
:104B2000702F8D919D91219131912817390709F4AA
:104B30008EC12827392760E0EE24E394F12CA701E9
:104B400042235323452B09F47CC16BA77CA7970113
:104B50002823392391E0232B09F490E09DA70E949C
:104B6000B9058160782F9FA78EA74BA55CA56DA581
:104B70008FA50E94561F000F111FF801E15DFD4F28
:104B800080819181E826F926F182E08280910C01F2
:104B900090910D0110E006E1019609F09DC1809110
:104BA00010018111A3C186E0EDE4F2E08E010F5FF8
:104BB0001F4FD80101900D928A95E1F7D0904F02D6
:104BC000C0905002F0905102E090520210924F02B9
:104BD0001092500210925102109252028D2D8C2987
:104BE00009F448C080914B0290914C020E94AA05A2
:104BF0009C0190914702992309F48AC4253131051B
:104C0000C8F19F3F19F09F5F90934702DD2059F054
:104C10000E9467079FEF1D140CF491E0899F802D7F
:104C2000112480934F02CC2059F00E9467079FEF18
:104C30001C140CF491E0899F802D11248093500264
:104C400030914F023323B1F020915002222391F092
:104C500045EB3403C0011124992309F472C19093E8
:104C60004F0245EB240390011124332309F46DC155
:104C7000309350028F2D8E2909F448C0809149024B
:104C800090914A020E94AA059C01909146029923A4
:104C900009F439C421353105C8F19F3F19F09F5FF0
:104CA00090934602FF2059F00E9445079FEF1F1482
:104CB0000CF491E0899F802D112480935102EE2005
:104CC00059F00E9445079FEF1E140CF491E0899F54
:104CD000802D112480935202309151023323B1F080
:104CE00020915202222391F045EB3403C00111249C
:104CF000992309F42EC19093510245EB24039001AE
:104D00001124332309F429C13093520280914F02B8
:104D100090915002892B90915102892B90915202CF
:104D2000892B11F00E949B0686E0F801ADE4B2E009
:104D300001900D928A95E1F70E94500690913902F8
:104D400089138093390280914A04843009F0CCCED3
:104D500083E08093E9008091E80082FFC5CE8091D6
:104D6000E80090E085FF0AC00E943B0440E2C42EA8
:104D7000D12C7801882309F4FEC091E08091E800ED
:104D80008B778093E800992309F4AECEE090B702C8
:104D9000F090B8028981E114F10409F4FAC08E3F61
:104DA00009F043C18A81833020F08550833008F0B8
:104DB0003CC1EA81EE3008F038C1F0E0EF5AF44D22
:104DC0000C94A12A80914A04843009F110921B04AA
:104DD0000FB6F894A895609260000FBE50926000E4
:104DE00083B7817F846083BF83B7816083BF7894FA
:104DF000889583B78E7F83BF0FB6F894A89580916E
:104E00006000886180936000109260000FBE809106
:104E10004904882361F00E94250EECE3F2E08191C1
:104E20009191892B09F050C3AE16BF06C1F780914E
:104E30004A04853009F4C6CF0E9474100E945006BF
:104E40005ACE6F5FEE0CFF1C6F3009F078CE0F5F0B
:104E50001F4F0530110509F063CE8FEF88AB89AB8A
:104E60001AAA0E94B9058160782F9CAB8BAB48A928
:104E700059A96AA98CA90E94561F88CE089FF001E3
:104E8000099FF00D1124EB59FC4FE288F388E114DF
:104E9000F10419F458ECE52EF12C089FF001099F5C
:104EA000F00D1124EB59FC4F86818823A1F08585F4
:104EB00096850E94AA05E816F90668F4109F70010D
:104EC0001124C7018B599C4F0E94C40FC7018559FB
:104ED0009C4F0E947F0F1F5F812F90E020910C015B
:104EE00030910D01281739074CF659CE80915F0398
:104EF00090916003009709F456CE0E94AA05209174
:104F0000B9023091BA022817390708F04CCE9091B7
:104F10005D0380915E03981759F00E94AC1E1092B9
:104F2000BA021092B9021092600310925F033BCE56
:104F30000E94481E1092600310925F030E948A062E
:104F400032CE81E080934F028CCE81E0809350027C
:104F500091CE81E080935102D0CE81E080935202C5
:104F6000D5CE8091F100D7018D937D01B1E0CB1AB0
:104F7000D10809F402CF8091E80085FDF2CF80913D
:104F8000E8008B778093E8000E943B04882399F324
:104F9000F4CE8D3009F4CEC0B8F4843009F4B1C039
:104FA00048F4823049F108F09DC0813009F18FEF5B
:104FB00089833BC0863009F4BAC008F4ADC08C3098
:104FC000B1F780E18A8331C0813109F40CC140F42A
:104FD0008F3009F4DBC008F4B0C00E94480B25C034
:104FE000833109F42BC108F400C18E3F01F7E1CEF3
:104FF0001A8289E08B8319C08A81823009F47AC2CF
:105000008330E1F1813099F62FB7F89460911C0458
:1050100070911D0480911E0490911F042FBF0E9467
:10502000A72A6B837C838D839E8380914A0484307E
:1050300009F05ACDF090E9002F2D2F70F22E9091AB
:10504000EC00892F817090FD80E8F82A82E080933F
:10505000E9008091E80080FF0CC050E040E060E291
:1050600070E0C8010E946C048091E8008E77809304
:10507000E8008F2D8F708093E90036CD80910E016E
:1050800090910F01892B89F280913C0290913D0211
:105090009827892798279C838B8380913E02909143
:1050A0003F029827892798279E838D83809140020D
:1050B0009091410298278927982798878F8380911C
:1050C0004202909143029827892798279A878987D7
:1050D00080914402909145029827892798279C87C0
:1050E0008B87A3CF8A81823009F061CF6B817C816D
:1050F0008D819E810E94A72A86E290E00E94FD2A6F
:1051000094CF4C816B818A810E94B80C98278927A3
:1051100098279E838D8389CF2D813E813227232737
:1051200032274C816B818A810E94580B7ECF0E946E
:10513000B20B7BCF1A8281EE5DCFEC80F12CEDE1DA
:10514000EE16F10408F071CFCA80DB80DC24CD2498
:10515000DC244801E00EF11EC601815E9C4F8E14D6
:105160009F0409F462CFF1EECF16D10460F40E94DF
:10517000EF2AD40114968C93FFEFCF1ADF0A2FEF9A
:10518000821A920AE9CFF4011482F6CF80910E01BF
:1051900090910F01892B09F448CFCC80D12C3DE1AF
:1051A000C316D10408F041CFEA80FB80FE24EF242F
:1051B000FE244801CE0CDF1CC701815E9C4FCE143B
:1051C000DF0409F432CF41EEE416F10428F4D401EF
:1051D00014966C910E94FD2ABFEF8B1A9B0AEFEF89
:1051E000EE1AFE0AE9CF84E0EDCEEC80F12CFDE171
:1051F000EF16F10408F019CFCA80DB80DC24CD243F
:10520000DC244801E00EF11EC6018796E814F9047B
:1052100009F40BCF28E5C21622E0D20660F40E9402
:10522000EF2AD40114968C93FFEFCF1ADF0A2FEFE9
:10523000821A920AE9CFF4011482F6CFCC80D12CE5
:105240003DE1C316D10408F0F0CEEA80FB80FE24D5
:10525000EF24FE2448E5E41642E0F40608F0E5CE2B
:1052600088E592E08E199F098C159D0508F4DDCE26
:105270004801CE0CDF1CC7018796EC14FD0409F42D
:10528000D4CEA8E5EA16A2E0FA0620F4F40164817F
:105290000E94FD2AFFEF8F1A9F0A2FEFE21AF20AEF
:1052A000EACF88E0E2E1F1E0DE01919601900D9213
:1052B0008A95E1F780E2D8011D928A95E9F784E0AA
:1052C000898388E0FE01B196DE01159601900D926A
:1052D0008A95E1F7AACE80E3898382E08A831B82E4
:1052E0001C82A3CE8C81682F70E0762F66278B817D
:1052F000860F972F911D092E000CAA0BBB0B35E0D2
:10530000880F991FAA1FBB1F3A95D1F7AC01BD01A9
:10531000405E5F4F6F4F7F4F481759076A077B0703
:1053200008F483CE8033E2E09E07A105B10508F0C2
:105330007CCE4133F2E05F076105710520F040E368
:1053400052E060E070E0481B590BBC0166587D4F8D
:10535000C8010E94C22A69CE4EE150E06FEF70E0B2
:10536000CE0103960E94D82A80910E018983EA8299
:105370005CCE81E090E09093B8028093B70282E324
:1053800090E090933B0280933A020E94B9054DCE83
:1053900080910E018983EA8280913A022BCE40E20D
:1053A00050E06FEF70E0C8010E94D82A3ECE8B819A
:1053B000823009F44DC0F0F4882309F43FC08130F5
:1053C00009F033CE8C819AE0F92E6E01B1E2CB0E5A
:1053D000D11CF6012F2D11922A95E9F7B6010E94F2
:1053E0004E0C8983F601DE01129601900D92FA941B
:1053F000E1F71BCE833009F449C0843009F015CEA3
:105400006C818AE0FE013596DE01919601900D9245
:105410008A95E1F78FEF683068F4FAE06F9FB0018A
:10542000112461537D4F4AE050E0CE0181960E94E5
:10543000212B80E089830E94CC0DF7CDFE013396AD
:105440008EE1DF011D928A95E9F788E08983BACD64
:105450006C818AE0FE013596DE01919601900D92F5
:105460008A95E1F78FEF683068F43AE0639FB00106
:10547000112461587D4F4AE050E0CE0181960E9490
:10548000212B80E089830E94620CCFCD6C812AE0C1
:10549000CE018196DC01E22F1D92EA95E9F7683092
:1054A00088F4629FB001112461537D4F4AE050E0BF
:1054B0000E94DF2A80E089838AE0FE01B196DE0146
:1054C000129604CF8FEFF7CF09BD19BD09B400FEC6
:1054D000FDCF8091D8008F7D8093D8008091E0002F
:1054E00082608093E0008091E00081FDFCCF0E940B
:1054F00074109DCC86E290E00E94EF2A1B821C82F1
:105500001D828E8392CD2B30310508F0C8CBFECBA7
:105510002B30310508F077CBADCB97FB072E16F477
:10552000009407D077FD09D00E94AE2A07FC05D071
:105530003EF4909581959F4F0895709561957F4FAA
:105540000895EE0FFF1F0590F491E02D099469274F
:10555000962769277827872778270895AA1BBB1BDA
:1055600051E107C0AA1FBB1FA617B70710F0A61B63
:10557000B70B881F991F5A95A9F780959095BC0184
:10558000CD010895FB01DC0102C005900D92415050
:105590005040D8F70895FB01DC0104C08D910190C3
:1055A000801921F441505040C8F7881B990B089589
:1055B000DC0101C06D9341505040E0F70895DC01DB
:1055C000CB01FC01F999FECF06C0F2BDE1BDF89A0E
:1055D000319600B40D9241505040B8F70895F999B2
:1055E000FECF92BD81BDF89A992780B50895A8E1B4
:1055F000B0E042E050E00C94E12A262FF999FECF6A
:1056000092BD81BDF89A019700B4021639F01FBA15
:1056100020BD0FB6F894FA9AF99A0FBE0895039632
:10562000272F0E94FE2A0E94FD2A252F0E94FE2A73
:10563000242F0C94FE2A0196272F0E94FE2A0C94F8
:10564000FD2ADC01CB0103C02D910E942C2B41507F
:105650005040D0F70895262FF999FECF1FBA92BD7A
:1056600081BD20BD0FB6F894FA9AF99A0FBE019643
:105670000895F894FFCF6F119711451397114513B3
:10568000CA11EB114513F4120113F218F21828197C
:105690002819DE19F81955195519031A6E1A7D1AA9
:1056A0007D1A51296B29722915281528AC29B92989
:0E56B000C8291528CF29152815281528D7290F
:1056BE00A705E40AC30ABF0ABB0AA605FFFF01003D
:1056CE000101D9E5C852D40B36D4818283E200E9B8
:1056DE0000EA00B500B600B700CD008301CC008A09
:1056EE00019201940121022302240225022602279F
:1056FE00022A02B300B4006F00700030379091920E
:10570E00959496973435366667F7F6F5F4F1F040D2
:0E571E0022BC8A016801AC0014072D074D075C
:00000001FF
