:100000000C9496030C94DD030C94DD030C94DD0337
:100010000C94DD030C94DD030C94DD030C94DD03E0
:100020000C94DD030C94DD030C94DA230C9416235A
:100030000C945E1D0C94DD030C94DD030C94DD0325
:100040000C94DD030C94DD030C94DD030C94DD03B0
:100050000C94DD030C94F31C0C94DD030C94DD0371
:100060000C94DD030C94DD030C94DD030C94DD0390
:100070000C94DD030C94DD030C94DD030C94DD0380
:100080000C94DD030C94DD030C94DD030C94DD0370
:100090000C94DD030C94DD030C94DD030C94DD0360
:1000A0000C94DD030C94DD030C94DD0375078007CD
:1000B00085078A078F07940799079E07A307A80754
:1000C000AD07B407B607B807BA07970597059705B0
:1000D00097059705200820085A085A08B008CC0848
:1000E0005E0A5E0AD708B509C609C609C814CC1449
:1000F000F214FF1407152715D915D915D915C115EF
:10010000CB152A152C153015551577157A157D1533
:10011000A1153A1943196C19A619E619281A2B1AB0
:100120002E1A311A341A371A3A1A3F1A421A451A35
:100130004A1A4F1A521A551A5A1A1E214521F822E4
:100140004521F8229121B421F822B522C522F424B8
:10015000F42407250725FD24072507250725F42472
:10016000F4240225072507250225000000000000D1
:1001700000000000000000000000000000007E0FF2
:1001800000D4FFFFFFC7000000780000000000005F
:1001900000002A2B280000000000000000000000E2
:1001A000000000000029000000002C1E3420212245
:1001B00024342627252E362D3738271E1F202122AE
:1001C000232425263333362E37381F040506070827
:1001D000090A0B0C0D0E0F10111213141516171817
:1001E000191A1B1C1D2F3130232D35040506070855
:1001F000090A0B0C0D0E0F101112131415161718F7
:10020000191A1B1C1D2F3130354C00010101010151
:1002100001010101020202020202020202030303BF
:10022000030303030304040404040404050505058F
:10023000050606060606070707070708080808094F
:100240000909090A0A0A0B0B0B0C0C0C0D0D0D0EFB
:100250000E0E0F0F0F101011111112121313141490
:10026000151516161717181819191A1A1B1B1C1D05
:100270001D1E1E1F2020212222232424252626275E
:100280002829292A2B2C2D2D2E2F30313232333490
:1002900035363738393A3B3C3D3E3F404142434496
:1002A00045464748494A4C4D4E4F50515354555678
:1002B00058595A5B5D5E5F616264656668696B6C24
:1002C0006D6F7072737577787A7B7D7E808283859F
:1002D00087888A8C8E8F91939596989A9C9EA0A2DF
:1002E000A3A5A7A9ABADAFB1B3B5B7BABCBEC0C2E9
:1002F000C4C6C9CBCDCFD1D4D6D8DBDDDFE2E4E7AD
:10030000E9EBEEF0F3F5F8FAFDFF29001E001F00FF
:1003100020002100220023002400250026002700C1
:100320002D002E002A004A002B0014001A0008009D
:10033000150017001C0018000C00120013002F00FD
:10034000300031004B00390004001600070009009E
:100350000A000B000D000E000F00330034000000F7
:1003600028004E00E1001D001B00060019000500DA
:1003700011001000360037003800E5000000520080
:100380004D00E000E300E200000000002C0000004F
:100390000000E6000000E4005000000051004F00A3
:1003A000165C3A003B003C003D003E003F00400030
:1003B000410042004300440045004C004A00010057
:1003C000C35CC45CC65CC75CC85CC95CCA5CCB5C13
:1003D0000100460047004800005C4B000100CC5C77
:1003E000CD5C0100010001000100010001000100DD
:1003F000010001000000DF5C4E00E100010001008F
:1004000001000100010001000100010001000100E4
:1004100001000000A900A800010001000100000087
:100420000000010000000000010000000100AC001D
:100430000000AA00AB000100010001000100010062
:1004400001000100010001000100010001000100A4
:100450000100010001000100010001000100010094
:100460000100010001000100010001000100010084
:100470000100010001000100010001000100010074
:100480000100010001000100010000000100010065
:100490000100010001000100010001000100010054
:1004A0000100010001000100000001000100010045
:1004B0000100010000000000010000000000010038
:1004C0000000010001000000010001000100010026
:1004D0000100010001000100010001000100010014
:1004E0000100010001000100010001000100010004
:1004F00001000100010001000100010001000100F4
:1005000001000100010001000100010001000100E3
:1005100001000100010001000100010001000100D3
:1005200000000100010001000100010001000100C4
:1005300001000100010001000100010001000000B4
:1005400001000100010001000100000000000100A5
:100550000000000001000000010001000000010097
:10056000010005010902A10185020901A100050997
:1005700019012905150025019505750181029501CF
:10058000750381010501093009311581257F950227
:100590007508810609381581257F95017508810642
:1005A000050C0A38021581257F950175088106C062
:1005B000C005010980A101850319012AB7001501B1
:1005C00026B700950175108100C0050C0901A10135
:1005D000850419012AA002150126A00295017510B3
:1005E0008100C005010906A1018505050719E0295B
:1005F000E7150025019508750181020507190029F5
:10060000EF1500250195F0750181020508190129F2
:1006100005950575019102950175039101C006606C
:10062000FF0961A1010962150026FF0095207508E8
:1006300081020963150026FF00952075089102C00C
:1006400005010906A101050719E029E715002501A3
:10065000950875018102950175088101050719004A
:1006600029FF150026FF0095067508810005081969
:10067000012905950575019102950175039101C048
:1006800009025B00030100A0FA0904000001030154
:100690000100092111010001224000070581030822
:1006A000000A0904010002030000000921110100F1
:1006B0000122220007058203200001070503032011
:1006C00000010904020001030000000921110100DA
:1006D0000122BC000705840320000A12011001005A
:1006E000000008424B2512020001020301040330FE
:1006F00000000020036B0062006400360037006DCC
:10070000006B0069006900720067006200200076DB
:10071000003200000010034B0042004400660061FC
:10072000006E0073000000040309040011241FBEC2
:10073000CFEFDAE0DEBFCDBF04B603FE27C0809165
:10074000530690915406A0915506B09156068730F5
:10075000904BA740B04BD1F4109253061092540620
:10076000109255061092560614BE84B7877F84BF38
:100770000FB6F894A895809160008861809360001E
:10078000109260000FBEE0E0F8E3099513E0A0E0EE
:10079000B1E0E8E1F8E502C005900D92A039B1079B
:1007A000D9F726E0A0E9B3E001C01D92A335B20756
:1007B000E1F70E94A6110C940A2C0C9400005F92A1
:1007C0006F927F928F929F92AF92BF92CF92DF9261
:1007D000EF92FF920F931F93CF93DF93CDB7DEB7C6
:1007E00029970FB6F894DEBF0FBECDBFFC01808104
:1007F000918123813481232B31F09F3F31F491E0AB
:100800008F3F19F403C091E001C090E090FD91C6C4
:100810007F0185E0DE01119601900D928A95E1F746
:10082000D70112962C9189819A81222349F00E9446
:10083000AB1E182F682F89819A810E94241F03C044
:100840000E94F81E182F69817A81812F0E94AE0FB5
:100850008C01F7018281882379F0E181D7018C91A5
:10086000BFE0EB9FF0011124E458FD4FE80FF11DAC
:10087000A080EFEFAE1202C0B12C02C0BB24B39433
:100880007090F404CB2CD12CC601870D911D0997D3
:10089000A4F188E090E04C018C189D08B6016F5FD0
:1008A0007F4F6C507B4FA40185EF94E00E94012C98
:1008B000B601675F7F4F6C507B4FA4018DEF94E0D2
:1008C0000E94012CA401440F551FB601660F771F2B
:1008D000675E7F4F6C507B4F8DE095E00E94012C4E
:1008E000B6016F5E7F4F6C507B4FA40185E095E0B1
:1008F0000E94012C7A947092F4048091F40490E0A8
:100900002A2D30E0D901AA0FBB1FBD0169537D4FCD
:100910009D0128533D4F41E0480F9B15A8F490E0FE
:10092000FC01EC50FB4FDB015C915183D9015C91E0
:100930005187A18A880F991FFC01EC50FB4F128E42
:10094000118E91E0842FE7CF8093F404F701928118
:10095000992309F4E2C0980122513F452031310525
:1009600008F007C18FEF93E00E94492B8111DFC08F
:1009700002513EE7832E32E0932E002379F081145A
:10098000F4E09F0609F4D3C0C4010E94492B8111F1
:1009900001C001501FEF811A910AEFCF1E821F8202
:1009A00018861986662463942AE0522E84010F5F0C
:1009B0001F4FC4010E94492B8E831F82882309F494
:1009C000B6C09FEF980F933060F48F836E8222E061
:1009D000820E911CC8010E94492B8887811102C098
:1009E000A6C048018E010A5F1F4FD8012C91222317
:1009F000E9F2213009F04FC011968C91813049F411
:100A00006801B2E0CB0ED11CF80182810E94B227AE
:100A10000BC0823059F46801F2E0CF0ED11CD8012E
:100A200012968C910E943A27860174C0833049F453
:100A30006801B2E0CB0ED11CF80182810E9401272F
:100A4000F3CF843019F00F5F1F4F64C0D8011296A6
:100A50002C910E5F1F4F80E090E030E02053310971
:100A60002A30310568F4589EA001599E500D11247A
:100A7000C901840F951F0F5F1F4FF8012081EDCF33
:100A8000009709F447C0AFE9BFE01197F1F700C044
:100A900000000197F5CFE22FF0E0E657FE4F74908B
:100AA000822F86958695869590E0FC01E658FE4F4C
:100AB000A4902770B12C022E02C0B594A7940A947A
:100AC000E2F7B1E0AB22BB24FC01E659FE4FC49033
:100AD000D12C02C0D594C7942A95E2F7E1E0CE224A
:100AE000DD24A114B10419F081EE0E943A27C1144B
:100AF000D10419F086EE0E943A27872D0E94B22772
:100B0000CD2819F086EE0E940127AB2819F081EE5E
:100B10000E9401270F5F1F4F68CF0031FFE51F07BD
:100B200009F0FEC481E00E94591F0E94C5278091F0
:100B30000D06877009F4FDC4F7018281882309F44A
:100B4000F8C482E029960FB6F894DEBF0FBECDBF81
:100B5000DF91CF911F910F91FF90EF90DF90CF9099
:100B6000BF90AF909F908F907F906F905F900C940C
:100B70007E1F0031BFE51B0711F481E005C0013184
:100B8000EFE51E0721F482E00E94971FCECF043FBD
:100B9000FCE51F0749F406E221EE40EE64EF7CE538
:100BA000C7010E942B11C3CF053F2CE5120708F0A7
:100BB0004AC1093D3CE5130731F407E225EE45EE55
:100BC00069ED7CE5EDCF0A3D8CE5180731F408E2CC
:100BD00021E045EE6AED7CE5E3CF083DACE51A0780
:100BE00031F406E221EE41EE68ED7CE5D9CF9923A0
:100BF00009F45EC1109290030230FCE51F0708F46F
:100C000041C106312CE5120738F098012B5F3C45B5
:100C10002930310508F036C10E94E41D909351053A
:100C20008093500500313CE5130709F4C3C008F078
:100C300041C008309CE5190709F49AC0F0F404306B
:100C4000BCE51B0709F487C068F40230FCE51F0708
:100C500009F477C003301C4509F0E5C080915005C8
:100C6000826076C006303CE5130709F46EC008F0D8
:100C70007BC08091500588606BC00C309CE51907E3
:100C800009F485C068F40A30BCE51B0709F474C098
:100C900008F079C00E94D72680915005806858C01E
:100CA0000E30FCE51F0709F476C008F07FC0809184
:100CB00050058BC00C3F3CE5130709F44FC018F5F5
:100CC00003319CE5190709F47DC078F40131BCE5D6
:100CD0001B0709F473C002311C4509F0A4C00E942F
:100CE000D726809150058F7733C00531FCE51F076B
:100CF00009F472C008F486C00B3F1C4509F093C08C
:100D0000809151053EC001158DE5180709F45FC0BB
:100D100058F40E3FACE51A0709F444C008F43FC08C
:100D20008091510582602DC00230EDE51E0709F467
:100D300075C008F45DC003301D4509F074C060E063
:100D40006EC080915005816003C080915005806124
:100D50008093500568C08091500511C08091510565
:100D60008260809351055FC0809150058062F0CF12
:100D7000809150058064ECCF80915005886084603C
:100D8000E7CF8160EECF809150058E7FE1CF8091DB
:100D900050058D7FDDCF80915005877FD9CF809121
:100DA000510518C0809151058D7FDBCF8091500592
:100DB0008F7ECECF809150058F7DCACF8091500518
:100DC0008F7BC6CF80915005877F8B7FC1CF80916D
:100DD00051058D7F8E7FC5CF8091500582FB2227E4
:100DE00020F991E0922790FB82F990FB83F9B0CF34
:100DF00080915105982F909591708E7F892B90FB53
:100E000081F9AFCF0E94D7268091500587FB22271A
:100E100020F991E0922790FB87F99ACF61E08EE06C
:100E200090E00E94672B609150051091510584E07D
:100E300090E00E94672B612F81E290E00E94672B77
:100E40000E94D72674CE063FBCE51B0731F406E2AC
:100E500021EE42EE66EF7CE5A3CE063FECE51E07F1
:100E600030F407E225EE44EE65EF7CE599CE073FCE
:100E7000FCE51F0709F0BBCE07E225EE46EE67EF63
:100E80007CE58ECE8091100606312CE5120709F51F
:100E90008A7A91E009F490E090939103882311F00D
:100EA00065E301C069E283E895E00E94AF1D0EC0D2
:100EB00006311C4509F079C080919103882309F41B
:100EC00036C365E383E895E00E94871D0E94651E96
:100ED0002ECE8272F801E35CFC45E431F10508F0A6
:100EE0004DC0EA5AFF4F0C94D22B90914A0681E0F4
:100EF000892780934A0610920D010E94E30F17CEB6
:100F00004DE55EE066E67EE02CC046E65EE06DE51F
:100F10007EE027C04BE45EE064E57EE022C044E56D
:100F20005EE06BE47EE01DC043E35EE06FE37EE0E5
:100F300018C04FE35EE063E37EE013C04BE15EE088
:100F400067E27EE00EC047E25EE06BE17EE009C052
:100F500045EF5FE06BEE7FE004C04BEE5FE065EFD6
:100F60007FE00E94D90FE3CD81E005C084E003C09B
:100F700089E001C08EE00E945E29D9CD01153CE5D3
:100F8000130731F00F3D1C4581F40E94F51DCFCDB4
:100F90000E94D7269FEFA4E3BCE09150A040B04050
:100FA000E1F700C000000E94CF1CD7010D911C91F9
:100FB000992349F0C8010E94AB1ED82E682FC801A2
:100FC0000E94241F04C0C8010E94F81ED82EB80138
:100FD0008D2D0E9458168C01982ED7011596AC9035
:100FE0001597A2949FE0A9221296DC90D11010923E
:100FF0000F0680910D06877099F0DD2089F0812F12
:10100000807F803421F080E2800F883048F082E0D9
:101010000E947E1F80910D068770CC24C39481119D
:10102000C12CB12EB2948FE0B8228B2D90E08C3081
:10103000910508F043C2FC01E659FF4F0C94D22BF6
:10104000812F807F1F70882311F01295107FDD2083
:10105000B9F0112309F41DC280E2800F883010F02E
:10106000911006C080911006182B1093100605C031
:1010700080910F06182B10930F060E94651E09C25F
:10108000802F0E940127112309F418C2005E1095D9
:10109000083010F0911006C08091100618231093AC
:1010A000100605C080910F06182310930F060E94AA
:1010B000651E04C2812F807F1F70803211F012954F
:1010C000107F992021F0B1E09B16E1F02AC0DD20CD
:1010D00081F080911106AA2051F0E1E0AE1207C024
:1010E000182B181709F4EAC110931106E7C1812BD8
:1010F00010C0AA2021F0F1E0AF1609F4DFC10E9470
:101100005F1E2AC0DD2041F005E00A1508F4D6C1B3
:10111000812F0E94F726D2C124E02A1508F4CEC1FF
:101120001BC0DD2061F0AA2099F3D70115968C91A0
:10113000159780FFAEC18F7015968C93E9CFAA20CA
:1011400059F0093309F0B7C1BFEFE7EEF3E0B15052
:10115000E040F040E1F7ADC1812F0E94EC26AEC126
:10116000812F86958695837019F0813059F0A6C13C
:10117000DD2019F0C801937002C080E090E00E9469
:10118000220FA2C1DD2019F0C801937002C080E0D7
:1011900090E00E940C0F98C1802FDD2019F00E9472
:1011A000671C02C00E94A01B0E94341D8DC1812FAC
:1011B000837009F069C0D11085C1902F92959695E2
:1011C0009770990F990F802F8F70882E912CA12CDA
:1011D000B12C092E04C0880C991CAA1CBB1C0A94B3
:1011E000D2F704FF12C04FE050E060E070E004C0AE
:1011F000440F551F661F771F9A95D2F7DB01CA016E
:1012000080959095A095B09503C080E090E0DC01BA
:1012100016951695412F4370423019F1C8F400918C
:1012200012061091130620911406309115064130D4
:1012300059F088299929AA29BB29BC01CD0160232D
:101240007123822393230AC0802A912AA22AB32AD7
:10125000BC01CD01682979298A299B290E94B81FE0
:1012600031C188299929AA29BB2900911206109118
:1012700013062091140630911506BC01CD0160279C
:10128000712782279327EACFDD2019F0812F817003
:1012900001C08695882309F415C1902F92959695E3
:1012A0009770990F990F802F8F70882E912CA12CF9
:1012B000B12C092E04C0880C991CAA1CBB1C0A94D2
:1012C000D2F704FF12C04FE050E060E070E004C0CD
:1012D000440F551F661F771F9A95D2F7DB01CA018D
:1012E00080959095A095B09503C080E090E0DC01DA
:1012F00016951695412F43704230D9F068F500914C
:101300004F061091500620915106309152064130FF
:1013100059F088299929AA29BB29BC01CD0160234C
:101320007123822393231EC0802A912AA22AB32AE2
:1013300013C088299929AA29BB2900914F06109129
:1013400050062091510630915206BC01CD01602714
:1013500071278227932706C0BC01CD01682979290E
:101360008A299B290E944F1FADC01F70DD2039F0D4
:10137000812F0E94971F802F0E94F726A3C0802FE5
:101380000E94EC26812F0E94591F9CC0802F22EFC3
:10139000921609F440C0291538F030EF931661F029
:1013A00091EF991699F170C0A3EF9A16D9F1B4EFA5
:1013B0009B1609F44EC068C0DD2019F1E4E0EA157F
:1013C00008F47CC01F7181E090E0A0E0B0E0AC01C7
:1013D000BD0104C0440F551F661F771F1A95D2F731
:1013E00080914F0690915006A0915106B0915206FF
:1013F0008A019B01082719272A273B27C901B80121
:1014000025C025E02A1508F459C0DCCFDD2029F0DD
:10141000812F8F712CC0DD20D9F3812F8F710E9415
:10142000591F4CC0DD2079F01F7181E090E0A0E0F1
:10143000B0E0BC01CD0104C0660F771F881F991F63
:101440001A95D2F703C060E070E0CB010E944F1FF5
:1014500035C0DD2079F01F71812F0E94971F38E081
:10146000139FC0011124836080930D06812F0E9479
:10147000971F24C081E00E947E1F81E08A15F0F44E
:1014800082E00E947E1F1AC0DD2039F0AA2009F4F4
:10149000BFCF802F0E943A2711C0AA2009F4BDCFE8
:1014A000893349F49FEFA7EEB3E09150A040B040DC
:1014B000E1F700C00000802F0E94012788EF8B0D0C
:1014C000843010F40E94380FCC2099F180910D06E1
:1014D00080FD2FC0F70112828595859585950E9424
:1014E000971FC7010E94DF0380910D0685958595A2
:1014F000859529960FB6F894DEBF0FBECDBFDF915C
:10150000CF911F910F91FF90EF90DF90CF90BF9000
:10151000AF909F908F907F906F905F900C94591F29
:1015200001312FE5120709F032CB82E0FCCA69E2F3
:10153000C9CC29960FB6F894DEBF0FBECDBFDF91A0
:10154000CF911F910F91FF90EF90DF90CF90BF90C0
:10155000AF909F908F907F906F905F9008958334AD
:10156000910540F5880F991F880F991FFC01E45ED3
:10157000FE4F52813381808183707181A82FB0E04A
:10158000E0E98E9FC001112488559C4FFC01E70FB4
:10159000F11DB4976083FC01E50FF11DB497408302
:1015A000830F911DFC01B4972083FD01EA55FC4F88
:1015B00081E080830895FF920F931F93CF93DF9371
:1015C000182F062FF42EC0E0D0E02F2D402F612FD2
:1015D000CE010E94AF0A2196C334D105B1F7DF9145
:1015E000CF911F910F91FF9008950F931F9310E0DB
:1015F000F801EE0FFF1FE953FD4F9081905797FDC3
:101600009195000F111FF801E853FD4FE081F0E0C4
:10161000B097DF01AA0FBB1F8D010E0F1F1F200304
:10162000D001219FB00D1124E8E3F0E0E91BF1099E
:1016300097FDF3959F01220F331F89010E0F1F1F86
:1016400040039001419F300D11242A0F3B1F37FFAB
:1016500002C021583F4F220F232F221F330B620F4E
:101660001F910F9108950F931F93522F10E0F801CF
:10167000EE0FFF1FE853FD4FE081F0E0B097EE0F53
:10168000FF1F9F015203D001539FB00D1124000F83
:10169000111FF801E953FD4F008110E000571109B7
:1016A000000F111F40039001419F300D11242A0F9C
:1016B0003B1F37FF02C021583F4F220F232F221F0D
:1016C000330B620F1F910F9108950F931F93522FA9
:1016D00010E0F801EE0FFF1FE853FD4FE081F0E04E
:1016E000B0979F015203D001539FB00D1124000FFA
:1016F000111FF801E953FD4F008110E00057110957
:1017000040039001419F300D11242A0F3B1F37FFEA
:1017100002C021583F4F220F232F221F330B620F8D
:101720001F910F910895EF920F931F9393E0099FDC
:1017300080011124159507956E2D600F1F910F9153
:10174000EF900895A22F50E0FA01EE0FFF1FE8532B
:10175000FD4F9081905297FD9195440F551FFA01CE
:10176000E953FD4F3081232F30E02A1B3109290F27
:10177000311D97FD3A95620F0895E42FF0E0EE0FCA
:10178000FF1FE853FD4F6081621B0895E42FF0E0D6
:10179000EE0FFF1FE953FD4F6081621B0895622F1A
:1017A0000895E42FF0E0EE0FFF1FE953FD4F408155
:1017B00034EE439F412D1124E82FF0E050E0445EC9
:1017C0005F4FDA01A21BB1099D01B7FF03C031953C
:1017D0002195310993E0220F331F9A95E1F7AF016C
:1017E000421B530B9A0157FF02C020E030E0582FF4
:1017F000259F212D1124822F0895FC019B01009724
:1018000021F477FF2BC080E80895AC0197FF04C056
:1018100044275527481B590BB901640F751F37FD25
:101820000CC0241B350BC901A5E0880F991FAA9590
:10183000E1F70E949F2B80E20CC0CB0165E0880F8E
:10184000991F6A95E1F7BA01621B730B0E949F2BE7
:1018500080E6861BF7FF03C08195089580E0089518
:10186000EF920F93CF93DF93D72FC82FC9010E1993
:10187000BA010E94FD0B602F681B7D2F8C2FDF911A
:10188000CF910F91EF9008950F93CF93DF93D72FC0
:10189000C82FC901BA010E94FD0B682F600F7D2F70
:1018A0008C2FDF91CF910F910895EF920F931F939B
:1018B000CF93DF93D62FC72F182FC9010E19010F11
:1018C000BA010E94FD0B081B202F219F212D1124FE
:1018D000822F6D2F7C2FDF91CF911F910F91EF9071
:1018E0000895FF920F931F93CF93DF93F62ED72F78
:1018F000182FC901C12FC01BBA010E94FD0B982FE0
:10190000990F890FC81B2C2F219F212D1124822F65
:101910006F2D7D2FDF91CF911F910F91FF90089533
:101920000F931F93CF93DF93082F000FEB0114E267
:1019300010939203E3E9F3E0DE018D91819383E05C
:10194000E33AF807D1F724E630E041E150E062E9FC
:1019500073E0802F0E94122B105F6096143B41F7BA
:10196000DF91CF911F910F9108958091A603882355
:1019700029F068EA73E084E70E94900C1092A603B5
:101980008091A703882329F068E374E087E70E9429
:10199000900C1092A7030895E2E9F3E0608341837D
:1019A00024E630E042E050E0BF01880F0C94122B97
:1019B000DF92EF92FF920F931F93CF93DF93262F27
:1019C00030E0A90144515B4F7A01FA0190819111F5
:1019D0000AC0F7011082DF91CF911F910F91FF9004
:1019E000EF90DF900895D82EF2E16F9FE00111246F
:1019F00000E010E0F801EC0FFD1FE853FB4F4081C1
:101A0000602F8D2D0E94CC0C0F5F1F4F02311105EE
:101A100089F7DFCFCF93DF93C82F4BE06DEF0E94A4
:101A2000CC0C40E06AE08C2F0E94CC0C8FE39CE948
:101A30000197F1F700C0000040E060E08C2F0E94A9
:101A4000CC0C40E061E08C2F0E94CC0C40E066E0C2
:101A50008C2F0E94CC0C40E06DEF8C2F0E94CC0CA0
:101A6000D0E040E06D2F8C2F0E94CC0CDF5FD23194
:101A7000C1F740E06D2F8C2F0E94CC0CDF5FD43279
:101A8000C1F740E06D2F8C2F0E94CC0CDF5FD43B60
:101A9000C1F74BE06DEF8C2F0E94CC0C41E06AE067
:101AA0008C2F0E94CC0C40E06DEF8C2FDF91CF91FA
:101AB0000C94CC0C7F928F929F92AF92BF92CF9258
:101AC000DF92EF92FF920F931F93CF93DF930E94C9
:101AD000852A84E70E940A0D87E70E940A0D0CE11F
:101AE00011E0E12CF12C42E138E0A32EB12CCC2402
:101AF000C394D12C77247394D80111962C9111970B
:101B000030E0C90184971296CC911297D0E0A49747
:101B10001396EC91F0E0B497BC0197FF02C0695FA7
:101B20007F4FA3E075956795AA95E1F7D701AA0FB6
:101B3000BB1FAA0FBB1FA45EBE4F2C91237030E0C9
:101B4000429FD001439FB00D1124A853BB4F4D01BC
:101B5000860E911CB5010E949F2BB60102C0660F34
:101B6000771F8A95E2F7CB01D4019C91892B8C9346
:101B7000CE01D7FD079663E0959587956A95E1F7C5
:101B8000429FB001439F700D112468537B4F4B015E
:101B9000880E911CCE01B5010E949F2BB60102C098
:101BA000660F771F8A95E2F7CB01D4019C91892BB0
:101BB0008C93CF01F7FD079653E0959587955A953D
:101BC000E1F7429FE001439FD00D1124C853DB4F42
:101BD000C80FD11DCF01B5010E949F2BF60102C095
:101BE000EE0FFF1F8A95E2F7CF019881892B88833A
:101BF000F901E451FB4F7082FFEFEF1AFF0A0C5F0F
:101C00001F4F63E4E616F10409F076CF60E084E745
:101C10000E94D80C61E087E7DF91CF911F910F916F
:101C2000FF90EF90DF90CF90BF90AF909F908F90FC
:101C30007F900C94D80CEAE4F6E0438120E1421B4B
:101C400008F440E08181628190E00C947429EAE418
:101C5000F6E0438120E1420F08F44FEF8181628179
:101C600090E00C947429EAE4F6E0628120E1621BC2
:101C700008F460E08181438190E00C947429EAE4E7
:101C8000F6E0628120E1620F08F46FEF8181438109
:101C900090E00C947429EAE4F6E0818190E04381BD
:101CA000628108970C947429EAE4F6E0818190E05F
:101CB0004381628108960C94742980914A06869526
:101CC0008695815009F483E10C945E2980914A063F
:101CD000869586958F5F843108F081E00C945E29AB
:101CE0001F93CF93DF93CDB7DEB767970FB6F89406
:101CF000DEBF0FBECDBF4B8B5C8B6D8B7E8B8F8B16
:101D000086E09E01235F3F4FD901E82F1D92EA959F
:101D1000E9F795E0FE017396D90101900D929A952D
:101D2000E1F7F901DE01179601900D928A95E1F72E
:101D3000CE0107960E940B2581113EC086E0FE0170
:101D40003796DE01119601900D928A95E1F7FF8199
:101D5000E8856A857B856115710531F0EF3F31F4C7
:101D600081E0FF3F19F403C081E001C080E080FD05
:101D700023C02091A90530E0C901019687709927F9
:101D80004091DA0550E08417950779F1F983EA83E9
:101D90007D836C8396E0929FD001939FB00D1124B8
:101DA000A655BA4FFE01319601900D929A95E1F732
:101DB0008093A9050E94C21F16E08091DA059091D8
:101DC000A9058917F9F0189FC001112486559A4F6B
:101DD0000E940B258823B1F08091DA0590E00196EE
:101DE000877099278093DA05E8CF0E94D726109252
:101DF000A9051092DA05E3EAF5E086E0DF011D921D
:101E00008A95E9F767960FB6F894DEBF0FBECDBF8F
:101E1000DF91CF911F9108952091F2043091F30446
:101E20002817390771F09093F3048093F204E0913E
:101E30005205F0915305309721F00084F185E02D93
:101E4000099408952091F0043091F104281739077E
:101E500071F09093F1048093F004E0915205F091B9
:101E60005305309721F00680F781E02D09940895FD
:101E7000E0915205F0915305309721F00190F081E7
:101E8000E02D099480E00895CF93DF93CEE7D2E070
:101E900060E0CE010E94672B2196C11584E0D8072F
:101EA000B9F7DF91CF910895CF92DF92EF92FF9231
:101EB0000F931F93CF93DF93C0E0D0E08E010A56BB
:101EC0001F4F6E018EE1C80ED11CFE01E65FFC4F74
:101ED000E590F4906F2DCE0186960E94672B6E2DB3
:101EE000CE0187960E94672B2296CC15DD0569F7F7
:101EF0000C171D0731F7E80108351240F9F6DF919C
:101F0000CF911F910F91FF90EF90DF90CF900895A8
:101F10000F931F93CF93DF93C42FD0E0CC0FDD1F1F
:101F20002EE1629FC00DD11D112436E9839FC00DA3
:101F3000D11D1124CE0186960E94492B082F10E056
:101F4000102F0027CE0187960E94492B9801282B3D
:101F5000C901DF91CF911F910F910895462F8430D1
:101F600038F4753028F46F3018F4672F0C94880F0C
:101F700080E090E00895CF93C82F811102C06FEFE9
:101F800001C061E282E290E00E94672BC11102C0B1
:101F90006FEF01C061E083E290E00E94672BC11106
:101FA00002C06FEF01C066E084E290E0CF910C9434
:101FB000672B882311F0FA0101C0FB0109940C94EE
:101FC000DB0A0C94AF0A45E050E06CE170E08AE473
:101FD00096E00C94572BEAE4F6E0248130E1230FDD
:101FE00008F42FEF24830C94E30FEAE4F6E0248155
:101FF00030E1231B08F420E024830C94E30FEAE48F
:10200000F6E081E280838091110190911201A0910C
:10201000130181839283A3838FE784830C94E30F5E
:1020200022E8241B08F420E0620F0895482F982F1F
:1020300046FD9095E92FEF739F7046FD9F5FE295F7
:10204000EF70EE0FF0E0EC5EFE4F2181299F802DB6
:10205000212D112482958F702295207F822B308133
:10206000982F930F892F47FD819580580895BC01C3
:102070008230910508F40895613E8EE1780748F4B6
:102080009B0195E0369527959A95E1F748E0420F38
:1020900001C04FEF91E0242F30E0290F311D35951D
:1020A0002795229FF001239FF00DF00D11246E174C
:1020B0007F0718F44FEF420F04C02F3F39F091E033
:1020C000920F491740F78FEF890F08958FEF08950A
:1020D0000F93CF93DF93D72FC82F47FD4195E8E3A8
:1020E000F0E0CF01841B910947FD9395889FB001D3
:1020F000899F700D700D1124229FC001239F900DA8
:10210000900D1124860F971F0E943710682F660FBD
:10211000860F682F600F7D2F8C2FDF91CF910F914D
:10212000089520E030E0869F212D969F200D311DDF
:102130001124C9010895CF92DF92EF92FF920F937D
:102140001F93CF93DF93F62E472FE82FF0E0711106
:1021500006C0E65FFD4F8491782F682F73C0272F4C
:1021600030E0E65FFD4FE491FE2F0E2F10E056E0C9
:10217000659FC0011124CFEFD0E0BE010E948B2BE0
:102180005BEA5603C001579F900D11248F0D911DDE
:102190008F0D911D982F990F980F7E01E21AF30A67
:1021A000E09ED001E19EB00DF09EB00D11248B2F6A
:1021B000499FA0011124452F55277E01E41AF50AF5
:1021C000E09EA001E19E500DF09E500D11246E0185
:1021D000C91AD108C29E7001C39EF00CD29EF00CA9
:1021E00011242F2D3327C21BD30BC09F9001C19FF9
:1021F000300DD09F300D1124932F6230710591F076
:1022000048F461157105E1F061307105B9F49E2F54
:10221000E52F16C06430710569F040F06630710535
:1022200079F00CC09E2FEB2F832F0AC0EB2F8F2F3E
:10223000952F06C09B2F8E2FE32F02C09B2F852F3B
:102240007E2F692FDF91CF911F910F91FF90EF901B
:10225000DF90CF9008950F931F93CF93DF93C42FF8
:10226000D22FFC0182818823C9F0409390030E9401
:10227000281D9093EF048093EE0480E28C0F883049
:1022800008F057C0C77081E001C0880FCA95EAF70F
:10229000DF91CF911F910F910C94F72680919003BD
:1022A000481330C08091EE049091EF040E94191DF4
:1022B000883C910538F510E21D0FCD17B9F080E28A
:1022C0008C0F883040F4C77081E001C0880FCA9538
:1022D000EAF70E94EC26183028F581E09D2F9770D0
:1022E00001C0880F9A95EAF70E94F726802F0E9476
:1022F000B2271830F0F4D77081E001C0880FDA956A
:10230000EAF70AC080E28C0F883098F4C77081E049
:1023100001C0880FCA95EAF7DF91CF911F910F9105
:102320000C94EC26802FDF91CF911F910F910C948C
:10233000B227DF91CF911F910F910895BC0184E0E6
:102340000C946E1BBC0183E00C946E1BCF93DF9347
:10235000CDB7DEB7AA970FB6F894DEBF0FBECDBFDC
:1023600084B7877F84BF0FB6F894A89580916000EA
:10237000886180936000109260000FBE90E080E85A
:102380000FB6F89480936100909361000FBE85B7FB
:10239000806885BF85B7806885BF0E945A230E94E8
:1023A00079238091E20084608093E20078948091A8
:1023B00045068823A1F01091E9001F709091EC0070
:1023C000892F817090FD80E8182B1092E900809190
:1023D000E80083FD0E9438201F701093E90082E01E
:1023E00084BD93E095BD9AEF97BD80936E0080EF1A
:1023F0000E94411681EF0E94411684EF0E9441160F
:1024000086EC0E94411686E60E9441160DE212E01B
:10241000ECE3EE2EE2E0FE2EF80181918F010E94A6
:102420004116E016F106C1F7E6E4F5E080E595E037
:10243000AEE6B5E0119211921D921D928E179F0784
:10244000C9F70E94E7178FEB9DE50197F1F700C0F0
:1024500000000E94E71780916E0580FF0AC080E0AF
:102460000E94BB0F6FEF7FEF80E090E00E94852B12
:102470009EC380E090E00E94512B8C3E9E4F11F055
:102480000E94F51D0E945A0D10921D05E6E3F5E02D
:102490008FEF9FEF8193919325E0E634F207D1F718
:1024A0001092F404EDE0F5E08FEF9FEF81939193AC
:1024B00035E0ED31F307D1F780E090E00E94512B39
:1024C0008C3E9E4F21F00E94F51D0E94FF0F45E0BB
:1024D00050E06CE170E08AE496E00E94392B809134
:1024E0004A068C7F11F40E94FF0F82E290E00E9466
:1024F000492B813281F483E290E00E94492B8130A4
:1025000051F484E290E00E94492B91E0863009F07A
:1025100090E0892F01C080E080FF59C380E090E007
:102520000E94512B8C3E9E4F11F00E94F51D82E0BF
:1025300090E00E94492B809363050E94E41D9093D4
:1025400051058093500583E090E00E94492B682F4D
:1025500070E080E090E00E94B81F609150056068D4
:10256000609350051091510584E090E00E94672B24
:10257000612F81E290E00E94672B80E091E09093D0
:1025800053058093520580E08E010F5F1F4FFF249B
:10259000FA94EE24E39450E1752E2E01FBE04F0EE9
:1025A000511C68E7262E65E0362E72E1672E909169
:1025B0004506953009F060C081112EC040E060E012
:1025C0000E94DF0FE092550580914506843021F18D
:1025D0001092540580E428E130E00FB6F894A895F5
:1025E000209360000FBE8093600083B7817F84607A
:1025F00083BF83B7816083BF7894889583B78E7FCC
:1026000083BF0FB6F894A89580916000886180938D
:102610006000109260000FBE80913B06882351F14C
:102620000E94E717EEE6F5E081919191892B21F464
:102630002E163F06C9F71EC079BC69BC09B400FE5E
:10264000FDCF8091D8008F7D8093D8008091E000ED
:1026500082608093E0008091E00081FDFCCF0E94C9
:10266000D7263FEF43EC89E0315040408040E1F70E
:1026700000C0000081E09BCF882331F00E94D72664
:102680000E94380F109255050E94E717E4E6F5E026
:10269000AEE6B5E0C12CD12C6C2D2D913D918191F0
:1026A000919182279327009779F170E0AA24A3944F
:1026B000B12CA50148235923452B09F179A36AA31D
:1026C0002A213B2181E0232B09F480E08BA30E9487
:1026D000281D8160782F9DA38CA349A15AA16BA1CD
:1026E0008DA10E94700EF601EE0FFF1FEC59FA4FFC
:1026F00080819181A826B926B182A0821BC07F5F0C
:10270000AA0CBB1C7F30A9F69FEFC91AD90A25E095
:10271000C216D10409F6FEA2FFA218A60E94281D27
:102720008160782F9AA789A74EA15FA168A58AA585
:102730000E94700E86E0ECE5F5E0D80101900D9264
:102740008A95E1F7A0905E05B0905F05C0906005A6
:10275000D090610510925E0510925F0510926005A1
:1027600010926105A11003C0BB2009F44FC08091F5
:102770005A0590915B050E94191D9C019091590585
:10278000992309F431C22333310508F43FC09F3F38
:1027900019F09F5F90935905AA2061F00E94471C91
:1027A0001A1414F491E001C09FEF899F802D112429
:1027B00080935E05BB2061F00E94471C1B1414F43B
:1027C00091E001C09FEF899F802D112480935F05C8
:1027D00030915E053323D1F020915F052223B1F0C3
:1027E00045EB3403C0011124992319F090935E0541
:1027F00002C0E0925E0535EB2303C001112499234A
:1028000019F090935F0502C0E0925F05C11003C00C
:10281000DD2009F44FC080915705909158050E9422
:10282000191D9C0190915605992309F4E2C12536A2
:10283000310508F43FC09F3F19F09F5F9093560504
:10284000CC2061F00E94251C1C1414F491E001C0FE
:102850009FEF899F802D112480936005DD2061F01A
:102860000E94251C1D1414F491E001C09FEF899F64
:10287000802D112480936105309160053323D1F0C0
:10288000209161052223B1F045EB3403C0011124EE
:10289000992319F09093600502C0E092600535EB32
:1028A0002303C0011124992319F09093610502C0FC
:1028B000E092610580915E0581110BC080915F05FA
:1028C000811107C080916005811103C0809161056D
:1028D00081110E94341DAB82BC82CD82DE8286E0F3
:1028E000F801ACE5B5E001900D928A95E1F70E9400
:1028F000380F90916205891721F00E94380F80935C
:10290000620580914506843009F057C143E0409349
:10291000E9008091E80082FF50C18091E80085FFC6
:1029200021C00E94AF2481111BC080E2A82EB12CCF
:10293000680109C08091F100F60181936F01F1E017
:10294000AF1AB10869F08091E80085FDF3CF80915E
:10295000E8008B778093E8000E94AF24882399F3E6
:1029600091E001C090E08091E8008B778093E800CF
:10297000992309F422C1E9818E2F90E0FC0131975F
:10298000E331F10508F015C1EA58FF4F0C94D22B42
:102990001A8229E02B830EC18A81823009F40FC18B
:1029A000833089F0813009F004C12FB7F894809109
:1029B000780590917905A0917A05B0917B052FBF9C
:1029C000BB83AC8321C0F801AEE6B5E08C911196D3
:1029D0009C9111971296928383833296E415F505A4
:1029E000A9F7E8C08A81823009F0E3C06B817C815D
:1029F0008D819E810E94D82B85E290E025C04C817C
:102A00006B818A810E94880F9D838E83D3C0CD8085
:102A1000DE80DC24CD24DC248C81AB809A813EE1F5
:102A2000A39E5001112446E9949FA00CB11C1124CF
:102A3000A80EB11CA80EB11C6D2DC50186960E9472
:102A4000672B6C2DC50187960E94672BB3C00E942F
:102A5000540FB0C07A82AEC0EA8282E88B83AAC0EB
:102A6000CA80DB80DC24CD24DC248C80912C5801AE
:102A7000C60182589D4F9501201B310B2815390541
:102A800008F098C0E2E8CE16E1E0DE0628F40E94E5
:102A9000492BF501848302C0F5011482FFEFCF1AA0
:102AA000DF0A2FEFA21AB20AE3CFCA80DB80DC2450
:102AB000CD24DC248C80912C5801C60182589D4F76
:102AC0009501201B310B2815390508F073C032E839
:102AD000C31631E0D30620F4F50164810E94672B10
:102AE000FFEFCF1ADF0A2FEFA21AB20AE6CF0E9439
:102AF000440F60C034E03A835DC0CA80DB80DC24D0
:102B0000CD24DC248C80912C5801C6018696950139
:102B1000201B310B2815390508F04CC048E5C416B8
:102B200042E0D40628F40E94492BF501848302C0B8
:102B3000F5011482FFEFCF1ADF0A2FEFA21AB20AB3
:102B4000E4CFCA80DB80DC24CD24DC248C80912C73
:102B50005801C60186969501201B310B28153905B1
:102B600048F538E5C31632E0D30620F4F501648158
:102B70000E94672BFFEFCF1ADF0A2FEFA21AB20ACB
:102B8000E8CF80E00E94BB0F6FEF7FEF80E090E026
:102B90000E94852B0FC0C8010E94AD293FEF41EE76
:102BA00084E0315040408040E1F700C000000E94C6
:102BB000CF1CF982C8010E94AD2980E0F8CC85E2E3
:102BC00090E00E94492B1B821C821D821ECF60E078
:102BD00085E290E00E94672B0E94540F0E94440FF0
:102BE00081E00E94BB0F9ACC2D32314008F0D1CD4C
:102BF0000DCE2D32314008F020CE5CCE90915005A4
:102C000092FF0DC0282F2871283019F4877F846027
:102C100006C0282F2471243011F48B7F886093FF25
:102C20000DC0282F2871283119F4877E846106C0D1
:102C3000282F2471243111F48B7E88612091510555
:102C400020FF0DC0382F3871383019F4877F81602C
:102C500006C0382F3171313011F48E7F886021FF2A
:102C60000DC0282F2871283119F4877E816106C094
:102C7000282F2171213111F48E7E886194FD877E89
:102C80000895F894E82FE295EF70F0E031A1282F35
:102C90002F7081E090E001C0880F2A95EAF7982F05
:102CA0009095932391A392A1892B82A37894089560
:102CB000CF93DF930E94AE0FEC018238910559F15A
:102CC000A0F48133910509F473C040F48932910571
:102CD00009F467C08A9709F472C084C085339105EE
:102CE00009F458C0C997B9F07DC0833E910571F1D0
:102CF00038F4803E9105B1F0823E910511F172C029
:102D0000863E9105B9F1873E9105C9F1843E910552
:102D100009F068C024C08091500580FD5DC081FD30
:102D20005BC060C08091500580FD50C0809151050E
:102D300080FF49C18091500584FD43C1C3EED0E0BE
:102D400042C18091500582FF3EC1F4CF8091500571
:102D500082FD3FC08091510580FD3EC0EBCF809148
:102D6000510581FF30C18091500584FD2AC1C7EE15
:102D7000D0E029C18091500583FF25C1F4CF809117
:102D8000500583FD2CC08091510581FFECCFC4EE2E
:102D9000D0E019C18091500585FF15C1C9E2D0E08E
:102DA00012C18091500585FF0EC1C5E3D0E00BC173
:102DB0008091500586FF07C1CAE2D0E004C180912E
:102DC000500586FF00C1C1E3D0E0FDC0C9E3D0E0FB
:102DD000FAC0C2EED0E0F7C0C0EED0E0F4C0C6EE5C
:102DE000D0E0F1C0C11581E5D80708F066C0C11573
:102DF00020E5D207E0F0CE0174E0969587957A95AC
:102E0000E1F783709C2F937021E030E002C0220F25
:102E1000331F9A95E2F73C68382BCF70C695C6955C
:102E200040E2C49FE0011124C22BD32BCCC0C83E8A
:102E3000D10560F5C03ED10508F0C5C0C83AD1053E
:102E4000B0F4C53AD10540F0C55AD0E0C55BDD4FBE
:102E5000C881D0E0D064B7C0C130D10509F4B3C097
:102E600008F4AFC0C430D10508F4ABC0ACC0CF3B50
:102E7000D10508F0A6C0C85AD0E0CC0FDD1FC25B58
:102E8000DD4F0990D881C02DD4649DC0C11540E2AA
:102E9000D40758F4C11581E0D80708F094C0C03FAA
:102EA000D10508F48EC0D0658EC0C11520E4D207CC
:102EB00008F487C0DF70D06A86C0C11545E5D40725
:102EC00008F042C0C11584E5D80728F0DC2FCC27D4
:102ED000C46FD06A78C0C11523E5D207B0F0CE0127
:102EE0008370992721E030E002C0220F331F8A95BA
:102EF000E2F78C2F8695869540E2849FC0011124CD
:102F0000E901C82BD92BDA685EC0C11542E5D407A8
:102F100028F4DC2FCC27C16FD06A55C0CE01837056
:102F2000992721E030E002C0220F331F8A95E2F793
:102F30008C2F8695869540E2849FC0011124E9017B
:102F4000C82BD92BDC683FC0C11589E5D807B8F478
:102F5000C11528E5D20728F0DC2FCC27C06FD06A36
:102F600032C0C11546E5D40760F58C2F0E94FE15CE
:102F70008F71C82FD0E0DC2FCC27D06224C0C115C0
:102F80008AE5D80780F48C2F8F700E94FE1594E09C
:102F9000D695C7959A95E1F7CF70D0E0DC2FCC2776
:102FA000D069C82B10C0CE0190568115904248F4CC
:102FB0008D2F8F710E94FE15DD27D0628F71D82B67
:102FC00002C0C0E0D0E0CE01DF91CF9108958F9292
:102FD0009F92AF92BF92CF92DF92EF92FF920F93A8
:102FE0001F93CF93DF9348E2E42E42E0F42EC6E431
:102FF000D5E050E5A52E55E0B52E10E0CC24C394C5
:10300000D12CB701D7018C91F894E82FE295EF709D
:10301000F0E021A18F70A60102C0440F551F8A95D0
:10302000E2F7CA01922F982B91A392A18095892350
:1030300082A3789450EA5A95F1F7EDE2F2E020E0AD
:1030400030E0812C912C4191842F82958F7090E0FB
:10305000DC0190968C9190E04F7002C09595879519
:103060004A95E2F780FD08C0C601022E02C0880F13
:10307000991F0A94E2F702C080E090E0882A992A1A
:103080002F5F3F4F2F303105F1F6BFEFEB1AFB0AF0
:10309000FB0180810E9441168881998188169906DA
:1030A00021F09982888281E001C080E0182B22966D
:1030B000AC16BD0609F0A5CF112349F081E080933D
:1030C0007E050E94281D90937D0580937C0580914C
:1030D0007E05882391F180917C0590917D050E9469
:1030E000191D049750F180914605909147059093E2
:1030F0006F0580936E0580914805909149059093E6
:1031000071058093700580914A0590914B059093CD
:1031100073058093720580914C0590914D059093B5
:1031200075058093740580914E0590914F0590939D
:1031300077058093760510927E0540917F0550912A
:10314000800560918105709182052FB7F894809178
:10315000780590917905A0917A05B0917B052FBFF4
:10316000841B950BA60BB70B2FB7F894C09078056E
:10317000D0907905E0907A05F0907B052FBFC09242
:103180007F05D0928005E0928105F0928205009142
:10319000F404E4EFF4E0202F30E04FEF5FEF60E065
:1031A00070E0481B590B6A0B7B0B031799F0C18D1C
:1031B000D28D4E01A12CB12C481559056A057B050D
:1031C00010F4215004C0C80FD91FD28FC18F3F5FA8
:1031D0003296EBCF2093F40480905505811008C0FF
:1031E000C0914A068C2F837019F0C695C69501C010
:1031F000C0E080910D018130E9F038F0823009F4AF
:10320000D2C1833009F4DCC1F8C110920E01C09222
:103210004606D0924706E0924806F092490689E2B7
:10322000E4EFF4E0ADE1B5E001900D928A95E1F7AD
:1032300081E0C3C180910B01C8130DC020914A06E3
:10324000237030E040910A0150E081E024173507F7
:1032500019F480E001C081E08170809310014C2F4F
:1032600050E04431510508F07CC1FA01E757FF4FA7
:103270000C94D22B882309F474C140E060E080E014
:103280000E94DF0F6EC1D0910E01DD0FDD0F04E053
:103290000D0F043408F003E460914B0670914C0666
:1032A00080914D060E949B10E62ED72EC82ED01777
:1032B00008F054C1ED2FF0E0DF01A35BBC4F8C910F
:1032C00090910F01982331F02C2D4E2D6D2DCF01B3
:1032D0000E94E10FDF5FEBCFD0910E01DD0FDD0F1C
:1032E00004E00D0F043408F003E4D0904C06E090A5
:1032F0004D06C0904B06B6018E2D0E949B10B62E37
:10330000A72E982E60914E066C0D7D2D8E2D0E945D
:103310009B10E62ED72EC82ED01708F01FC18D2F78
:1033200090E0FC01E35BFC4F308120910F012323EF
:1033300059F030FF04C02C2D4E2D6D2D03C0292DCA
:103340004B2D6A2D0E94E10FDF5FE6CFD0910E0179
:10335000DD0FDD0F04E00D0F043408F003E4B0903E
:103360004C06A0904D0620914E0630E4C32E3C2D15
:10337000329F312D1124C32ED01708F0EFC0ED2E4F
:10338000F12CF701E35BFC4F908180910F018923C1
:10339000D9F0F701EE0FFF1FE953FD4F6081C69E84
:1033A000B001112425E0759567952A95E1F7809184
:1033B0004B06680F7B2D8A2D0E949B10462F282FCD
:1033C000672FC7010E94E10FDF5FD6CFD0910E01BA
:1033D000DD0FDD0F04E00D0F043408F003E4D0909E
:1033E0004B06E0904C06C0904D0660914E066695E7
:1033F0006695669580914606909147060E949110C9
:103400000E941610805887FD8195880F482F5C2DEB
:10341000459F412D1124842F6D2D7E2D0E949B10E0
:10342000E62ED72EC82ED01708F098C0ED2FF0E06A
:10343000DF01A35BBC4F8C9190910F01982331F079
:103440002C2D4E2D6D2DCF010E94E10FDF5FEBCFB4
:1034500081ED9BE011C081E79CE019C085E59CE00F
:103460001BC08FEC9BE008C086EC9BE005C08DEB99
:103470009BE002C082EA9BE00E94162973C083E9A8
:103480009BE00AC088E690E102C084E49CE00E94D0
:10349000BC2868C080E39CE00E94422863C085E6A7
:1034A0009BE005C083E39BE002C085EF9AE00E94A9
:1034B000E32758C0D0910E01DD0FDD0F04E00D0FA2
:1034C000043408F003E420914E0630E040E050E080
:1034D0006FEF7FEF80E090E00E94B32B7901D0176F
:1034E000E8F5CD2ED12CF601E35BFC4F9081809165
:1034F0000F01892389F190911D05915097FD15C009
:10350000292F092E000C330BF901E35EFA4F818954
:10351000D813F3CF220F331FF901E35EFA4F218D49
:10352000328D2E153F0548F701C0970160914E0678
:10353000C9010E949110AC0160914B0670914C063C
:1035400080914D060E9410100E949B10462F282F3C
:10355000672FC6010E94E10FDF5FC1CF81E0033416
:1035600008F080E090910E019F5F90930E01811111
:103570000CC082E080930D0180911001811105C083
:10358000C11103C083E080930D01811036C00E94F9
:10359000380F81FF32C02FEF4FEF6FEF8EE190E0D9
:1035A0000E94E10F2AC0C0930B0180914A068370EC
:1035B00080930A010E94B50C83E080930D011DC029
:1035C0004091460650914706609148067091490621
:1035D0002FB7F8948091780590917905A0917A059C
:1035E000B0917B052FBF841B950BA60BB70B4A9799
:1035F000A105B10510F010920D01812FDF91CF913F
:103600001F910F91FF90EF90DF90CF90BF90AF9000
:103610009F908F90089580911906089524E020933B
:10362000E9002FEF3091E800215035FD06C035ED5F
:103630003A95F1F700002111F5CF2091E80025FF20
:103640000BC040E050E066E070E00E94812980916C
:10365000E8008E778093E8000895CF93DF93209160
:103660000C01222339F02091500527FF03C060E2AE
:1036700024E002C068E021E02093E9002FEF3091C0
:10368000E800215035FD06C035ED3A95F1F7000010
:103690002111F5CF2091E80025FF1DC0EC0180919C
:1036A0000C01811105C040E050E068E070E003C00B
:1036B00070E040E050E0CE010E9481298091E80056
:1036C0008E778093E80080E2FE01AAE1B6E00190E7
:1036D0000D928A95E1F7DF91CF910895CF93DF9313
:1036E00000D01F92CDB7DEB790914506943011F50A
:1036F00089837B836A839093E9008FEF9091E80040
:10370000815095FD06C095ED9A95F1F70000811165
:10371000F5CF8091E80085FF0DC040E050E063E008
:1037200070E0CE0101960E9481298091E8008E7799
:103730008093E8000F900F900F90DF91CF91089544
:10374000803F39F480915F0587FF6AC010925F0562
:1037500067C0813F29F480915F051816BCF360C0F3
:1037600090915E05823F29F497FF5AC010925E0542
:1037700057C0833F19F41916CCF352C090916005DD
:10378000893F31F419160CF04BC01092600548C007
:103790008A3F19F497FF44C0F8CF8B3F39F48091EA
:1037A000610587FF3DC0109261053AC08C3F29F446
:1037B000809161051816BCF333C0843F21F48091D9
:1037C0005D058E7F17C0853F21F480915D058D7F5B
:1037D00011C0863F21F480915D058B7F0BC0873F30
:1037E00021F480915D05877F05C0883F31F4809189
:1037F0005D058F7E80935D0513C08D3F21F4809120
:1038000016068E7F0BC08E3F21F4809116068D7FA9
:1038100005C08F3F29F4809116068B7F8093160692
:1038200080915E05811106C080915F05811102C003
:103830001092590580916005811106C08091610543
:10384000811102C01092560508958091160680FDE0
:1038500016C081FD16C082FD18C0809156058823D0
:1038600091F0883290F428E0829FC001112468E230
:1038700070E00E949F2B862F672B29F007C082E003
:10388000089584E0089581E0089588E00895809186
:10389000160680FD14C081FD14C082FD16C0809103
:1038A0005905882381F0843180F422E3829FC0018E
:1038B000112464E170E00E949F2B862F08958CE014
:1038C000089589E1089585E0089582E30895803F91
:1038D00021F40E94471C819504C0813F29F40E9475
:1038E000471C80935F050895823F21F40E94471C86
:1038F000819504C0833F29F40E94471C80935E0594
:103900000895893F19F40E94251C05C08A3F31F4AF
:103910000E94251C81958093600508958B3F21F4BA
:103920000E94251C819504C08C3F29F40E94251C0F
:10393000809361050895843F21F480915D05816045
:1039400017C0853F21F480915D05826011C0863FDC
:1039500021F480915D0584600BC0873F21F4809144
:103960005D05886005C0883F31F480915D05806108
:1039700080935D0508958D3F21F480911606816046
:103980000BC08E3F21F480911606826005C08F3FE8
:1039900029F480911606846080931606089581E0CC
:1039A0008093E00080E28093D8001092C9008FE1FC
:1039B0009EE40197F1F700C0000087E090EBDC0186
:1039C0008093530690935406A0935506B0935606E1
:1039D0009CE088E10FB6F894A895809360000FBE34
:1039E00090936000FFCF78941F920F920FB60F92C2
:1039F00011248F939F93AF93BF93809178059091FB
:103A00007905A0917A05B0917B050196A11DB11DA4
:103A10008093780590937905A0937A05B0937B0500
:103A2000BF91AF919F918F910F900FBE0F901F90FC
:103A300018959C014FB7F89480917805909179057D
:103A4000A0917A05B0917B054FBF821B930B08951F
:103A50002FB7F8948091780590917905A0917A0517
:103A6000B0917B052FBF08950E94281D20915E050F
:103A7000211104C020915F05222321F090935B0562
:103A800080935A0520916005211104C020916105A1
:103A9000222321F09093580580935705E091520519
:103AA000F0915305309749F082E080935C050480E3
:103AB000F581E02D8CE595E0099408951F920F9211
:103AC0000FB60F9211248F939F93AF93BF93809162
:103AD0005405811113C08091780590917905A091CA
:103AE0007A05B0917B054196A11DB11D80937805A3
:103AF00090937905A0937A05B0937B05BF91AF9120
:103B00009F918F910F900FBE0F901F90189520914D
:103B10000C012223C9F02091500527FF15C0262F44
:103B20002695269526952E31C8F4FC01E20FF11D4D
:103B3000677081E090E001C0880F6A95EAF7809590
:103B40009281892382830895FC0106962281621363
:103B500001C012823196E817F907C1F70895209144
:103B60000C012223C1F02091500527FF14C0262FFD
:103B70002695269526952E3130F5FC01E20FF11D94
:103B8000677081E090E001C0880F6A95EAF7928142
:103B9000892B82830895FC0132962FEF30E041910A
:103BA000641789F02F3F19F4411101C0232F3F5FA3
:103BB0003630A9F72F3F39F0FC01E20FF11D27FD48
:103BC000FA95628308950895CF9384E090E00E946F
:103BD000492BC82F81E290E00E94492B2C2F30E026
:103BE000A901582BCA01CF9108956CEE7EEF80E0B9
:103BF00090E00E94852B60E082E090E00E94672BBD
:103C000060E083E090E00E94672B10921206109211
:103C10001306109214061092150660E084E090E0FE
:103C20000E94672B60E081E290E00E94672B60E0D9
:103C300085E090E00E94672B60E086E090E00E94C3
:103C4000672B6FEF87E090E00E94672B40E050E029
:103C5000BA0188E090E00E94792B60E08DE090E06E
:103C60000E94672B40E050E0BA0188E190E00E949A
:103C7000792B60E087E190E00E94672B40E050E004
:103C8000BA018CE190E00E94792B60E080E290E044
:103C90000E94672B40E050E0BA0188E190E00E946A
:103CA000792B40E050E0BA018FE090E00E94792B40
:103CB00040E050E0BA0183E190E00C94792B8091D0
:103CC00011068111109211060895909110068091AD
:103CD0000F06892B20910E06982F922B9093830527
:103CE000809111068823D9F0892B809383058091D8
:103CF0000C01882331F08091500587FF02C08EE1CE
:103D000001C086E0E5E8F5E090E0815028F02191DF
:103D10002223D9F39F5FF9CF91110E945F1EE0919A
:103D20005205F09153053097A9F080910C0188233A
:103D300059F08091500587FF07C0809183058093DB
:103D4000840585E0809383050280F381E02D83E87C
:103D500095E009940895BF92CF92DF92EF92FF927F
:103D60000F931F93CF93DF938C01C0904F06D09099
:103D70005006E0905106F090520680911206909104
:103D80001306A0911406B0911506C82AD92AEA2A6A
:103D9000FB2ACFE1D0E0D701C6010C2E04C0B695B6
:103DA000A795979587950A94D2F780FD04C021972F
:103DB00090F7B12C07C0BC2EB8018C2F0E9458166A
:103DC0000197A9F38B2DDF91CF911F910F91FF9058
:103DD000EF90DF90CF90BF900895CF93DF93EC01E9
:103DE0000E94AB1EBE010E945816DF91CF9108952C
:103DF0002FE0929F800D1124682F66956695669539
:103E0000982F977085E0689FB001112440E050E042
:103E100080E0FB01E40FF51FE552FA4F208130E00E
:103E2000092E02C0369527950A94E2F721703327B0
:103E3000042E01C0220F0A94EAF7822B4F5F5F4FD6
:103E40004530510531F708952FE0929F800D1124E0
:103E5000E82FE695E695E695877051E001C0550F8D
:103E60008A95EAF785E0E89FF0011124E552FA4FC0
:103E700020E030E070E04081CB01022E02C0969538
:103E800087950A94E2F7817081958427852384279A
:103E900081932F5F3F4F2530310569F70895609377
:103EA0004F067093500680935106909352060C94DF
:103EB000BA260F931F9341E050E060E070E004C029
:103EC000440F551F661F771F8A95D2F7409550956E
:103ED0006095709580914F0690915006A091510683
:103EE000B09152068A019B01082319232A233B2300
:103EF000C901B8011F910F910C944F1F20910D061D
:103F00008095822380930D06982F977079F430E086
:103F1000482F082E000C550B2417350739F08595CE
:103F2000859585950E94591F10920D0608950F934F
:103F30001F9341E050E060E070E004C0440F551F63
:103F4000661F771F8A95D2F780914F069091500691
:103F5000A0915106B09152068A019B01082B192BA2
:103F60002A2B3B2BC901B8011F910F910C944F1FB5
:103F700060931206709313068093140690931506AF
:103F80000C94BA268091DA059091A905891719F049
:103F90008F5F8770FBCF08950F931F93CF93DF93AD
:103FA0008091A80582958F7009F05DC08091A5056C
:103FB000882309F458C08091DA051091A905609111
:103FC000A3057091A405C091A605D091A70591E025
:103FD0006F3F09F090E0292F06E0811709F443C0F4
:103FE000209721F07F3F21F030E003C031E001C095
:103FF000322F90E030FD34C0089FF001099FF00D92
:104000001124DF01A655BA4F11963C911197371331
:1040100027C03C91361324C012963C91129731115F
:104020001FC013964D915C9114974C1B5D0B483C3F
:104030005105B0F48091A8058F7080618093A80528
:10404000E155FA4F80818F708061808383EA95E02B
:104050000E94DF03DF91CF911F910F910C94C21F3B
:1040600001968770BACFDF91CF911F910F9108957C
:104070001F93CF93DF93CDB7DEB7AA970FB6F8940F
:10408000DEBF0FBECDBFEDE3F6E08091F10081937E
:1040900046E0E534F407C9F780913E06833009F421
:1040A00062C030F4813071F0823009F49CC0B3C03A
:1040B0008A3009F488C08B3009F46DC0893009F06A
:1040C000AAC020C080913D06813A09F0A4C0809129
:1040D000E800877F8093E800809141069091420636
:1040E000892B21F460E28AE196E003C060E080E081
:1040F00090E070E00E94272A8091E8008B778093FF
:10410000E80089C080913D06813209F084C0809129
:10411000410690914206009719F0029709F07BC082
:104120008091E800877F8093E8008091E80082FD1D
:1041300005C0809145068111F8CF6DC02091F30034
:104140008091F20090E0922B029729F48091F10087
:104150008B7F813021F48091F1008093190680914A
:10416000E8008B7754C080913D06813A09F053C036
:104170008091410690914206892B09F04CC08091B4
:10418000E800877F8093E8008091E80080FFFCCF03
:1041900080910C0137C080913D068132E1F580911C
:1041A000410690914206892BB1F58091E800877F06
:1041B0008093E8000E94D32980913F0680930C01F0
:1041C0000E94D72628C080913D06813221F580913A
:1041D000E800877F8093E8000E94D3298091400601
:1041E0008093180618C080913D06813AA1F4809111
:1041F000E800877F8093E8008091E80080FFFCCF93
:10420000809118068093F1008091E8008E7780936A
:10421000E8000E94D3298091E80083FFE9C18091E2
:104220003D0690913E06492F50E04A30510508F076
:10423000DFC1FA01E356FF4F0C94D22B803821F0F6
:10424000823809F0D5C108C080913A0690913B06AA
:10425000992389F082600FC0809141068F7087306A
:1042600008F0C6C18093E9008091EB0085FB8827A8
:1042700080F91092E9009091E800977F9093E80010
:104280008093F1001092F1007CC1282F2D7F09F05E
:10429000AFC1882319F0823061F0AAC180913F0636
:1042A000813009F0A5C1933009F080E080933B068E
:1042B0002EC080913F0681112AC0809141068F70E7
:1042C0002FEF280F263008F093C18093E90020914A
:1042D000EB0020FF1CC0933021F48091EB00806242
:1042E00014C09091EB0090619093EB0021E030E0DE
:1042F000A90102C0440F551F8A95E2F74093EA00D6
:104300001092EA008091EB0088608093EB0010929D
:10431000E9008091E800877F8093E8000E94D3291C
:1043200067C1811165C110913F061F778091E3003D
:104330008078812B8093E3008091E800877F8093D1
:10434000E8000E94D3298091E80080FFFCCF809193
:10435000E30080688093E300111102C082E001C095
:1043600083E08093450644C18058823008F040C104
:1043700020913F06309140062C3D53E0350779F5FA
:1043800083E08A838AE289834FB7F894DE0113962B
:1043900020E03EE051E2E32FF0E050935700E4913B
:1043A00020FF03C0E295EF703F5FEF708E2F90E02B
:1043B000EA3010F0C79601C0C0968D939D932F5F91
:1043C000243149F74FBF8091E800877F8093E80050
:1043D0006AE270E0CE0101960E94272AC0C0809157
:1043E000410690914206432F552743305105B1F0C5
:1043F00068F44130510509F40AC14230510509F011
:10440000F7C08BE590E0E0E8F6E057C04132510597
:1044100089F14232510509F43CC0EAC0C90199272B
:1044200081309105B9F070F082309105D9F0039791
:1044300009F0DEC0EDEEF6E0E4918E2F90E0EDEEB7
:10444000F6E038C0E7E2F7E0E4918E2F90E0E7E293
:10445000F7E030C0E5E1F7E0E4918E2F90E0E5E190
:10446000F7E028C0E3EFF6E0E4918E2F90E0E3EF71
:10447000F6E020C08330910508F0BAC0880F991F7C
:10448000FC01EB5BFD4F0190F081E02D89E090E0B5
:1044900014C08330910508F0ABC0FC01EE0FFF1F84
:1044A000E15CFD4F0190F081E02DDC01A45CBD4F8B
:1044B0008C9190E0009709F49BC02091E800277F41
:1044C0002093E800209143063091440628173907CD
:1044D00008F4C90140E0009789F1209145062223A4
:1044E00009F43DC02530D9F12091E80023FD37C003
:1044F0002091E80022FD2FC02091E80020FFEBCFA3
:104500004091F3002091F20030E0342B009759F0F5
:104510002830310540F444914093F10031960197E1
:104520002F5F3F4FF3CF41E02830310509F040E0E5
:104530002091E8002E772093E800CDCF4111CDCF18
:104540000AC080914506882351F0853041F0809162
:10455000E80083FD04C08091E80082FFF2CF8091E3
:10456000E8008B778093E80043C0803809F040C0B2
:104570008091E800877F8093E80080913C068093DB
:10458000F1008091E8008E77C7CE811131C0809113
:104590003F06909140069927029754F58091E800D4
:1045A000877F8093E80010913F0610933C060E949D
:1045B000D329111106C08091E30087FD02C081E07C
:1045C00001C084E08093450642E061EC81E00E94F6
:1045D000F22942E261EC84E00E94F22942E261ECBD
:1045E00082E00E94F22942E260EC83E00E94F2291C
:1045F0008091E80083FF10C08091E800877F80935E
:10460000E8008091EB0080628093EB0005C082E1BE
:1046100090E0EBEDF6E051CFAA960FB6F894DEBF2E
:104620000FBECDBFDF91CF911F9108951F920F92C2
:104630000FB60F9211242F933F934F935F936F9375
:104640007F938F939F93AF93BF93CF93DF93EF931A
:10465000FF93C091E900CF708091EC00D82FD1700A
:1046600080FDD0E81092E9008091F000877F809370
:10467000F00078940E9438201092E9008091F000B8
:1046800088608093F000CD2BCF70C093E900FF913C
:10469000EF91DF91CF91BF91AF919F918F917F91DA
:1046A0006F915F914F913F912F910F900FBE0F909F
:1046B0001F901895E8EDF0E080818E7F8083109246
:1046C000E2001092DA001092E100A0EEB0E08C91CE
:1046D00081608C9380818F77808319BCA7EDB0E0D7
:1046E0008C918E7F8C9380818F7E808310921706B1
:1046F0000895CF92DF92EF92FF920F931F93CF9383
:10470000DF93C8EDD0E088818F7E8883E7EDF0E00D
:1047100080818160808384E082BF81E0809317067E
:1047200088818E7F888302EE10E0F801108210925B
:10473000DA0081EEC82ED12CF601108288818F77A5
:10474000888388818068888388818F7D888319BC6D
:104750001092450610923C0610923B0610923A06C3
:1047600090EEE92EF12CF70180818B7F8083888188
:104770008160888342E060E080E00E94F229F601D7
:1047800080818E7F8083F801808181608083808139
:1047900088608083F70180818E7F8083888180613B
:1047A0008883DF91CF911F910F91FF90EF90DF9061
:1047B000CF9008951F920F920FB60F9211242F934E
:1047C0003F934F935F936F937F938F939F93AF9399
:1047D000BF93EF93FF938091E10082FF09C0809126
:1047E000E20082FF05C08091E1008B7F8093E100B1
:1047F0008091DA0080FF2AC08091D80080FF26C017
:104800008091DA008E7F8093DA008091D90080FF5A
:1048100018C080E189BD82E189BD09B400FEFDCFE9
:1048200081E0809345068091170681110FC00E9498
:104830005A230E9479238091E20084608093E200F1
:1048400005C019BC10924506109217068091E10030
:1048500080FF17C08091E20080FF13C08091E200CA
:104860008E7F8093E2008091E20080618093E2007D
:104870008091D80080628093D80019BC85E0809335
:1048800045068091E10084FF2EC08091E20084FF04
:104890002AC080E189BD82E189BD09B400FEFDCF57
:1048A0008091D8008F7D8093D8008091E1008F7E29
:1048B0008093E1008091E2008F7E8093E2008091FE
:1048C000E20081608093E20080913C06882311F031
:1048D00084E007C08091E30087FD02C081E001C051
:1048E00083E0809345068091E10083FF27C080919B
:1048F000E20083FF23C08091E100877F8093E10085
:1049000082E08093450610923C068091E1008E7F04
:104910008093E1008091E2008E7F8093E20080919D
:10492000E20080618093E20042E060E080E00E946B
:10493000F2298091F00088608093F000FF91EF9160
:10494000BF91AF919F918F917F916F915F914F91A7
:104950003F912F910F900FBE0F901F9018952091AF
:10496000E4003091E50095E64091EC00842F8170E1
:1049700040FF23C08091E80080FD1DC08091450666
:10498000882399F0853099F08091EB0085FD11C066
:104990004091E4005091E5002417350729F3915028
:1049A00011F09A01E1CF84E0089582E0089583E058
:1049B000089581E0089580E008954091E80042FF65
:1049C000DDCF08950E94ED1E292F2F70E92FE2956B
:1049D000EF704E2F50E0FA013297EE30F105B8F447
:1049E000E955FF4F0C94D22B803F99F018F4883E84
:1049F00070F40FC0843F59F40CC0883E50F0813FE2
:104A000031F407C0822F869586958695089580E0BB
:104A1000089581E008959F92AF92BF92CF92DF9266
:104A2000EF92FF920F931F93CF93DF93CDB7DEB733
:104A300061970FB6F894DEBF0FBECDBF8C0185E045
:104A4000F801DE011D9601900D928A95E1F7F801BB
:104A500090818181E2803091A3056091A40540910D
:104A6000A6055091A7054115510531F06F3F31F46E
:104A700021E03F3F19F403C021E001C020E0F22F04
:104A8000F1709F2E20FD23C1F801C380D48023EA5A
:104A9000A22E25E0B22EF090A505F601E41BF50B41
:104AA000FF2009F4CEC02091A805E83CF10508F0EC
:104AB00099C0422F407F09F051C0681311C03913CB
:104AC0000FC0FE2CE1100CC02F7020612093A805B0
:104AD000C5010E94DF038091A805F801858337C1D5
:104AE000CD2831F08F3F31F421E09F3F19F403C00E
:104AF00021E001C020E020FD03C021E02E2502C0FE
:104B000020E030E0F22FF170FF2E20FF1DC0209139
:104B1000DA054091A90556E0241709F4F6C030E003
:104B2000529FF001539FF00D1124E655FA4F618119
:104B3000861306C06081961303C06281E61204C02A
:104B40002F5F3F4F2770E8CFFE2CEE2009F4FFC007
:104B50008091A80581608093A80550C0681307C0A4
:104B6000391305C0E11003C0F80125838DC09D876E
:104B70008E878D859E850E94E224882369F1EE2030
:104B800059F12091A805822F82958F7090E00297AD
:104B900074F08091A3059091A40598878F8319865E
:104BA000DB86CA862C87CE0107960E94DF0386E04B
:104BB000F801A3EAB5E001900D928A95E1F70E9411
:104BC000CC1F0DC06817E1F09D878E878D859E856F
:104BD0000E94E22481111EC0C8010E94DF03FF244D
:104BE000F394B5C0422F407F69F783EA95E00E94B5
:104BF000DF0386E0F50111928A95E9F7F12CA7C051
:104C00003913E2CFE110E0CFF8012583C8010E94FB
:104C1000DF0357C0EE2001F32091A805822F829573
:104C20008F7090E002971CF28091A3059091A405EB
:104C30009A8389831B82DD82CC822E83CE010196EA
:104C4000B4CFE83CF105E8F5FE2CEE2029F268131C
:104C500027C0391325C02091A80520FD18C0822F38
:104C600082958F70482F50E04115510581F0F80171
:104C700025834F30510541F08F5F982F9295907F9B
:104C8000822F8F70892B8583C8010E94DF0386E005
:104C9000F801A3EAB5E001900D928A95E1F757C0BB
:104CA0009D878E878D859E850E94E22481117FCF0E
:104CB0008091A80581608093A805C8010E94DF0348
:104CC00046C086E0F50111928A95E9F740C0EE20D2
:104CD00009F482CF9D878E878D859E850E94E22470
:104CE000F82E882309F478CF86E0F801A3EAB5E02E
:104CF00001900D928A95E1F78091A3059091A4050A
:104D00000E94ED1E0E94CC1F22C09D878E878D853C
:104D10009E850E94ED1E292F22952F70223028F4A7
:104D20009F7039F0811105C00BC0243028F49F70AA
:104D300049F4805E883020F0C8010E94DF039F2C78
:104D4000F92C05C0F8019581907F99F7F9CF8F2D47
:104D500061960FB6F894DEBF0FBECDBFDF91CF9145
:104D60001F910F91FF90EF90DF90CF90BF90AF9089
:104D70009F90089510920F0610920E060E94651ED5
:104D8000ECE5F5E086E0DF011D928A95E9F71092E7
:104D9000590510925605109216060E94341D80E0A7
:104DA00090E00E94220F80E090E00C940C0F109293
:104DB000100680910C01882331F08091500587FF07
:104DC00002C08EE101C086E0E5E8F5E0DF011D925A
:104DD0008A95E9F70C94BA26882341F08095909142
:104DE00010068923809310060C94651E089588236D
:104DF00039F090911006892B809310060C94651E53
:104E000008958823B1F19CEF980F913A30F4682F00
:104E100083E895E00E94871D14C090E2980F9830B7
:104E200090F4877021E030E0A90102C0440F551FC3
:104E30008A95E2F7CA0180959091100689238093A4
:104E400010060C94651E9BE5980F933020F480E0CB
:104E500090E00C94220F98E5980F973120F480E0B1
:104E600090E00C940C0F803F20F00E94A01B0C944B
:104E7000341D0895CF93882309F472C0C82F8CEF96
:104E80008C0F813AC0F580910C018823E1F080916C
:104E9000500587FF18C0EC2FE695E695E695F0E003
:104EA000ED57FA4F8281282F30E04C2F477081E078
:104EB00090E002C0880F991F4A95E2F7822393235E
:104EC000892B61F412C0E5E8F5E08BE895E02191CB
:104ED000C21721F08E179F07D1F707C06C2F83E808
:104EE00095E00E94871D0E94651E6C2F83E895E067
:104EF0000E94AF1D10C080E28C0F883078F4C7701C
:104F000081E090E001C0880FCA95EAF79091100601
:104F1000892B80931006CF910C94651EEBE5EC0F66
:104F2000E33040F4F0E0E55BFD4F808190E0CF910D
:104F30000C94220FE8E5EC0FE73150F4F0E0EE0FAF
:104F4000FF1FE25BFD4F80819181CF910C940C0F8C
:104F5000C03F30F08C2F0E94671CCF910C94341D01
:104F6000CF910895CF93C82F0E943A27C93349F4AF
:104F70002FEF87EE93E0215080409040E1F700C092
:104F800000008C2FCF910C9401270F931F938091D9
:104F90004F0690915006A0915106B09152068C0197
:104FA0009D010670112722273327BC01CD01063051
:104FB00011052105310511F4686001C0677F1F915B
:104FC0000F910C944F1F9F92AF92BF92CF92DF929E
:104FD000EF92FF920F931F93CF93DF936C01C091D9
:104FE0000E01CC0FCC0FD4E0DC0FD43408F0D3E4A6
:104FF00060914E06669566958091460690914706AB
:105000000E949110182F80E4810F0E94161090E8E2
:10501000F92EF80E812F0E94161020E8922E980E7D
:10502000CD1700F5AC2EB12CF501E35BFC4F908160
:1050300080910F018923A1F060914B0670914C067D
:1050400080914D06E12E0C2F292D4F2DF60109954B
:105050000E949B10462F282F672FC5010E94E10F49
:10506000CF5FDECF81E0D33408F080E0DF91CF91D5
:105070001F910F91FF90EF90DF90CF90BF90AF9076
:105080009F9008956F927F928F929F92AF92BF925E
:10509000CF92DF92EF920F931F93CF93DF933C0158
:1050A000C0910E01CC0FCC0FD4E0DC0FD43408F04B
:1050B000D3E460914E06669580914606909147062E
:1050C0000E949110182FCD1708F044C08C2E912CFF
:1050D000F401E35BFC4F908180910F018923C1F1C2
:1050E000F401EE0FFF1FE953FD4FC080D12C80E784
:1050F000C81AD108F401EE0FFF1FE853FD4FA0803E
:10510000B12CE0E2AE1AB108CC9C9001CD9C300DE0
:10511000300D1124AA9CC001AB9C900D900D112460
:10512000820F931F0E943710082F60914B067091D9
:105130004C0680914D06E12E9501A601F3010995DB
:105140000E949B10462F282F672FC4010E94E10F59
:10515000CF5FB9CF81E0D33408F080E0DF91CF9109
:105160001F910F91EF90DF90CF90BF90AF909F90E5
:105170008F907F906F900895CF92DF92EF92FF9281
:105180000F931F93CF93DF936C01C0910E01CC0F4F
:10519000CC0FD4E0DC0FD43408F0D3E460914E0699
:1051A000669580914606909147060E949110182FAF
:1051B000CD1778F5EC2EF12CF701E35BFC4F9081D5
:1051C00080910F01892319F1F701EE0FFF1FE853BA
:1051D000FD4F208130E020523109F701EE0FFF1F13
:1051E000E953FD4F408150E04057510960914B0613
:1051F00070914C0680914D06012FF60109950E9491
:105200009B10462F282F672FC7010E94E10FCF5F09
:10521000CFCF81E0D33408F080E0DF91CF911F91B0
:105220000F91FF90EF90DF90CF900895DF92EF9273
:10523000FF920F931F93CF93DF937C01C0910E01D8
:10524000CC0FCC0FD4E0DC0FD43408F0D3E4609161
:105250004E066695669580914606909147060E9497
:105260009110D82ECD17F0F40C2F10E0F801E35B6D
:10527000FC4F908180910F01892391F060914B0642
:1052800070914C0680914D062D2D4C2FF7010995FC
:105290000E949B10462F282F672FC8010E94E10F04
:1052A000CF5FE0CF81E0D33408F080E0DF91CF9191
:1052B0001F910F91FF90EF90DF90089590914A0613
:1052C000937089F0811102C0946007C0843110F09E
:1052D0009C6403C0880F880F982B90934A06109205
:1052E0000D010C94E30F089590914A06937041F0DC
:1052F00080934B0660934C0640934D060C94E30F4D
:105300000895EF92FF920F931F93CF93DF937C0149
:105310008B010E94AF24811119C0E701011511050D
:10532000A1F08091E80085FD0AC08091E8008E77A9
:105330008093E8000E94AF24882381F307C08991FD
:105340008093F10001501109E9CF80E0DF91CF9106
:105350001F910F91FF90EF900895CF9320914506F4
:105360002430F9F4C091E900CF703091EC00232F84
:10537000217030FD20E8C22B22E02093E90020912B
:10538000E80020FF0BC040E050E060E270E00E94C7
:1053900081298091E8008E778093E800CF70C093D8
:1053A000E900CF91089580913D0687FF11C080915B
:1053B000E80082FD05C0809145068111F8CF11C03B
:1053C0008091E8008B770BC080914506882349F0D7
:1053D0008091E80080FFF8CF8091E8008E7780937D
:1053E000E8000895982F973068F59093E900981792
:1053F00039F07091EC002091ED005091F00003C065
:10540000242F762F50E021FD02C09F5FECCF30911A
:10541000EB003E7F3093EB003091ED003D7F309309
:10542000ED003091EB0031603093EB007093EC00B5
:105430002093ED005093F0002091EE0027FDE5CF82
:1054400080E008958F708093E90081E008952091B5
:105450004306309144062617370748F06115710559
:1054600039F42091E8002E772093E80001C0B901BB
:10547000FC0120E06115710579F1809145068823D2
:10548000F1F18530F1F18091E80083FD3CC080911D
:10549000E80082FD2EC08091E80080FFEBCF2091D4
:1054A000F3008091F20090E0922B6115710551F0AC
:1054B0008830910538F421912093F10061507109F1
:1054C0000196F3CF21E0089709F020E08091E800F1
:1054D0008E778093E800CECF2111CFCF0AC0809184
:1054E0004506882361F0853061F08091E80083FDF6
:1054F0000AC08091E80082FFF2CF80E0089582E048
:10550000089583E0089581E008951092B9008CE039
:105510008093B8000895EF92FF920F931F93CF935B
:10552000DF93182FEB011092BC0084EA8093BC003B
:105530000E94281D7C018091BC0087FD0EC0CF3FDA
:105540008FEFD807C1F30E94281D8E199F098C1771
:105550009D0788F38EEF9FEF2EC08091B900887F62
:10556000883041F08091B900887F803119F08FEF49
:105570009FEF21C01093BB0084E88093BC000E9481
:10558000281D8C018091BC0087FD0CC0CF3F8FEFA0
:10559000D807C1F30E94281D801B910B8C179D0713
:1055A00088F3D8CF8091B900887F883111F080349A
:1055B000F1F680E090E0DF91CF911F910F91FF9085
:1055C000EF9008950F931F93CF93DF93EB01809398
:1055D000BB0084E88093BC000E94281D8C01809150
:1055E000BC0087FD0EC0CF3F8FEFD807C1F30E94EC
:1055F000281D801B910B8C179D0788F38EEF9FEF62
:105600000CC02091B900287F81E090E0283211F48D
:1056100080E090E0919581959109DF91CF911F9164
:105620000F910895CF92DF92EF92FF920F931F9305
:10563000CF93DF936B018A017901B9010E948B2A14
:10564000E6010C0D1D1DC017D10761F424E920935C
:10565000BC00DF91CF911F910F91FF90EF90DF90F1
:10566000CF90089597FDF2CFB70189910E94E22A69
:10567000EACFDC01CB01FC01F999FECF06C0F2BDF7
:10568000E1BDF89A319600B40D9241505040B8F700
:105690000895F999FECF92BD81BDF89A992780B5FA
:1056A0000895A8E1B0E042E050E00C943B2BDC010F
:1056B000A40FB51F4150504048F0CB01840F951FF7
:1056C0002E910E94682B41505040D0F70895262F0C
:1056D000F999FECF92BD81BDF89A019700B40216E8
:1056E00039F01FBA20BD0FB6F894FA9AF99A0FBE96
:1056F00008950396272F0E94682B0E94672B252F61
:105700000E94682B242F0C94682B0196272F0E944F
:10571000682B0C94672BAA1BBB1B51E107C0AA1F67
:10572000BB1FA617B70710F0A61BB70B881F991F42
:105730005A95A9F780959095BC01CD01089597FBE6
:10574000072E16F4009407D077FD09D00E948B2B0A
:1057500007FC05D03EF4909581959F4F0895709574
:1057600061957F4F0895052E97FB1EF400940E94CB
:10577000CA2B57FD07D00E94DF2B07FC03D04EF445
:105780000C94CA2B50954095309521953F4F4F4F23
:105790005F4F089590958095709561957F4F8F4FDD
:1057A0009F4F0895EE0FFF1F0590F491E02D09948F
:1057B0006927962769277827872778270895A1E200
:1057C0001A2EAA1BBB1BFD010DC0AA1FBB1FEE1F7B
:1057D000FF1FA217B307E407F50720F0A21BB30BC6
:1057E000E40BF50B661F771F881F991F1A9469F742
:1057F00060957095809590959B01AC01BD01CF019E
:105800000895FB01DC0102C001900D92415050400F
:08581000D8F70895F894FFCFCA
:105818000B1B2D1B0E1BA2119E11FFFF010300FF86
:105828000000FFFF003131295A1B750A009B8B7B52
:1058380000AB8A7A00AA9A7900A9998900A8988861
:1058480000A7978700A6968600A5958500A494844E
:10585800003C4C5C002C4D5D002D3D5E002E3E4E04
:105868000030405000314151002A3A4A0029394954
:105878000028384800273747002636460025355681
:10588800002445550034445400AC9C8C00AD9D8DDB
:1058980000AE9E8E00AF9F8F00B0A09000B1A19186
:1058A80000324252002B3B4B01A9998901A89888E4
:1058B80001A7978701A6968601A5958501A49484DA
:1058C800013C4C5C012C4D5D012D3D5E012E3E4E90
:1058D800012F3F4F013040500033435301AB8A7AC8
:1058E800012838480127374701263646012535560D
:1058F8000124455501AC9C8C01AD9D8D01AE9E8E59
:1059080001AF9F8F0131415101324252013343535C
:1059180000B2A281019B8B7B012B3B4B012A3A4AA7
:105928000134445401B1A19101B2A28101A393832E
:1059380000A3938300B39282F0F1F4C666F7F6F5FC
:105948006730313233349796949593924022BC4015
:10595800061E0662059206AB06CB06818283E2002C
:10596800E900EA00B500B600B700CD008301CC001D
:105978008A019201940121022302240225022602AF
:1059880027022A02B300B4006F007000000102036E
:105998000405060708090A0B0C0D0E0F1011121347
:1059A8001415161718191A1B1C1D1E1F2021222337
:1059B800242526272829FF2A2B2C2D2E2F3031325B
:1059C8003334353637FF38393A3B3CFFFF3DFFFF6C
:1059D8003EFF3F40FF414200000F001E002D003CEB
:1059E800004B005A006900780087009600A500B4B3
:1059F80000CB00E000041017102610351044105397
:105A0800106210711080108F109E10AD10BC10CE57
:105A180010E01006201A202920382047205620653B
:105A280020742083209220A120B020C920E02009E2
:105A3800302230313040304F305E306D307C308B2A
:105A4800309A30A930BD30D230E0300240154027BE
:105A58004060409840AB40C340D240E0400104045D
:105A680004040404040404040404040101040404F4
:105A780004040404040404040404010104040404E4
:105A880004040404040404040101040404040404D4
:105A980004040404040401010101040101010101D9
:00000001FF
