:100000000C94E1070C9428080C9428080C942808F8
:100010000C9428080C9428080C9428080C942808A0
:100020000C9428080C9428080C94092F0C94DD2FAC
:100030000C9462200C9428080C9428080C9428082E
:100040000C9428080C9428080C9428080C94280870
:100050000C9428080C94B9200C9428080C942808B7
:100060000C9428080C9428080C9428080C94280850
:100070000C9428080C9428080C9428080C94280840
:100080000C9428080C9428080C9428080C94280830
:100090000C9428080C9428080C9428080C94280820
:1000A0000C9428080C9428080C94280829003A007D
:1000B0003B003C003D003E003F004000410042004C
:1000C0004300440045006800460035001E001F0044
:1000D0002000210022002300240025002600270004
:1000E0002D002E002A0047002B0014001A000800E3
:1000F000150017001C0018000C00120013002F0040
:1001000030003100480039000400160007000900E3
:100110000A000B000D000E000F0033003400280011
:1001200049004A00E1001D001B00060019000500FF
:1001300011001000360037003800E5004B004C007D
:100140004D00E000E300E20031002C00000031002F
:10015000E600E70001514E005200500051004F00F0
:100160000100010001000100010001000100010087
:100170000100010001000100010001000100010077
:100180000100010001000100010001000100010067
:100190000100010001000100010001000100010057
:1001A0000100010001000100010001000100010047
:1001B0000100010001000100010001000100010037
:1001C0000100010001000100010001000100010027
:1001D0000100010001000100010001000100010017
:1001E0000100010001000100010001000100010007
:1001F0000100005C0100010001000100010001009C
:1002000000000100010001000100010001000100E7
:1002100001000100010001000100010001000100D6
:1002200001000100010001000100010001000100C6
:1002300001000100010001000100010001000100B6
:1002400001000100010001000100010001000100A6
:100250000100010001000100010001000100010096
:100260000100010001000100010001000100010086
:100270000100010001000100010001000100010076
:100280000100010001000100010001000100010066
:100290000100010001000100010001000100010056
:1002A0000100010001000100010001000100010046
:1002B0000100010000000100010001000100010037
:1002C0000100010001000100010001000100010026
:1002D0000100010001000100010001000100010016
:1002E0000100010001000100010001000100010006
:1002F00001000100010001000100010001000100F6
:1003000001000100010001000100010001000100E5
:1003100001000100010001000100010001000100D5
:1003200001000100010001000100010001000100C5
:1003300001000100010001000100010001000100B5
:1003400001000100010001000100010001000100A5
:100350000100010001000100010001000100010095
:100360000100010001000100000001000100010086
:100370000100010001000100010001004445425557
:10038000473A2064697361626C65642E0A004445D3
:100390004255473A20656E61626C65642E0A000022
:1003A000000000000000002A2B28000000000000D0
:1003B0000000000000000000000029000000002CE8
:1003C0001E3420212224342627252E362D37382787
:1003D0001E1F202122232425263333362E37381F93
:1003E0000405060708090A0B0C0D0E0F1011121355
:1003F0001415161718191A1B1C1D2F3130232D35F3
:100400000405060708090A0B0C0D0E0F1011121334
:100410001415161718191A1B1C1D2F3130354C00D6
:1004200000000000000000000000000000000000CC
:100430000000007E0F00D4FFFFFFC7000000780A15
:10044000002530313662003A200025303258000A4B
:10045000722F6320303132333435363738394142E8
:10046000434445460A000A002530325820006B6597
:1004700079626F6172645F7265706F72743A2000A6
:100480000A0025303258006B6579626F6172645FD3
:100490007365745F6C65643A200064656C5F6B65BE
:1004A000795F6269743A2063616E27742064656CB9
:1004B0003A20253032580A006164645F6B65795FC9
:1004C0006269743A2063616E2774206164643A2023
:1004D000253032580A00290A002575002F0025759D
:1004E000005D2800256400200025640020002564AC
:1004F0000020002564007C0025303258006D6F75A7
:1005000073656B6579205B62746E7C7820792076E8
:1005100020685D287265702F61636C293A205B004A
:100520006D6B5F776865656C5F74696D655F746F2F
:100530005F6D6178203D2025640A006D6B5F7768F0
:1005400065656C5F6D61785F7370656564203D20E3
:1005500025640A006D6B5F74696D655F746F5F6D14
:100560006178203D2025640A006D6B5F6D61785FC6
:100570007370656564203D2025640A006D6B5F69BA
:100580006E74657276616C203D2025640A006D6B87
:100590005F64656C6179203D2025640A006D6B5FA6
:1005A000776865656C5F74696D655F746F5F6D61B9
:1005B00078203D2025640A006D6B5F776865656C67
:1005C0005F6D61785F7370656564203D2025640A06
:1005D000006D6B5F74696D655F746F5F6D6178202E
:1005E0003D2025640A006D6B5F6D61785F737065F7
:1005F0006564203D2025640A006D6B5F696E74653B
:100600007276616C203D2025640A006D6B5F646525
:100610006C6179203D2025640A000A0025750036AA
:100620003A20776865656C5F74696D655F746F5FAC
:100630006D61783A20000A00257500353A20776808
:1006400065656C5F6D61785F73706565643A200005
:100650000A00257500343A2074696D655F746F5F18
:100660006D61783A20000A00257500333A206D61EB
:10067000785F73706565643A20000A002575003262
:100680003A20696E74657276616C286D73293A2020
:10069000000A00257500313A2064656C6179282ACA
:1006A00031306D73293A20000A092D2056616C758E
:1006B0006573202D0A004D3E004D25643E20003F0D
:1006C000007365742064656661756C740A00433E4E
:1006D000200077686572652064656C74613A2063F8
:1006E0007572736F723D25642C20776865656C3D6B
:1006F00025640A53656520687474703A2F2F656EFF
:100700002E77696B6970656469612E6F72672F77E8
:10071000696B692F4D6F7573655F6B6579730A003F
:100720000A092D204D6F7573656B6579202D0A457B
:1007300053432F713A09717569740A313A09646536
:100740006C6179282A31306D73290A323A09696E51
:1007500074657276616C286D73290A333A096D618C
:10076000785F73706565640A343A0974696D655F12
:10077000746F5F6D61780A353A09776865656C5FFB
:100780006D61785F73706565640A363A09776865EC
:10079000656C5F74696D655F746F5F6D61780A0A7F
:1007A000703A097072696E742076616C7565730AAF
:1007B000643A097365742064656661756C74730AC4
:1007C00075703A092B310A646F776E3A092D310A38
:1007D000706775703A092B31300A7067646F776EF5
:1007E0003A092D31300A0A7370656564203D206432
:1007F000656C7461202A206D61785F737065656433
:10080000202A2028726570656174202F2074696D1C
:10081000655F746F5F6D6178290A003F004D3E206F
:1008200000433E20004C25640A0074696D65725FC8
:1008300072656164333228293A202530346C580AB5
:10084000006B65796D61705F636F6E6669672E6EB0
:100850006B726F3A2025580A006B6579626F61727E
:10086000645F69646C653A2025580A006B6579629B
:100870006F6172645F70726F746F636F6C3A202582
:10088000580A00686F73745F6B6579626F61726498
:100890005F6C65647328293A2025580A000A092DDF
:1008A00020537461747573202D0A004743433A2026
:1008B000382E342E30204156522D4C4942433A2096
:1008C000322E302E30204156525F415243483A205A
:1008D000617672350A004F5054494F4E533A204CBE
:1008E000554641204D4F5553454B45592045585489
:1008F00052414B455920434F4E534F4C4520434F97
:100900004D4D414E44204E4B524F20343039360A23
:10091000004255494C443A2022302E31302E333695
:100920002D31312D673635323963622D6469727429
:100930007922202831353A30373A343820417567EA
:100940002033312032303231290A005649443A20CE
:10095000307834463533284F774C6162292050492E
:10096000443A203078353334392853554954383097
:100970002049534F29205645523A203078303030A4
:10098000310A000A092D2056657273696F6E202D99
:100990000A000A092D20436F6E736F6C65202D0AC3
:1009A0004553432F713A09717569740A6D3A096D9F
:1009B0006F7573656B65790A000A092D204D6167B3
:1009C0006963202D0A443A094465627567204D65C4
:1009D000737361676520546F67676C650A583A09DD
:1009E0004D6174726978204465627567204D6F644B
:1009F0006520546F67676C65202D2053686F7720E2
:100A00006B65797072657373657320696E206D61B3
:100A10007472697820677269640A4B3A094B657988
:100A2000626F61726420446562756720546F676706
:100A30006C65202D2053686F77206B657970726527
:100A40007373207265706F72740A4D3A094465625F
:100A50007567204D6F75736520546F67676C650A05
:100A6000563A0956657273696F6E0A533A095374A0
:100A7000617475730A433A094163746976617465F8
:100A800020436F6E736F6C65204D6F64650A46314D
:100A90002D4631303A0953776974636820746F20AA
:100AA0004C6179657220302D392028463130203D47
:100AB000204C30290A302D393A095377697463681C
:100AC00020746F204C6179657220302D390A4752AD
:100AD0004156453A0953776974636820746F204C16
:100AE0006179657220302028616C7465726E617462
:100AF00065290A423A094A756D7020746F20426F69
:100B00006F746C6F616465720A4553433A094A75A4
:100B10006D7020746F20426F6F746C6F61646572CA
:100B20002028616C7465726E617465290A453A0902
:100B30005072696E7420454550524F4D2053657474
:100B400074696E67730A4253504143453A09436CD6
:100B500065617220454550524F4D0A4E3A094E4B41
:100B6000524F20546F67676C650A000A00257500B4
:100B70002E6E6B726F3A20000A002575002E737777
:100B800061705F6261636B736C6173685F62616304
:100B90006B73706163653A20000A002575002E733F
:100BA0007761705F67726176655F6573633A200095
:100BB0000A002575002E6E6F5F6775693A20000A7E
:100BC000002575002E737761705F72616C745F72BF
:100BD0006775693A20000A002575002E73776170E9
:100BE0005F6C616C745F6C6775693A20000A002560
:100BF00075002E737761705F7263746C5F726775D6
:100C0000693A20000A002575002E737761705F6CC9
:100C100063746C5F6C6775693A20000A0025750083
:100C20002E636170736C6F636B5F746F5F636F6E65
:100C300074726F6C3A20000A002575002E7377617C
:100C4000705F636F6E74726F6C5F636170736C6FF3
:100C5000636B3A20000A0025303258006B65796DCD
:100C600061705F636F6E6669672E7261773A20000C
:100C70000A002575002E6D6F7573653A20000A0015
:100C80002575002E6B6579626F6172643A20000AE7
:100C9000002575002E6D61747269783A20000A0093
:100CA0002575002E656E61626C653A20000A00258C
:100CB0003032580064656275675F636F6E6669679E
:100CC0002E7261773A20000A00257500646566611E
:100CD000756C745F6C617965723A20003F004E4B11
:100CE000524F3A206F66660A004E4B524F3A206FC1
:100CF0006E0A000A6D6F7573653A206F66660A00AA
:100D00000A6D6F7573653A206F6E0A000A6B65791C
:100D1000626F6172643A206F66660A000A6B6579D9
:100D2000626F6172643A206F6E0A000A6D617472BC
:100D300069783A206F66660A000A6D617472697894
:100D40003A206F6E0A000A64656275673A206F6622
:100D5000660A000A64656275673A206F6E0A000AC7
:100D60000A4A756D70696E6720746F20626F6F74C8
:100D70006C6F616465722E2E2E2000433E2000436E
:100D80006C656172696E6720454550524F4D0A008F
:100D90006565636F6E6669673A0A005B735D004B59
:100DA0006579626F6172642073746172742E0A00D7
:100DB0005B575D005B535D005B525D005B445D0013
:100DC0005B435D0004033000000016035300550030
:100DD00049005400380030002000490053004F0003
:100DE00000000C034F0077004C006100620000001F
:100DF0000403090409027B00040100A0FA090400AD
:100E00000001030101000921110100012240000736
:100E100005810308000A090401000203000000091B
:100E20002111010001222200070582032000010791
:100E3000050303200001090402000103000000096A
:100E4000211101000122BC000705840320000A09CA
:100E50000403000203000000092111010001222205
:100E60000007058503200001070505032000011286
:100E700001100100000008534F4953010001020313
:100E8000010631FF0974A1010975150026FF0095BF
:100E900020750881020976150026FF009520750847
:100EA0009102C00660FF0961A1010962150026FFD9
:100EB000009520750881020963150026FF00952022
:100EC00075089102C005010902A10185020901A16D
:100ED00000050919012905150025019505750181F0
:100EE000029501750381010501093009311581253C
:100EF0007F95027508810609381581257F95017552
:100F0000088106050C0A38021581257F95017508B0
:100F10008106C0C005010980A101850319012AB716
:100F200000150126B700950175108100C0050C0958
:100F300001A101850419012AA002150126A002952C
:100F40000175108100C005010906A101850505078D
:100F500019E029E7150025019508750181020507AB
:100F6000190029EF1500250195F07501810205088A
:100F700019012905950575019102950175039101E6
:100F8000C005010906A101050719E029E71500259B
:100F90000195087501810295017508810105071900
:100FA0000029FF150026FF00950675088100050839
:100FB00019012905950575019102950175039101A6
:100FC000C00011241FBECFEFDAE0DEBFCDBF04B6F4
:100FD00003FE27C08091C9029091CA02A091CB0262
:100FE000B091CC028730904BA740B04BD1F4109217
:100FF000C9021092CA021092CB021092CC0214BE07
:1010000084B7877F84BF0FB6F894A895809160005D
:10101000886180936000109260000FBEE0E0F8E30A
:10102000099511E0A0E0B1E0EAE1F5E602C0059023
:101030000D92AA3AB107D9F722E0AAEAB1E001C0BD
:101040001D92A93CB207E1F70E94C22B0C94113209
:101050000C940000FF93EF93E091AA01F091AB0193
:10106000309709F00995EF91FF910895FC01859162
:10107000803011F0EFDFFBCF0895FF27E0E230E290
:1010800047FF0CC0419597FF09C0EDE26095709550
:1010900080959095611D711D811D911D27FF02C0D6
:1010A000219530E350E2AA27660F771F881F991F0A
:1010B000AA1FA41710F0A41B63955A95A9F7AA308C
:1010C00008F0A95FA05DAF93F395611571058105E7
:1010D000910541F7ED3211F4EF93F395F21718F4FF
:1010E0003F93F395FBCF8F91B5DFFA95E1F7089524
:1010F000E991F9918591803021F0853219F0AADFCC
:10110000F9CF089520E0E89455915532C1F350335A
:1011100011F4689455915A3348F4505390F3220FC8
:10112000022E220F220F200D250FF4CF0EF4219551
:1011300089919991533619F3533729F1533559F160
:10114000BC0188279927E8945C3621F4899199910C
:1011500068945591543639F446EF7EF077FF0DC010
:101160008FEF9FEF0AC055374AE039F0583540E11C
:1011700021F0523642E009F00895FF93EF937DDFAE
:10118000EF91FF91B7CFFF93EF93FC0181918030F6
:10119000B9F360DFFBCFFF93EF9368DFF1CFDF930D
:1011A000CF93CDB7DEB72596A3DFCF91DF9108951A
:1011B0000C945C0A0C94E5080C94E40808950C94D3
:1011C000C90C90E080E00895089581E0089581E0E1
:1011D000089508950C94E9081F93CF93DF9300D0EE
:1011E00000D00F92CDB7DEB749835A836B8330911D
:1011F000C60189819A8131111DC06623B9F022236D
:10120000A9F00E94171D182F682F89819A810E94CA
:10121000C31C69817A81812F0F900F900F900F90DE
:101220000F90DF91CF911F910C9447100E94EF1CFB
:10123000182FEFCF0E94171D69817A81EDCFFC0135
:10124000262F408151816281738184810C94EC0846
:10125000CF93DF93EC0160E00E941F09BE01DF9194
:10126000CF910C94EA08FF920F931F93CF93DF93D3
:10127000E82FF0E0E156FC4FF490C82FC695C695D4
:10128000C695D0E0FE01E15DFB4F0491877010E050
:10129000082E02C0159507950A94E2F701701127F0
:1012A000C15EDB4FFE01C491D0E002C0D595C79569
:1012B0008A95E2F7C170DD270115110519F081EE5D
:1012C0000E941015209719F086EE0E9410158F2DA0
:1012D0000E949215CD2B19F086EE0E946315012B0A
:1012E00041F081EEDF91CF911F910F91FF900C940F
:1012F0006315DF91CF911F910F91FF900895EF92A9
:10130000FF920F931F93CF93DF93EC01162F0AE008
:101310008881882309F454C0813009F04EC0898146
:10132000813099F47E0122E0E20EF11C8A810E9454
:101330009215E7012196812F815050F3EFE9FFE0EC
:101340003197F1F700C00000F7CF823041F47E0101
:1013500082E0E80EF11C8A810E941015EACF8330EA
:1013600041F47E01E2E0EE0EF11C8A810E946315D9
:10137000E0CF843011F02196DDCF2A81229690E0D3
:1013800080E0AE014F5F5F4F2053330B2A303105B1
:1013900048F0019778F2EFE9FFE03197F1F700C0EC
:1013A0000000F7CF089FB001099F700D1124C901FB
:1013B000860F971F2981EA01E4CF0E943309BACF33
:1013C000DF91CF911F910F91FF90EF90089560E012
:1013D0000C947F098F929F92AF92BF92CF92DF922F
:1013E000EF92FF920F931F936B017C0181E090E0DD
:1013F000A0E0B0E04C015D0104C0880C991CAA1C5F
:10140000BB1C4A95D2F7B501A4014C015D0104C093
:10141000880C991CAA1CBB1C2A95D2F7482959296B
:101420006A297B2904C0880F991FAA1FBB1F0A9530
:10143000D2F78A019B010C211D212E213F21041787
:1014400015072607370789F48C299D29AE29BF295E
:10145000BC01CD011F910F91FF90EF90DF90CF90D5
:10146000BF90AF909F908F90089580959095A09594
:10147000B0958C219D21AE21BF21EACF0F93382F4B
:10148000262F60913B0270913C0280913D02909129
:101490003E02042F432F0E94EA090F910C94011C75
:1014A0000E9403210E948B1E811102C00E94281FEE
:1014B0000C94DC080C94DF08089581E008950C94E6
:1014C0005D0ACF93C82F0E94D8088C2FCF910C941F
:1014D0005F0A08950E942A180E94690A2FEF84E388
:1014E0009CE0215080409040E1F700C000000C9447
:1014F000DD200F931F93CF93DF93EC0161E00E94F7
:101500001F098C01BE010E947E0E882341F1BE019D
:10151000C8010E94DA08882311F1BE01C8010E94A7
:101520009D118823E1F0BE01C8010E94EF118823BC
:10153000B1F0BE01C8010E941213882381F08A8194
:10154000882341F101308CE5180779F00E3D8CE5D8
:101550001807E9F001151C45E9F40E946A0A80E0C9
:10156000DF91CF911F910F91089590916802892F7B
:101570008E7F90FF81608093680280FF05C08EE8B7
:1015800093E00E943608EBCF8CE793E0FACF0E94FD
:10159000281FE5CFCE01DF91CF911F910F910C94C1
:1015A000E7080895FC01EE0FFF1FE15CFB4F8591FA
:1015B00094910895CF93DF930E9447100E94EF0B00
:1015C000EC01811520E5920708F042C0811530E456
:1015D000930708F0BDC0883E910528F5803E91052F
:1015E00008F09DC0883A910588F4853A910508F085
:1015F0008FC08130910509F492C0009709F48FC023
:10160000049708F08CC0D0E0C0E089C08F3B910502
:1016100008F489C0805C9109C03CD105A0F30E9408
:10162000D20AEC017CC08115904250F4C11581E0D2
:10163000D80708F074C0C03FD10528F3D0656FC04B
:10164000C11590E3D90708F079C0CE019F70E7CFAC
:10165000811525E5920758F5811534E5930708F0C3
:10166000A6C0811542E5940750F4C11581E5D8075D
:1016700008F471C0DC2FCC27C16FD06A50C0982FFE
:10168000969596959E0123703327C115D34508F092
:101690007FC0C1E0D0E002C0CC0FDD1F2A95E2F789
:1016A00020E2929FC0011124C82BD92B6FC0C11515
:1016B00089E5D807A8F4C11598E5D90708F07CC0DA
:1016C000C11526E5D20708F09ECF8C2F0E94860C0C
:1016D000C82FD0E0DC2FCC27CC27DF71D0621FC011
:1016E000C1153AE5D30708F46CC0CE0190568115B8
:1016F000904208F088CF8D2F8F710E94860C90E069
:10170000982F882788279F719C012C2BE901E6CF11
:10171000C55AD0E0CD5BDE4FC881D0E0D064CE01A9
:10172000DF91CF910895C85AD0E0CC0FDD1FCB5E7A
:10173000DE4F0990D881C02DD464F1CFCE01992716
:10174000D3FF03C0EC01D86CEACFEC01D06CE7CF3B
:10175000DF70D06AE4CFCE01E4E096958795EA95F4
:10176000E1F783702C2F26952695237090E2299F10
:1017700090011124382B8C2F8370C1E0D0E002C07F
:10178000CC0FDD1F8A95E2F7C22BD32BDC68C7CFC5
:10179000C1E0D0E002C0CC0FDD1F2A95E2F730E2B5
:1017A000939FC0011124C82BD92BDA68B8CFD82F4A
:1017B000CC27C46FD06AB3CFDC2FCC27C06FD06AE0
:1017C000AECF8C2F8F700E94860C34E0D695C795D3
:1017D0003A95E1F7CF709C2FEC01D069A0CF823809
:1017E0009105B1F1B0F48133910509F475C048F465
:1017F0008932910509F469C08A32910509F473C0F0
:1018000008958533910509F459C08933910501F193
:101810000895833E9105A9F138F4803E9105F9F0D1
:10182000823E910549F10895863E9105A9F1873ED2
:101830009105C9F1843E910519F52091BB0221FF64
:101840001FC08091BA0284FD14C087EE90E0089515
:101850002091BA022370A1F080EE90E008952091CB
:10186000BA0220FD47C03091BB0230FF09C024FFFF
:1018700044C090E080E004C02091BA0222FDF7CF7E
:1018800008952091BA0222FD3BC03091BB0230FD89
:10189000E3CF24FFF5CFEDCF2091BA0223FFF0CFA5
:1018A00024FDE7CFD2CF2091BA0223FD2CC0309186
:1018B000BB0231FFEECF84EE90E008952091BA0292
:1018C00025FFDECF89E290E008952091BA0225FF3E
:1018D000D7CF85E390E008952091BA0226FFD0CFBC
:1018E0008AE290E008952091BA0226FFC9CF81E3F1
:1018F00090E0089589E390E0089583EE90E00895E4
:1019000082EE90E0089586EE90E008959091BA02FC
:1019100092FF06C0282F28712830F9F4877F846051
:1019200093FF06C0282F28712831F1F4877E846147
:101930002091BB0220FF06C0382F38713830D9F40F
:10194000877F816021FF06C0282F28712831D1F4BC
:10195000877E816194FD877E0895282F247124302D
:10196000F9F68B7F8860DCCF282F2471243101F7B2
:101970008B7E8861DDCF382F3171313019F78E7F42
:101980008860E0CF282F2171213121F78E7E886178
:10199000E1CF0895E82FF0E0EE0FFF1FE655FD4F71
:1019A000808191810895CF92DF92EF92FF920F9301
:1019B0001F93CF93DF938FE494E00E9436088AEA66
:1019C000E82E82E0F82ED0E0C0E09AE4C92E94E040
:1019D000D92E01E414E0DF93CF93DF92CF920E94DF
:1019E000CF0887E494E00E943608F7018191919135
:1019F0007F010E94781E9F938F931F930F930E94E5
:101A0000CF088FE394E00E94360821968DB79EB7E9
:101A100008960FB6F8949EBF0FBE8DBFC630D10595
:101A2000D1F6DF91CF911F910F91FF90EF90DF9052
:101A3000CF90089580EA8A95F1F70895A5E5B1E081
:101A400061E070E08D91E82FE295EF70F0E041A148
:101A50008F709B0101C0220F8A95EAF7922F909513
:101A6000942391A382A1822B82A381E0AB35B80796
:101A700049F7A6E4B1E061E070E08D91E82FE295CE
:101A8000EF70F0E041A18F709B0101C0220F8A9599
:101A9000EAF7922F9095942391A382A1822B82A39F
:101AA00081E0A535B80749F7EEE9F2E0AAEAB2E02D
:101AB0008AEA92E0119211921D921D928E179F0751
:101AC000C9F786E00E94ED0D0C94500A8F929F9208
:101AD000AF92BF92CF92DF92EF92FF920F931F933C
:101AE000CF93DF9385E5E82E81E0F82E0EE912E032
:101AF000912CAA24A394B12CF70181917F01C82FC6
:101B0000C295CF70D0E099A18F70650101C0CC0C57
:101B10008A95EAF7892F8C2989A38AA18C2C809435
:101B200088218AA30E941A0DE6E4F1E050E040E02B
:101B300030E020E06191A62FA295AF70B0E09096C2
:101B40008C9190E06F7002C0959587956A95E2F749
:101B500080FD3EC0C501042E02C0880F991F0A9463
:101B6000E2F7282B392B4F5F5F4F4F30510511F7AC
:101B700089A1882289A28AA1C82ACAA2F8018081E3
:101B800091812817390739F13183208381E0982A20
:101B90000E5F1F4FFBE5EF16F1E0FF0609F0ACCF3B
:101BA000292D46E06AEA72E08EE992E00E94EE0D8D
:101BB0000E945A0A892DDF91CF911F910F91FF90BA
:101BC000EF90DF90CF90BF90AF909F908F9008954F
:101BD00090E080E0C6CF80E0DACF0895FF920F93C7
:101BE0001F93CF93DF93F82E092F162FD72FC42FD3
:101BF000222349F081E08093AE010E9492209093CD
:101C0000AD018093AC018091AE018823A1F0809159
:101C1000AC019091AD010E94AA20069760F0EF2DD3
:101C2000F02FA12FBD2F90E080E0D0E08C179D0712
:101C300044F01092AE01DF91CF911F910F91FF9070
:101C40000895219131912D933D930196EFCF82E23A
:101C500090E00E94CF31813289F483E290E00E94CB
:101C6000CF31883059F484E290E00E94CF3191E086
:101C7000813309F090E0892F8170089580E0FCCFD6
:101C8000CF93C82F6FEF811161E282E290E00E9452
:101C9000DD316FEFC11168E083E290E00E94DD3139
:101CA0006FEFC11161E384E290E0CF910C94DD31DC
:101CB00080E00E94400E0C94851E089585E290E01D
:101CC0000E94CF31682F70E090E080E0089585E2B7
:101CD00090E00C94DD310E945D0E0E94270E811170
:101CE0000CC060E070E0CB010E94670E0E94BF0F45
:101CF0000E94AB1081E00C94400E0895CF93FB013D
:101D0000C281CC2309F19C0122513F45203131058C
:101D100020F582510E94BB10C0E08C2FCF91089516
:101D200081E00E94271C43E062E081E00E943E0ABD
:101D3000F3CF81E00E94481C43E062E081E00E9412
:101D40003E0AEBCF82E0F6CF8031FFE59F0789F3B3
:101D500081319F45B9F3C1E0E0CF8031EFE59E07C7
:101D6000F9F281319F45C9F682E0DBCF2FEFFC010C
:101D700020830895EF92FF920F931F93CF93DF93E9
:101D8000EC01062FE881E150E33108F05EC0F0E09D
:101D9000ED5EFD4C0C94AE31198289E08A83602F90
:101DA000CE01DF91CF911F910F91FF90EF900C9496
:101DB0005E2A8981823069F0833071F08130D9F4F4
:101DC0000E949E200E94B4316A837B838C839D8312
:101DD000E6CF0E945E0EF6CF7E0110E0812F0E94BA
:101DE000CA0CF701928383831F5FF2E0EF0EF11CB0
:101DF0001630A1F7D4CF602FCE010E94B60ECFCF00
:101E000089818230C1F76A817B818C819D810E94AA
:101E1000B4310E94670EC3CF4B816A8189810E94D1
:101E2000910F9827892798279D838C83B8CF2C8181
:101E30003D813227232732274B816A8189810E9485
:101E4000AA0FADCF0E94BF0FAACF8FEF8883A7CF75
:101E50000E9454108983A3CF0E9456109827892787
:101E600098279A8389839BCF6B8170E089819A81BF
:101E7000AE014C5F5F4F9827892798270E94591021
:101E80008ECF6B8170E089819A81AE014C5F5F4F8C
:101E90009827892798270E94801081CF0E94AB1035
:101EA0007ECF0E947F0FD6CF6B8170E089819A81AF
:101EB000AE014C5F5F4F9827892798270E94F70F44
:101EC0006ECF6B8170E089819A81AE014C5F5F4F6C
:101ED0009827892798270E941D1061CF0E94580ECD
:101EE0005ECF0E945E2A2FEF81EE94E02150804069
:101EF0009040E1F700C000000E94DD2050CF84E058
:101F0000089550E0440F551F9EE1699F400D511DFB
:101F1000112494EB899F400D511D1124CA0186960E
:101F200008950F931F93CF93DF930E94810F8C012D
:101F30000E94CF31C82FD0E0DC2FCC27C8010196FA
:101F40000E94CF319E01282BC901DF91CF911F91B3
:101F50000F9108950F931F93CF93DF93122F032FA9
:101F60000E94810FEC01602F0E94DD31612FCE01B4
:101F70000196DF91CF911F910F910C94DD31AF92BB
:101F8000BF92CF92DF92EF92FF921F93CF93DF9396
:101F90008CEAC82E80E0D82ED0E07601C0E014C0D4
:101FA000F50125913491412F6C2F8D2F0E94AA0F9E
:101FB00082E0A80EB11C1F5F1F3091F78EE1E80E82
:101FC000F11CCF5FC63019F0570110E0E9CFDF5F99
:101FD00084EBC80ED11CD43001F7DF91CF911F9153
:101FE000FF90EF90DF90CF90BF90AF900895EF9269
:101FF000FF920F931F93CF93DF93EC018A017C0133
:10200000E60EF71ECE018696CE15DF0539F4DF9178
:10201000CF911F910F91FF90EF900895C03D22E066
:10202000D20740F40E94CF31F80180830F5F1F4F29
:102030002196E8CFF8011082F9CFCF92DF92EF928C
:10204000FF920F931F93CF93DF937C016A018C0162
:10205000060F171FEC01CE018696C017D10749F471
:10206000DF91CF911F910F91FF90EF90DF90CF9074
:102070000895C03D22E0D20740F4FE01EE19FF09A9
:10208000EC0DFD1D60810E94DD312196E4CF462FCD
:10209000843038F4763028F46F3018F4672F0C94BD
:1020A000910F90E080E0089580E108958AE091E04A
:1020B0000895EF92FF920F931F93CF93DF93EC015C
:1020C0008A017C01E60EF71ECE018A509D4FCE1587
:1020D000DF0539F4DF91CF911F910F91FF90EF90C1
:1020E0000895CA3021E0D20740F40E94CF31F801B0
:1020F00080830F5F1F4F2196E7CFF8011082F9CF41
:10210000CF92DF92EF92FF920F931F93CF93DF93C3
:102110007C016A018C01060F171FEC01CE018A5069
:102120009D4FC017D10749F4DF91CF911F910F91B7
:10213000FF90EF90DF90CF900895CA3021E0D20752
:1021400040F4FE01EE19FF09EC0DFD1D60810E94B7
:10215000DD312196E3CFCF93DF93C6EFD2E060E08D
:10216000CE010E94DD312196C11584E0D807B9F770
:10217000DF91CF910895DF92EF92FF920F931F931B
:10218000CF93DF9300D000D0CDB7DEB7F82E8FE02D
:102190008F1540F08FEF93E00E94CF3106EF12E0F1
:1021A0008823C1F00F900F900F900F90DF91CF9187
:1021B0001F910F91FF90EF90DF900895011584E03B
:1021C000180781F3C8010E94CF31811101C0FA9430
:1021D0000F5F1F4FF110F2CF19821A821B821C82EF
:1021E000DD24D39478018FEFE81AF80AC8010E9421
:1021F000CF3189831A828823A9F29FEF980F9330F9
:1022000078F48A83D9820E5F1F4FC7010E94CF31B5
:102210008B83882339F2CE0101960E94E709E2CF31
:102220008701F9CFAF92BF92CF92DF92EF92FF92E8
:102230000F931F93CF93DF937C015B01C42FD22FA9
:10224000FC0182818823F9F04093B1010E94922021
:102250009093B0018093AF0180E28C0F883008F03A
:1022600061C0C77081E001C0880FCA95EAF7DF91AD
:10227000CF911F910F91FF90EF90DF90CF90BF9083
:10228000AF900C94AA151091B101141340C0809125
:10229000AF019091B0010E94AA206C01B701C50165
:1022A0000E94A01AC816D90690F5C0E2CD0F1D17DE
:1022B000B9F080E2810F883040F4177081E001C0EE
:1022C000880F1A95EAF70E94B115C83048F481E0EA
:1022D0009D2F977001C0880F9A95EAF70E94AA1562
:1022E000802F0E949215C830E8F4D77081E001C0B9
:1022F000880FDA95EAF7DF91CF911F910F91FF9048
:10230000EF90DF90CF90BF90AF900C94B11580E22A
:102310008C0F883038F4C77081E001C0880FCA95EF
:10232000EAF7E9CFDF91CF911F910F91FF90EF90E6
:10233000DF90CF90BF90AF9008950F939C01CB0199
:10234000233F4CE5340759F1A8F4283DFCE53F074D
:1023500001F1293D4CE53407D1F1273D3C4591F48D
:1023600006E221EE41EE67ED7CE50E94121180E06D
:102370000F910895253FFCE53F07E9F0B0F0263FB7
:102380003C45F9F0FC018281882339F11092B101BA
:10239000EFCF07E225EE45EE68ED7CE5E6CF06E2FD
:1023A00021EE40EE63EF7CE5E0CF07E225EE44EE60
:1023B00064EF7CE5DACF06E221EE42EE65EF7CE5E4
:1023C000D4CF07E225EE46EE66EF7CE5CECF08E2FD
:1023D00021E045EE69ED7CE5C8CF81E0C9CFCF9320
:1023E000DF93EC01FB018281882309F419C1C2301B
:1023F000FCE5DF07C0F1C6319CE5D90730F09E014E
:102400002A5F3C452930310570F50E949E1E90934D
:10241000BB028093BA02C031ECE5DE0709F4CFC0FD
:1024200008F05BC0C8308CE5D80709F4B6C088F561
:10243000C430ECE5DE0709F4A8C0C0F4C2308CE576
:10244000D80709F49CC08091BA028260C330DC4591
:1024500009F498C08091BA029091BB020E94AC1E10
:102460000E942A1880E0DF91CF9108958091BA02EE
:102470008061C630ECE5DE0709F484C08091BA02C1
:102480008860C730DC4508F47DC08091BA02806264
:1024900079C0CC308CE5D80709F489C070F48091FC
:1024A000BA028C60CA30ECE5DE0709F46BC008F4B0
:1024B00078C08091BA028E7F65C0CE308CE5D80797
:1024C00009F479C08091BA028B7FCF30DC4508F4E3
:1024D00059C08091BA028F7E55C0CB3FECE5DE0734
:1024E00009F457C030F5C3318CE5D80709F46FC043
:1024F00078F4C131ECE5DE0709F465C0C231DC4592
:1025000009F0A8CF0E942A188091BA028F773AC0AA
:10251000C5318CE5D80709F462C008F476C0809113
:10252000BB028160CA3FDC4509F094CF8093BB02B7
:1025300091CFCF3FFCE5DF0709F44DC088F48091CF
:10254000BB028D7FCD3F9CE5D90781F38091BB0213
:102550008E7FCE3FDC4550F38091BB028360E6CF97
:10256000C130FDE5DF0709F459C008F444C080E03C
:10257000C230DD4509F06ECF0E942A1F6BCF8091DB
:10258000BA0281608093BA0265CF8091BA028460FA
:10259000F9CF8091BB028260C9CF8091BA0280647A
:1025A000F1CF0E942A188091BA028068EBCF809107
:1025B000BA028D7FE7CF8091BA02877FE3CF809107
:1025C000BA028F7DDFCF8091BA028F7BDBCF809103
:1025D000BA02837FD7CF8091BB028C7FA7CF809137
:1025E000BA0282FB992790F921E0922790FB82F9A9
:1025F00090FB83F9C7CF8091BB02982F9095917083
:102600008E7F892B90FB81F991CF0E942A1890919F
:10261000BA02892F97FB87F98058B4CF81E0ACCFFD
:1026200081E021CFCF93DF93EB0186319C4511F5FB
:102630000E94AC1D9A81992399F08A7A91E009F45D
:1026400090E09093B201811109C089E20E94871D38
:102650000E94F81D80E0DF91CF91089585E3F6CFC9
:102660008091B201811104C089E20E948E1DF0CFD9
:1026700085E3FBCF81E0EFCF9093B8018093B70162
:102680000895E091B701F091B801309721F00190E1
:10269000F081E02D099480E00895EF92FF920F936E
:1026A0001F93CF93DF93EC01E091B701F091B80154
:1026B000309709F446C080911401882341F080913D
:1026C000BA0287FF04C08881898385E088830280FD
:1026D000F381E02DCE0109958091680282FF31C01F
:1026E00080FF04C08EE694E00E94360810E000E00F
:1026F00088E6E82E84E0F82E8091680280FF0EC004
:10270000FE01E00FF11F80811F928F93FF92EF92E5
:102710000E94CF080F900F900F900F900F5F1F4FE8
:102720000830110549F78091680280FF0AC086E6EB
:1027300094E0DF91CF911F910F91FF90EF900C9457
:102740003608DF91CF911F910F91FF90EF90089580
:10275000E091B701F091B801309739F022E0DC0147
:102760002C930480F581E02D099408952091B50102
:102770003091B6012817390771F09093B601809314
:10278000B501E091B701F091B801309721F00680D2
:10279000F781E02D099408952091B3013091B4019F
:1027A0002817390771F09093B4018093B301E09139
:1027B000B701F091B801309721F00084F185E02D48
:1027C0000994089585B7806885BF85B7806885BFFF
:1027D0000895089508950C94E9130E94E2130E944D
:1027E000EA130C94EB1381E008950C94F3130E9408
:1027F00089200E941E0D0E946B0E0E941A21EAEB96
:10280000F2E08081806880838091BA029091BB025F
:102810000E94AC1E0C94DE08CF93C82F80916802F2
:1028200082FF1EC080FF1CC087E894E00E9436082B
:102830008091680280FF14C01F92CF9382E894E0D9
:102840009F938F930E94CF08809168020F900F9002
:102850000F900F9080FF04C080E894E00E9436083B
:102860008C2FCF910C94610A9F92AF92BF92CF921E
:10287000DF92EF92FF920F931F93CF93DF93CDB729
:10288000DEB72A970FB6F894DEBF0FBECDBF0E9409
:10289000660D0E94F513882309F470C05AEBA52E2B
:1028A00051E0B52E10E000E0902E802F0E94CA0C5F
:1028B0006C01F501E190F1905F01E816F90609F469
:1028C00057C08091680281FD0E94D30C97012C258E
:1028D0003D2580E0EE24E394F12CA9014E215F21F7
:1028E000452B09F43FC08E839F82CE20DF2081E0FC
:1028F000CD2809F480E088870E9492208160782F9B
:102900009A8789874E815F8168858A850E94E11454
:10291000000F111FF801E654FE4F80819181E826D7
:10292000F926F182E0820E9447230E944113909190
:10293000B9018917A1F10E9441138093B9012A9628
:102940000FB6F894DEBF0FBECDBFDF91CF911F91C0
:102950000F91FF90EF90DF90CF90BF90AF909F903E
:102960000C940C148F5FEE0CFF1C8F3009F0B5CF68
:102970000F5F1F4F0630110509F096CF8FEF898347
:102980008A831B820E9492208160782F9D838C8392
:1029900049815A816B818D810E94E114C4CF2A96AE
:1029A0000FB6F894DEBF0FBECDBFDF91CF911F9160
:1029B0000F91FF90EF90DF90CF90BF90AF909F90DE
:1029C0000895CF93DF93CDB7DEB72B970FB6F8946A
:1029D000DEBF0FBECDBF4F83588769877A878B874D
:1029E0001E821D8285E0FE013796DE011196019060
:1029F0000D928A95E1F749815A816B817C818D81A5
:102A00009E812B960FB6F894DEBF0FBECDBFDF912F
:102A1000CF910C94A31AFC01808191810C94591DD3
:102A2000CF93C82F882309F44CC08CEF8C0F813AC8
:102A3000C8F48C2F0E941528811143C06C2F8091FF
:102A40000001909101010E94431F882329F08C2FDF
:102A50000E948E1D0E94F81D8C2F0E94871DCF9111
:102A60000C94F81D80E28C0F883048F4C77081E028
:102A700001C0880FCA95EAF70E94AF1DF0CFEBE5C1
:102A8000EC0FE33040F4F0E0E757FE4F808190E038
:102A9000CF910C94B613E8E5EC0FE73150F4F0E079
:102AA000EE0FFF1FE55AFE4F80819181CF910C946C
:102AB000CC13C03F30F08C2F0E94BF21CF910C94DB
:102AC000AA22CF910895882361F19CEF980F913A43
:102AD00020F40E948E1D0C94F81D90E2980F9830FF
:102AE00050F4877091E001C0990F8A95EAF7892F19
:102AF0000E94B51DF0CF9BE5980F933020F490E035
:102B000080E00C94B61398E5980F973120F490E08C
:102B100080E00C94CC13803F20F00E9427220C947C
:102B2000AA220895CF93C82F0E941015C93369F4C3
:102B30002FEF87EE93E0215080409040E1F700C0F6
:102B400000008C2FCF910C9463158FE39CE90197C3
:102B5000F1F7F5CF882321F00E94AF1D0C94F81DEA
:102B60000895882321F00E94B51D0C94F81D089546
:102B7000BF92CF92DF92EF92FF920F931F93CF936A
:102B8000DF936C01D62FC72FFC01058102950F70D2
:102B9000128111110E94CC1D0E94A51DE82E8823D0
:102BA00091F01123D1F08C2F807F803421F080E2CE
:102BB0008D0F883090F082E00E94431E0E94A51D78
:102BC00091E0E82EE926BC2EB2949FE0B922EB2DCD
:102BD000F0E0EA5DFD4C0C94AE31E12CF4CF0C2F0B
:102BE0000F70C07F11F00295007F1123A9F0002320
:102BF00059F080E28D0F883010F0D11109C0802F7C
:102C00000E94AF1D0E94F81D8D2F0E94101514C048
:102C1000802F0E94BF1DF6CF8D2F0E9463150023C9
:102C200059F080E28D0F883010F0D1112BC0802F29
:102C30000E94B51D0E94F81DEB2DE850FF0B349744
:102C400020F40E9441130E94610AEE2009F4A3C1FE
:102C50000E94A11D80FD9FC1F60112820E949B1D52
:102C60000E94271CC6010E94EC170E949B1DDF9149
:102C7000CF911F910F91FF90EF90DF90CF90BF9079
:102C80000C94481C802F0E94C51DD4CFFC2FFF70D0
:102C9000FF2EC07FC03219F0F29480EFF822DD23BE
:102CA00069F0D13049F1112391F1002351F1F6017E
:102CB000858180FFA9CF8F70858323C0112381F088
:102CC000011106C00E94DF1D8F290E94AA15B4CFF2
:102CD0000130C1F70E94DF1D8F290E94E51DACCF96
:102CE000011106C00E94EE1D8F2D0E94B115A4CFC8
:102CF000013009F4A1CFF6CF112329F0063008F0F6
:102D00009BCF8F2DE2CF053008F096CFEDCF00237B
:102D100059F3D93309F027C1FFEF27EE33E0F15023
:102D200020403040E1F700C000008D2F0E94631565
:102D300083CF8C2F86958695837069F0813009F05A
:102D40007BCF8D2F9C2F9370111102C090E080E0FB
:102D50000E94CC1371CF8D2F9C2F9370111102C044
:102D600090E080E00E94B61367CF8D2F112329F0E9
:102D70000E94BF210E94AA225FCF0E942722FACF81
:102D80008C2F837009F041C0111156CF4D2F429501
:102D900046954770440F440F0D2F0F7010E030E040
:102DA00020E0042E04C0000F111F221F331F0A94BD
:102DB000D2F760E070E0CB01D4FF0FC06FE070E0AD
:102DC00080E090E004C0660F771F881F991F4A9526
:102DD000D2F76095709580959095C695C695C3700D
:102DE000602B712B822B932BC23049F058F4C130E9
:102DF00019F00E94D91B20CF0E94C71B1DCF0E9433
:102E0000EB1B1ACF0E94C51B17CF8695112311F01B
:102E10008C2F8170882309F40FCF4D2F4295469552
:102E20004770440F440F0D2F0F7010E030E020E08A
:102E3000042E04C0000F111F221F331F0A94D2F763
:102E400060E070E0CB01D4FF0FC06FE070E080E085
:102E500090E004C0660F771F881F991F4A95D2F72C
:102E60006095709580959095C695C695C370602BBA
:102E7000712B822B932BC23049F058F4C13019F0DA
:102E80000E949E1CD9CE0E948C1CD6CE0E94B01CE3
:102E9000D3CE0E94011CD0CECF70112329F08C2FED
:102EA0000E94271C8D2F11CF8D2F0E94B1158C2FC2
:102EB0000E94481CC1CED23F89F160F4D03FC9F0D6
:102EC000D13F29F1112309F442C001119DCE8C2F6D
:102ED0008F7121C0D33F39F1D43FA1F7112369F19C
:102EE000CF718C2F0E94271C63E08C2F0E942E1E16
:102EF000A3CE112341F0053008F09ECE8C2F8F71A8
:102F00000E946B1C99CE063008F096CEF7CF8C2F1E
:102F10008F71112369F20E94271C8ECE8C2F8F7126
:102F20001123C9F3C5CF112329F08C2F8F710E9473
:102F3000121C82CE0E940D1C7FCE81E00E94431E97
:102F4000023008F479CE82E00E94431E75CE002341
:102F500079F0D93341F49FEFE7EEF3E09150E04090
:102F6000F040E1F7E0CE8FE39CE90197F1F7DBCE8B
:102F70008C2F8F719DCF4C2F4F706D2FC6010E94EB
:102F8000E1080E943D1B58CE4C2F4F706D2FC6019B
:102F90000E94D10A51CEDF91CF911F910F91FF90E6
:102FA000EF90DF90CF90BF9008950F931F93CF9332
:102FB000DF93EC01688179818A810E94631D8C0115
:102FC0000E94C21C0E94C41BB801CE01DF91CF91A8
:102FD0001F910F910C94B815CF93DF93EC018B8167
:102FE0009C81892B29F08881998189238F3F59F40D
:102FF000DF91CF910895CE010E94D517CE01DF91C8
:10300000CF910C942809CE010E94790A8111F3CF47
:103010000E94A51D882361F38A81882349F382E0F9
:10302000DF91CF910C94431E0E94CC1D0E94DC1DA9
:103030000E94F81D0E9453240E94AA2290E080E082
:103040000E94B61390E080E00C94CC130E94951D72
:103050000C9414180E94BC1D0C942618E92FE295BC
:10306000EF70E250EE3070F4F0E0EA5CFD4C0C944E
:10307000AE31803F19F020F4883E20F481E00895BD
:10308000843FE1F380E00895883EC0F3813FD1F7AB
:10309000F5CF93FB882780F908950E94591D0C9461
:1030A0002E18CF93DF9300D000D00F92CDB7DEB7AC
:1030B0000F900F900F900F900F90DF91CF91089588
:1030C000CF93DF9300D000D000D0CDB7DEB72696E7
:1030D0000FB6F894DEBF0FBECDBFDF91CF9108953C
:1030E0001F93CF93DF93C091C70116E08091C80171
:1030F0008C1304C0DF91CF911F910895D0E01C9FE5
:10310000F0011D9FF00D1124E753FE4F40815181C6
:1031100062817381848195810E9460182196C770B5
:10312000E5CF4091F9015091FA016091FB01709156
:10313000FC018091FD019091FE010C9460181F9399
:10314000CF93DF938091FE01807FA9F48091FB01F2
:10315000882389F08091C701C091C8016091F9016D
:103160007091FA01A091FC01B091FD01D62FD723F7
:1031700016E0C81304C0DF91CF911F91089590E02D
:10318000109711F0DF3F19F401968770F2CF189F66
:103190009001199F300D1124F901E753FE4F418131
:1031A0004713F2CF40814613EFCF42814111ECCF5C
:1031B000438154814A1B5B0B483C510528F78091A1
:1031C000FE018F7080618093FE01F901E253FE4F92
:1031D00080818F708061808389EF91E00E94EC177D
:1031E000DF91CF911F910C947018AF92BF92CF9244
:1031F000DF92EF92FF920F931F93CF93DF93CDB7A0
:10320000DEB761970FB6F894DEBF0FBECDBF8C015D
:1032100085E0F801DE011D9601900D928A95E1F797
:10322000F80140815181E28089EFC82E81E0D82EDB
:103230006091FC017091FD016115710509F461C196
:103240009091F9012091FA01892F82238F3F09F48F
:1032500058C1A380B480F090FB01F501E61BF70B89
:10326000FF2009F4FCC08091FE01382F307FE83C3C
:10327000F10508F0B2C0311179C0FE2C251323C02E
:10328000941321C0E1101FC08F7080618093FE01F4
:103290000E949118C6010E94EC178091FE01F8016E
:1032A00085838F2D61960FB6F894DEBF0FBECDBF1C
:1032B000DF91CF911F910F91FF90EF90DF90CF9012
:1032C000BF90AF900895AB2829F0842F85238F3FBE
:1032D00009F033C180E0F82FF170DF2E80FF3CC091
:1032E0008091C7012091C80136E0821315C04D8737
:1032F0005E878D859E850E94591D292F22952F70EE
:103300002230F0F0243018F59F70F1F0F80195812B
:10331000907FD1F4D12C1EC090E0389FF001399FEE
:10332000F00D1124E753FE4F6181651306C06081E3
:10333000641303C062816E110FC001968770D5CFF0
:103340009F7011F0882331F3805E883018F3C80134
:103350000E94EC17FD2CA5CFEE2009F4A2CF80919E
:10336000FE0181608093FE01F12C9BCF251306C0E6
:10337000941304C0F801EE2009F48DC04D875E87D8
:103380008D859E850E944D18882319F1EE2009F144
:103390008091FE01803270F02091F9013091FA01A4
:1033A00038872F831986BB86AA868C87CE0107961D
:1033B0000E94EC1786E0F801A9EFB1E001900D92B0
:1033C0008A95E1F70E949F180E949118FF24F394B8
:1033D00068CFC8010E94EC17F9CF311113C07A2DC4
:1033E000B98AA88A6E2D89890E94511889EF91E0C7
:1033F0000E94EC1786E0F60111928A95E9F70E9487
:103400009118B2CF25130FC094130DC0E1100BC05B
:10341000F8018583C8010E94EC1786E0F60111923D
:103420008A95E9F73ECF4D875E878D859E850E9400
:103430004D18882371F2EE2061F28091FE018032F6
:1034400008F4B8CF2091F9013091FA013A83298329
:103450001B82BD82AC828E83CE010196A9CFE83C4F
:10346000F10508F041C0FE2CEE2009F4B2CF25137F
:103470002AC0941328C08091FE0180FD1BC0982FA4
:10348000907FC1F0F8018583903F31F0982F907FB5
:10349000905F8F70892B8583C8010E94EC1786E0AE
:1034A000F801A9EFB1E001900D928A95E1F70E9431
:1034B0009118F7CE86E0F801A9EFB1E001900D92E6
:1034C0008A95E1F7EECE4D875E878D859E850E94B9
:1034D0004D1881116FCF8091FE0181608093FE01B4
:1034E000C8010E94EC17DDCE7A2DB98AA88A6E2D0C
:1034F00089890E94511886E0F60111928A95E9F7B0
:10350000D6CFEE2009F465CF4D875E878D859E85E9
:103510000E944D18F82E882309F45BCF86E0F8014D
:10352000A9EFB1E001900D928A95E1F789EF91E062
:103530000E940B150E949F18BACF81E08E25CBCE3A
:1035400088EC90E008951F93CF93DF93CDB7DEB75B
:103550002C970FB6F894DEBF0FBECDBF4F835887B0
:1035600069877A878B879C87CE0107960E94F5181A
:10357000882369F08A859B85892B39F04F8158858E
:10358000842F85238F3F09F071C016E05FC086E06D
:10359000FE013796DE01119601900D928A95E1F7B2
:1035A0008A859B85892B89F38F81988589238F3F15
:1035B00061F32091C80130E0C90101968770992715
:1035C0004091C7014817190671F40E942A181092F9
:1035D000C8011092C70186E0E9EFF1E0DF011D921A
:1035E0008A95E9F7D2CF96E0929FD001939FB00DD4
:1035F0001124A753BE4FFE01319601900D929A956A
:10360000E1F78093C8010E947018BFCF819FC0016D
:10361000112487539E4F0E94F5188823E9F0E0910A
:10362000C7011E9FF0011124E753FE4F40815181D5
:1036300062817381848195810E9460188091C701A5
:1036400090E00196877099278093C7018091C70108
:103650009091C8018913DACF2C960FB6F894DEBF8B
:103660000FBECDBFDF91CF911F91089569857A85F7
:103670008B859C850E94601888CFEF92FF920F93F4
:103680001F93CF93DF938C01892B81F0F12CEE24D3
:10369000E394E8012196F8018491843770F4843032
:1036A00008F05FC08130B1F08230A1F1DF91CF919D
:1036B0001F910F91FF90EF900895853709F44CC04A
:1036C00008F43DC09CE7980F903780F78F770E94F1
:1036D000631549C00E5F1F4FFE01849190E2980F61
:1036E000983060F48770FE2D01C0FF0F8A95EAF7CD
:1036F0008F2F0E94CF1D0E94F81D02C00E9410153E
:103700008F2D815030F2EFE9FFE03197F1F700C0E3
:103710000000F7CF0E5F1F4FFE01849190E2980FDB
:10372000983050F48770FE2D01C0FF0F8A95EAF79C
:103730008F2F0E94D51DDFCF0E946315E1CF0E5F52
:103740001F4FFE01C491C150D8F28FE99FE001974D
:10375000F1F700C00000F7CF0E5F1F4FFE01F4909D
:10376000CFCF0E9410158E01CBCF08950C94B51BBE
:103770000E94B61B60933F02709340028093410207
:10378000909342020C94141808950C94B81B0F9354
:103790001F9300913F02109140022091410230910D
:1037A0004202602B712B822B932B1F910F910C9453
:1037B000B81B0F931F9300913F021091400220917C
:1037C00041023091420260237123822393231F918F
:1037D0000F910C94B81B0F931F9300913F0210910F
:1037E00040022091410230914202602771278227D6
:1037F00093271F910F910C94B81B0C94B51B0C943C
:10380000FD1B0E94FF1B60933B0270933C02809360
:103810003D0290933E020C94141860E070E0CB01DE
:103820000C94011C0F931F9341E050E060E070E0A6
:103830008A019B0104C0000F111F221F331F8A95AC
:10384000D2F7C901B8011F910F910C94011C0F937D
:103850001F9341E050E060E070E004C0440F551F4A
:10386000661F771F8A95D2F780913B0290913C02A8
:10387000A0913D02B0913E028A019B01082B192BB9
:103880002A2B3B2BC901B8011F910F910C94011CED
:103890000F931F9341E050E060E070E004C0440FDC
:1038A000551F661F771F8A95D2F7CB01BA01609525
:1038B00070958095909500913B0210913C0220916B
:1038C0003D0230913E0260237123822393231F9196
:1038D0000F910C94011C0F931F9341E050E060E0A6
:1038E00070E004C0440F551F661F771F8A95D2F7FA
:1038F00080913B0290913C02A0913D02B0913E022A
:103900008A019B01082719272A273B27C901B801EB
:103910001F910F910C94011C0F931F9300913B0278
:1039200010913C0220913D0230913E02602B712BA0
:10393000822B932B1F910F910C94011C0F931F93BB
:1039400000913B0210913C0220913D0230913E02D9
:1039500060237123822393231F910F910C94011CE8
:103960000F931F9300913B0210913C0220913D0266
:1039700030913E0260277127822793271F910F9174
:103980000C94011C08952FE0929F800D1124982F14
:10399000977041E001C0440F9A95EAF786958695A5
:1039A000869595E0899FF0011124E150FE4F90E04B
:1039B00080E070E05191DF0111979B01082E02C059
:1039C000369527950A94E2F721702195252724231F
:1039D00025272C9301968530910561F708952FE0F6
:1039E000929F800D1124982F9770869586958695C5
:1039F00025E0829FF0011124E150FE4F50E040E0AD
:103A000080E0219130E0092E02C0369527950A9476
:103A1000E2F721703327042E01C0220F0A94EAF73F
:103A2000822B4F5F5F4F4530510559F70895BF9284
:103A3000CF92DF92EF92FF920F931F93CF93DF937A
:103A40008C01C0903B02D0903C02E0903D02F0908F
:103A50003E0280913F0290914002A0914102B091BC
:103A60004202C82AD92AEA2AFB2ACFE1D0E0BC2E9A
:103A7000D701C6010C2E04C0B695A79597958795DA
:103A80000A94D2F780FD0EC0219788F7B12C8B2DB8
:103A9000DF91CF911F910F91FF90EF90DF90CF902A
:103AA000BF900895B8018C2F0E94DA0A019761F344
:103AB000EECFCF93DF93EC010E94171DBE01DF9183
:103AC000CF910C94DA0A1F93CF93DF93EB0190917F
:103AD000C601992331F0CB01DF91CF911F910C9456
:103AE000591D882379F0CB010E94171D182F682FCC
:103AF000CE010E94C31CBE01812FDF91CF911F9187
:103B00000C94DA0ACB010E94EF1C182FF4CF682F17
:103B100080910001909101010C94E51F682F809124
:103B20000001909101010C94F01F8091000190918F
:103B300001010C94FB1F8091430285958595859525
:103B40000895809143028770089590914302977081
:103B500081E009F480E008958091670208959091D2
:103B60006702892B80936702089580959091670280
:103B70009823909367020895109267020895909198
:103B80006602892B80936602089580959091660263
:103B9000982390936602089510926602089590917A
:103BA0006502892B80936502089580959091650246
:103BB000982390936502089510926502089580916C
:103BC0004402089508950C94E21D909144029817C0
:103BD00021F0809344020C94E31D089580914402E7
:103BE000882329F01092440280E00C94E31D08958C
:103BF000E0910001F0910101809167028083E091E2
:103C00000001F0910101808190916602892B8083EF
:103C1000E0910001F0910101808190916502892B72
:103C2000808390914402992381F0E0910001F0910A
:103C300001018081892B8083809100019091010195
:103C40000E942F1F81110E94EE1D80910001909112
:103C500001010C944D1308950C942B1E98E0899F3C
:103C600090011124622B609343020E94271C8091D3
:103C700043028595859585950C942C1E10924302E0
:103C800080E00C942C1E90914302809589238093B0
:103C90004302282F277071F4282F082E000C330BB5
:103CA0009217130639F08595859585950E94481CD5
:103CB0000C943E1E08959093AB018093AA01089541
:103CC000829590E09C01220F331F220F331F2C7C22
:103CD00095958795959587958373282B30E0C90135
:103CE000880F991F8A7A359527952575822B089517
:103CF000CF93DF93D92F0E94601EC82F8D2F0E9473
:103D0000601E9C2FDF91CF9108956FEF7FEF90E0C1
:103D100080E00C94FB3190E080E00E94D73121E0FC
:103D20008C3E9E4F09F020E0822F089582E090E0C3
:103D30000C94CF3183E090E00C94CF31CF9384E0AA
:103D400090E00E94CF31C82F81E290E00E94CF31F5
:103D5000982F8C2FCF910895CF93C92F682F84E08F
:103D600090E00E94DD316C2F81E290E0CF910C94C5
:103D7000DD31AB01BC018FE090E00C94EF31AB0181
:103D8000BC0183E190E00C94EF3160E070E0CB0186
:103D90000C94BF1E60E070E0CB010E94B91E0C9431
:103DA000C51E6CEE7EEF90E080E00E94FB3160E08B
:103DB00082E090E00E94DD3160E083E090E00E94CC
:103DC000DD3110923F021092400210924102109297
:103DD000420260E084E090E00E94DD3160E081E238
:103DE00090E00E94DD3160E085E090E00E94DD31EE
:103DF00060E086E090E00E94DD316FEF87E090E0C8
:103E00000E94DD3140E050E0BA0188E090E00E947D
:103E1000EF3160E08DE090E00E94DD3140E050E065
:103E2000BA0188E190E00E94EF3160E087E190E024
:103E30000E94DD3140E050E0BA018CE190E00E9448
:103E4000EF3160E080E290E00E94DD310C94CA1E08
:103E50000C94D11E682F8EE090E00C94DD31FC01B3
:103E6000329680911401882321F08091BA029EE15C
:103E700087FF96E080E0915008F408952191222375
:103E8000D1F38F5FF8CF662301F120911401222333
:103E9000F1F02091BA0227FF1AC0462F46954695A9
:103EA00046954E3190F4677021E030E002C0220F59
:103EB000331F6A95E2F7840F911DFC01828190E027
:103EC0002823392381E0232B69F480E00895FC0145
:103ED000329608962191261721F0E817F907D1F7B5
:103EE000F4CF81E008959C01FC0132969FEF80E0C1
:103EF0004191461751F09F3F19F4411101C0982F8D
:103F00008F5F8630A9F79F3F09F40895290F311D6F
:103F100097FD3A95F90162830895FC01329608965F
:103F20002191261303C0DF0111971C92E817F907AE
:103F3000B9F70895E62FE695E695E695EE3170F42B
:103F4000E80FF92FF11D677021E030E001C0220F6A
:103F50006A95EAF78281822B8283089580916802B4
:103F600080FF0CC01F926F9388EB94E09F938F9318
:103F70000E94CF080F900F900F900F900895E62F9A
:103F8000E695E695E695EE3178F4E80FF92FF11D08
:103F9000677021E030E001C0220F6A95EAF72095B2
:103FA00082812823228308958091680280FF0CC0BB
:103FB0001F926F938AE994E09F938F930E94CF089A
:103FC0000F900F900F900F900895209114012223CD
:103FD00029F02091BA0227FD0C949A1F0C94731FAC
:103FE00020911401222329F02091BA0227FD0C947C
:103FF000BF1F0C948D1FFC01329680911401882301
:1040000051F08091BA0287FF06C08EE1DF011D9258
:104010008A95E9F7089586E0F9CF089508950C94FC
:104020000E200E940F208091C002843049F110922E
:10403000690288E190E020E40FB6F894A895809397
:1040400060000FBE2093600080E00E94610A0E9421
:104050000F2083B7817F846083BF83B7816083BF74
:104060007894889583B78E7F83BF0FB6F894A89510
:1040700080916000886180936000109260000FBEA4
:1040800008950895CF930E940D200E94660D0E940E
:104090004120C0E08C2F0E94CA0C892B31F4CF5FE5
:1040A000C630C1F780E0CF91089581E0FCCF08953C
:1040B0000C9457200E942A180E9441130E94610A02
:1040C0000C9458201F921FB61F9211248F939F9318
:1040D000AF93BF9380916902811113C08091B602A2
:1040E0009091B702A091B802B091B9024196A11D7A
:1040F000B11D8093B6029093B702A093B802B0931B
:10410000B902BF91AF919F918F911F901FBE1F90D9
:10411000189582E084BD93E095BD9AEF97BD80939A
:104120006E0008952FB7F8948091B6029091B7026F
:10413000A091B802B091B9022FBF08952FB7F8949B
:104140006091B6027091B7028091B8029091B90265
:104150002FBF08959C014FB7F8948091B6029091BB
:10416000B702A091B802B091B9024FBF821B930B66
:10417000089578941F921FB61F9211248F939F93D6
:10418000AF93BF938091B6029091B702A091B8020D
:10419000B091B9020196A11DB11D8093B602909312
:1041A000B702A093B802B093B902BF91AF919F91AB
:1041B0008F911F901FBE1F90189581E08093E000A3
:1041C00080E28093D8001092C9008FE19EE40197AD
:1041D000F1F700C0000087E090EBDC018093C9029A
:1041E0009093CA02A093CB02B093CC0288E19CE0EA
:1041F0000FB6F894A895809360000FBE909360006E
:10420000FFCF0C94580E0E94660D2FEF86E791E0C9
:10421000215080409040E1F700C000000E94660DF0
:1042200080E00E94CA0C80FF04C00E9401210C940F
:10423000DD2008950E948B1E811102C00E94281F5C
:104240000E94961E809368020E949E1E9093BB025D
:104250008093BA020E949A1E682F70E090E080E07E
:104260000E94C51B60913B0270913C0280913D020F
:1042700090913E020C94FF1B8091700280FF12C04F
:104280006091070185E0689FB001112475956795DD
:104290007595679560387105A8F561157105A1F1EF
:1042A000862F089581FF09C06091070185E0689F0E
:1042B000B001112475956795EDCF6091070182FDDE
:1042C0000AC080916F028823D1F09091060160911D
:1042D0000701891728F085E0689FB0011124DACF23
:1042E000869FB001112485E0869F9001879F300D45
:1042F0001124692F70E0C9010E949A31CBCF65E08B
:1043000070E0CECF8FE7089581E00895809170022C
:1043100080FF0CC06091030170E0759567957595FD
:1043200067956115710549F1862F089581FF06C0D3
:104330006091030170E075956795F3CF609103017B
:1043400082FD0BC090916E029923A1F06091020151
:1043500080910301961738F0682F70E0603871057E
:1043600000F38FE70895899FC001112470E00E9437
:104370009A31F4CF61E070E0D7CF81E00895803FBB
:1043800031F40E943C218195809374020895813F0D
:1043900019F40E943C21F8CF823F31F40E943C2165
:1043A0008195809373020895833F19F40E943C2104
:1043B000F8CF893F29F40E948621809375020895E1
:1043C0008A3F21F40E9486218195F7CF8B3F31F4FB
:1043D0000E94862181958093760208958C3F19F47E
:1043E0000E948621F8CF843F31F48091720281606F
:1043F000809372020895853F21F480917202826059
:10440000F7CF863F21F4809172028460F1CF873F1D
:1044100021F4809172028860EBCF883F21F4809173
:1044200072028061E5CF8D3F31F48091700281602E
:104430008093700208958E3F21F480917002826013
:10444000F7CF8F3FB9F7809170028460F1CF9091E0
:104450007302803F59F48091740287FF0DC010925F
:10446000740291110BC010926F0208C0813F81F459
:104470008091740218169CF3992381F08091750243
:1044800090917602892B09F064C010926E02089513
:10449000823F49F497FFF0CF10927302809174022B
:1044A0008111ECCFE0CF833F19F41916ACF3E4CFC0
:1044B00020917502893F29F41216F4F610927502C4
:1044C000DBCF8A3F19F427FFD7CFF8CF20917602B0
:1044D0008B3F29F427FFD0CF10927602CDCF8C3FAF
:1044E00019F41216CCF3C8CF843F31F480917202D4
:1044F0008E7F80937202C0CF853F21F4809172023B
:104500008D7FF7CF863F21F4809172028B7FF1CFB0
:10451000873F21F480917202877FEBCF883F21F49F
:10452000809172028F7EE5CF8D3F31F480917002D1
:104530008E7F80937002A0CF8E3F21F48091700215
:104540008D7FF7CF8F3F09F097CF809170028B7FDF
:10455000F0CF08958091680283FF7EC08DEF94E0D4
:104560000E943608809172021F928F9388EF94E028
:104570009F938F930E94CF0886EF94E00E943608A5
:1045800080917302282F082E000C330B3F938F93DA
:1045900083EF94E09F938F930E94CF0881EF94E084
:1045A0000E94360880917402282F082E000C330BCD
:1045B0003F938F938EEE94E09F938F930E94CF084A
:1045C0008CEE94E00E94360880917502282F082E08
:1045D000000C330B3F938F9389EE94E09F938F935E
:1045E0000E94CF0887EE94E00E9436088091760200
:1045F000282F082E000C330B3F938F9384EE94E00A
:104600009F938F930E94CF0881EE94E00E9436081A
:1046100080916F021F928F938EED94E09F938F9302
:104620000E94CF088CED94E00E94360880917002C1
:104630001F928F9389ED94E09F938F930E94CF08F0
:1046400086ED94E00E9436088DB79EB74C960FB663
:10465000F8949EBF0FBE8DBF0E9492209C01909146
:10466000730280917402982B21F030936D02209395
:104670006C029091750280917602982B21F0309314
:104680006B0220936A0281E792E00C94A813EF92E8
:10469000FF920F931F93CF93DF9300D000D000D0F1
:1046A000CDB7DEB786E0E1E7F2E0DE0111960190DA
:1046B0000D928A95E1F7E0907302F09074020091F8
:1046C0007502109176021092730210927402109289
:1046D0007502109276028E2D8F2991F080916C02D6
:1046E00090916D020E94AA20AC0190916F029923D3
:1046F00009F43FC0809108018417150608F447C0EB
:10470000802F812B91F080916A0290916B020E9420
:10471000AA20AC0190916E02992309F477C0809190
:1047200004018417150608F47FC0809173029091EC
:104730007402892B90917502892B90917602892BB6
:1047400011F00E94AA2286E0FE013196A1E7B2E0B4
:1047500001900D928A95E1F726960FB6F894DEBF88
:104760000FBECDBFDF91CF911F910F91FF90EF90C2
:104770000895209109018AE0289F900111242417AF
:10478000350708F0BDCF9F5F90936F0202C09F3F37
:10479000D1F7EE2059F00E943C219FEF1E140CF43B
:1047A00091E0899F802D112480937302FF2059F09E
:1047B0000E943C219FEF1F140CF491E0899F802DF3
:1047C00011248093740230917302332309F498CF3B
:1047D00020917402222309F493CF45EB3403C001E6
:1047E0001124992359F09093730245EB240390010F
:1047F0001124332339F03093740282CF81E0809307
:104800007302F3CF81E0809374027ACF2091050187
:104810008AE0289F900111242417350708F085CFDE
:104820009F5F90936E0202C09F3FD1F7002359F023
:104830000E9486219FEF10160CF491E0899F802D35
:10484000112480937502112359F00E9486219FEF55
:1048500011160CF491E0899F802D1124809376022B
:1048600030917502332309F460CF20917602222320
:1048700009F45BCF45EB3403C0011124992359F0AF
:104880009093750245EB240390011124332339F0F2
:10489000309376024ACF81E080937502F3CF81E0B6
:1048A0008093760242CF86E0E1E7F2E0DF011D92DD
:1048B0008A95E9F710926F0210926E0210927002C0
:1048C000089580E297E00E9436081F9281E08F935E
:1048D0001F9285E08F9382ED96E09F938F930E94C5
:1048E000CF080F900F900F900F900F900F9008959A
:1048F000833009F445C028F4813061F0823049F1F9
:104900000895853009F46AC008F451C0863009F46E
:104910007CC0089580910901482F460F5527551FE7
:104920004F3F510594F4680F60930901809109018C
:104930001F928F938BE096E09F938F930E94CF08F6
:104940000F900F900F900F9008958FEF80930901B3
:10495000EDCF80910801482F460F5527551F4F3F37
:10496000510554F4680F60930801809108011F926B
:104970008F9389EF95E0E0CF8FEF80930801F5CF1B
:1049800080910701482F460F5527551F4F3F51056E
:1049900054F4680F60930701809107011F928F9371
:1049A00086EE95E0C9CF8FEF80930701F5CF809118
:1049B0000601482F460F5527551F4F3F510554F408
:1049C000680F60930601809106011F928F9381ED1D
:1049D00095E0B2CF8FEF80930601F5CF8091030170
:1049E000482F460F5527551F4F3F510554F4680F68
:1049F00060930301809103011F928F9388EB95E0F0
:104A00009BCF8FEF80930301F5CF80910201482F58
:104A1000460F5527551F4F3F510554F4680F6093BB
:104A20000201809102011F928F938DE995E084CF5E
:104A30008FEF80930201F5CF8330C9F128F48130E4
:104A400061F0823019F10895853009F452C008F4FC
:104A50003FC0863009F45EC008958091090168174F
:104A600090F4861B80930901809109011F928F9316
:104A70008EE895E09F938F930E94CF080F900F9040
:104A80000F900F90089510920901EECF80910801C8
:104A9000681750F4861B80930801809108011F92CB
:104AA0008F938CE795E0E6CF10920801F6CF8091C6
:104AB0000701681750F4861B809307018091070156
:104AC0001F928F9389E695E0D5CF10920701F6CF1C
:104AD00080910601681750F4861B8093060180912F
:104AE00006011F928F9384E595E0C4CF10920601D2
:104AF000F6CF80910301681750F4861B8093030161
:104B0000809103011F928F938BE395E0B3CF1092B6
:104B10000301F6CF80910201681750F4861B809341
:104B20000201809102011F928F9380E295E0A2CF53
:104B300010920201F6CFCF93C82F1F928F9385E278
:104B400098E09F938F930E94CF0861E070E080E02F
:104B500090E004C0660F771F881F991FCA95D2F78F
:104B60000E94C51B0F900F900F900F90CF910C9447
:104B70002A18CF93DF93EBEFE80FEF3308F040C232
:104B8000F0E0EC5BFD4C0C94AE3180E99DE00E94BE
:104B900036088CEC9CE00E9436080E949A1E1F92F8
:104BA0008F9389EC9CE09F938F930E94CF0887ECB2
:104BB0009CE00E9436080E94961EC82F84EB9CE061
:104BC0000E9436081F92CF938FEA9CE09F938F93A9
:104BD0000E94CF088DEA9CE00E94360883EA9CE0A0
:104BE0000E9436088C2F81701F928F9380EA9CE080
:104BF0009F938F930E94CF088EE99CE00E94360815
:104C000084E99CE00E943608C1FB882780F91F9246
:104C10008F9381E99CE09F938F930E94CF088FE848
:104C20009CE00E94360883E89CE00E943608C2FBA4
:104C3000882780F91F928F9380E89CE09F938F9341
:104C40000E94CF088EE79CE00E94360885E79CE032
:104C50000E943608C3FBCC27C0F91F92CF9382E78E
:104C60009CE09F938F930E94CF0880E79CE00E9476
:104C700036080E949E1EEC018CE59CE00E943608DE
:104C8000DF93CF9387E59CE09F938F930E94CF089B
:104C900085E59CE00E9436088CE39CE00E94360883
:104CA0008C2F81701F928F9389E39CE09F938F9349
:104CB0000E94CF088DB79EB780960FB6F8949EBF1E
:104CC0000FBE8DBF87E39CE00E94360880E29CE027
:104CD0000E943608C1FB882780F91F928F938DE1CF
:104CE0009CE09F938F930E94CF088BE19CE00E94F1
:104CF000360889E09CE00E9436088D2F81701F9253
:104D00008F9386E09CE09F938F930E94CF0884E06E
:104D10009CE00E94360882EF9BE00E943608D69500
:104D2000D1701F92DF938FEE9BE09F938F930E9431
:104D3000CF088DEE9BE00E9436088BED9BE00E9431
:104D40003608C2FB882780F91F928F9388ED9BE07D
:104D50009F938F930E94CF0886ED9BE00E943608B8
:104D600084EC9BE00E943608C3FB882780F91F92E1
:104D70008F9381EC9BE09F938F930E94CF088FEBE2
:104D80009BE00E94360885EB9BE00E943608C4FB3E
:104D9000882780F91F928F9382EB9BE09F938F93DC
:104DA0000E94CF0880EB9BE00E9436088EE99BE0D2
:104DB0000E943608C5FB882780F91F928F938BE9E4
:104DC0009BE09F938F930E94CF0889E99BE00E940C
:104DD00036088DE79BE00E943608C6FB882780F9DD
:104DE0001F928F938AE79BE09F938F930E94CF0837
:104DF0008DB79EB780960FB6F8949EBF0FBE8DBF3D
:104E000088E79BE00E94360880E79BE00E94360816
:104E1000C7FBCC27C0F91F92CF938DE69BE09F93F1
:104E20008F930E94CF088BE69BE00E9436080F907C
:104E30000F900F900F9081E01CC08FE79DE00E94C3
:104E400036080E94281FF7CF89EB99E00E943608A8
:104E5000F2CF80916802807F8093680282E999E0B6
:104E60000E9436088BE79DE00E94360881E080931F
:104E70007802DF91CF9108958FE59DE00E9436087A
:104E80000E946A0AD8CF90916802892F8E7F90FF86
:104E900081608093680280FF03C083E59DE0D6CFE8
:104EA00086E49DE00E94360880916802817F8093AD
:104EB0006802C1CF90916802892F8D7F91FF826037
:104EC0008093680281FF08C089E39DE00E94360854
:104ED000809168028160EBCF8BE29DE0B7CF90912B
:104EE0006802892F8B7F92FF84608093680282FF23
:104EF00003C08CE19DE0EACF8CE09DE0A7CF9091CC
:104F00006802892F877F93FF88608093680283FF00
:104F100003C080E09DE0DACF83EF9CE097CF83E889
:104F200099E00E9436088BE499E00E94360881E1FE
:104F300099E00E94360886ED98E00E9436088BEAD8
:104F400098E084CF8DE998E00E9436080E944113D2
:104F50001F928F9383E898E09F938F930E94CF08CE
:104F6000809114011F928F938CE698E09F938F930A
:104F70000E94CF0880919D021F928F9389E598E04F
:104F80009F938F930E94CF088091BA0287FB882756
:104F900080F91F928F9381E498E09F938F930E94F2
:104FA000CF080E949E209F938F937F936F938AE2F6
:104FB00098E09F938F930E94CF088DB79EB7469637
:104FC0000FB6F8949EBF0FBE8DBF35CF0E942A1832
:104FD0009091BA02892F97FB87F980588093BA0283
:104FE00087FF03C089EE9CE031CF8EED9CE02ECF91
:104FF00080E00E949B251FCF8953FBCF8D51F9CFB5
:105000008CED9CE00E94360880E033CF80E008956C
:105010000C9406288E518A3030F4E82FF0E0E457E3
:10502000FE4F8081089580E00895CF93C82F80912E
:1050300078028130D9F0882339F0823009F44DC0EC
:105040001092780280E010C0E0910001F09101011F
:1050500080818232B9F78C2F0E94062881111EC0F0
:105060008C2F0E94B9258170CF910895E0910001A5
:10507000F09101018081823271F38C2F0E94082807
:1050800081111BC0C431D9F060F4CB3071F0C03154
:10509000D1F08BE198E00E94360813C081E090E0E7
:1050A000E2CFC93261F0C833A1F782E999E00E94EA
:1050B000360881E298E00E94360881E0D4CF109251
:1050C000780280E0D0CF0E9461248DE198E00E94B8
:1050D000360882E080937802F0CFC432C8F4CE3133
:1050E00008F0BEC0CB30E1F040F4C73009F4CCC0CA
:1050F0008FEB96E00E94360826C0C331C1F1C4315F
:10510000B9F780917702882351F1109277020AC093
:10511000CB3409F4B7C0C8F4C93299F3C83341F7A6
:105120000E94612480917702882309F4C4C01F92F1
:105130008F9389EB96E09F938F930E94CF080F90F7
:105140000F900F900F9081E08FCFC13509F494C07C
:10515000C23509F48BC0CE3459F66AE08EC08EECAD
:1051600096E00E94360881E0809378027DCF88EA3D
:1051700096E00E94360886E996E00E943608809103
:1051800009011F928F9383E996E09F938F930E946A
:10519000CF0881E996E00E9436088FE796E00E94EA
:1051A0003608809108011F928F938CE796E09F93B9
:1051B0008F930E94CF088AE796E00E9436088BE61C
:1051C00096E00E943608809107011F928F9388E62F
:1051D00096E09F938F930E94CF0886E696E00E9408
:1051E000360885E596E00E943608809106011F92F8
:1051F0008F9382E596E09F938F930E94CF0880E57E
:1052000096E00E9436088BE396E00E943608809173
:1052100003011F928F9388E396E09F938F930E94E0
:10522000CF0886E396E00E9436088FE196E00E9460
:105230003608809102011F928F938CE196E09F9334
:105240008F930E94CF088AE196E00E9436088DB7BE
:105250009EB748960FB6F8949EBF0FBE8DBF62CF23
:105260008C2F0E940A28809377025CCF61E08091A6
:1052700077020E94782456CF61E0809177020E94E5
:105280001C2550CF6AE0F3CF8EE18093090182E3C1
:10529000809308018AE08093070184E180930601EE
:1052A00088E08093030188E28093020181EC96E01C
:1052B0000E94360837CF86EB96E01CCF80919C0287
:1052C00008959FB7F89410927B029FBF9091C002FF
:1052D000943009F048C02091E9002F703091EC0023
:1052E000932F917030FD90E8922B25E02093E900F8
:1052F0002091EB0020FF34C02091EE0027FF30C04A
:1053000020917902222321F02091E80025FF28C076
:105310001092790226E03091E80035FF14C08093A6
:10532000F1008091E80085FD27C08091E80080FFB2
:10533000FCCF8091E8008E778093E8009F70909377
:10534000E90080E008953091C002343049F4309192
:10535000EB0035FD05C0215041F481E080937902D6
:105360009F709093E9008FEF0895EFE9FFE0319788
:10537000F1F700C00000CFCF8FB7F89421E0209361
:105380007B028FBFDBCFCF93DF9300D00F92CDB7DF
:10539000DEB79091C002943011F589837B836A83D4
:1053A0009093E9008FEF9091E800815095FD06C041
:1053B00095ED9A95F1F700008111F5CF8091E80005
:1053C00085FF0DC050E040E063E070E0CE01019643
:1053D0000E94AF2C8091E8008E778093E8000F90B8
:1053E0000F900F90DF91CF910895BC0184E00C9451
:1053F000C329BC0183E00C94C3299C0184E0809301
:10540000E9009FEF8091E800915085FD06C085ED91
:105410008A95F1F700009111F5CF8091E80085FFA2
:105420000CC050E040E066E070E0C9010E94AF2C83
:105430008091E8008E778093E8000895CF93DF9302
:10544000EC01809114018823B1F18091BA0287FFA9
:1054500032C060E284E08093E9008FEF9091E80031
:10546000815095FD06C095ED9A95F1F700008111E8
:10547000F5CF8091E80085FF1BC08091140170E09A
:1054800050E040E0811104C050E040E068E070E08E
:10549000CE010E94AF2C8091E8008E778093E800C7
:1054A00080E2FE01ACE7B2E001900D928A95E1F74F
:1054B000DF91CF91089568E081E0CDCFCF93FC01DB
:1054C000603221F58091C002843001F5C091E9007D
:1054D000CF702091EC00922F917020FD90E8C92BA5
:1054E00082E08093E9008091E80080FF0CC050E0EA
:1054F00040E060E270E0CF010E94AF2C8091E800B4
:105500008E778093E800CF70C093E900CF91089523
:1055100080EC9DE00E9436088091BF02811109C095
:105520000E948E2E0E94EB2E8091E2008460809378
:10553000E20008958CEB9DE00E9436081092BF02B5
:10554000089588EB9DE00C94360884EB9DE00C9464
:10555000360880EB9DE00E9436080C945A2020917A
:105560007A022F5F822F62E30E948E31992319F015
:1055700020937A02089510927A0280917B02882308
:10558000F1F08091C0028430C1F49091E9009F70E5
:105590002091EC00822F817020FD80E8892B95E01E
:1055A0009093E9009091EB0090FF04C09091EE0081
:1055B00097FD08C08F708093E90010927B020895D8
:1055C0001092F1009091E80095FDFACF9091E800DB
:1055D00090FFF0CF9091E8009E779093E800EACF9B
:1055E00042E061EC81E00E940A2E42E261EC84E03C
:1055F0000E940A2E42E261EC82E00E940A2E42E200
:1056000060EC83E00E940A2E42E261EC85E00C949B
:105610000A2E8091C202833009F461C030F48130D7
:10562000D1F1823009F49DC008958A3009F489C00F
:105630008B3009F46FC0893009F050C08091C102ED
:10564000813209F04BC08091C5029091C60200974B
:1056500019F0029709F042C08091E800877F80939B
:10566000E8008091E80082FF35C09091F3008091BE
:10567000F200029729F48091F1008B7F813021F4B0
:105680008091F10080939C028091E8008B77809359
:10569000E8000C943E2E8091C102813AF9F4809189
:1056A000E800877F8093E8008091C5029091C60250
:1056B000892B61F460E28CE792E070E00E944D2D4E
:1056C0008091E8008B778093E800089560E090E097
:1056D00080E0F3CF8091C0028111C3CF0895809103
:1056E000C102813AD9F78091C5029091C602892BF7
:1056F000A9F78091E800877F8093E8008091E80017
:1057000080FFFCCF809114018093F1008091E8002C
:105710008E77BDCF8091C102813201F78091C502A1
:105720009091C602892BD1F68091E800877F809303
:10573000E8000E943E2E8091C302809314010C94D5
:105740002A188091C102813249F68091E800877F52
:105750008093E8000E943E2E8091C40280939D02B7
:1057600008958091C102813A09F0B8CF8091E80094
:10577000877F8093E8008091E80080FFFCCF8091D4
:105780009D02C2CFCDB7DEB7A0970FB6F894DEBFAB
:105790000FBECDBF84B7877F84BF0FB6F894A8959E
:1057A00080916000886180936000109260000FBE5D
:1057B00080E890E00FB6F8948093610090936100C8
:1057C0000FBE0E94ED130E948E2E0E94EB2E809140
:1057D000E20084608093E20081E699E20E945B1E11
:1057E00078940E9473310E94F7138AE091E00E943E
:1057F0003C138FE99DE00E94360813E08091C002BF
:10580000853039F10E9434148091C0028430B1F7A0
:105810001093E9008091E80082FFF0CF8091E800CA
:1058200090E085FF09C050E040E060E270E0CE010A
:1058300001960E94FE2C91E08091E8008B77809386
:10584000E8009923D9F260E2CE0101960E94BA0ED7
:10585000D5CF8BE99DE00E9436080E9411208091EF
:10586000BE02882359F20E944220882339F20E9406
:10587000992CC4CF0C943C2C292F3327233031058D
:1058800021F168F42130310509F449C02230310595
:1058900009F44AC090E080E030E020E029C02132E5
:1058A000310581F122323105A9F76430710590F795
:1058B000FB01EE0FFF1FE656FE4F208131816A5635
:1058C0007E4FFB01808190E013C0992781309105C4
:1058D00099F0009741F08230910589F00397D1F655
:1058E000E4ECFDE002C0E0EFFDE0849190E09F0178
:1058F000FA01318320830895E2EEFDE0F6CFEAEC71
:10590000FDE0F3CF6430710528F6660F771FFB01C9
:10591000EE55FE4F2081318189E090E0E9CF82E1B0
:1059200090E02FE63EE0E4CF8BE790E024EF3DE00F
:10593000DFCF80E189BD82E189BD09B400FEFDCFE2
:105940008091D8008F7D8093D8008091E0008260A4
:105950008093E0008091E00081FDFCCF0895AF923C
:10596000BF92CF92DF92FF920F931F93CF93DF935B
:105970006C01EB018A010E945D2EF82E811123C07B
:105980000115110539F0F80180819181C81BD90BEF
:10599000C80ED91EB12CA12C2097A9F08091E80047
:1059A00085FD22C08091E8008E778093E800011584
:1059B0001105A1F0F80180819181A80EB91EB18274
:1059C000A08285E0F82E8F2DDF91CF911F910F914E
:1059D000FF90DF90CF90BF90AF9008950E945D2E12
:1059E0008823D1F2F82EEFCFF60181916F018093D9
:1059F000F1002197FFEFAF1ABF0ACECFAF92BF924F
:105A0000CF92DF92FF920F931F93CF93DF936C019E
:105A1000EB018A010E945D2EF82E811123C0011531
:105A2000110539F0F80180819181C81BD90BC80E8E
:105A3000D91EB12CA12C2097A9F08091E80085FDFA
:105A400022C08091E8008B778093E8000115110552
:105A5000A1F0F80180819181A80EB91EB182A082C7
:105A600085E0F82E8F2DDF91CF911F910F91FF9040
:105A7000DF90CF90BF90AF9008950E945D2E882355
:105A8000D1F2F82EEFCF8091F100F60181936F01F2
:105A90002197FFEFAF1ABF0ACECFFC018091C7025A
:105AA0009091C80286179707A0F06115710529F437
:105AB0009091E8009E779093E80090E06115710561
:105AC00051F4911108C08091E80082FF34C080E059
:105AD0000895BC01F2CF8091C0028823C1F18530C6
