:100000000C94DB070C9422080C9422080C94220810
:100010000C9422080C9422080C9422080C942208B8
:100020000C9422080C9422080C9469300C943D31F5
:100030000C94C2210C9422080C9422080C942208DF
:100040000C9422080C9422080C9422080C94220888
:100050000C9422080C9419220C9422080C94220867
:100060000C9422080C9422080C9422080C94220868
:100070000C9422080C9422080C9422080C94220858
:100080000C9422080C9422080C9422080C94220848
:100090000C9422080C9422080C9422080C94220838
:1000A0000C9422080C9422080C94220829003A008F
:1000B0003B003C003D003E003F004000410042004C
:1000C0004300440045006800460035001E001F0044
:1000D0002000210022002300240025002600270004
:1000E0002D002E002A0047002B0014001A000800E3
:1000F000150017001C0018000C00120013002F0040
:1001000030003100480039000400160007000900E3
:100110000A000B000D000E000F0033003400280011
:1001200049004A00E1001D001B00060019000500FF
:1001300011001000360037003800E5004B004C007D
:100140004D00E000E300E20000002C000000000091
:10015000E600E70001514E005200500051004F00F0
:100160000100010001000100010001000100010087
:100170000100010001000100010001000100010077
:100180000100010001000100010001000100010067
:100190000100010001000100010001000100010057
:1001A0000100010001000100010001000100010047
:1001B0000100010001000100010001000100010037
:1001C0000100010001000100010001000100010027
:1001D0000100010001000100010001000100010017
:1001E0000100010001000100010001000100010007
:1001F0000100005C0100010001000100000001009D
:1002000000000000010001000100010001000100E8
:1002100001000100010001000100010001000100D6
:1002200001000100010001000100010001000100C6
:1002300001000100010001000100010001000100B6
:1002400001000100010001000100010001000100A6
:100250000100010001000100010001000100010096
:100260000100010001000100010001000100010086
:100270000100010001000100010001000100010076
:100280000100010001000100010001000100010066
:100290000100010001000100010001000100010056
:1002A0000100010001000100010001000100010046
:1002B0000000010000000000010001000100010039
:1002C0000100010001000100010001000100010026
:1002D0000100010001000100010001000100010016
:1002E0000100010001000100010001000100010006
:1002F00001000100010001000100010001000100F6
:1003000001000100010001000100010001000100E5
:1003100001000100010001000100010001000100D5
:1003200001000100010001000100010001000100C5
:1003300001000100010001000100010001000100B5
:1003400001000100010001000100010001000100A5
:100350000100010001000100010001000100010095
:100360000100010000000100000000000100010088
:100370000100010001000100010001004445425557
:10038000473A2064697361626C65642E0A004445D3
:100390004255473A20656E61626C65642E0A000022
:1003A000000000000000002A2B28000000000000D0
:1003B0000000000000000000000029000000002CE8
:1003C0001E3420212224342627252E362D37382787
:1003D0001E1F202122232425263333362E37381F93
:1003E0000405060708090A0B0C0D0E0F1011121355
:1003F0001415161718191A1B1C1D2F3130232D35F3
:100400000405060708090A0B0C0D0E0F1011121334
:100410001415161718191A1B1C1D2F3130354C00D6
:1004200000000000000000000000000000000000CC
:100430000000007E0F00D4FFFFFFC7000000780A15
:10044000002530313662003A200025303258000A4B
:10045000722F6320303132333435363738394142E8
:10046000434445460A000A002530325820006B6597
:1004700079626F6172645F7265706F72743A2000A6
:100480000A0025303258006B6579626F6172645FD3
:100490007365745F6C65643A200064656C5F6B65BE
:1004A000795F6269743A2063616E27742064656CB9
:1004B0003A20253032580A006164645F6B65795FC9
:1004C0006269743A2063616E2774206164643A2023
:1004D000253032580A00290A002575002F0025759D
:1004E000005D2800256400200025640020002564AC
:1004F0000020002564007C0025303258006D6F75A7
:1005000073656B6579205B62746E7C7820792076E8
:1005100020685D287265702F61636C293A205B004A
:100520006D6B5F776865656C5F74696D655F746F2F
:100530005F6D6178203D2025640A006D6B5F7768F0
:1005400065656C5F6D61785F7370656564203D20E3
:1005500025640A006D6B5F74696D655F746F5F6D14
:100560006178203D2025640A006D6B5F6D61785FC6
:100570007370656564203D2025640A006D6B5F69BA
:100580006E74657276616C203D2025640A006D6B87
:100590005F64656C6179203D2025640A006D6B5FA6
:1005A000776865656C5F74696D655F746F5F6D61B9
:1005B00078203D2025640A006D6B5F776865656C67
:1005C0005F6D61785F7370656564203D2025640A06
:1005D000006D6B5F74696D655F746F5F6D6178202E
:1005E0003D2025640A006D6B5F6D61785F737065F7
:1005F0006564203D2025640A006D6B5F696E74653B
:100600007276616C203D2025640A006D6B5F646525
:100610006C6179203D2025640A000A0025750036AA
:100620003A20776865656C5F74696D655F746F5FAC
:100630006D61783A20000A00257500353A20776808
:1006400065656C5F6D61785F73706565643A200005
:100650000A00257500343A2074696D655F746F5F18
:100660006D61783A20000A00257500333A206D61EB
:10067000785F73706565643A20000A002575003262
:100680003A20696E74657276616C286D73293A2020
:10069000000A00257500313A2064656C6179282ACA
:1006A00031306D73293A20000A092D2056616C758E
:1006B0006573202D0A004D3E004D25643E20003F0D
:1006C000007365742064656661756C740A00433E4E
:1006D000200077686572652064656C74613A2063F8
:1006E0007572736F723D25642C20776865656C3D6B
:1006F00025640A53656520687474703A2F2F656EFF
:100700002E77696B6970656469612E6F72672F77E8
:10071000696B692F4D6F7573655F6B6579730A003F
:100720000A092D204D6F7573656B6579202D0A457B
:1007300053432F713A09717569740A313A09646536
:100740006C6179282A31306D73290A323A09696E51
:1007500074657276616C286D73290A333A096D618C
:10076000785F73706565640A343A0974696D655F12
:10077000746F5F6D61780A353A09776865656C5FFB
:100780006D61785F73706565640A363A09776865EC
:10079000656C5F74696D655F746F5F6D61780A0A7F
:1007A000703A097072696E742076616C7565730AAF
:1007B000643A097365742064656661756C74730AC4
:1007C00075703A092B310A646F776E3A092D310A38
:1007D000706775703A092B31300A7067646F776EF5
:1007E0003A092D31300A0A7370656564203D206432
:1007F000656C7461202A206D61785F737065656433
:10080000202A2028726570656174202F2074696D1C
:10081000655F746F5F6D6178290A003F004D3E206F
:1008200000433E20004C25640A0074696D65725FC8
:1008300072656164333228293A202530346C580AB5
:10084000006B65796D61705F636F6E6669672E6EB0
:100850006B726F3A2025580A006B6579626F61727E
:10086000645F69646C653A2025580A006B6579629B
:100870006F6172645F70726F746F636F6C3A202582
:10088000580A00686F73745F6B6579626F61726498
:100890005F6C65647328293A2025580A000A092DDF
:1008A00020537461747573202D0A004743433A2026
:1008B000382E342E30204156522D4C4942433A2096
:1008C000322E302E30204156525F415243483A205A
:1008D000617672350A004F5054494F4E533A204CBE
:1008E000554641204D4F5553454B45592045585489
:1008F00052414B455920434F4E534F4C4520434F97
:100900004D4D414E44204E4B524F20343039360A23
:10091000004255494C443A2022302E31302E333695
:100920002D31312D673635323963622D6469727429
:100930007922202832303A34323A3031204465630B
:100940002032372032303231290A005649443A20C9
:10095000307834463533284F774C6162292050492E
:10096000443A20307835333535285355495438309A
:1009700029205645523A203078303030310A000A6A
:10098000092D2056657273696F6E202D0A000A09C1
:100990002D20436F6E736F6C65202D0A4553432FD6
:1009A000713A09717569740A6D3A096D6F757365ED
:1009B0006B65790A000A092D204D61676963202D56
:1009C0000A443A094465627567204D65737361672F
:1009D0006520546F67676C650A583A094D617472F7
:1009E0006978204465627567204D6F646520546F97
:1009F00067676C65202D2053686F77206B65797071
:100A000072657373657320696E206D6174726978A5
:100A100020677269640A4B3A094B6579626F6172AB
:100A20006420446562756720546F67676C65202D8C
:100A30002053686F77206B657970726573732072CD
:100A400065706F72740A4D3A094465627567204D8E
:100A50006F75736520546F67676C650A563A09565F
:100A6000657273696F6E0A533A09537461747573D2
:100A70000A433A09416374697661746520436F6E75
:100A8000736F6C65204D6F64650A46312D463130B9
:100A90003A0953776974636820746F204C617965F3
:100AA0007220302D392028463130203D204C30290D
:100AB0000A302D393A0953776974636820746F20BE
:100AC0004C6179657220302D390A47524156453ABA
:100AD0000953776974636820746F204C617965727B
:100AE00020302028616C7465726E617465290A4239
:100AF0003A094A756D7020746F20426F6F746C6F85
:100B0000616465720A4553433A094A756D702074F1
:100B10006F20426F6F746C6F616465722028616C26
:100B20007465726E617465290A453A095072696E7E
:100B30007420454550524F4D2053657474696E675B
:100B4000730A4253504143453A09436C6561722030
:100B5000454550524F4D0A4E3A094E4B524F205484
:100B60006F67676C650A000A002575002E6E6B7250
:100B70006F3A20000A002575002E737761705F625E
:100B800061636B736C6173685F6261636B737061E7
:100B900063653A20000A002575002E737761705F47
:100BA00067726176655F6573633A20000A00257598
:100BB000002E6E6F5F6775693A20000A0025750088
:100BC0002E737761705F72616C745F726775693ADA
:100BD00020000A002575002E737761705F6C616CD0
:100BE000745F6C6775693A20000A002575002E73E2
:100BF0007761705F7263746C5F726775693A200029
:100C00000A002575002E737761705F6C63746C5FEA
:100C10006C6775693A20000A002575002E636170C3
:100C2000736C6F636B5F746F5F636F6E74726F6C06
:100C30003A20000A002575002E737761705F636F9C
:100C40006E74726F6C5F636170736C6F636B3A206C
:100C5000000A0025303258006B65796D61705F6362
:100C60006F6E6669672E7261773A20000A002575FB
:100C7000002E6D6F7573653A20000A002575002EF1
:100C80006B6579626F6172643A20000A0025750015
:100C90002E6D61747269783A20000A002575002E65
:100CA000656E61626C653A20000A0025303258009A
:100CB00064656275675F636F6E6669672E726177E0
:100CC0003A20000A0025750064656661756C745FE2
:100CD0006C617965723A20003F004E4B524F3A20CA
:100CE0006F66660A004E4B524F3A206F6E0A000A3A
:100CF0006D6F7573653A206F66660A000A6D6F75D1
:100D000073653A206F6E0A000A6B6579626F6172D3
:100D1000643A206F66660A000A6B6579626F6172D9
:100D2000643A206F6E0A000A6D61747269783A2025
:100D30006F66660A000A6D61747269783A206F6E98
:100D40000A000A64656275673A206F66660A000ADF
:100D500064656275673A206F6E0A000A0A4A756D0B
:100D600070696E6720746F20626F6F746C6F61645E
:100D700065722E2E2E2000433E2000436C6561726A
:100D8000696E6720454550524F4D0A006565636F97
:100D90006E6669673A0A005B735D004B6579626F46
:100DA0006172642073746172742E0A005B575D0077
:100DB0005B535D005B525D005B445D005B435D0027
:100DC0000403300000000E03530055004900540096
:100DD0003800300000000C034F0077004C00610029
:100DE000620000000403090409027B00040100A062
:100DF000FA090400000103010100092111010001A9
:100E00002240000705810308000A090401000203CB
:100E100000000009211101000122220007058203C0
:100E2000200001070503032000010904020001035B
:100E300000000009211101000122BC000705840304
:100E400020000A0904030002030000000921110127
:100E50000001222200070585032000010705050384
:100E60002000011201100100000008534F555301EA
:100E700000010203010631FF0974A1010975150083
:100E800026FF009520750881020976150026FF00CF
:100E9000952075089102C00660FF0961A1010962F1
:100EA000150026FF009520750881020963150026AC
:100EB000FF00952075089102C005010902A1018576
:100EC000020901A10005091901290515002501954F
:100ED000057501810295017503810105010930093C
:100EE000311581257F950275088106093815812500
:100EF0007F950175088106050C0A38021581257F4A
:100F0000950175088106C0C005010980A10185030E
:100F100019012AB700150126B70095017510810047
:100F2000C0050C0901A101850419012AA0021501BF
:100F300026A002950175108100C005010906A101D6
:100F40008505050719E029E71500250195087501B4
:100F500081020507190029EF1500250195F075019B
:100F60008102050819012905950575019102950170
:100F700075039101C005010906A101050719E029C2
:100F8000E715002501950875018102950175088115
:100F9000010507190029FF150026FF0095067508B1
:100FA0008100050819012905950575019102950132
:100FB00075039101C00011241FBECFEFDAE0DEBF40
:100FC000CDBF04B603FE27C08091CD029091CE0222
:100FD000A091CF02B091D0028730904BA740B04B88
:100FE000D1F41092CD021092CE021092CF02109244
:100FF000D00214BE84B7877F84BF0FB6F894A8953B
:1010000080916000886180936000109260000FBE44
:10101000E0E0F8E3099511E0A0E0B1E0EAEDF7E6E1
:1010200002C005900D92AC3AB107D9F722E0ACEAC4
:10103000B1E001C01D92AD3CB207E1F70E94222D44
:101040000C9471330C940000FF93EF93E091AC018A
:10105000F091AD01309709F00995EF91FF91089556
:10106000FC018591803011F0EFDFFBCF0895FF2761
:10107000E0E230E247FF0CC0419597FF09C0EDE286
:101080006095709580959095611D711D811D911DD4
:1010900027FF02C0219530E350E2AA27660F771F91
:1010A000881F991FAA1FA41710F0A41B63955A95B7
:1010B000A9F7AA3008F0A95FA05DAF93F395611579
:1010C00071058105910541F7ED3211F4EF93F39528
:1010D000F21718F43F93F395FBCF8F91B5DFFA9594
:1010E000E1F70895E991F9918591803021F08532F9
:1010F00019F0AADFF9CF089520E0E8945591553210
:10110000C1F3503311F4689455915A3348F4505355
:1011100090F3220F022E220F220F200D250FF4CF65
:101120000EF4219589919991533619F3533729F18A
:10113000533559F1BC0188279927E8945C3621F48E
:101140008991999168945591543639F446EF7EF01F
:1011500077FF0DC08FEF9FEF0AC055374AE039F097
:10116000583540E121F0523642E009F00895FF93EE
:10117000EF937DDFEF91FF91B7CFFF93EF93FC01EA
:1011800081918030B9F360DFFBCFFF93EF9368DF8D
:10119000F1CFDF93CF93CDB7DEB72596A3DFCF9105
:1011A000DF9108950C94590A0C94DF080C94DE0822
:1011B00008950C94E10890E080E00895089581E09E
:1011C0000895089581E0089508950C94E4081F930C
:1011D000CF93DF9300D000D00F92CDB7DEB7498315
:1011E0005A836B833091CA0189819A8131111DC064
:1011F0006623B9F02223A9F00E94741E182F682FCD
:1012000089819A810E94201E69817A81812F0F90A5
:101210000F900F900F900F90DF91CF911F910C9432
:101220004D100E944C1E182FEFCF0E94741E698132
:101230007A81EDCFFC01262F40815181628173813B
:1012400084810C94E708CF93DF93EC0160E00E9467
:101250001A09BE01DF91CF910C94E508FF920F931C
:101260001F93CF93DF93E82FF0E0E156FC4FF4900B
:10127000C82FC695C695C695D0E0FE01E15DFB4F2F
:101280000491877010E0082E02C0159507950A9406
:10129000E2F701701127C15EDB4FFE01C491D0E07F
:1012A00002C0D595C7958A95E2F7C170DD27011573
:1012B000110519F081EE0E946D16209719F086EE47
:1012C0000E946D168F2D0E94EF16CD2B19F086EE21
:1012D0000E94C016012B41F081EEDF91CF911F914A
:1012E0000F91FF900C94C016DF91CF911F910F9139
:1012F000FF900895EF92FF920F931F93CF93DF9388
:10130000EC01162F0AE08881882309F454C081304B
:1013100009F04EC08981813099F47E0122E0E20E0D
:10132000F11C8A810E94EF16E7012196812F8150DE
:1013300050F3EFE9FFE03197F1F700C00000F7CF7D
:10134000823041F47E0182E0E80EF11C8A810E9425
:101350006D16EACF833041F47E01E2E0EE0EF11C1F
:101360008A810E94C016E0CF843011F02196DDCF33
:101370002A81229690E080E0AE014F5F5F4F2053BC
:10138000330B2A30310548F0019778F2EFE9FFE09E
:101390003197F1F700C00000F7CF089FB001099F17
:1013A000700D1124C901860F971F2981EA01E4CF2E
:1013B0000E942E09BACFDF91CF911F910F91FF901C
:1013C000EF90089560E00C947A098F929F92AF920B
:1013D000BF92CF92DF92EF92FF920F931F936B0118
:1013E0007C0181E090E0A0E0B0E04C015D0104C030
:1013F000880C991CAA1CBB1C4A95D2F7B501A40104
:101400004C015D0104C0880C991CAA1CBB1C2A95C8
:10141000D2F7482959296A297B2904C0880F991FC6
:10142000AA1FBB1F0A95D2F78A019B010C211D211F
:101430002E213F21041715072607370789F48C2929
:101440009D29AE29BF29BC01CD011F910F91FF90AD
:10145000EF90DF90CF90BF90AF909F908F900895C6
:1014600080959095A095B0958C219D21AE21BF21AE
:10147000EACF0F93382F262F60913F0270914002E0
:101480008091410290914202042F432F0E94E5096E
:101490000F910C945E1D0E9463220E94EB1F81112C
:1014A00002C00E9488200C94D6080E9442140C941A
:1014B000D908089581E008950C945A0ACF93C82F53
:1014C0000E94D2088C2FCF910C945C0A08950E9440
:1014D00087190E94660A2FEF84E39CE02150804028
:1014E0009040E1F700C000000C943D220F931F9341
:1014F000CF93DF93EC0161E00E941A098C01BE01D9
:101500000E94A213BE01C8010E94840E882371F1BB
:10151000BE01C8010E94D408882341F1BE01C80160
:101520000E94E813882311F1BE01C8010E94A31193
:101530008823E1F0BE01C8010E94F5118823B1F0B3
:10154000BE01C8010E941813882381F08A81882374
:1015500041F101308CE5180779F00E3D8CE5180754
:10156000E9F001151C45E9F40E94670A80E0DF916B
:10157000CF911F910F91089590916C02892F8E7FCA
:1015800090FF816080936C0280FF05C08EE893E03D
:101590000E943008EBCF8CE793E0FACF0E948820BE
:1015A000E5CFCE01DF91CF911F910F910C94E2080E
:1015B0000895FC01EE0FFF1FE15CFB4F85919491B4
:1015C0000895CF93DF930E944D100E94F60BEC011B
:1015D000811520E5920708F042C0811530E4930799
:1015E00008F0BDC0883E910528F5803E910508F0C1
:1015F0009DC0883A910588F4853A910508F08FC01E
:101600008130910509F492C0009709F48FC00497C6
:1016100008F08CC0D0E0C0E089C08F3B910508F491
:1016200089C0805C9109C03CD105A0F30E94D90A11
:10163000EC017CC08115904250F4C11581E0D807BF
:1016400008F074C0C03FD10528F3D0656FC0C11544
:1016500090E3D90708F079C0CE019F70E7CF8115DC
:1016600025E5920758F5811534E5930708F0A6C0E3
:10167000811542E5940750F4C11581E5D80708F4B7
:1016800071C0DC2FCC27C16FD06A50C0982F9695BF
:1016900096959E0123703327C115D34508F07FC06E
:1016A000C1E0D0E002C0CC0FDD1F2A95E2F720E2B6
:1016B000929FC0011124C82BD92B6FC0C11589E599
:1016C000D807A8F4C11598E5D90708F07CC0C11562
:1016D00026E5D20708F09ECF8C2F0E948D0CC82FD4
:1016E000D0E0DC2FCC27CC27DF71D0621FC0C11522
:1016F0003AE5D30708F46CC0CE01905681159042AC
:1017000008F088CF8D2F8F710E948D0C90E0982F5C
:10171000882788279F719C012C2BE901E6CFC55AA9
:10172000D0E0CC5BDE4FC881D0E0D064CE01DF9149
:10173000CF910895C85AD0E0CC0FDD1FCA5EDE4FAE
:101740000990D881C02DD464F1CFCE019927D3FF61
:1017500003C0EC01D86CEACFEC01D06CE7CFDF70AE
:10176000D06AE4CFCE01E4E096958795EA95E1F75B
:1017700083702C2F26952695237090E2299F900147
:101780001124382B8C2F8370C1E0D0E002C0CC0F25
:10179000DD1F8A95E2F7C22BD32BDC68C7CFC1E0EF
:1017A000D0E002C0CC0FDD1F2A95E2F730E2939F14
:1017B000C0011124C82BD92BDA68B8CFD82FCC2779
:1017C000C46FD06AB3CFDC2FCC27C06FD06AAECF46
:1017D0008C2F8F700E948D0C34E0D695C7953A956A
:1017E000E1F7CF709C2FEC01D069A0CF8238910532
:1017F000B1F1B0F48133910509F475C048F4893230
:10180000910509F469C08A32910509F473C00895FD
:101810008533910509F459C08933910501F1089583
:10182000833E9105A9F138F4803E9105F9F0823E9E
:10183000910549F10895863E9105A9F1873E9105EC
:10184000C9F1843E910519F52091BF0221FF1FC007
:101850008091BE0284FD14C087EE90E0089520912F
:10186000BE022370A1F080EE90E008952091BE02A8
:1018700020FD47C03091BF0230FF09C024FF44C0A3
:1018800090E080E004C02091BE0222FDF7CF0895D1
:101890002091BE0222FD3BC03091BF0230FDE3CF5C
:1018A00024FFF5CFEDCF2091BE0223FFF0CF24FD22
:1018B000E7CFD2CF2091BE0223FD2CC03091BF02D2
:1018C00031FFEECF84EE90E008952091BE0225FF17
:1018D000DECF89E290E008952091BE0225FFD7CFA8
:1018E00085E390E008952091BE0226FFD0CF8AE2E2
:1018F00090E008952091BE0226FFC9CF81E390E0D9
:10190000089589E390E0089583EE90E0089582EED3
:1019100090E0089586EE90E008959091BE0292FFC7
:1019200006C0282F28712830F9F4877F846093FF40
:1019300006C0282F28712831F1F4877E8461209118
:10194000BF0220FF06C0382F38713830D9F4877FA6
:10195000816021FF06C0282F28712831D1F4877EAD
:10196000816194FD877E0895282F24712430F9F633
:101970008B7F8860DCCF282F2471243101F78B7E88
:101980008861DDCF382F3171313019F78E7F886053
:10199000E0CF282F2171213121F78E7E8861E1CFA0
:1019A000E82FF0E0EE0FFF1FE255FD4F808191819F
:1019B0000895CF92DF92EF92FF920F931F93CF93F0
:1019C000DF938FE494E00E9430088EEAE82E82E0F4
:1019D000F82ED0E0C0E09AE4C92E94E0D92E01E4BC
:1019E00014E0DF93CF93DF92CF920E94C90887E47F
:1019F00094E00E943008F701819191917F010E944B
:101A0000D81F9F938F931F930F930E94C9088FE352
:101A100094E00E94300821968DB79EB708960FB6C5
:101A2000F8949EBF0FBE8DBFC630D105D1F6DF91B1
:101A3000CF911F910F91FF90EF90DF90CF9008957D
:101A400080EA8A95F1F70895A6E5B1E061E070E0DB
:101A50008D91E82FE295EF70F0E041A18F709B012E
:101A600001C0220F8A95EAF7922F9095942391A3B3
:101A700082A1822B82A381E0AC35B80749F7A7E4A5
:101A8000B1E061E070E08D91E82FE295EF70F0E059
:101A900041A18F709B0101C0220F8A95EAF7922F16
:101AA0009095942391A382A1822B82A381E0A635F5
:101AB000B80749F7E2EAF2E0AEEAB2E08EEA92E075
:101AC000119211921D921D928E179F07C9F786E001
:101AD0000E94F30D0C944B0A8F929F92AF92BF928B
:101AE000CF92DF92EF92FF920F931F93CF93DF93EA
:101AF00086E5E82E81E0F82E02EA12E0912CAA2475
:101B0000A394B12CF70181917F01C82FC295CF70AA
:101B1000D0E099A18F70650101C0CC0C8A95EAF7DD
:101B2000892F8C2989A38AA18C2C809488218AA34F
:101B30000E94200DE7E4F1E050E040E030E020E0DA
:101B40006191A62FA295AF70B0E090968C9190E035
:101B50006F7002C0959587956A95E2F780FD3EC04B
:101B6000C501042E02C0880F991F0A94E2F7282BA2
:101B7000392B4F5F5F4F4F30510511F789A18822F4
:101B800089A28AA1C82ACAA2F80180819181281756
:101B9000390739F13183208381E0982A0E5F1F4F86
:101BA000FCE5EF16F1E0FF0609F0ACCF292D46E089
:101BB0006EEA72E082EA92E00E94F40D0E94550AF9
:101BC000892DDF91CF911F910F91FF90EF90DF90C2
:101BD000CF90BF90AF909F908F90089590E080E05D
:101BE000C6CF80E0DACF0895FF920F931F93CF9373
:101BF000DF93F82E092F162FD72FC42F222349F059
:101C000081E08093B0010E94F2219093AF01809314
:101C1000AE018091B0018823A1F08091AE01909136
:101C2000AF010E940A22069760F0EF2DF02FA12F3E
:101C3000BD2F90E080E0D0E08C179D0744F010921B
:101C4000B001DF91CF911F910F91FF9008952191E5
:101C500031912D933D930196EFCF82E290E00E9467
:101C60002F33813289F483E290E00E942F33823156
:101C700059F484E290E00E942F3391E0873209F01A
:101C800090E0892F8170089580E0FCCFCF93C82F1A
:101C90006FEF811161E282E290E00E943D336FEFCD
:101CA000C11162E183E290E00E943D336FEFC11108
:101CB00067E284E290E0CF910C943D3380E00E9493
:101CC000460E0C94E51F089585E290E00E942F33A4
:101CD000682F70E090E080E0089585E290E00C9439
:101CE0003D330E94630E0E942D0E81110CC060E0F6
:101CF00070E0CB010E946D0E0E94C50F0E94B110D2
:101D000081E00C94460E0895CF93FB01C281CC2351
:101D100009F19C0122513F452031310520F58251C6
:101D20000E94C110C0E08C2FCF91089581E00E94E5
:101D3000841D43E062E081E00E94390AF3CF81E034
:101D40000E94A51D43E062E081E00E94390AEBCFCA
:101D500082E0F6CF8031FFE59F0789F381319F450F
:101D6000B9F3C1E0E0CF8031EFE59E07F9F28131B0
:101D70009F45C9F682E0DBCF2FEFFC012083089559
:101D8000EF92FF920F931F93CF93DF93EC01062FF7
:101D9000E881E150E33108F05EC0F0E0ED58FC4C22
:101DA0000C940E33198289E08A83602FCE01DF9173
:101DB000CF911F910F91FF90EF900C94BE2B8981D2
:101DC000823069F0833071F08130D9F40E94FE21B5
:101DD0000E9414336A837B838C839D83E6CF0E94A9
:101DE000640EF6CF7E0110E0812F0E94D00CF70127
:101DF000928383831F5FF2E0EF0EF11C1630A1F790
:101E0000D4CF602FCE010E94BC0ECFCF898182300B
:101E1000C1F76A817B818C819D810E9414330E946D
:101E20006D0EC3CF4B816A8189810E94970F9827DD
:101E3000892798279D838C83B8CF2C813D813227B9
:101E4000232732274B816A8189810E94B00FADCF51
:101E50000E94C50FAACF8FEF8883A7CF0E945A1088
:101E60008983A3CF0E945C109827892798279A839B
:101E700089839BCF6B8170E089819A81AE014C5F31
:101E80005F4F9827892798270E945F108ECF6B811C
:101E900070E089819A81AE014C5F5F4F9827892756
:101EA00098270E94861081CF0E94B1107ECF0E9499
:101EB000850FD6CF6B8170E089819A81AE014C5F2E
:101EC0005F4F9827892798270E94FD0F6ECF6B815F
:101ED00070E089819A81AE014C5F5F4F9827892716
:101EE00098270E94231061CF0E945E0E5ECF0E9451
:101EF000BE2B2FEF81EE94E0215080409040E1F71F
:101F000000C000000E943D2250CF84E0089550E0C0
:101F1000440F551F9EE1699F400D511D112494EB04
:101F2000899F400D511D1124CA01869608950F9373
:101F30001F93CF93DF930E94870F8C010E942F3352
:101F4000C82FD0E0DC2FCC27C80101960E942F3388
:101F50009E01282BC901DF91CF911F910F91089508
:101F60000F931F93CF93DF93122F032F0E94870F9E
:101F7000EC01602F0E943D33612FCE010196DF916D
:101F8000CF911F910F910C943D33AF92BF92CF929E
:101F9000DF92EF92FF921F93CF93DF938CEAC82ECC
:101FA00080E0D82ED0E07601C0E014C0F501259184
:101FB0003491412F6C2F8D2F0E94B00F82E0A80E1C
:101FC000B11C1F5F1F3091F78EE1E80EF11CCF5F4F
:101FD000C63019F0570110E0E9CFDF5F84EBC80E7F
:101FE000D11CD43001F7DF91CF911F91FF90EF907A
:101FF000DF90CF90BF90AF900895EF92FF920F9334
:102000001F93CF93DF93EC018A017C01E60EF71E4C
:10201000CE018696CE15DF0539F4DF91CF911F9161
:102020000F91FF90EF900895C03D22E0D20740F459
:102030000E942F33F80180830F5F1F4F2196E8CF56
:10204000F8011082F9CFCF92DF92EF92FF920F93B7
:102050001F93CF93DF937C016A018C01060F171F3A
:10206000EC01CE018696C017D10749F4DF91CF91DC
:102070001F910F91FF90EF90DF90CF900895C03D9A
:1020800022E0D20740F4FE01EE19FF09EC0DFD1D20
:1020900060810E943D332196E4CF462F843038F48E
:1020A000763028F46F3018F4672F0C94970F90E077
:1020B00080E0089580E108958AE091E00895EF922C
:1020C000FF920F931F93CF93DF93EC018A017C0162
:1020D000E60EF71ECE018A509D4FCE15DF0539F46E
:1020E000DF91CF911F910F91FF90EF900895CA302B
:1020F00021E0D20740F40E942F33F80180830F5F64
:102100001F4F2196E7CFF8011082F9CFCF92DF92CF
:10211000EF92FF920F931F93CF93DF937C016A019D
:102120008C01060F171FEC01CE018A509D4FC0177E
:10213000D10749F4DF91CF911F910F91FF90EF905C
:10214000DF90CF900895CA3021E0D20740F4FE011D
:10215000EE19FF09EC0DFD1D60810E943D332196B3
:10216000E3CFCF93DF93C6EFD2E060E0CE010E94D1
:102170003D332196C11584E0D807B9F7DF91CF919F
:102180000895DF92EF92FF920F931F93CF93DF9307
:1021900000D000D0CDB7DEB7F82E8FE08F1540F01D
:1021A0008FEF93E00E942F3306EF12E08823C1F0F7
:1021B0000F900F900F900F90DF91CF911F910F9183
:1021C000FF90EF90DF900895011584E0180781F3E8
:1021D000C8010E942F33811101C0FA940F5F1F4F75
:1021E000F110F2CF19821A821B821C82DD24D39453
:1021F00078018FEFE81AF80AC8010E942F3389830B
:102200001A828823A9F29FEF980F933078F48A837B
:10221000D9820E5F1F4FC7010E942F338B83882303
:1022200039F2CE0101960E94E209E2CF8701F9CF8F
:10223000AF92BF92CF92DF92EF92FF920F931F93D4
:10224000CF93DF937C015B01C42FD22FFC018281ED
:102250008823F9F04093B3010E94F2219093B201D8
:102260008093B10180E28C0F883008F061C0C770A4
:1022700081E001C0880FCA95EAF7DF91CF911F91E5
:102280000F91FF90EF90DF90CF90BF90AF900C94A4
:1022900007171091B301141340C08091B1019091C0
:1022A000B2010E940A226C01B701C5010E94FD1B08
:1022B000C816D90690F5C0E2CD0F1D17B9F080E21F
:1022C000810F883040F4177081E001C0880F1A95A3
:1022D000EAF70E940E17C83048F481E09D2F9770EE
:1022E00001C0880F9A95EAF70E940717802F0E9475
:1022F000EF16C830E8F4D77081E001C0880FDA9596
:10230000EAF7DF91CF911F910F91FF90EF90DF904F
:10231000CF90BF90AF900C940E1780E28C0F883056
:1023200038F4C77081E001C0880FCA95EAF7E9CF99
:10233000DF91CF911F910F91FF90EF90DF90CF90A1
:10234000BF90AF9008950F939C01CB01233F4CE5C4
:10235000340759F1A8F4283DFCE53F0701F1293D78
:102360004CE53407D1F1273D3C4591F406E221EEDE
:1023700041EE67ED7CE50E94181180E00F91089511
:10238000253FFCE53F07E9F0B0F0263F3C45F9F07A
:10239000FC018281882339F11092B301EFCF07E26B
:1023A00025EE45EE68ED7CE5E6CF06E221EE40EE57
:1023B00063EF7CE5E0CF07E225EE44EE64EF7CE5D9
:1023C000DACF06E221EE42EE65EF7CE5D4CF07E2FC
:1023D00025EE46EE66EF7CE5CECF08E221E045EE45
:1023E00069ED7CE5C8CF81E0C9CFCF93DF93EC01E5
:1023F000FB018281882309F419C1C230FCE5DF07A3
:10240000C0F1C6319CE5D90730F09E012A5F3C45FA
:102410002930310570F50E94FE1F9093BF02809312
:10242000BE02C031ECE5DE0709F4CFC008F05BC0A6
:10243000C8308CE5D80709F4B6C088F5C430ECE59F
:10244000DE0709F4A8C0C0F4C2308CE5D80709F44F
:102450009CC08091BE028260C330DC4509F498C004
:102460008091BE029091BF020E940C200E948719A9
:1024700080E0DF91CF9108958091BE028061C630E7
:10248000ECE5DE0709F484C08091BE028860C730A5
:10249000DC4508F47DC08091BE02806279C0CC30FA
:1024A0008CE5D80709F489C070F48091BE028C6075
:1024B000CA30ECE5DE0709F46BC008F478C08091FF
:1024C000BE028E7F65C0CE308CE5D80709F479C096
:1024D0008091BE028B7FCF30DC4508F459C08091DB
:1024E000BE028F7E55C0CB3FECE5DE0709F457C036
:1024F00030F5C3318CE5D80709F46FC078F4C131E9
:10250000ECE5DE0709F465C0C231DC4509F0A8CF6F
:102510000E9487198091BE028F773AC0C5318CE541
:10252000D80709F462C008F476C08091BF028160C8
:10253000CA3FDC4509F094CF8093BF0291CFCF3FD3
:10254000FCE5DF0709F44DC088F48091BF028D7F60
:10255000CD3F9CE5D90781F38091BF028E7FCE3FAE
:10256000DC4550F38091BF028360E6CFC130FDE5CA
:10257000DF0709F459C008F444C080E0C230DD45EB
:1025800009F06ECF0E948A206BCF8091BE028160DD
:102590008093BE0265CF8091BE028460F9CF8091A6
:1025A000BF028260C9CF8091BE028064F1CF0E94D9
:1025B00087198091BE028068EBCF8091BE028D7F2B
:1025C000E7CF8091BE02877FE3CF8091BE028F7DEF
:1025D000DFCF8091BE028F7BDBCF8091BE02837FF5
:1025E000D7CF8091BF028C7FA7CF8091BE0282FBA4
:1025F000992790F921E0922790FB82F990FB83F9CB
:10260000C7CF8091BF02982F909591708E7F892BB4
:1026100090FB81F991CF0E9487199091BE02892F7A
:1026200097FB87F98058B4CF81E0ACCF81E021CF10
:10263000CF93DF93EB0186319C4511F50E94091F72
:102640009A81992399F08A7A91E009F490E0909325
:10265000B401811109C089E20E94E41E0E94581F42
:1026600080E0DF91CF91089585E3F6CF8091B401AA
:10267000811104C089E20E94EB1EF0CF85E3FBCFFD
:1026800081E0EFCFCF93DF93EC0181E0898B8F81E5
:102690000E940C1F88850E941F1F0E94581FEA81FC
:1026A000FB81309739F06C897D89CE010696DF91E8
:1026B000CF910994DF91CF910895EF92FF920F93FC
:1026C0001F93CF93DF93EC018A85811134C0EB8097
:1026D000FC8087E5F81A26E12E9DC0012F9D900D04
:1026E0001124DC01A255BE4F1496ED91FC91159773
:1026F000309731F054966D917C918C549E4F099592
:1027000086E18E9D80018F9D100D112402551E4F74
:10271000F80187810E94121FF80180850E94251F01
:102720000E94581F188219861B861E821D821092D5
:10273000B6011092B501DF91CF911F910F91FF90DB
:10274000EF900895DF92EF92FF920F931F93CF9334
:10275000DF937C01FB018281882391F0809100014D
:102760008F3F71F0CEEAD1E010E000E0DD24D39499
:1027700080910001082E000C990B8017910744F4FA
:10278000DF91CF911F910F91FF90EF90DF9008950F
:102790008E818823C9F089859A858E159F0539F425
:1027A0008091B5019091B6018E159F0569F0DF8685
:1027B000FC86EB868989811103C0CE010E944213F9
:1027C000CE0106960E945D130F5F1F4F6696D0CF15
:1027D000EF92FF920F931F93CF93DF937C01975556
:1027E0008F3F910509F0D8F520910001022E000CD1
:1027F000330B2817390714F480930001FB01228161
:1028000036E1389F8001399F100D1124E801C2552F
:10281000DE4F288B92818E81992349F1FA86E986D1
:102820008F5F8E830E94F2219E878D870E943F1FBB
:102830008F830E94091F88870E941C1F9885892BFF
:102840008887E881F981309731F06C897D89C801EA
:102850008C549E4F0995F092B601E092B50181E04B
:10286000DF91CF911F910F91FF90EF9008958823F2
:10287000B1F38989882399F3C8018C549E4F0E9433
:102880005D13EDCFCF92DF92EF92FF920F931F93E4
:10289000CF93DF938091000110E006E18F3FF1F5C7
:1028A000DF91CF911F910F91FF90EF90DF90CF902C
:1028B00008950E9DF0010F9DF00D1124E255FE4F7D
:1028C000C288D388C114D10439F470E060E08185F6
:1028D00092850E94FD1B6C010E9DE0010F9DD00DA5
:1028E0001124C255DE4F8E818823B9F08D859E85D7
:1028F0000E940A22C816D90680F4109F7001112484
:102900008989811105C0C70182559E4F0E944213DB
:10291000C7018C549E4F0E945D131F5FE12EF12C66
:1029200080910001082E000C990B8E159F050CF666
:10293000B7CF9093BC018093BB010895E091BB0198
:10294000F091BC01309721F00190F081E02D0994C5
:1029500080E00895EF92FF920F931F93CF93DF9340
:10296000EC01E091BB01F091BC01309709F446C045
:1029700080911501882341F08091BE0287FF04C039
:102980008881898385E088830280F381E02DCE01F0
:10299000099580916C0282FF31C080FF04C08EE6F1
:1029A00094E00E94300810E000E088E6E82E84E021
:1029B000F82E80916C0280FF0EC0FE01E00FF11F27
:1029C00080811F928F93FF92EF920E94C9080F900F
:1029D0000F900F900F900F5F1F4F0830110549F7B0
:1029E00080916C0280FF0AC086E694E0DF91CF916F
:1029F0001F910F91FF90EF900C943008DF91CF91D1
:102A00001F910F91FF90EF900895E091BB01F0911D
:102A1000BC01309739F022E0DC012C930480F58171
:102A2000E02D099408952091B9013091BA01281739
:102A3000390771F09093BA018093B901E091BB011D
:102A4000F091BC01309721F00680F781E02D0994C8
:102A500008952091B7013091B8012817390771F016
:102A60009093B8018093B701E091BB01F091BC0154
:102A7000309721F00084F185E02D0994089585B701
:102A8000806885BF85B7806885BF089508950895DB
:102A90000C9446150E943F150E9447150C9448154A
:102AA00081E008950C9450150E94E9210E94240DA4
:102AB0000E94710E0E947A22EEEBF2E08081806823
:102AC00080838091BE029091BF020E940C200C94E2
:102AD000D808CF93C82F80916C0282FF1EC080FF60
:102AE0001CC087E894E00E94300880916C0280FF4F
:102AF00014C01F92CF9382E894E09F938F930E941B
:102B0000C90880916C020F900F900F900F9080FF7A
:102B100004C080E894E00E9430088C2FCF910C9480
:102B20005E0A9F92AF92BF92CF92DF92EF92FF9296
:102B30000F931F93CF93DF93CDB7DEB72A970FB6CE
:102B4000F894DEBF0FBECDBF0E946C0D0E945215DF
:102B5000882309F470C05EEBA52E51E0B52E10E07D
:102B600000E0902E802F0E94D00C6C01F501E190C6
:102B7000F1905F01E816F90609F457C080916C02E4
:102B800081FD0E94D90C97012C253D2580E0EE2483
:102B9000E394F12CA9014E215F21452B09F43FC09C
:102BA0008E839F82CE20DF2081E0CD2809F480E053
:102BB00088870E94F2218160782F9A8789874E81C9
:102BC0005F8168858A850E943E16000F111FF801FB
:102BD000E254FE4F80819181E826F926F182E0825D
:102BE0000E94A7240E949E149091BD018917A1F113
:102BF0000E949E148093BD012A960FB6F894DEBF02
:102C00000FBECDBFDF91CF911F910F91FF90EF903D
:102C1000DF90CF90BF90AF909F900C9469158F5F1D
:102C2000EE0CFF1C8F3009F0B5CF0F5F1F4F063041
:102C3000110509F096CF8FEF89838A831B820E944A
:102C4000F2218160782F9D838C8349815A816B8129
:102C50008D810E943E16C4CF2A960FB6F894DEBF2F
:102C60000FBECDBFDF91CF911F910F91FF90EF90DD
:102C7000DF90CF90BF90AF909F900895CF93DF9358
:102C8000CDB7DEB72B970FB6F894DEBF0FBECDBF22
:102C90004F83588769877A878B871E821D8285E0DC
:102CA000FE013796DE01119601900D928A95E1F7AB
:102CB00049815A816B817C818D819E812B960FB6D3
:102CC000F894DEBF0FBECDBFDF91CF910C94001CF6
:102CD000FC01808191810C94B61ECF93C82F88236C
:102CE00009F44CC08CEF8C0F813AC8F48C2F0E94F1
:102CF0007529811143C06C2F8091010190910201CF
:102D00000E94A320882329F08C2F0E94EB1E0E9492
:102D1000581F8C2F0E94E41ECF910C94581F80E204
:102D20008C0F883048F4C77081E001C0880FCA95C5
:102D3000EAF70E940C1FF0CFEBE5EC0FE33040F414
:102D4000F0E0E657FE4F808190E0CF910C94131590
:102D5000E8E5EC0FE73150F4F0E0EE0FFF1FE45A26
:102D6000FE4F80819181CF910C942915C03F30F0A6
:102D70008C2F0E941F23CF910C940A24CF91089589
:102D8000882361F19CEF980F913A20F40E94EB1E8A
:102D90000C94581F90E2980F983050F4877091E08F
:102DA00001C0990F8A95EAF7892F0E94121FF0CF70
:102DB0009BE5980F933020F490E080E00C9413157D
:102DC00098E5980F973120F490E080E00C94291555
:102DD000803F20F00E9487230C940A240895CF930B
:102DE000C82F0E946D16C93369F42FEF87EE93E068
:102DF000215080409040E1F700C000008C2FCF911F
:102E00000C94C0168FE39CE90197F1F7F5CF882366
:102E100021F00E940C1F0C94581F0895882321F064
:102E20000E94121F0C94581F0895BF92CF92DF92F8
:102E3000EF92FF920F931F93CF93DF936C01D62FE6
:102E4000C72FFC01058102950F70128111110E949C
:102E50002C1F0E94021FE82E882391F01123D1F02D
:102E60008C2F807F803421F080E28D0F883090F0AD
:102E700082E00E94A31F0E94021F91E0E82EE92633
:102E8000BC2EB2949FE0B922EB2DF0E0EA57FC4C47
:102E90000C940E33E12CF4CF0C2F0F70C07F11F087
:102EA0000295007F1123A9F0002359F080E28D0FD5
:102EB000883010F0D11109C0802F0E940C1F0E9491
:102EC000581F8D2F0E946D1614C0802F0E941F1F47
:102ED000F6CF8D2F0E94C016002359F080E28D0F8F
:102EE000883010F0D1112BC0802F0E94121F0E9439
:102EF000581FEB2DE850FF0B349720F40E949E14CE
:102F00000E945E0AEE2009F4A3C10E94FE1E80FD0D
:102F10009FC1F60112820E94F81E0E94841DC60104
:102F20000E9449190E94F81EDF91CF911F910F91C5
:102F3000FF90EF90DF90CF90BF900C94A51D802F55
:102F40000E94251FD4CFFC2FFF70FF2EC07FC03200
:102F500019F0F29480EFF822DD2369F0D13049F1C5
:102F6000112391F1002351F1F601858180FFA9CF52
:102F70008F70858323C0112381F0011106C00E9448
:102F80003F1F8F290E940717B4CF0130C1F70E945D
:102F90003F1F8F290E94451FACCF011106C00E9420
:102FA0004E1F8F2D0E940E17A4CF013009F4A1CF20
:102FB000F6CF112329F0063008F09BCF8F2DE2CFFA
:102FC000053008F096CFEDCF002359F3D93309F03F
:102FD00027C1FFEF27EE33E0F15020403040E1F70A
:102FE00000C000008D2F0E94C01683CF8C2F8695C5
:102FF0008695837069F0813009F07BCF8D2F9C2FEF
:103000009370111102C090E080E00E94291571CFE9
:103010008D2F9C2F9370111102C090E080E00E94D0
:10302000131567CF8D2F112329F00E941F230E94B3
:103030000A245FCF0E948723FACF8C2F837009F078
:1030400041C0111156CF4D2F429546954770440F00
:10305000440F0D2F0F7010E030E020E0042E04C06C
:10306000000F111F221F331F0A94D2F760E070E097
:10307000CB01D4FF0FC06FE070E080E090E004C0AF
:10308000660F771F881F991F4A95D2F76095709534
:1030900080959095C695C695C370602B712B822B39
:1030A000932BC23049F058F4C13019F00E94361DFC
:1030B00020CF0E94241D1DCF0E94481D1ACF0E94C0
:1030C000221D17CF8695112311F08C2F8170882334
:1030D00009F40FCF4D2F429546954770440F440F8A
:1030E0000D2F0F7010E030E020E0042E04C0000F20
:1030F000111F221F331F0A94D2F760E070E0CB014A
:10310000D4FF0FC06FE070E080E090E004C0660F75
:10311000771F881F991F4A95D2F760957095809503
:103120009095C695C695C370602B712B822B932BFF
:10313000C23049F058F4C13019F00E94FB1DD9CEBD
:103140000E94E91DD6CE0E940D1ED3CE0E945E1DA8
:10315000D0CECF70112329F08C2F0E94841D8D2F8B
:1031600011CF8D2F0E940E178C2F0E94A51DC1CE4E
:10317000D23F89F160F4D03FC9F0D13F29F111234A
:1031800009F442C001119DCE8C2F8F7121C0D33F15
:1031900039F1D43FA1F7112369F1CF718C2F0E942F
:1031A000841D63E08C2F0E948E1FA3CE112341F05B
:1031B000053008F09ECE8C2F8F710E94C81D99CECD
:1031C000063008F096CEF7CF8C2F8F71112369F25D
:1031D0000E94841D8ECE8C2F8F711123C9F3C5CF11
:1031E000112329F08C2F8F710E946F1D82CE0E94B7
:1031F0006A1D7FCE81E00E94A31F023008F479CEC1
:1032000082E00E94A31F75CE002379F0D93341F4E8
:103210009FEFE7EEF3E09150E040F040E1F7E0CEC1
:103220008FE39CE90197F1F7DBCE8C2F8F719DCF57
:103230004C2F4F706D2FC6010E94DB080E949A1C14
:1032400058CE4C2F4F706D2FC6010E94D80A51CE18
:10325000DF91CF911F910F91FF90EF90DF90CF9072
:10326000BF9008950F931F93CF93DF93EC01688174
:1032700079818A810E94C01E8C010E941F1E0E94BB
:10328000211DB801CE01DF91CF911F910F910C94B8
:103290001517CF93DF93EC018B819C81892B29F04B
:1032A0008881998189238F3F59F4DF91CF910895C7
:1032B000CE010E943219CE01DF91CF910C942309E7
:1032C000CE010E94760A8111F3CF0E94021F88234B
:1032D00061F38A81882349F382E0DF91CF910C94D6
:1032E000A31F0E942C1F0E943C1F0E94581F0E9477
:1032F000B3250E940A2490E080E00E94131590E01C
:1033000080E00C9429150E94F21E0C9471190E9401
:10331000191F0C948319E92FE295EF70E250EE30FB
:1033200070F4F0E0EA56FC4C0C940E33803F19F038
:1033300020F4883E20F481E00895843FE1F380E0AA
:103340000895883EC0F3813FD1F7F5CF93FB8827DE
:1033500080F908950E94B61E0C948B19CF93DF93C9
:1033600000D000D00F92CDB7DEB70F900F900F9026
:103370000F900F90DF91CF910895CF93DF9300D0FE
:1033800000D000D0CDB7DEB726960FB6F894DEBFDA
:103390000FBECDBFDF91CF9108951F93CF93DF93E1
:1033A000C091CB0116E08091CC018C1304C0DF9159
:1033B000CF911F910895D0E01C9FF0011D9FF00D4B
:1033C0001124E353FE4F40815181628173818481D6
:1033D00095810E94BD192196C770E5CF4091FD01EE
:1033E0005091FE016091FF017091000280910102F5
:1033F000909102020C94BD191F93CF93DF9380919B
:103400000202807FA9F48091FF01882389F08091D6
:10341000CB01C091CC016091FD017091FE01A091A2
:103420000002B0910102D62FD72316E0C81304C0C2
:10343000DF91CF911F91089590E0109711F0DF3F39
:1034400019F401968770F2CF189F9001199F300DE3
:103450001124F901E353FE4F41814713F2CF40811C
:103460004613EFCF42814111ECCF438154814A1B77
:103470005B0B483C510528F7809102028F708061F8
:1034800080930202F901EE52FE4F80818F708061BD
:1034900080838DEF91E00E944919DF91CF911F91B8
:1034A0000C94CD19AF92BF92CF92DF92EF92FF9220
:1034B0000F931F93CF93DF93CDB7DEB761970FB60E
:1034C000F894DEBF0FBECDBF8C0185E0F801DE01B0
:1034D0001D9601900D928A95E1F7F8014081518186
:1034E000E2808DEFC82E81E0D82E609100027091AD
:1034F00001026115710509F461C19091FD012091EE
:10350000FE01892F82238F3F09F458C1A380B48024
:10351000F090FF01F501E61BF70BFF2009F4FCC05A
:1035200080910202382F307FE83CF10508F0B2C0EC
:10353000311179C0FE2C251323C0941321C0E11052
:103540001FC08F708061809302020E94EE19C60135
:103550000E94491980910202F80185838F2D61969E
:103560000FB6F894DEBF0FBECDBFDF91CF911F9194
:103570000F91FF90EF90DF90CF90BF90AF900895A4
:10358000AB2829F0842F85238F3F09F033C180E0D9
:10359000F82FF170DF2E80FF3CC08091CB0120918D
:1035A000CC0136E0821315C04D875E878D859E85E0
:1035B0000E94B61E292F22952F702230F0F0243061
:1035C00018F59F70F1F0F8019581907FD1F4D12C1E
:1035D0001EC090E0389FF001399FF00D1124E35395
:1035E000FE4F6181651306C06081641303C0628170
:1035F0006E110FC001968770D5CF9F7011F0882390
:1036000031F3805E883018F3C8010E944919FD2CFF
:10361000A5CFEE2009F4A2CF8091020281608093B1
:103620000202F12C9BCF251306C0941304C0F801AD
:10363000EE2009F48DC04D875E878D859E850E94A2
:10364000AA19882319F1EE2009F180910202803233
:1036500070F02091FD013091FE0138872F8319868B
:10366000BB86AA868C87CE0107960E94491986E000
:10367000F801ADEFB1E001900D928A95E1F70E945B
:10368000FC190E94EE19FF24F39468CFC8010E9430
:103690004919F9CF311113C07A2DB98AA88A6E2D34
:1036A00089890E94AE198DEF91E00E94491986E048
:1036B000F60111928A95E9F70E94EE19B2CF25130F
:1036C0000FC094130DC0E1100BC0F8018583C80131
:1036D0000E94491986E0F60111928A95E9F73ECFDA
:1036E0004D875E878D859E850E94AA19882371F279
:1036F000EE2061F280910202803208F4B8CF20916E
:10370000FD013091FE013A8329831B82BD82AC8288
:103710008E83CE010196A9CFE83CF10508F041C0A7
:10372000FE2CEE2009F4B2CF25132AC0941328C032
:103730008091020280FD1BC0982F907FC1F0F8019C
:103740008583903F31F0982F907F905F8F70892B09
:103750008583C8010E94491986E0F801ADEFB1E008
:1037600001900D928A95E1F70E94EE19F7CE86E05E
:10377000F801ADEFB1E001900D928A95E1F7EECE40
:103780004D875E878D859E850E94AA1981116FCF16
:1037900080910202816080930202C8010E9449194F
:1037A000DDCE7A2DB98AA88A6E2D89890E94AE193C
:1037B00086E0F60111928A95E9F7D6CFEE2009F45A
:1037C00065CF4D875E878D859E850E94AA19F82E4C
:1037D000882309F45BCF86E0F801ADEFB1E00190FA
:1037E0000D928A95E1F78DEF91E00E9468160E9494
:1037F000FC19BACF81E08E25CBCE88EC90E00895FD
:103800001F93CF93DF93CDB7DEB72C970FB6F89405
:10381000DEBF0FBECDBF4F83588769877A878B87FE
:103820009C87CE0107960E94521A882369F08A85E8
:103830009B85892B39F04F815885842F85238F3FB5
:1038400009F071C016E05FC086E0FE013796DE0128
:10385000119601900D928A95E1F78A859B85892BB7
:1038600089F38F81988589238F3F61F32091CC0163
:1038700030E0C9010196877099274091CB01481724
:10388000190671F40E9487191092CC011092CB0195
:1038900086E0EDEFF1E0DF011D928A95E9F7D2CFE6
:1038A00096E0929FD001939FB00D1124A353BE4F79
:1038B000FE01319601900D929A95E1F78093CC012B
:1038C0000E94CD19BFCF819FC001112483539E4F09
:1038D0000E94521A8823E9F0E091CB011E9FF0016B
:1038E0001124E353FE4F40815181628173818481B1
:1038F00095810E94BD198091CB0190E0019687705F
:1039000099278093CB018091CB019091CC018913B1
:10391000DACF2C960FB6F894DEBF0FBECDBFDF9185
:10392000CF911F91089569857A858B859C850E942A
:10393000BD1988CFEF92FF920F931F93CF93DF9320
:103940008C01892B81F0F12CEE24E394E80121967F
:10395000F8018491843770F4843008F05FC08130BE
:10396000B1F08230A1F1DF91CF911F910F91FF90C3
:10397000EF900895853709F44CC008F43DC09CE7EA
:10398000980F903780F78F770E94C01649C00E5F5E
:103990001F4FFE01849190E2980F983060F4877079
:1039A000FE2D01C0FF0F8A95EAF78F2F0E942F1F6F
:1039B0000E94581F02C00E946D168F2D815030F258
:1039C000EFE9FFE03197F1F700C00000F7CF0E5F9D
:1039D0001F4FFE01849190E2980F983050F4877049
:1039E000FE2D01C0FF0F8A95EAF78F2F0E94351F29
:1039F000DFCF0E94C016E1CF0E5F1F4FFE01C491C2
:103A0000C150D8F28FE99FE00197F1F700C00000A4
:103A1000F7CF0E5F1F4FFE01F490CFCF0E946D16BF
:103A20008E01CBCF08950C94121D0E94131D60933C
:103A300043027093440280934502909346020C9493
:103A4000711908950C94151D0F931F930091430253
:103A5000109144022091450230914602602B712B57
:103A6000822B932B1F910F910C94151D0F931F9375
:103A70000091430210914402209145023091460288
:103A800060237123822393231F910F910C94151DA2
:103A90000F931F930091430210914402209145021D
:103AA0003091460260277127822793271F910F913B
:103AB0000C94151D0C94121D0C945A1D0E945C1D33
:103AC00060933F02709340028093410290934202C0
:103AD0000C94711960E070E0CB010C945E1D0F93A3
:103AE0001F9341E050E060E070E08A019B0104C058
:103AF000000F111F221F331F8A95D2F7C901B80189
:103B00001F910F910C945E1D0F931F9341E050E0A5
:103B100060E070E004C0440F551F661F771F8A9550
:103B2000D2F780913F0290914002A0914102B09162
:103B300042028A019B01082B192B2A2B3B2BC9011E
:103B4000B8011F910F910C945E1D0F931F9341E0DC
:103B500050E060E070E004C0440F551F661F771FFF
:103B60008A95D2F7CB01BA016095709580959095B2
:103B700000913F0210914002209141023091420297
:103B800060237123822393231F910F910C945E1D58
:103B90000F931F9341E050E060E070E004C0440FD9
:103BA000551F661F771F8A95D2F780913F0290912B
:103BB0004002A0914102B09142028A019B01082774
:103BC00019272A273B27C901B8011F910F910C948F
:103BD0005E1D0F931F9300913F02109140022091B0
:103BE000410230914202602B712B822B932B1F914B
:103BF0000F910C945E1D0F931F9300913F02109143
:103C000040022091410230914202602371238223BD
:103C100093231F910F910C945E1D0F931F9300919E
:103C20003F021091400220914102309142026027F0
:103C30007127822793271F910F910C945E1D089581
:103C40002FE0929F800D1124982F977041E001C0C2
:103C5000440F9A95EAF786958695869595E0899F13
:103C6000F0011124ED5FFD4F90E080E070E0519194
:103C7000DF0111979B01082E02C0369527950A9403
:103C8000E2F7217021952527242325272C930196DF
:103C90008530910561F708952FE0929F800D1124E2
:103CA000982F977086958695869525E0829FF001DE
:103CB0001124ED5FFD4F50E040E080E0219130E0C5
:103CC000092E02C0369527950A94E2F72170332712
:103CD000042E01C0220F0A94EAF7822B4F5F5F4F38
:103CE0004530510559F70895BF92CF92DF92EF9278
:103CF000FF920F931F93CF93DF938C01C0903F02ED
:103D0000D0904002E0904102F09042028091430244
:103D100090914402A0914502B0914602C82AD92A46
:103D2000EA2AFB2ACFE1D0E0BC2ED701C6010C2E37
:103D300004C0B695A795979587950A94D2F780FD0C
:103D40000EC0219788F7B12C8B2DDF91CF911F9159
:103D50000F91FF90EF90DF90CF90BF900895B80142
:103D60008C2F0E94E10A019761F3EECFCF93DF938E
:103D7000EC010E94741EBE01DF91CF910C94E10A08
:103D80001F93CF93DF93EB019091CA01992331F0F8
:103D9000CB01DF91CF911F910C94B61E882379F04F
:103DA000CB010E94741E182F682FCE010E94201E86
:103DB000BE01812FDF91CF911F910C94E10ACB01BD
:103DC0000E944C1E182FF4CF682F80910101909112
:103DD00002010C944521682F80910101909102010C
:103DE0000C94502180910101909102010C945B216F
:103DF0008091470285958595859508958091470224
:103E00008770089590914702977081E009F480E0EF
:103E1000089580916B02089590916B02892B809395
:103E20006B020895809590916B02982390936B029A
:103E3000089510926B02089580916A0208959091FE
:103E40006A02892B80936A020895809590916A0294
:103E5000982390936A02089510926A0208959091AF
:103E60006902892B80936902089580959091690277
:103E700098239093690208951092690208958091A1
:103E80004802089508950C94421F90914802981793
:103E900021F0809348020C94431F089580914802BA
:103EA000882329F01092480280E00C94431F089563
:103EB000E0910101F091020180916B028083E09119
:103EC0000101F0910201808190916A02892B808327
:103ED000E0910101F0910201808190916902892BAA
:103EE000808390914802992381F0E0910101F09143
:103EF00002018081892B80838091010190910201D0
:103F00000E948F2081110E944E1F8091010190918B
:103F100002010C94AA1408950C948B1F98E0899FB9
:103F200090011124622B609347020E94841D8091AE
:103F300047028595859585950C948C1F10924702B4
:103F400080E00C948C1F9091470280958923809388
:103F50004702282F277071F4282F082E000C330BEE
:103F60009217130639F08595859585950E94A51DB4
:103F70000C949E1F08959093AD018093AC01089519
:103F8000829590E09C01220F331F220F331F2C7C5F
:103F900095958795959587958373282B30E0C90172
:103FA000880F991F8A7A359527952575822B089554
:103FB000CF93DF93D92F0E94C01FC82F8D2F0E944F
:103FC000C01F9C2FDF91CF9108956FEF7FEF90E09E
:103FD00080E00C945B3390E080E00E94373321E076
:103FE0008C3E9E4F09F020E0822F089582E090E001
:103FF0000C942F3383E090E00C942F33CF9384E024
:1040000090E00E942F33C82F81E290E00E942F336E
:10401000982F8C2FCF910895CF93C92F682F84E0CC
:1040200090E00E943D336C2F81E290E0CF910C94A0
:104030003D33AB01BC018FE090E00C944F33AB01FA
:10404000BC0183E190E00C944F3360E070E0CB0161
:104050000C941F2060E070E0CB010E9419200C94AA
:1040600025206CEE7EEF90E080E00E945B3360E004
:1040700082E090E00E943D3360E083E090E00E94A7
:104080003D33109243021092440210924502109266
:10409000460260E084E090E00E943D3360E081E20F
:1040A00090E00E943D3360E085E090E00E943D3367
:1040B00060E086E090E00E943D336FEF87E090E0A3
:1040C0000E943D3340E050E0BA0188E090E00E9459
:1040D0004F3360E08DE090E00E943D3340E050E0DF
:1040E000BA0188E190E00E944F3360E087E190E000
:1040F0000E943D3340E050E0BA018CE190E00E9424
:104100004F3360E080E290E00E943D330C942A201F
:104110000C943120682F8EE090E00C943D33FC012C
:10412000329680911501882321F08091BE029EE194
:1041300087FF96E080E0915008F4089521912223B2
:10414000D1F38F5FF8CF662301F12091150122236F
:10415000F1F02091BE0227FF1AC0462F46954695E2
:1041600046954E3190F4677021E030E002C0220F96
:10417000331F6A95E2F7840F911DFC01828190E064
:104180002823392381E0232B69F480E00895FC0182
:10419000329608962191261721F0E817F907D1F7F2
:1041A000F4CF81E008959C01FC0132969FEF80E0FE
:1041B0004191461751F09F3F19F4411101C0982FCA
:1041C0008F5F8630A9F79F3F09F40895290F311DAD
:1041D00097FD3A95F90162830895FC01329608969D
:1041E0002191261303C0DF0111971C92E817F907EC
:1041F000B9F70895E62FE695E695E695EE3170F469
:10420000E80FF92FF11D677021E030E001C0220FA7
:104210006A95EAF78281822B8283089580916C02ED
:1042200080FF0CC01F926F9388EB94E09F938F9355
:104230000E94C9080F900F900F900F900895E62FDD
:10424000E695E695E695EE3178F4E80FF92FF11D45
:10425000677021E030E001C0220F6A95EAF72095EF
:10426000828128232283089580916C0280FF0CC0F4
:104270001F926F938AE994E09F938F930E94C908DD
:104280000F900F900F900F90089520911501222309
:1042900029F02091BE0227FD0C94FA200C94D32023
:1042A00020911501222329F02091BE0227FD0C94B4
:1042B0001F210C94ED20FC0132968091150188237A
:1042C00051F08091BE0287FF06C08EE1DF011D9292
:1042D0008A95E9F7089586E0F9CF089508950C943A
:1042E0006E210E946F218091C402843049F11092A6
:1042F0006D0288E190E020E40FB6F894A8958093D1
:1043000060000FBE2093600080E00E945E0A0E9461
:104310006F2183B7817F846083BF83B7816083BF50
:104320007894889583B78E7F83BF0FB6F894A8954D
:1043300080916000886180936000109260000FBEE1
:1043400008950895CF930E946D210E946C0D0E94E4
:10435000A121C0E08C2F0E94D00C892B31F4CF5FBB
:10436000C630C1F780E0CF91089581E0FCCF089579
:104370000C94B7210E9487190E949E140E945E0A25
:104380000C94B8211F921FB61F9211248F939F93F4
:10439000AF93BF9380916D02811113C08091BA02D7
:1043A0009091BB02A091BC02B091BD024196A11DAB
:1043B000B11D8093BA029093BB02A093BC02B0934C
:1043C000BD02BF91AF919F918F911F901FBE1F9013
:1043D000189582E084BD93E095BD9AEF97BD8093D8
:1043E0006E0008952FB7F8948091BA029091BB02A5
:1043F000A091BC02B091BD022FBF08952FB7F894D1
:104400006091BA027091BB028091BC029091BD0292
:104410002FBF08959C014FB7F8948091BA029091F4
:10442000BB02A091BC02B091BD024FBF821B930B97
:10443000089578941F921FB61F9211248F939F9313
:10444000AF93BF938091BA029091BB02A091BC023E
:10445000B091BD020196A11DB11D8093BA02909347
:10446000BB02A093BC02B093BD02BF91AF919F91DC
:104470008F911F901FBE1F90189581E08093E000E0
:1044800080E28093D8001092C9008FE19EE40197EA
:10449000F1F700C0000087E090EBDC018093CD02D3
:1044A0009093CE02A093CF02B093D00288E19CE01B
:1044B0000FB6F894A895809360000FBE90936000AB
:1044C000FFCF0C945E0E0E946C0D2FEF86E791E0FB
:1044D000215080409040E1F700C000000E946C0D28
:1044E00080E00E94D00C80FF04C00E9461220C94E6
:1044F0003D2208950E94EB1F811102C00E94882076
:104500000E94F61F80936C020E94FE1F9093BF02D0
:104510008093BE020E94FA1F682F70E090E080E056
:104520000E94221D60913F027091400280914102E1
:10453000909142020C945C1D8091740280FF12C025
:104540006091080185E0689FB00111247595679519
:104550007595679560387105A8F561157105A1F12C
:10456000862F089581FF09C06091080185E0689F4A
:10457000B001112475956795EDCF6091080182FD1A
:104580000AC0809173028823D1F090910701609155
:104590000801891728F085E0689FB0011124DACF5F
:1045A000869FB001112485E0869F9001879F300D82
:1045B0001124692F70E0C9010E94FA32CBCF65E067
:1045C00070E0CECF8FE7089581E008958091740266
:1045D00080FF0CC06091040170E07595679575953A
:1045E00067956115710549F1862F089581FF06C011
:1045F0006091040170E075956795F3CF60910401B7
:1046000082FD0BC0909172029923A1F06091030189
:1046100080910401961738F0682F70E060387105BA
:1046200000F38FE70895899FC001112470E00E9474
:10463000FA32F4CF61E070E0D7CF81E00895803F97
:1046400031F40E949C228195809378020895813FE5
:1046500019F40E949C22F8CF823F31F40E949C22E0
:104660008195809377020895833F19F40E949C22DC
:10467000F8CF893F29F40E94E622809379020895B9
:104680008A3F21F40E94E6228195F7CF8B3F31F4D7
:104690000E94E622819580937A0208958C3F19F456
:1046A0000E94E622F8CF843F31F480917602816047
:1046B000809376020895853F21F48091760282608E
:1046C000F7CF863F21F4809176028460F1CF873F57
:1046D00021F4809176028860EBCF883F21F48091AD
:1046E00076028061E5CF8D3F31F480917402816064
:1046F0008093740208958E3F21F480917402826049
:10470000F7CF8F3FB9F7809174028460F1CF909119
:104710007702803F59F48091780287FF0DC0109294
:10472000780291110BC01092730208C0813F81F48E
:104730008091780218169CF3992381F08091790278
:1047400090917A02892B09F064C010927202089548
:10475000823F49F497FFF0CF109277028091780260
:104760008111ECCFE0CF833F19F41916ACF3E4CFFD
:1047700020917902893F29F41216F4F610927902F9
:10478000DBCF8A3F19F427FFD7CFF8CF20917A02E9
:104790008B3F29F427FFD0CF10927A02CDCF8C3FE8
:1047A00019F41216CCF3C8CF843F31F4809176020D
:1047B0008E7F80937602C0CF853F21F48091760270
:1047C0008D7FF7CF863F21F4809176028B7FF1CFEA
:1047D000873F21F480917602877FEBCF883F21F4D9
:1047E000809176028F7EE5CF8D3F31F48091740207
:1047F0008E7F80937402A0CF8E3F21F4809174024B
:104800008D7FF7CF8F3F09F097CF809174028B7F18
:10481000F0CF089580916C0283FF7EC08DEF94E00D
:104820000E943008809176021F928F9388EF94E067
:104830009F938F930E94C90886EF94E00E943008EE
:1048400080917702282F082E000C330B3F938F9313
:1048500083EF94E09F938F930E94C90881EF94E0C7
:104860000E94300880917802282F082E000C330B0C
:104870003F938F938EEE94E09F938F930E94C9088D
:104880008CEE94E00E94300880917902282F082E47
:10489000000C330B3F938F9389EE94E09F938F939B
:1048A0000E94C90887EE94E00E94300880917A0245
:1048B000282F082E000C330B3F938F9384EE94E047
:1048C0009F938F930E94C90881EE94E00E94300864
:1048D000809173021F928F938EED94E09F938F933C
:1048E0000E94C9088CED94E00E9430088091740207
:1048F0001F928F9389ED94E09F938F930E94C90834
:1049000086ED94E00E9430088DB79EB74C960FB6A6
:10491000F8949EBF0FBE8DBF0E94F2219C01909122
:10492000770280917802982B21F0309371022093C6
:1049300070029091790280917A02982B21F0309345
:104940006F0220936E0285E792E00C940515EF92BA
:10495000FF920F931F93CF93DF9300D000D000D02E
:10496000CDB7DEB786E0E5E7F2E0DE011196019013
:104970000D928A95E1F7E0907702F090780200912D
:10498000790210917A0210927702109278021092B6
:10499000790210927A028E2D8F2991F08091700207
:1049A000909171020E940A22AC01909173029923A6
:1049B00009F43FC0809109018417150608F447C027
:1049C000802F812B91F080916E0290916F020E9456
:1049D0000A22AC0190917202992309F477C0809168
:1049E00005018417150608F47FC080917702909125
:1049F0007802892B90917902892B90917A02892BE8
:104A000011F00E940A2486E0FE013196A5E7B2E08B
:104A100001900D928A95E1F726960FB6F894DEBFC5
:104A20000FBECDBFDF91CF911F910F91FF90EF90FF
:104A3000089520910A018AE0289F900111242417EB
:104A4000350708F0BDCF9F5F9093730202C09F3F70
:104A5000D1F7EE2059F00E949C229FEF1E140CF417
:104A600091E0899F802D112480937702FF2059F0D7
:104A70000E949C229FEF1F140CF491E0899F802DCF
:104A800011248093780230917702332309F498CF70
:104A900020917802222309F493CF45EB3403C0011F
:104AA0001124992359F09093770245EB2403900148
:104AB0001124332339F03093780282CF81E0809340
:104AC0007702F3CF81E0809378027ACF20910601BC
:104AD0008AE0289F900111242417350708F085CF1C
:104AE0009F5F9093720202C09F3FD1F7002359F05D
:104AF0000E94E6229FEF10160CF491E0899F802D12
:104B0000112480937902112359F00E94E6229FEF2D
:104B100011160CF491E0899F802D112480937A0264
:104B200030917902332309F460CF20917A02222355
:104B300009F45BCF45EB3403C0011124992359F0EC
:104B40009093790245EB240390011124332339F02B
:104B500030937A024ACF81E080937902F3CF81E0EB
:104B600080937A0242CF86E0E5E7F2E0DF011D9212
:104B70008A95E9F7109273021092720210927402F1
:104B8000089580E297E00E9430081F9281E08F93A1
:104B90001F9285E08F9382ED96E09F938F930E9402
:104BA000C9080F900F900F900F900F900F900895DD
:104BB000833009F445C028F4813061F0823049F136
:104BC0000895853009F46AC008F451C0863009F4AC
:104BD0007CC0089580910A01482F460F5527551F24
:104BE0004F3F510594F4680F60930A0180910A01C8
:104BF0001F928F938BE096E09F938F930E94C9083A
:104C00000F900F900F900F9008958FEF80930A01EF
:104C1000EDCF80910901482F460F5527551F4F3F73
:104C2000510554F4680F60930901809109011F92A6
:104C30008F9389EF95E0E0CF8FEF80930901F5CF57
:104C400080910801482F460F5527551F4F3F5105AA
:104C500054F4680F60930801809108011F928F93AC
:104C600086EE95E0C9CF8FEF80930801F5CF809154
:104C70000701482F460F5527551F4F3F510554F444
:104C8000680F60930701809107011F928F9381ED58
:104C900095E0B2CF8FEF80930701F5CF80910401AB
:104CA000482F460F5527551F4F3F510554F4680FA5
:104CB00060930401809104011F928F9388EB95E02B
:104CC0009BCF8FEF80930401F5CF80910301482F94
:104CD000460F5527551F4F3F510554F4680F6093F9
:104CE0000301809103011F928F938DE995E084CF9A
:104CF0008FEF80930301F5CF8330C9F128F4813021
:104D000061F0823019F10895853009F452C008F439
:104D10003FC0863009F45EC0089580910A0168178B
:104D200090F4861B80930A0180910A011F928F9351
:104D30008EE895E09F938F930E94C9080F900F9083
:104D40000F900F90089510920A01EECF8091090103
:104D5000681750F4861B80930901809109011F9206
:104D60008F938CE795E0E6CF10920901F6CF809102
:104D70000801681750F4861B809308018091080190
:104D80001F928F9389E695E0D5CF10920801F6CF58
:104D900080910701681750F4861B8093070180916A
:104DA00007011F928F9384E595E0C4CF109207010D
:104DB000F6CF80910401681750F4861B809304019C
:104DC000809104011F928F938BE395E0B3CF1092F3
:104DD0000401F6CF80910301681750F4861B80937D
:104DE0000301809103011F928F9380E295E0A2CF8F
:104DF00010920301F6CFCF93C82F1F928F9385E2B5
:104E000098E09F938F930E94C90861E070E080E072
:104E100090E004C0660F771F881F991FCA95D2F7CC
:104E20000E94221D0F900F900F900F90CF910C9425
:104E30008719CF93DF93EBEFE80FEF3308F040C211
:104E4000F0E0EC55FC4C0C940E338CE89DE00E9495
:104E5000300888EC9CE00E9430080E94FA1F1F92E4
:104E60008F9385EC9CE09F938F930E94C90883ECFD
:104E70009CE00E9430080E94F61FC82F80EB9CE047
:104E80000E9430081F92CF938BEA9CE09F938F93F0
:104E90000E94C90889EA9CE00E9430088FE99CE0E2
:104EA0000E9430088C2F81701F928F938CE99CE0B8
:104EB0009F938F930E94C9088AE99CE00E94300862
:104EC00080E99CE00E943008C1FB882780F91F928E
:104ED0008F938DE89CE09F938F930E94C9088BE885
:104EE0009CE00E9430088FE79CE00E943008C2FBE3
:104EF000882780F91F928F938CE79CE09F938F9374
:104F00000E94C9088AE79CE00E94300881E79CE083
:104F10000E943008C3FBCC27C0F91F92CF938EE6C6
:104F20009CE09F938F930E94C9088CE69CE00E94AE
:104F300030080E94FE1FEC0188E59CE00E943008CA
:104F4000DF93CF9383E59CE09F938F930E94C908E2
:104F500081E59CE00E94300888E39CE00E943008D4
:104F60008C2F81701F928F9385E39CE09F938F938A
:104F70000E94C9088DB79EB780960FB6F8949EBF61
:104F80000FBE8DBF83E39CE00E9430088CE19CE063
:104F90000E943008C1FB882780F91F928F9389E116
:104FA0009CE09F938F930E94C90887E19CE00E9438
:104FB000300885E09CE00E9430088D2F81701F92A0
:104FC0008F9382E09CE09F938F930E94C90880E0BA
:104FD0009CE00E9430088EEE9BE00E943008D6953F
:104FE000D1701F92DF938BEE9BE09F938F930E9473
:104FF000C90889EE9BE00E94300887ED9BE00E9483
:105000003008C2FB882780F91F928F9384ED9BE0C4
:105010009F938F930E94C90882ED9BE00E94300805
:1050200080EC9BE00E943008C3FB882780F91F9228
:105030008F938DEB9BE09F938F930E94C9088BEB1E
:105040009BE00E94300881EB9BE00E943008C4FB8B
:10505000882780F91F928F938EEA9BE09F938F930E
:105060000E94C9088CEA9BE00E9430088AE99BE014
:105070000E943008C5FB882780F91F928F9387E92B
:105080009BE09F938F930E94C90885E99BE00E9453
:10509000300889E79BE00E943008C6FB882780F92A
:1050A0001F928F9386E79BE09F938F930E94C9087E
:1050B0008DB79EB780960FB6F8949EBF0FBE8DBF7A
:1050C00084E79BE00E9430088CE69BE00E94300859
:1050D000C7FBCC27C0F91F92CF9389E69BE09F9333
:1050E0008F930E94C90887E69BE00E9430080F90CA
:1050F0000F900F900F9081E01CC08BE79DE00E9405
:1051000030080E948820F7CF85EB99E00E94300894
:10511000F2CF80916C02807F80936C028EE899E0E0
:105120000E94300887E79DE00E94300881E080936C
:105130007C02DF91CF9108958BE59DE00E943008BD
:105140000E94670AD8CF90916C02892F8E7F90FFC2
:10515000816080936C0280FF03C08FE49DE0D6CF16
:1051600082E49DE00E94300880916C02817F8093F0
:105170006C02C1CF90916C02892F8D7F91FF82606C
:1051800080936C0281FF08C085E39DE00E94300897
:1051900080916C028160EBCF87E29DE0B7CF909168
:1051A0006C02892F8B7F92FF846080936C0282FF58
:1051B00003C088E19DE0EACF88E09DE0A7CF909111
:1051C0006C02892F877F93FF886080936C0283FF36
:1051D00003C08CEF9CE0DACF8FEE9CE097CF8FE797
:1051E00099E00E9430088BE499E00E94300881E148
:1051F00099E00E94300886ED98E00E9430088BEA22
:1052000098E084CF8DE998E00E9430080E949E14B7
:105210001F928F9383E898E09F938F930E94C90811
:10522000809115011F928F938CE698E09F938F9346
:105230000E94C9088091A1021F928F9389E598E08E
:105240009F938F930E94C9088091BE0287FB882795
:1052500080F91F928F9381E498E09F938F930E942F
:10526000C9080E94FE219F938F937F936F938AE2D8
:1052700098E09F938F930E94C9088DB79EB746967A
:105280000FB6F8949EBF0FBE8DBF35CF0E94871911
:105290009091BE02892F97FB87F980588093BE02B8
:1052A00087FF03C085EE9CE031CF8AED9CE02ECFD6
:1052B00080E00E94FB261FCF8953FBCF8D51F9CF91
:1052C00088ED9CE00E94300880E033CF80E00895B4
:1052D0000C9466298E518A3030F4E82FF0E0E357C1
:1052E000FE4F8081089580E00895CF93C82F80916C
:1052F0007C028130D9F0882339F0823009F44DC026
:1053000010927C0280E010C0E0910101F091020156
:1053100080818232B9F78C2F0E94662981111EC0CC
:105320008C2F0E9419278170CF910895E09101017F
:10533000F09102018081823271F38C2F0E946829E2
:1053400081111BC0C431D9F060F4CB3071F0C03191
:10535000D1F08BE198E00E94300813C081E090E02A
:10536000E2CFC93261F0C833A1F78EE899E00E941C
:10537000300881E298E00E94300881E0D4CF10929A
:105380007C0280E0D0CF0E94C1258DE198E00E9490
:10539000300882E080937C02F0CFC432C8F4CE3172
:1053A00008F0BEC0CB30E1F040F4C73009F4CCC007
:1053B0008FEB96E00E94300826C0C331C1F1C431A2
:1053C000B9F780917B02882351F110927B020AC0C9
:1053D000CB3409F4B7C0C8F4C93299F3C83341F7E4
:1053E0000E94C12580917B02882309F4C4C01F92CA
:1053F0008F9389EB96E09F938F930E94C9080F903B
:105400000F900F900F9081E08FCFC13509F494C0B9
:10541000C23509F48BC0CE3459F66AE08EC08EECEA
:1054200096E00E94300881E080937C027DCF88EA7C
:1054300096E00E94300886E996E00E94300880914C
:105440000A011F928F9383E996E09F938F930E94A6
:10545000C90881E996E00E9430088FE796E00E9433
:105460003008809109011F928F938CE796E09F93FB
:105470008F930E94C9088AE796E00E9430088BE665
:1054800096E00E943008809108011F928F9388E671
:1054900096E09F938F930E94C90886E696E00E944B
:1054A000300885E596E00E943008809107011F9240
:1054B0008F9382E596E09F938F930E94C90880E5C1
:1054C00096E00E9430088BE396E00E9430088091BD
:1054D00004011F928F9388E396E09F938F930E941D
:1054E000C90886E396E00E9430088FE196E00E94AA
:1054F0003008809103011F928F938CE196E09F9377
:105500008F930E94C9088AE196E00E9430088DB707
:105510009EB748960FB6F8949EBF0FBE8DBF62CF60
:105520008C2F0E946A2980937B025CCF61E080917E
:105530007B020E94D82556CF61E080917B020E94B9
:105540007C2650CF6AE0F3CF8EE180930A0182E39C
:10555000809309018AE08093080184E18093070128
:1055600088E08093040188E28093030181EC96E057
:105570000E94300837CF86EB96E01CCF8091A002C6
:1055800008959FB7F89410927F029FBF9091C40234
:10559000943009F048C02091E9002F703091EC0060
:1055A000932F917030FD90E8922B25E02093E90035
:1055B0002091EB0020FF34C02091EE0027FF30C087
:1055C00020917D02222321F02091E80025FF28C0B0
:1055D00010927D0226E03091E80035FF14C08093E0
:1055E000F1008091E80085FD27C08091E80080FFF0
:1055F000FCCF8091E8008E778093E8009F709093B5
:10560000E90080E008953091C402343049F43091CB
:10561000EB0035FD05C0215041F481E080937D020F
:105620009F709093E9008FEF0895EFE9FFE03197C5
:10563000F1F700C00000CFCF8FB7F89421E020939E
:105640007F028FBFDBCFCF93DF9300D00F92CDB718
:10565000DEB79091C402943011F589837B836A830D
:105660009093E9008FEF9091E800815095FD06C07E
:1056700095ED9A95F1F700008111F5CF8091E80042
:1056800085FF0DC050E040E063E070E0CE01019680
:105690000E940F2E8091E8008E778093E8000F9093
:1056A0000F900F90DF91CF910895BC0184E00C948E
:1056B000232BBC0183E00C94232B9C0184E080937A
:1056C000E9009FEF8091E800915085FD06C085EDCF
:1056D0008A95F1F700009111F5CF8091E80085FFE0
:1056E0000CC050E040E066E070E0C9010E940F2E5F
:1056F0008091E8008E778093E8000895CF93DF9340
:10570000EC01809115018823B1F18091BE0287FFE1
:1057100032C060E284E08093E9008FEF9091E8006E
:10572000815095FD06C095ED9A95F1F70000811125
:10573000F5CF8091E80085FF1BC08091150170E0D6
:1057400050E040E0811104C050E040E068E070E0CB
:10575000CE010E940F2E8091E8008E778093E800A2
:1057600080E2FE01A0E8B2E001900D928A95E1F797
:10577000DF91CF91089568E081E0CDCFCF93FC0118
:10578000603221F58091C402843001F5C091E900B6
:10579000CF702091EC00922F917020FD90E8C92BE2
:1057A00082E08093E9008091E80080FF0CC050E027
:1057B00040E060E270E0CF010E940F2E8091E8008F
:1057C0008E778093E800CF70C093E900CF91089561
:1057D0008CEB9DE00E9430088091C302811109C0CA
:1057E0000E94EE2F0E944B308091E20084608093F3
:1057F000E200089588EB9DE00E9430081092C302F9
:10580000089584EB9DE00C94300880EB9DE00C94AF
:1058100030088CEA9DE00E9430080C94BA21209157
:105820007E022F5F822F62E30E94EE32992319F0ED
:1058300020937E02089510927E0280917F02882339
:10584000F1F08091C4028430C1F49091E9009F701E
:105850002091EC00822F817020FD80E8892B95E05B
:105860009093E9009091EB0090FF04C09091EE00BE
:1058700097FD08C08F708093E90010927F02089511
:105880001092F1009091E80095FDFACF9091E80018
:1058900090FFF0CF9091E8009E779093E800EACFD8
:1058A00042E061EC81E00E946A2F42E261EC84E018
:1058B0000E946A2F42E261EC82E00E946A2F42E27B
:1058C00060EC83E00E946A2F42E261EC85E00C9478
:1058D0006A2F8091C602833009F461C030F48130B0
:1058E000D1F1823009F49DC008958A3009F489C04D
:1058F0008B3009F46FC0893009F050C08091C50227
:10590000813209F04BC08091C9029091CA02009780
:1059100019F0029709F042C08091E800877F8093D8
:10592000E8008091E80082FF35C09091F3008091FB
:10593000F200029729F48091F1008B7F813021F4ED
:105940008091F1008093A0028091E8008B77809392
:10595000E8000C949E2F8091C502813AF9F4809161
:10596000E800877F8093E8008091C9029091CA0285
:10597000892B61F460E280E892E070E00E94AD2E35
:105980008091E8008B778093E800089560E090E0D4
:1059900080E0F3CF8091C4028111C3CF089580913C
:1059A000C502813AD9F78091C9029091CA02892B28
:1059B000A9F78091E800877F8093E8008091E80054
:1059C00080FFFCCF809115018093F1008091E80069
:1059D0008E77BDCF8091C502813201F78091C902D7
:1059E0009091CA02892BD1F68091E800877F80933D
:1059F000E8000E949E2F8091C702809315010C94AD
:105A000087198091C502813249F68091E800877F2D
:105A10008093E8000E949E2F8091C8028093A1028B
:105A200008958091C502813A09F0B8CF8091E800CD
:105A3000877F8093E8008091E80080FFFCCF809111
:105A4000A102C2CFCDB7DEB7A0970FB6F894DEBFE4
:105A50000FBECDBF84B7877F84BF0FB6F894A895DB
:105A600080916000886180936000109260000FBE9A
:105A700080E890E00FB6F894809361009093610005
:105A80000FBE0E944A150E94EE2F0E944B3080915B
:105A9000E20084608093E20081EC9AE20E94BB1FE6
:105AA00078940E94D3320E9454158BE091E00E94BA
:105AB00099148BE99DE00E94300813E08091C402A4
:105AC000853039F10E9491158091C4028430B1F77C
:105AD0001093E9008091E80082FFF0CF8091E80008
